{"contracts/RecallToken.sol":{"RecallToken":{"abi":[{"inputs":[{"internalType":"string","name":"uri","type":"string"}],"stateMutability":"nonpayable","type":"constructor"},{"anonymous":false,"inputs":[{"indexed":true,"internalType":"address","name":"account","type":"address"},{"indexed":true,"internalType":"address","name":"operator","type":"address"},{"indexed":false,"internalType":"bool","name":"approved","type":"bool"}],"name":"ApprovalForAll","type":"event"},{"anonymous":false,"inputs":[{"indexed":true,"internalType":"address","name":"_announcer","type":"address"},{"indexed":false,"internalType":"uint256","name":"_tokenId","type":"uint256"}],"name":"DefectAnnounced","type":"event"},{"anonymous":false,"inputs":[{"indexed":true,"internalType":"address","name":"_announcer","type":"address"},{"indexed":false,"internalType":"uint256[]","name":"_tokenIds","type":"uint256[]"}],"name":"ForwardRecall","type":"event"},{"anonymous":false,"inputs":[{"indexed":true,"internalType":"address","name":"previousOwner","type":"address"},{"indexed":true,"internalType":"address","name":"newOwner","type":"address"}],"name":"OwnershipTransferred","type":"event"},{"anonymous":false,"inputs":[{"indexed":true,"internalType":"address","name":"_announcer","type":"address"},{"indexed":false,"internalType":"uint256","name":"_tokenId","type":"uint256"},{"indexed":false,"internalType":"enum RecallToken.TokenCheckingState","name":"_resultState","type":"uint8"}],"name":"TokenChecked","type":"event"},{"anonymous":false,"inputs":[{"indexed":true,"internalType":"address","name":"operator","type":"address"},{"indexed":true,"internalType":"address","name":"from","type":"address"},{"indexed":true,"internalType":"address","name":"to","type":"address"},{"indexed":false,"internalType":"uint256[]","name":"ids","type":"uint256[]"},{"indexed":false,"internalType":"uint256[]","name":"values","type":"uint256[]"}],"name":"TransferBatch","type":"event"},{"anonymous":false,"inputs":[{"indexed":true,"internalType":"address","name":"operator","type":"address"},{"indexed":true,"internalType":"address","name":"from","type":"address"},{"indexed":true,"internalType":"address","name":"to","type":"address"},{"indexed":false,"internalType":"uint256","name":"id","type":"uint256"},{"indexed":false,"internalType":"uint256","name":"value","type":"uint256"}],"name":"TransferSingle","type":"event"},{"anonymous":false,"inputs":[{"indexed":false,"internalType":"string","name":"value","type":"string"},{"indexed":true,"internalType":"uint256","name":"id","type":"uint256"}],"name":"URI","type":"event"},{"inputs":[{"internalType":"uint256","name":"_tokenId","type":"uint256"}],"name":"announceDefect","outputs":[],"stateMutability":"nonpayable","type":"function"},{"inputs":[{"internalType":"address","name":"account","type":"address"},{"internalType":"uint256","name":"id","type":"uint256"}],"name":"balanceOf","outputs":[{"internalType":"uint256","name":"","type":"uint256"}],"stateMutability":"view","type":"function"},{"inputs":[{"internalType":"address[]","name":"accounts","type":"address[]"},{"internalType":"uint256[]","name":"ids","type":"uint256[]"}],"name":"balanceOfBatch","outputs":[{"internalType":"uint256[]","name":"","type":"uint256[]"}],"stateMutability":"view","type":"function"},{"inputs":[{"internalType":"address","name":"_receiver","type":"address"},{"internalType":"uint256[]","name":"_tokenIds","type":"uint256[]"},{"internalType":"uint256[]","name":"_amounts","type":"uint256[]"},{"internalType":"bytes","name":"data","type":"bytes"},{"internalType":"bool","name":"_internal","type":"bool"}],"name":"batchTransferRecallToken","outputs":[],"stateMutability":"nonpayable","type":"function"},{"inputs":[{"internalType":"uint256","name":"_tokenId","type":"uint256"},{"internalType":"enum RecallToken.TokenCheckingState","name":"_tokenCheckingState","type":"uint8"}],"name":"checkToken","outputs":[],"stateMutability":"nonpayable","type":"function"},{"inputs":[{"internalType":"uint256[]","name":"_tokenIds","type":"uint256[]"}],"name":"forwardRecall","outputs":[],"stateMutability":"nonpayable","type":"function"},{"inputs":[{"internalType":"uint256","name":"","type":"uint256"}],"name":"inProduction","outputs":[{"internalType":"bool","name":"","type":"bool"}],"stateMutability":"view","type":"function"},{"inputs":[{"internalType":"address","name":"account","type":"address"},{"internalType":"address","name":"operator","type":"address"}],"name":"isApprovedForAll","outputs":[{"internalType":"bool","name":"","type":"bool"}],"stateMutability":"view","type":"function"},{"inputs":[{"internalType":"address","name":"to","type":"address"},{"internalType":"uint256","name":"id","type":"uint256"},{"internalType":"uint256","name":"amount","type":"uint256"},{"internalType":"bytes","name":"data","type":"bytes"}],"name":"mint","outputs":[],"stateMutability":"nonpayable","type":"function"},{"inputs":[{"internalType":"address","name":"to","type":"address"},{"internalType":"uint256[]","name":"ids","type":"uint256[]"},{"internalType":"uint256[]","name":"amounts","type":"uint256[]"},{"internalType":"bytes","name":"data","type":"bytes"}],"name":"mintBatch","outputs":[],"stateMutability":"nonpayable","type":"function"},{"inputs":[],"name":"owner","outputs":[{"internalType":"address","name":"","type":"address"}],"stateMutability":"view","type":"function"},{"inputs":[],"name":"renounceOwnership","outputs":[],"stateMutability":"nonpayable","type":"function"},{"inputs":[{"internalType":"address","name":"from","type":"address"},{"internalType":"address","name":"to","type":"address"},{"internalType":"uint256[]","name":"ids","type":"uint256[]"},{"internalType":"uint256[]","name":"amounts","type":"uint256[]"},{"internalType":"bytes","name":"data","type":"bytes"}],"name":"safeBatchTransferFrom","outputs":[],"stateMutability":"nonpayable","type":"function"},{"inputs":[{"internalType":"address","name":"from","type":"address"},{"internalType":"address","name":"to","type":"address"},{"internalType":"uint256","name":"id","type":"uint256"},{"internalType":"uint256","name":"amount","type":"uint256"},{"internalType":"bytes","name":"data","type":"bytes"}],"name":"safeTransferFrom","outputs":[],"stateMutability":"nonpayable","type":"function"},{"inputs":[{"internalType":"address","name":"operator","type":"address"},{"internalType":"bool","name":"approved","type":"bool"}],"name":"setApprovalForAll","outputs":[],"stateMutability":"nonpayable","type":"function"},{"inputs":[{"internalType":"bytes4","name":"interfaceId","type":"bytes4"}],"name":"supportsInterface","outputs":[{"internalType":"bool","name":"","type":"bool"}],"stateMutability":"view","type":"function"},{"inputs":[{"internalType":"uint256","name":"","type":"uint256"}],"name":"tokenCheckingStates","outputs":[{"internalType":"enum RecallToken.TokenCheckingState","name":"","type":"uint8"}],"stateMutability":"view","type":"function"},{"inputs":[{"internalType":"uint256","name":"","type":"uint256"}],"name":"tokenStates","outputs":[{"internalType":"enum RecallToken.TokenState","name":"","type":"uint8"}],"stateMutability":"view","type":"function"},{"inputs":[{"internalType":"address","name":"newOwner","type":"address"}],"name":"transferOwnership","outputs":[],"stateMutability":"nonpayable","type":"function"},{"inputs":[{"internalType":"address","name":"_receiver","type":"address"},{"internalType":"uint256","name":"_tokenId","type":"uint256"},{"internalType":"uint256","name":"amount","type":"uint256"},{"internalType":"bytes","name":"data","type":"bytes"},{"internalType":"bool","name":"_internal","type":"bool"}],"name":"transferRecallToken","outputs":[],"stateMutability":"nonpayable","type":"function"},{"inputs":[{"internalType":"uint256","name":"","type":"uint256"}],"name":"uri","outputs":[{"internalType":"string","name":"","type":"string"}],"stateMutability":"view","type":"function"}],"evm":{"bytecode":{"linkReferences":{},"object":"60806040523480156200001157600080fd5b50604051620043ce380380620043ce8339818101604052810190620000379190620002e7565b8062000049816200007160201b60201c565b506200006a6200005e6200008660201b60201c565b6200008e60201b60201c565b506200066a565b806002908162000082919062000583565b5050565b600033905090565b6000600360009054906101000a900473ffffffffffffffffffffffffffffffffffffffff16905081600360006101000a81548173ffffffffffffffffffffffffffffffffffffffff021916908373ffffffffffffffffffffffffffffffffffffffff1602179055508173ffffffffffffffffffffffffffffffffffffffff168173ffffffffffffffffffffffffffffffffffffffff167f8be0079c531659141344cd1fd0a4f28419497f9722a3daafe3b4186f6b6457e060405160405180910390a35050565b6000604051905090565b600080fd5b600080fd5b600080fd5b600080fd5b6000601f19601f8301169050919050565b7f4e487b7100000000000000000000000000000000000000000000000000000000600052604160045260246000fd5b620001bd8262000172565b810181811067ffffffffffffffff82111715620001df57620001de62000183565b5b80604052505050565b6000620001f462000154565b9050620002028282620001b2565b919050565b600067ffffffffffffffff82111562000225576200022462000183565b5b620002308262000172565b9050602081019050919050565b60005b838110156200025d57808201518184015260208101905062000240565b60008484015250505050565b6000620002806200027a8462000207565b620001e8565b9050828152602081018484840111156200029f576200029e6200016d565b5b620002ac8482856200023d565b509392505050565b600082601f830112620002cc57620002cb62000168565b5b8151620002de84826020860162000269565b91505092915050565b6000602082840312156200030057620002ff6200015e565b5b600082015167ffffffffffffffff81111562000321576200032062000163565b5b6200032f84828501620002b4565b91505092915050565b600081519050919050565b7f4e487b7100000000000000000000000000000000000000000000000000000000600052602260045260246000fd5b600060028204905060018216806200038b57607f821691505b602082108103620003a157620003a062000343565b5b50919050565b60008190508160005260206000209050919050565b60006020601f8301049050919050565b600082821b905092915050565b6000600883026200040b7fffffffffffffffffffffffffffffffffffffffffffffffffffffffffffffffff82620003cc565b620004178683620003cc565b95508019841693508086168417925050509392505050565b6000819050919050565b6000819050919050565b6000620004646200045e62000458846200042f565b62000439565b6200042f565b9050919050565b6000819050919050565b620004808362000443565b620004986200048f826200046b565b848454620003d9565b825550505050565b600090565b620004af620004a0565b620004bc81848462000475565b505050565b5b81811015620004e457620004d8600082620004a5565b600181019050620004c2565b5050565b601f8211156200053357620004fd81620003a7565b6200050884620003bc565b8101602085101562000518578190505b620005306200052785620003bc565b830182620004c1565b50505b505050565b600082821c905092915050565b6000620005586000198460080262000538565b1980831691505092915050565b600062000573838362000545565b9150826002028217905092915050565b6200058e8262000338565b67ffffffffffffffff811115620005aa57620005a962000183565b5b620005b6825462000372565b620005c3828285620004e8565b600060209050601f831160018114620005fb5760008415620005e6578287015190505b620005f2858262000565565b86555062000662565b601f1984166200060b86620003a7565b60005b8281101562000635578489015182556001820191506020850194506020810190506200060e565b8683101562000655578489015162000651601f89168262000545565b8355505b6001600288020188555050505b505050505050565b613d54806200067a6000396000f3fe608060405234801561001057600080fd5b50600436106101365760003560e01c8063731133e9116100b8578063aa9f3eca1161007c578063aa9f3eca14610347578063ab58874814610377578063e985e9c514610393578063f242432a146103c3578063f2fde38b146103df578063f3498223146103fb57610136565b8063731133e9146102a55780638da5cb5b146102c157806395dbe2db146102df578063a22cb4651461030f578063a76fe7191461032b57610136565b80632eb2c2d6116100ff5780632eb2c2d614610217578063432f4113146102335780634e1273f41461024f57806369c7ca521461027f578063715018a61461029b57610136565b8062fdd58e1461013b57806301ffc9a71461016b5780630e89341c1461019b5780631ae82590146101cb5780631f7fdffa146101fb575b600080fd5b6101556004803603810190610150919061248c565b610417565b60405161016291906124db565b60405180910390f35b6101856004803603810190610180919061254e565b6104df565b6040516101929190612596565b60405180910390f35b6101b560048036038101906101b091906125b1565b6105c1565b6040516101c2919061266e565b60405180910390f35b6101e560048036038101906101e091906125b1565b610655565b6040516101f29190612707565b60405180910390f35b6102156004803603810190610210919061291f565b610675565b005b610231600480360381019061022c91906129da565b61068f565b005b61024d600480360381019061024891906125b1565b610730565b005b61026960048036038101906102649190612b6c565b610988565b6040516102769190612ca2565b60405180910390f35b61029960048036038101906102949190612d4b565b610aa1565b005b6102a3610c97565b005b6102bf60048036038101906102ba9190612e23565b610cab565b005b6102c9610cc5565b6040516102d69190612eb5565b60405180910390f35b6102f960048036038101906102f491906125b1565b610cef565b6040516103069190612596565b60405180910390f35b61032960048036038101906103249190612ed0565b610d0f565b005b61034560048036038101906103409190612f35565b610d25565b005b610361600480360381019061035c91906125b1565b610f27565b60405161036e9190612fbd565b60405180910390f35b610391600480360381019061038c9190612fd8565b610f47565b005b6103ad60048036038101906103a89190613025565b611012565b6040516103ba9190612596565b60405180910390f35b6103dd60048036038101906103d89190613065565b6110a6565b005b6103f960048036038101906103f491906130fc565b611147565b005b61041560048036038101906104109190613129565b6111ca565b005b60008073ffffffffffffffffffffffffffffffffffffffff168373ffffffffffffffffffffffffffffffffffffffff1603610487576040517f08c379a000000000000000000000000000000000000000000000000000000000815260040161047e90613232565b60405180910390fd5b60008083815260200190815260200160002060008473ffffffffffffffffffffffffffffffffffffffff1673ffffffffffffffffffffffffffffffffffffffff16815260200190815260200160002054905092915050565b60007fd9b67a26000000000000000000000000000000000000000000000000000000007bffffffffffffffffffffffffffffffffffffffffffffffffffffffff1916827bffffffffffffffffffffffffffffffffffffffffffffffffffffffff191614806105aa57507f0e89341c000000000000000000000000000000000000000000000000000000007bffffffffffffffffffffffffffffffffffffffffffffffffffffffff1916827bffffffffffffffffffffffffffffffffffffffffffffffffffffffff1916145b806105ba57506105b9826112cf565b5b9050919050565b6060600280546105d090613281565b80601f01602080910402602001604051908101604052809291908181526020018280546105fc90613281565b80156106495780601f1061061e57610100808354040283529160200191610649565b820191906000526020600020905b81548152906001019060200180831161062c57829003601f168201915b50505050509050919050565b60066020528060005260406000206000915054906101000a900460ff1681565b61067d611339565b610689848484846113b7565b50505050565b6106976115e3565b73ffffffffffffffffffffffffffffffffffffffff168573ffffffffffffffffffffffffffffffffffffffff1614806106dd57506106dc856106d76115e3565b611012565b5b61071c576040517f08c379a000000000000000000000000000000000000000000000000000000000815260040161071390613324565b60405180910390fd5b61072985858585856115eb565b5050505050565b3373ffffffffffffffffffffffffffffffffffffffff167f8610b7b5acdeec4d9229259544302ae0e252928822763a75adb58b66ba1f2d888260405161077691906124db565b60405180910390a260008060005b60048054905081101561082157600481815481106107a5576107a4613344565b5b9060005260206000200160009054906101000a900473ffffffffffffffffffffffffffffffffffffffff1673ffffffffffffffffffffffffffffffffffffffff163373ffffffffffffffffffffffffffffffffffffffff160361080e5760019250809150610821565b8080610819906133a2565b915050610784565b50811561086b5760026007600085815260200190815260200160002060006101000a81548160ff0219169083600281111561085f5761085e612690565b5b02179055505050610985565b60016007600085815260200190815260200160002060006101000a81548160ff021916908360028111156108a2576108a1612690565b5b021790555060005b60048054905081101561098157600160056000600484815481106108d1576108d0613344565b5b9060005260206000200160009054906101000a900473ffffffffffffffffffffffffffffffffffffffff1673ffffffffffffffffffffffffffffffffffffffff1673ffffffffffffffffffffffffffffffffffffffff168152602001908152602001600020600086815260200190815260200160002060006101000a81548160ff0219169083600381111561096957610968612690565b5b02179055508080610979906133a2565b9150506108aa565b5050505b50565b606081518351146109ce576040517f08c379a00000000000000000000000000000000000000000000000000000000081526004016109c59061345c565b60405180910390fd5b6000835167ffffffffffffffff8111156109eb576109ea612727565b5b604051908082528060200260200182016040528015610a195781602001602082028036833780820191505090505b50905060005b8451811015610a9657610a66858281518110610a3e57610a3d613344565b5b6020026020010151858381518110610a5957610a58613344565b5b6020026020010151610417565b828281518110610a7957610a78613344565b5b60200260200101818152505080610a8f906133a2565b9050610a1f565b508091505092915050565b60005b86869050811015610bfe5760086000888884818110610ac657610ac5613344565b5b90506020020135815260200190815260200160002060009054906101000a900460ff168015610af25750815b15610b5b576004889080600181540180825580915050600190039060005260206000200160009091909190916101000a81548173ffffffffffffffffffffffffffffffffffffffff021916908373ffffffffffffffffffffffffffffffffffffffff1602179055505b81158015610ba0575060086000888884818110610b7b57610b7a613344565b5b90506020020135815260200190815260200160002060009054906101000a900460ff16155b15610beb57600060086000898985818110610bbe57610bbd613344565b5b90506020020135815260200190815260200160002060006101000a81548160ff0219169083151502179055505b8080610bf6906133a2565b915050610aa4565b50610c8e3388888880806020026020016040519081016040528093929190818152602001838360200280828437600081840152601f19601f82011690508083019250505050505050878780806020026020016040519081016040528093929190818152602001838360200280828437600081840152601f19601f820116905080830192505050505050508661068f565b50505050505050565b610c9f611339565b610ca9600061190c565b565b610cb3611339565b610cbf848484846119d2565b50505050565b6000600360009054906101000a900473ffffffffffffffffffffffffffffffffffffffff16905090565b60086020528060005260406000206000915054906101000a900460ff1681565b610d21610d1a6115e3565b8383611b82565b5050565b6000805b600480549050811015610dc35760048181548110610d4a57610d49613344565b5b9060005260206000200160009054906101000a900473ffffffffffffffffffffffffffffffffffffffff1673ffffffffffffffffffffffffffffffffffffffff163373ffffffffffffffffffffffffffffffffffffffff1603610db05760019150610dc3565b8080610dbb906133a2565b915050610d29565b506001151581151514610e0b576040517f08c379a0000000000000000000000000000000000000000000000000000000008152600401610e02906134c8565b60405180910390fd5b6000805b600480549050811015610ea85760048181548110610e3057610e2f613344565b5b9060005260206000200160009054906101000a900473ffffffffffffffffffffffffffffffffffffffff1673ffffffffffffffffffffffffffffffffffffffff163373ffffffffffffffffffffffffffffffffffffffff1603610e9557809150610ea8565b8080610ea0906133a2565b915050610e0f565b5082600560003373ffffffffffffffffffffffffffffffffffffffff1673ffffffffffffffffffffffffffffffffffffffff168152602001908152602001600020600086815260200190815260200160002060006101000a81548160ff02191690836003811115610f1c57610f1b612690565b5b021790555050505050565b60076020528060005260406000206000915054906101000a900460ff1681565b3373ffffffffffffffffffffffffffffffffffffffff167f3d3735b6b82dc6dbc33760218a1dc3a6cf77780e1774c8cd7d74dec8da518aa08383604051610f8f929190613552565b60405180910390a260005b8282905081101561100d57600260076000858585818110610fbe57610fbd613344565b5b90506020020135815260200190815260200160002060006101000a81548160ff02191690836002811115610ff557610ff4612690565b5b02179055508080611005906133a2565b915050610f9a565b505050565b6000600160008473ffffffffffffffffffffffffffffffffffffffff1673ffffffffffffffffffffffffffffffffffffffff16815260200190815260200160002060008373ffffffffffffffffffffffffffffffffffffffff1673ffffffffffffffffffffffffffffffffffffffff16815260200190815260200160002060009054906101000a900460ff16905092915050565b6110ae6115e3565b73ffffffffffffffffffffffffffffffffffffffff168573ffffffffffffffffffffffffffffffffffffffff1614806110f457506110f3856110ee6115e3565b611012565b5b611133576040517f08c379a000000000000000000000000000000000000000000000000000000000815260040161112a90613324565b60405180910390fd5b6111408585858585611cee565b5050505050565b61114f611339565b600073ffffffffffffffffffffffffffffffffffffffff168173ffffffffffffffffffffffffffffffffffffffff16036111be576040517f08c379a00000000000000000000000000000000000000000000000000000000081526004016111b5906135e8565b60405180910390fd5b6111c78161190c565b50565b6008600085815260200190815260200160002060009054906101000a900460ff1680156111f45750805b1561125d576004859080600181540180825580915050600190039060005260206000200160009091909190916101000a81548173ffffffffffffffffffffffffffffffffffffffff021916908373ffffffffffffffffffffffffffffffffffffffff1602179055505b8015801561128957506008600085815260200190815260200160002060009054906101000a900460ff16155b156112bb5760006008600086815260200190815260200160002060006101000a81548160ff0219169083151502179055505b6112c833868686866110a6565b5050505050565b60007f01ffc9a7000000000000000000000000000000000000000000000000000000007bffffffffffffffffffffffffffffffffffffffffffffffffffffffff1916827bffffffffffffffffffffffffffffffffffffffffffffffffffffffff1916149050919050565b6113416115e3565b73ffffffffffffffffffffffffffffffffffffffff1661135f610cc5565b73ffffffffffffffffffffffffffffffffffffffff16146113b5576040517f08c379a00000000000000000000000000000000000000000000000000000000081526004016113ac90613654565b60405180910390fd5b565b600073ffffffffffffffffffffffffffffffffffffffff168473ffffffffffffffffffffffffffffffffffffffff1603611426576040517f08c379a000000000000000000000000000000000000000000000000000000000815260040161141d906136e6565b60405180910390fd5b815183511461146a576040517f08c379a000000000000000000000000000000000000000000000000000000000815260040161146190613778565b60405180910390fd5b60006114746115e3565b905061148581600087878787611f89565b60005b845181101561153e578381815181106114a4576114a3613344565b5b60200260200101516000808784815181106114c2576114c1613344565b5b6020026020010151815260200190815260200160002060008873ffffffffffffffffffffffffffffffffffffffff1673ffffffffffffffffffffffffffffffffffffffff16815260200190815260200160002060008282546115249190613798565b925050819055508080611536906133a2565b915050611488565b508473ffffffffffffffffffffffffffffffffffffffff16600073ffffffffffffffffffffffffffffffffffffffff168273ffffffffffffffffffffffffffffffffffffffff167f4a39dc06d4c0dbc64b70af90fd698a233a518aa5d07e595d983b8c0526c8f7fb87876040516115b69291906137cc565b60405180910390a46115cd81600087878787611f91565b6115dc81600087878787611f99565b5050505050565b600033905090565b815183511461162f576040517f08c379a000000000000000000000000000000000000000000000000000000000815260040161162690613778565b60405180910390fd5b600073ffffffffffffffffffffffffffffffffffffffff168473ffffffffffffffffffffffffffffffffffffffff160361169e576040517f08c379a000000000000000000000000000000000000000000000000000000000815260040161169590613875565b60405180910390fd5b60006116a86115e3565b90506116b8818787878787611f89565b60005b84518110156118695760008582815181106116d9576116d8613344565b5b6020026020010151905060008583815181106116f8576116f7613344565b5b60200260200101519050600080600084815260200190815260200160002060008b73ffffffffffffffffffffffffffffffffffffffff1673ffffffffffffffffffffffffffffffffffffffff16815260200190815260200160002054905081811015611799576040517f08c379a000000000000000000000000000000000000000000000000000000000815260040161179090613907565b60405180910390fd5b81810360008085815260200190815260200160002060008c73ffffffffffffffffffffffffffffffffffffffff1673ffffffffffffffffffffffffffffffffffffffff168152602001908152602001600020819055508160008085815260200190815260200160002060008b73ffffffffffffffffffffffffffffffffffffffff1673ffffffffffffffffffffffffffffffffffffffff168152602001908152602001600020600082825461184e9190613798565b9250508190555050505080611862906133a2565b90506116bb565b508473ffffffffffffffffffffffffffffffffffffffff168673ffffffffffffffffffffffffffffffffffffffff168273ffffffffffffffffffffffffffffffffffffffff167f4a39dc06d4c0dbc64b70af90fd698a233a518aa5d07e595d983b8c0526c8f7fb87876040516118e09291906137cc565b60405180910390a46118f6818787878787611f91565b611904818787878787611f99565b505050505050565b6000600360009054906101000a900473ffffffffffffffffffffffffffffffffffffffff16905081600360006101000a81548173ffffffffffffffffffffffffffffffffffffffff021916908373ffffffffffffffffffffffffffffffffffffffff1602179055508173ffffffffffffffffffffffffffffffffffffffff168173ffffffffffffffffffffffffffffffffffffffff167f8be0079c531659141344cd1fd0a4f28419497f9722a3daafe3b4186f6b6457e060405160405180910390a35050565b600073ffffffffffffffffffffffffffffffffffffffff168473ffffffffffffffffffffffffffffffffffffffff1603611a41576040517f08c379a0000000000000000000000000000000000000000000000000000000008152600401611a38906136e6565b60405180910390fd5b6000611a4b6115e3565b90506000611a5885612170565b90506000611a6585612170565b9050611a7683600089858589611f89565b8460008088815260200190815260200160002060008973ffffffffffffffffffffffffffffffffffffffff1673ffffffffffffffffffffffffffffffffffffffff1681526020019081526020016000206000828254611ad59190613798565b925050819055508673ffffffffffffffffffffffffffffffffffffffff16600073ffffffffffffffffffffffffffffffffffffffff168473ffffffffffffffffffffffffffffffffffffffff167fc3d58168c5ae7397731d063d5bbf3d657854427343f4c083240f7aacaa2d0f628989604051611b53929190613927565b60405180910390a4611b6a83600089858589611f91565b611b79836000898989896121ea565b50505050505050565b8173ffffffffffffffffffffffffffffffffffffffff168373ffffffffffffffffffffffffffffffffffffffff1603611bf0576040517f08c379a0000000000000000000000000000000000000000000000000000000008152600401611be7906139c2565b60405180910390fd5b80600160008573ffffffffffffffffffffffffffffffffffffffff1673ffffffffffffffffffffffffffffffffffffffff16815260200190815260200160002060008473ffffffffffffffffffffffffffffffffffffffff1673ffffffffffffffffffffffffffffffffffffffff16815260200190815260200160002060006101000a81548160ff0219169083151502179055508173ffffffffffffffffffffffffffffffffffffffff168373ffffffffffffffffffffffffffffffffffffffff167f17307eab39ab6107e8899845ad3d59bd9653f200f220920489ca2b5937696c3183604051611ce19190612596565b60405180910390a3505050565b600073ffffffffffffffffffffffffffffffffffffffff168473ffffffffffffffffffffffffffffffffffffffff1603611d5d576040517f08c379a0000000000000000000000000000000000000000000000000000000008152600401611d5490613875565b60405180910390fd5b6000611d676115e3565b90506000611d7485612170565b90506000611d8185612170565b9050611d91838989858589611f89565b600080600088815260200190815260200160002060008a73ffffffffffffffffffffffffffffffffffffffff1673ffffffffffffffffffffffffffffffffffffffff16815260200190815260200160002054905085811015611e28576040517f08c379a0000000000000000000000000000000000000000000000000000000008152600401611e1f90613907565b60405180910390fd5b85810360008089815260200190815260200160002060008b73ffffffffffffffffffffffffffffffffffffffff1673ffffffffffffffffffffffffffffffffffffffff168152602001908152602001600020819055508560008089815260200190815260200160002060008a73ffffffffffffffffffffffffffffffffffffffff1673ffffffffffffffffffffffffffffffffffffffff1681526020019081526020016000206000828254611edd9190613798565b925050819055508773ffffffffffffffffffffffffffffffffffffffff168973ffffffffffffffffffffffffffffffffffffffff168573ffffffffffffffffffffffffffffffffffffffff167fc3d58168c5ae7397731d063d5bbf3d657854427343f4c083240f7aacaa2d0f628a8a604051611f5a929190613927565b60405180910390a4611f70848a8a86868a611f91565b611f7e848a8a8a8a8a6121ea565b505050505050505050565b505050505050565b505050505050565b611fb88473ffffffffffffffffffffffffffffffffffffffff166123c1565b15612168578373ffffffffffffffffffffffffffffffffffffffff1663bc197c8187878686866040518663ffffffff1660e01b8152600401611ffe959493929190613a37565b6020604051808303816000875af192505050801561203a57506040513d601f19601f820116820180604052508101906120379190613ab4565b60015b6120df57612046613aee565b806308c379a0036120a2575061205a613b10565b8061206557506120a4565b806040517f08c379a0000000000000000000000000000000000000000000000000000000008152600401612099919061266e565b60405180910390fd5b505b6040517f08c379a00000000000000000000000000000000000000000000000000000000081526004016120d690613c12565b60405180910390fd5b63bc197c8160e01b7bffffffffffffffffffffffffffffffffffffffffffffffffffffffff1916817bffffffffffffffffffffffffffffffffffffffffffffffffffffffff191614612166576040517f08c379a000000000000000000000000000000000000000000000000000000000815260040161215d90613ca4565b60405180910390fd5b505b505050505050565b60606000600167ffffffffffffffff81111561218f5761218e612727565b5b6040519080825280602002602001820160405280156121bd5781602001602082028036833780820191505090505b50905082816000815181106121d5576121d4613344565b5b60200260200101818152505080915050919050565b6122098473ffffffffffffffffffffffffffffffffffffffff166123c1565b156123b9578373ffffffffffffffffffffffffffffffffffffffff1663f23a6e6187878686866040518663ffffffff1660e01b815260040161224f959493929190613cc4565b6020604051808303816000875af192505050801561228b57506040513d601f19601f820116820180604052508101906122889190613ab4565b60015b61233057612297613aee565b806308c379a0036122f357506122ab613b10565b806122b657506122f5565b806040517f08c379a00000000000000000000000000000000000000000000000000000000081526004016122ea919061266e565b60405180910390fd5b505b6040517f08c379a000000000000000000000000000000000000000000000000000000000815260040161232790613c12565b60405180910390fd5b63f23a6e6160e01b7bffffffffffffffffffffffffffffffffffffffffffffffffffffffff1916817bffffffffffffffffffffffffffffffffffffffffffffffffffffffff1916146123b7576040517f08c379a00000000000000000000000000000000000000000000000000000000081526004016123ae90613ca4565b60405180910390fd5b505b505050505050565b6000808273ffffffffffffffffffffffffffffffffffffffff163b119050919050565b6000604051905090565b600080fd5b600080fd5b600073ffffffffffffffffffffffffffffffffffffffff82169050919050565b6000612423826123f8565b9050919050565b61243381612418565b811461243e57600080fd5b50565b6000813590506124508161242a565b92915050565b6000819050919050565b61246981612456565b811461247457600080fd5b50565b60008135905061248681612460565b92915050565b600080604083850312156124a3576124a26123ee565b5b60006124b185828601612441565b92505060206124c285828601612477565b9150509250929050565b6124d581612456565b82525050565b60006020820190506124f060008301846124cc565b92915050565b60007fffffffff0000000000000000000000000000000000000000000000000000000082169050919050565b61252b816124f6565b811461253657600080fd5b50565b60008135905061254881612522565b92915050565b600060208284031215612564576125636123ee565b5b600061257284828501612539565b91505092915050565b60008115159050919050565b6125908161257b565b82525050565b60006020820190506125ab6000830184612587565b92915050565b6000602082840312156125c7576125c66123ee565b5b60006125d584828501612477565b91505092915050565b600081519050919050565b600082825260208201905092915050565b60005b838110156126185780820151818401526020810190506125fd565b60008484015250505050565b6000601f19601f8301169050919050565b6000612640826125de565b61264a81856125e9565b935061265a8185602086016125fa565b61266381612624565b840191505092915050565b600060208201905081810360008301526126888184612635565b905092915050565b7f4e487b7100000000000000000000000000000000000000000000000000000000600052602160045260246000fd5b600481106126d0576126cf612690565b5b50565b60008190506126e1826126bf565b919050565b60006126f1826126d3565b9050919050565b612701816126e6565b82525050565b600060208201905061271c60008301846126f8565b92915050565b600080fd5b7f4e487b7100000000000000000000000000000000000000000000000000000000600052604160045260246000fd5b61275f82612624565b810181811067ffffffffffffffff8211171561277e5761277d612727565b5b80604052505050565b60006127916123e4565b905061279d8282612756565b919050565b600067ffffffffffffffff8211156127bd576127bc612727565b5b602082029050602081019050919050565b600080fd5b60006127e66127e1846127a2565b612787565b90508083825260208201905060208402830185811115612809576128086127ce565b5b835b81811015612832578061281e8882612477565b84526020840193505060208101905061280b565b5050509392505050565b600082601f83011261285157612850612722565b5b81356128618482602086016127d3565b91505092915050565b600080fd5b600067ffffffffffffffff82111561288a57612889612727565b5b61289382612624565b9050602081019050919050565b82818337600083830152505050565b60006128c26128bd8461286f565b612787565b9050828152602081018484840111156128de576128dd61286a565b5b6128e98482856128a0565b509392505050565b600082601f83011261290657612905612722565b5b81356129168482602086016128af565b91505092915050565b60008060008060808587031215612939576129386123ee565b5b600061294787828801612441565b945050602085013567ffffffffffffffff811115612968576129676123f3565b5b6129748782880161283c565b935050604085013567ffffffffffffffff811115612995576129946123f3565b5b6129a18782880161283c565b925050606085013567ffffffffffffffff8111156129c2576129c16123f3565b5b6129ce878288016128f1565b91505092959194509250565b600080600080600060a086880312156129f6576129f56123ee565b5b6000612a0488828901612441565b9550506020612a1588828901612441565b945050604086013567ffffffffffffffff811115612a3657612a356123f3565b5b612a428882890161283c565b935050606086013567ffffffffffffffff811115612a6357612a626123f3565b5b612a6f8882890161283c565b925050608086013567ffffffffffffffff811115612a9057612a8f6123f3565b5b612a9c888289016128f1565b9150509295509295909350565b600067ffffffffffffffff821115612ac457612ac3612727565b5b602082029050602081019050919050565b6000612ae8612ae384612aa9565b612787565b90508083825260208201905060208402830185811115612b0b57612b0a6127ce565b5b835b81811015612b345780612b208882612441565b845260208401935050602081019050612b0d565b5050509392505050565b600082601f830112612b5357612b52612722565b5b8135612b63848260208601612ad5565b91505092915050565b60008060408385031215612b8357612b826123ee565b5b600083013567ffffffffffffffff811115612ba157612ba06123f3565b5b612bad85828601612b3e565b925050602083013567ffffffffffffffff811115612bce57612bcd6123f3565b5b612bda8582860161283c565b9150509250929050565b600081519050919050565b600082825260208201905092915050565b6000819050602082019050919050565b612c1981612456565b82525050565b6000612c2b8383612c10565b60208301905092915050565b6000602082019050919050565b6000612c4f82612be4565b612c598185612bef565b9350612c6483612c00565b8060005b83811015612c95578151612c7c8882612c1f565b9750612c8783612c37565b925050600181019050612c68565b5085935050505092915050565b60006020820190508181036000830152612cbc8184612c44565b905092915050565b600080fd5b60008083601f840112612cdf57612cde612722565b5b8235905067ffffffffffffffff811115612cfc57612cfb612cc4565b5b602083019150836020820283011115612d1857612d176127ce565b5b9250929050565b612d288161257b565b8114612d3357600080fd5b50565b600081359050612d4581612d1f565b92915050565b600080600080600080600060a0888a031215612d6a57612d696123ee565b5b6000612d788a828b01612441565b975050602088013567ffffffffffffffff811115612d9957612d986123f3565b5b612da58a828b01612cc9565b9650965050604088013567ffffffffffffffff811115612dc857612dc76123f3565b5b612dd48a828b01612cc9565b9450945050606088013567ffffffffffffffff811115612df757612df66123f3565b5b612e038a828b016128f1565b9250506080612e148a828b01612d36565b91505092959891949750929550565b60008060008060808587031215612e3d57612e3c6123ee565b5b6000612e4b87828801612441565b9450506020612e5c87828801612477565b9350506040612e6d87828801612477565b925050606085013567ffffffffffffffff811115612e8e57612e8d6123f3565b5b612e9a878288016128f1565b91505092959194509250565b612eaf81612418565b82525050565b6000602082019050612eca6000830184612ea6565b92915050565b60008060408385031215612ee757612ee66123ee565b5b6000612ef585828601612441565b9250506020612f0685828601612d36565b9150509250929050565b60048110612f1d57600080fd5b50565b600081359050612f2f81612f10565b92915050565b60008060408385031215612f4c57612f4b6123ee565b5b6000612f5a85828601612477565b9250506020612f6b85828601612f20565b9150509250929050565b60038110612f8657612f85612690565b5b50565b6000819050612f9782612f75565b919050565b6000612fa782612f89565b9050919050565b612fb781612f9c565b82525050565b6000602082019050612fd26000830184612fae565b92915050565b60008060208385031215612fef57612fee6123ee565b5b600083013567ffffffffffffffff81111561300d5761300c6123f3565b5b61301985828601612cc9565b92509250509250929050565b6000806040838503121561303c5761303b6123ee565b5b600061304a85828601612441565b925050602061305b85828601612441565b9150509250929050565b600080600080600060a08688031215613081576130806123ee565b5b600061308f88828901612441565b95505060206130a088828901612441565b94505060406130b188828901612477565b93505060606130c288828901612477565b925050608086013567ffffffffffffffff8111156130e3576130e26123f3565b5b6130ef888289016128f1565b9150509295509295909350565b600060208284031215613112576131116123ee565b5b600061312084828501612441565b91505092915050565b600080600080600060a08688031215613145576131446123ee565b5b600061315388828901612441565b955050602061316488828901612477565b945050604061317588828901612477565b935050606086013567ffffffffffffffff811115613196576131956123f3565b5b6131a2888289016128f1565b92505060806131b388828901612d36565b9150509295509295909350565b7f455243313135353a2061646472657373207a65726f206973206e6f742061207660008201527f616c6964206f776e657200000000000000000000000000000000000000000000602082015250565b600061321c602a836125e9565b9150613227826131c0565b604082019050919050565b6000602082019050818103600083015261324b8161320f565b9050919050565b7f4e487b7100000000000000000000000000000000000000000000000000000000600052602260045260246000fd5b6000600282049050600182168061329957607f821691505b6020821081036132ac576132ab613252565b5b50919050565b7f455243313135353a2063616c6c6572206973206e6f7420746f6b656e206f776e60008201527f6572206f7220617070726f766564000000000000000000000000000000000000602082015250565b600061330e602e836125e9565b9150613319826132b2565b604082019050919050565b6000602082019050818103600083015261333d81613301565b9050919050565b7f4e487b7100000000000000000000000000000000000000000000000000000000600052603260045260246000fd5b7f4e487b7100000000000000000000000000000000000000000000000000000000600052601160045260246000fd5b60006133ad82612456565b91507fffffffffffffffffffffffffffffffffffffffffffffffffffffffffffffffff82036133df576133de613373565b5b600182019050919050565b7f455243313135353a206163636f756e747320616e6420696473206c656e67746860008201527f206d69736d617463680000000000000000000000000000000000000000000000602082015250565b60006134466029836125e9565b9150613451826133ea565b604082019050919050565b6000602082019050818103600083015261347581613439565b9050919050565b7f4d757374206265204d616e756661637475726572000000000000000000000000600082015250565b60006134b26014836125e9565b91506134bd8261347c565b602082019050919050565b600060208201905081810360008301526134e1816134a5565b9050919050565b600080fd5b82818337505050565b60006135028385612bef565b93507f07ffffffffffffffffffffffffffffffffffffffffffffffffffffffffffffff831115613535576135346134e8565b5b6020830292506135468385846134ed565b82840190509392505050565b6000602082019050818103600083015261356d8184866134f6565b90509392505050565b7f4f776e61626c653a206e6577206f776e657220697320746865207a65726f206160008201527f6464726573730000000000000000000000000000000000000000000000000000602082015250565b60006135d26026836125e9565b91506135dd82613576565b604082019050919050565b60006020820190508181036000830152613601816135c5565b9050919050565b7f4f776e61626c653a2063616c6c6572206973206e6f7420746865206f776e6572600082015250565b600061363e6020836125e9565b915061364982613608565b602082019050919050565b6000602082019050818103600083015261366d81613631565b9050919050565b7f455243313135353a206d696e7420746f20746865207a65726f2061646472657360008201527f7300000000000000000000000000000000000000000000000000000000000000602082015250565b60006136d06021836125e9565b91506136db82613674565b604082019050919050565b600060208201905081810360008301526136ff816136c3565b9050919050565b7f455243313135353a2069647320616e6420616d6f756e7473206c656e6774682060008201527f6d69736d61746368000000000000000000000000000000000000000000000000602082015250565b60006137626028836125e9565b915061376d82613706565b604082019050919050565b6000602082019050818103600083015261379181613755565b9050919050565b60006137a382612456565b91506137ae83612456565b92508282019050808211156137c6576137c5613373565b5b92915050565b600060408201905081810360008301526137e68185612c44565b905081810360208301526137fa8184612c44565b90509392505050565b7f455243313135353a207472616e7366657220746f20746865207a65726f20616460008201527f6472657373000000000000000000000000000000000000000000000000000000602082015250565b600061385f6025836125e9565b915061386a82613803565b604082019050919050565b6000602082019050818103600083015261388e81613852565b9050919050565b7f455243313135353a20696e73756666696369656e742062616c616e636520666f60008201527f72207472616e7366657200000000000000000000000000000000000000000000602082015250565b60006138f1602a836125e9565b91506138fc82613895565b604082019050919050565b60006020820190508181036000830152613920816138e4565b9050919050565b600060408201905061393c60008301856124cc565b61394960208301846124cc565b9392505050565b7f455243313135353a2073657474696e6720617070726f76616c2073746174757360008201527f20666f722073656c660000000000000000000000000000000000000000000000602082015250565b60006139ac6029836125e9565b91506139b782613950565b604082019050919050565b600060208201905081810360008301526139db8161399f565b9050919050565b600081519050919050565b600082825260208201905092915050565b6000613a09826139e2565b613a1381856139ed565b9350613a238185602086016125fa565b613a2c81612624565b840191505092915050565b600060a082019050613a4c6000830188612ea6565b613a596020830187612ea6565b8181036040830152613a6b8186612c44565b90508181036060830152613a7f8185612c44565b90508181036080830152613a9381846139fe565b90509695505050505050565b600081519050613aae81612522565b92915050565b600060208284031215613aca57613ac96123ee565b5b6000613ad884828501613a9f565b91505092915050565b60008160e01c9050919050565b600060033d1115613b0d5760046000803e613b0a600051613ae1565b90505b90565b600060443d10613b9d57613b226123e4565b60043d036004823e80513d602482011167ffffffffffffffff82111715613b4a575050613b9d565b808201805167ffffffffffffffff811115613b685750505050613b9d565b80602083010160043d038501811115613b85575050505050613b9d565b613b9482602001850186612756565b82955050505050505b90565b7f455243313135353a207472616e7366657220746f206e6f6e2d4552433131353560008201527f526563656976657220696d706c656d656e746572000000000000000000000000602082015250565b6000613bfc6034836125e9565b9150613c0782613ba0565b604082019050919050565b60006020820190508181036000830152613c2b81613bef565b9050919050565b7f455243313135353a204552433131353552656365697665722072656a6563746560008201527f6420746f6b656e73000000000000000000000000000000000000000000000000602082015250565b6000613c8e6028836125e9565b9150613c9982613c32565b604082019050919050565b60006020820190508181036000830152613cbd81613c81565b9050919050565b600060a082019050613cd96000830188612ea6565b613ce66020830187612ea6565b613cf360408301866124cc565b613d0060608301856124cc565b8181036080830152613d1281846139fe565b9050969550505050505056fea2646970667358221220d9c5542fe99ae32694b429c235008bd4632fc7975ee91df1a601aa2e4d25d0de64736f6c63430008120033","opcodes":"PUSH1 0x80 PUSH1 0x40 MSTORE CALLVALUE DUP1 ISZERO PUSH3 0x11 JUMPI PUSH1 0x0 DUP1 REVERT JUMPDEST POP PUSH1 0x40 MLOAD PUSH3 0x43CE CODESIZE SUB DUP1 PUSH3 0x43CE DUP4 CODECOPY DUP2 DUP2 ADD PUSH1 0x40 MSTORE DUP2 ADD SWAP1 PUSH3 0x37 SWAP2 SWAP1 PUSH3 0x2E7 JUMP JUMPDEST DUP1 PUSH3 0x49 DUP2 PUSH3 0x71 PUSH1 0x20 SHL PUSH1 0x20 SHR JUMP JUMPDEST POP PUSH3 0x6A PUSH3 0x5E PUSH3 0x86 PUSH1 0x20 SHL PUSH1 0x20 SHR JUMP JUMPDEST PUSH3 0x8E PUSH1 0x20 SHL PUSH1 0x20 SHR JUMP JUMPDEST POP PUSH3 0x66A JUMP JUMPDEST DUP1 PUSH1 0x2 SWAP1 DUP2 PUSH3 0x82 SWAP2 SWAP1 PUSH3 0x583 JUMP JUMPDEST POP POP JUMP JUMPDEST PUSH1 0x0 CALLER SWAP1 POP SWAP1 JUMP JUMPDEST PUSH1 0x0 PUSH1 0x3 PUSH1 0x0 SWAP1 SLOAD SWAP1 PUSH2 0x100 EXP SWAP1 DIV PUSH20 0xFFFFFFFFFFFFFFFFFFFFFFFFFFFFFFFFFFFFFFFF AND SWAP1 POP DUP2 PUSH1 0x3 PUSH1 0x0 PUSH2 0x100 EXP DUP2 SLOAD DUP2 PUSH20 0xFFFFFFFFFFFFFFFFFFFFFFFFFFFFFFFFFFFFFFFF MUL NOT AND SWAP1 DUP4 PUSH20 0xFFFFFFFFFFFFFFFFFFFFFFFFFFFFFFFFFFFFFFFF AND MUL OR SWAP1 SSTORE POP DUP2 PUSH20 0xFFFFFFFFFFFFFFFFFFFFFFFFFFFFFFFFFFFFFFFF AND DUP2 PUSH20 0xFFFFFFFFFFFFFFFFFFFFFFFFFFFFFFFFFFFFFFFF AND PUSH32 0x8BE0079C531659141344CD1FD0A4F28419497F9722A3DAAFE3B4186F6B6457E0 PUSH1 0x40 MLOAD PUSH1 0x40 MLOAD DUP1 SWAP2 SUB SWAP1 LOG3 POP POP JUMP JUMPDEST PUSH1 0x0 PUSH1 0x40 MLOAD SWAP1 POP SWAP1 JUMP JUMPDEST PUSH1 0x0 DUP1 REVERT JUMPDEST PUSH1 0x0 DUP1 REVERT JUMPDEST PUSH1 0x0 DUP1 REVERT JUMPDEST PUSH1 0x0 DUP1 REVERT JUMPDEST PUSH1 0x0 PUSH1 0x1F NOT PUSH1 0x1F DUP4 ADD AND SWAP1 POP SWAP2 SWAP1 POP JUMP JUMPDEST PUSH32 0x4E487B7100000000000000000000000000000000000000000000000000000000 PUSH1 0x0 MSTORE PUSH1 0x41 PUSH1 0x4 MSTORE PUSH1 0x24 PUSH1 0x0 REVERT JUMPDEST PUSH3 0x1BD DUP3 PUSH3 0x172 JUMP JUMPDEST DUP2 ADD DUP2 DUP2 LT PUSH8 0xFFFFFFFFFFFFFFFF DUP3 GT OR ISZERO PUSH3 0x1DF JUMPI PUSH3 0x1DE PUSH3 0x183 JUMP JUMPDEST JUMPDEST DUP1 PUSH1 0x40 MSTORE POP POP POP JUMP JUMPDEST PUSH1 0x0 PUSH3 0x1F4 PUSH3 0x154 JUMP JUMPDEST SWAP1 POP PUSH3 0x202 DUP3 DUP3 PUSH3 0x1B2 JUMP JUMPDEST SWAP2 SWAP1 POP JUMP JUMPDEST PUSH1 0x0 PUSH8 0xFFFFFFFFFFFFFFFF DUP3 GT ISZERO PUSH3 0x225 JUMPI PUSH3 0x224 PUSH3 0x183 JUMP JUMPDEST JUMPDEST PUSH3 0x230 DUP3 PUSH3 0x172 JUMP JUMPDEST SWAP1 POP PUSH1 0x20 DUP2 ADD SWAP1 POP SWAP2 SWAP1 POP JUMP JUMPDEST PUSH1 0x0 JUMPDEST DUP4 DUP2 LT ISZERO PUSH3 0x25D JUMPI DUP1 DUP3 ADD MLOAD DUP2 DUP5 ADD MSTORE PUSH1 0x20 DUP2 ADD SWAP1 POP PUSH3 0x240 JUMP JUMPDEST PUSH1 0x0 DUP5 DUP5 ADD MSTORE POP POP POP POP JUMP JUMPDEST PUSH1 0x0 PUSH3 0x280 PUSH3 0x27A DUP5 PUSH3 0x207 JUMP JUMPDEST PUSH3 0x1E8 JUMP JUMPDEST SWAP1 POP DUP3 DUP2 MSTORE PUSH1 0x20 DUP2 ADD DUP5 DUP5 DUP5 ADD GT ISZERO PUSH3 0x29F JUMPI PUSH3 0x29E PUSH3 0x16D JUMP JUMPDEST JUMPDEST PUSH3 0x2AC DUP5 DUP3 DUP6 PUSH3 0x23D JUMP JUMPDEST POP SWAP4 SWAP3 POP POP POP JUMP JUMPDEST PUSH1 0x0 DUP3 PUSH1 0x1F DUP4 ADD SLT PUSH3 0x2CC JUMPI PUSH3 0x2CB PUSH3 0x168 JUMP JUMPDEST JUMPDEST DUP2 MLOAD PUSH3 0x2DE DUP5 DUP3 PUSH1 0x20 DUP7 ADD PUSH3 0x269 JUMP JUMPDEST SWAP2 POP POP SWAP3 SWAP2 POP POP JUMP JUMPDEST PUSH1 0x0 PUSH1 0x20 DUP3 DUP5 SUB SLT ISZERO PUSH3 0x300 JUMPI PUSH3 0x2FF PUSH3 0x15E JUMP JUMPDEST JUMPDEST PUSH1 0x0 DUP3 ADD MLOAD PUSH8 0xFFFFFFFFFFFFFFFF DUP2 GT ISZERO PUSH3 0x321 JUMPI PUSH3 0x320 PUSH3 0x163 JUMP JUMPDEST JUMPDEST PUSH3 0x32F DUP5 DUP3 DUP6 ADD PUSH3 0x2B4 JUMP JUMPDEST SWAP2 POP POP SWAP3 SWAP2 POP POP JUMP JUMPDEST PUSH1 0x0 DUP2 MLOAD SWAP1 POP SWAP2 SWAP1 POP JUMP JUMPDEST PUSH32 0x4E487B7100000000000000000000000000000000000000000000000000000000 PUSH1 0x0 MSTORE PUSH1 0x22 PUSH1 0x4 MSTORE PUSH1 0x24 PUSH1 0x0 REVERT JUMPDEST PUSH1 0x0 PUSH1 0x2 DUP3 DIV SWAP1 POP PUSH1 0x1 DUP3 AND DUP1 PUSH3 0x38B JUMPI PUSH1 0x7F DUP3 AND SWAP2 POP JUMPDEST PUSH1 0x20 DUP3 LT DUP2 SUB PUSH3 0x3A1 JUMPI PUSH3 0x3A0 PUSH3 0x343 JUMP JUMPDEST JUMPDEST POP SWAP2 SWAP1 POP JUMP JUMPDEST PUSH1 0x0 DUP2 SWAP1 POP DUP2 PUSH1 0x0 MSTORE PUSH1 0x20 PUSH1 0x0 KECCAK256 SWAP1 POP SWAP2 SWAP1 POP JUMP JUMPDEST PUSH1 0x0 PUSH1 0x20 PUSH1 0x1F DUP4 ADD DIV SWAP1 POP SWAP2 SWAP1 POP JUMP JUMPDEST PUSH1 0x0 DUP3 DUP3 SHL SWAP1 POP SWAP3 SWAP2 POP POP JUMP JUMPDEST PUSH1 0x0 PUSH1 0x8 DUP4 MUL PUSH3 0x40B PUSH32 0xFFFFFFFFFFFFFFFFFFFFFFFFFFFFFFFFFFFFFFFFFFFFFFFFFFFFFFFFFFFFFFFF DUP3 PUSH3 0x3CC JUMP JUMPDEST PUSH3 0x417 DUP7 DUP4 PUSH3 0x3CC JUMP JUMPDEST SWAP6 POP DUP1 NOT DUP5 AND SWAP4 POP DUP1 DUP7 AND DUP5 OR SWAP3 POP POP POP SWAP4 SWAP3 POP POP POP JUMP JUMPDEST PUSH1 0x0 DUP2 SWAP1 POP SWAP2 SWAP1 POP JUMP JUMPDEST PUSH1 0x0 DUP2 SWAP1 POP SWAP2 SWAP1 POP JUMP JUMPDEST PUSH1 0x0 PUSH3 0x464 PUSH3 0x45E PUSH3 0x458 DUP5 PUSH3 0x42F JUMP JUMPDEST PUSH3 0x439 JUMP JUMPDEST PUSH3 0x42F JUMP JUMPDEST SWAP1 POP SWAP2 SWAP1 POP JUMP JUMPDEST PUSH1 0x0 DUP2 SWAP1 POP SWAP2 SWAP1 POP JUMP JUMPDEST PUSH3 0x480 DUP4 PUSH3 0x443 JUMP JUMPDEST PUSH3 0x498 PUSH3 0x48F DUP3 PUSH3 0x46B JUMP JUMPDEST DUP5 DUP5 SLOAD PUSH3 0x3D9 JUMP JUMPDEST DUP3 SSTORE POP POP POP POP JUMP JUMPDEST PUSH1 0x0 SWAP1 JUMP JUMPDEST PUSH3 0x4AF PUSH3 0x4A0 JUMP JUMPDEST PUSH3 0x4BC DUP2 DUP5 DUP5 PUSH3 0x475 JUMP JUMPDEST POP POP POP JUMP JUMPDEST JUMPDEST DUP2 DUP2 LT ISZERO PUSH3 0x4E4 JUMPI PUSH3 0x4D8 PUSH1 0x0 DUP3 PUSH3 0x4A5 JUMP JUMPDEST PUSH1 0x1 DUP2 ADD SWAP1 POP PUSH3 0x4C2 JUMP JUMPDEST POP POP JUMP JUMPDEST PUSH1 0x1F DUP3 GT ISZERO PUSH3 0x533 JUMPI PUSH3 0x4FD DUP2 PUSH3 0x3A7 JUMP JUMPDEST PUSH3 0x508 DUP5 PUSH3 0x3BC JUMP JUMPDEST DUP2 ADD PUSH1 0x20 DUP6 LT ISZERO PUSH3 0x518 JUMPI DUP2 SWAP1 POP JUMPDEST PUSH3 0x530 PUSH3 0x527 DUP6 PUSH3 0x3BC JUMP JUMPDEST DUP4 ADD DUP3 PUSH3 0x4C1 JUMP JUMPDEST POP POP JUMPDEST POP POP POP JUMP JUMPDEST PUSH1 0x0 DUP3 DUP3 SHR SWAP1 POP SWAP3 SWAP2 POP POP JUMP JUMPDEST PUSH1 0x0 PUSH3 0x558 PUSH1 0x0 NOT DUP5 PUSH1 0x8 MUL PUSH3 0x538 JUMP JUMPDEST NOT DUP1 DUP4 AND SWAP2 POP POP SWAP3 SWAP2 POP POP JUMP JUMPDEST PUSH1 0x0 PUSH3 0x573 DUP4 DUP4 PUSH3 0x545 JUMP JUMPDEST SWAP2 POP DUP3 PUSH1 0x2 MUL DUP3 OR SWAP1 POP SWAP3 SWAP2 POP POP JUMP JUMPDEST PUSH3 0x58E DUP3 PUSH3 0x338 JUMP JUMPDEST PUSH8 0xFFFFFFFFFFFFFFFF DUP2 GT ISZERO PUSH3 0x5AA JUMPI PUSH3 0x5A9 PUSH3 0x183 JUMP JUMPDEST JUMPDEST PUSH3 0x5B6 DUP3 SLOAD PUSH3 0x372 JUMP JUMPDEST PUSH3 0x5C3 DUP3 DUP3 DUP6 PUSH3 0x4E8 JUMP JUMPDEST PUSH1 0x0 PUSH1 0x20 SWAP1 POP PUSH1 0x1F DUP4 GT PUSH1 0x1 DUP2 EQ PUSH3 0x5FB JUMPI PUSH1 0x0 DUP5 ISZERO PUSH3 0x5E6 JUMPI DUP3 DUP8 ADD MLOAD SWAP1 POP JUMPDEST PUSH3 0x5F2 DUP6 DUP3 PUSH3 0x565 JUMP JUMPDEST DUP7 SSTORE POP PUSH3 0x662 JUMP JUMPDEST PUSH1 0x1F NOT DUP5 AND PUSH3 0x60B DUP7 PUSH3 0x3A7 JUMP JUMPDEST PUSH1 0x0 JUMPDEST DUP3 DUP2 LT ISZERO PUSH3 0x635 JUMPI DUP5 DUP10 ADD MLOAD DUP3 SSTORE PUSH1 0x1 DUP3 ADD SWAP2 POP PUSH1 0x20 DUP6 ADD SWAP5 POP PUSH1 0x20 DUP2 ADD SWAP1 POP PUSH3 0x60E JUMP JUMPDEST DUP7 DUP4 LT ISZERO PUSH3 0x655 JUMPI DUP5 DUP10 ADD MLOAD PUSH3 0x651 PUSH1 0x1F DUP10 AND DUP3 PUSH3 0x545 JUMP JUMPDEST DUP4 SSTORE POP JUMPDEST PUSH1 0x1 PUSH1 0x2 DUP9 MUL ADD DUP9 SSTORE POP POP POP JUMPDEST POP POP POP POP POP POP JUMP JUMPDEST PUSH2 0x3D54 DUP1 PUSH3 0x67A PUSH1 0x0 CODECOPY PUSH1 0x0 RETURN INVALID PUSH1 0x80 PUSH1 0x40 MSTORE CALLVALUE DUP1 ISZERO PUSH2 0x10 JUMPI PUSH1 0x0 DUP1 REVERT JUMPDEST POP PUSH1 0x4 CALLDATASIZE LT PUSH2 0x136 JUMPI PUSH1 0x0 CALLDATALOAD PUSH1 0xE0 SHR DUP1 PUSH4 0x731133E9 GT PUSH2 0xB8 JUMPI DUP1 PUSH4 0xAA9F3ECA GT PUSH2 0x7C JUMPI DUP1 PUSH4 0xAA9F3ECA EQ PUSH2 0x347 JUMPI DUP1 PUSH4 0xAB588748 EQ PUSH2 0x377 JUMPI DUP1 PUSH4 0xE985E9C5 EQ PUSH2 0x393 JUMPI DUP1 PUSH4 0xF242432A EQ PUSH2 0x3C3 JUMPI DUP1 PUSH4 0xF2FDE38B EQ PUSH2 0x3DF JUMPI DUP1 PUSH4 0xF3498223 EQ PUSH2 0x3FB JUMPI PUSH2 0x136 JUMP JUMPDEST DUP1 PUSH4 0x731133E9 EQ PUSH2 0x2A5 JUMPI DUP1 PUSH4 0x8DA5CB5B EQ PUSH2 0x2C1 JUMPI DUP1 PUSH4 0x95DBE2DB EQ PUSH2 0x2DF JUMPI DUP1 PUSH4 0xA22CB465 EQ PUSH2 0x30F JUMPI DUP1 PUSH4 0xA76FE719 EQ PUSH2 0x32B JUMPI PUSH2 0x136 JUMP JUMPDEST DUP1 PUSH4 0x2EB2C2D6 GT PUSH2 0xFF JUMPI DUP1 PUSH4 0x2EB2C2D6 EQ PUSH2 0x217 JUMPI DUP1 PUSH4 0x432F4113 EQ PUSH2 0x233 JUMPI DUP1 PUSH4 0x4E1273F4 EQ PUSH2 0x24F JUMPI DUP1 PUSH4 0x69C7CA52 EQ PUSH2 0x27F JUMPI DUP1 PUSH4 0x715018A6 EQ PUSH2 0x29B JUMPI PUSH2 0x136 JUMP JUMPDEST DUP1 PUSH3 0xFDD58E EQ PUSH2 0x13B JUMPI DUP1 PUSH4 0x1FFC9A7 EQ PUSH2 0x16B JUMPI DUP1 PUSH4 0xE89341C EQ PUSH2 0x19B JUMPI DUP1 PUSH4 0x1AE82590 EQ PUSH2 0x1CB JUMPI DUP1 PUSH4 0x1F7FDFFA EQ PUSH2 0x1FB JUMPI JUMPDEST PUSH1 0x0 DUP1 REVERT JUMPDEST PUSH2 0x155 PUSH1 0x4 DUP1 CALLDATASIZE SUB DUP2 ADD SWAP1 PUSH2 0x150 SWAP2 SWAP1 PUSH2 0x248C JUMP JUMPDEST PUSH2 0x417 JUMP JUMPDEST PUSH1 0x40 MLOAD PUSH2 0x162 SWAP2 SWAP1 PUSH2 0x24DB JUMP JUMPDEST PUSH1 0x40 MLOAD DUP1 SWAP2 SUB SWAP1 RETURN JUMPDEST PUSH2 0x185 PUSH1 0x4 DUP1 CALLDATASIZE SUB DUP2 ADD SWAP1 PUSH2 0x180 SWAP2 SWAP1 PUSH2 0x254E JUMP JUMPDEST PUSH2 0x4DF JUMP JUMPDEST PUSH1 0x40 MLOAD PUSH2 0x192 SWAP2 SWAP1 PUSH2 0x2596 JUMP JUMPDEST PUSH1 0x40 MLOAD DUP1 SWAP2 SUB SWAP1 RETURN JUMPDEST PUSH2 0x1B5 PUSH1 0x4 DUP1 CALLDATASIZE SUB DUP2 ADD SWAP1 PUSH2 0x1B0 SWAP2 SWAP1 PUSH2 0x25B1 JUMP JUMPDEST PUSH2 0x5C1 JUMP JUMPDEST PUSH1 0x40 MLOAD PUSH2 0x1C2 SWAP2 SWAP1 PUSH2 0x266E JUMP JUMPDEST PUSH1 0x40 MLOAD DUP1 SWAP2 SUB SWAP1 RETURN JUMPDEST PUSH2 0x1E5 PUSH1 0x4 DUP1 CALLDATASIZE SUB DUP2 ADD SWAP1 PUSH2 0x1E0 SWAP2 SWAP1 PUSH2 0x25B1 JUMP JUMPDEST PUSH2 0x655 JUMP JUMPDEST PUSH1 0x40 MLOAD PUSH2 0x1F2 SWAP2 SWAP1 PUSH2 0x2707 JUMP JUMPDEST PUSH1 0x40 MLOAD DUP1 SWAP2 SUB SWAP1 RETURN JUMPDEST PUSH2 0x215 PUSH1 0x4 DUP1 CALLDATASIZE SUB DUP2 ADD SWAP1 PUSH2 0x210 SWAP2 SWAP1 PUSH2 0x291F JUMP JUMPDEST PUSH2 0x675 JUMP JUMPDEST STOP JUMPDEST PUSH2 0x231 PUSH1 0x4 DUP1 CALLDATASIZE SUB DUP2 ADD SWAP1 PUSH2 0x22C SWAP2 SWAP1 PUSH2 0x29DA JUMP JUMPDEST PUSH2 0x68F JUMP JUMPDEST STOP JUMPDEST PUSH2 0x24D PUSH1 0x4 DUP1 CALLDATASIZE SUB DUP2 ADD SWAP1 PUSH2 0x248 SWAP2 SWAP1 PUSH2 0x25B1 JUMP JUMPDEST PUSH2 0x730 JUMP JUMPDEST STOP JUMPDEST PUSH2 0x269 PUSH1 0x4 DUP1 CALLDATASIZE SUB DUP2 ADD SWAP1 PUSH2 0x264 SWAP2 SWAP1 PUSH2 0x2B6C JUMP JUMPDEST PUSH2 0x988 JUMP JUMPDEST PUSH1 0x40 MLOAD PUSH2 0x276 SWAP2 SWAP1 PUSH2 0x2CA2 JUMP JUMPDEST PUSH1 0x40 MLOAD DUP1 SWAP2 SUB SWAP1 RETURN JUMPDEST PUSH2 0x299 PUSH1 0x4 DUP1 CALLDATASIZE SUB DUP2 ADD SWAP1 PUSH2 0x294 SWAP2 SWAP1 PUSH2 0x2D4B JUMP JUMPDEST PUSH2 0xAA1 JUMP JUMPDEST STOP JUMPDEST PUSH2 0x2A3 PUSH2 0xC97 JUMP JUMPDEST STOP JUMPDEST PUSH2 0x2BF PUSH1 0x4 DUP1 CALLDATASIZE SUB DUP2 ADD SWAP1 PUSH2 0x2BA SWAP2 SWAP1 PUSH2 0x2E23 JUMP JUMPDEST PUSH2 0xCAB JUMP JUMPDEST STOP JUMPDEST PUSH2 0x2C9 PUSH2 0xCC5 JUMP JUMPDEST PUSH1 0x40 MLOAD PUSH2 0x2D6 SWAP2 SWAP1 PUSH2 0x2EB5 JUMP JUMPDEST PUSH1 0x40 MLOAD DUP1 SWAP2 SUB SWAP1 RETURN JUMPDEST PUSH2 0x2F9 PUSH1 0x4 DUP1 CALLDATASIZE SUB DUP2 ADD SWAP1 PUSH2 0x2F4 SWAP2 SWAP1 PUSH2 0x25B1 JUMP JUMPDEST PUSH2 0xCEF JUMP JUMPDEST PUSH1 0x40 MLOAD PUSH2 0x306 SWAP2 SWAP1 PUSH2 0x2596 JUMP JUMPDEST PUSH1 0x40 MLOAD DUP1 SWAP2 SUB SWAP1 RETURN JUMPDEST PUSH2 0x329 PUSH1 0x4 DUP1 CALLDATASIZE SUB DUP2 ADD SWAP1 PUSH2 0x324 SWAP2 SWAP1 PUSH2 0x2ED0 JUMP JUMPDEST PUSH2 0xD0F JUMP JUMPDEST STOP JUMPDEST PUSH2 0x345 PUSH1 0x4 DUP1 CALLDATASIZE SUB DUP2 ADD SWAP1 PUSH2 0x340 SWAP2 SWAP1 PUSH2 0x2F35 JUMP JUMPDEST PUSH2 0xD25 JUMP JUMPDEST STOP JUMPDEST PUSH2 0x361 PUSH1 0x4 DUP1 CALLDATASIZE SUB DUP2 ADD SWAP1 PUSH2 0x35C SWAP2 SWAP1 PUSH2 0x25B1 JUMP JUMPDEST PUSH2 0xF27 JUMP JUMPDEST PUSH1 0x40 MLOAD PUSH2 0x36E SWAP2 SWAP1 PUSH2 0x2FBD JUMP JUMPDEST PUSH1 0x40 MLOAD DUP1 SWAP2 SUB SWAP1 RETURN JUMPDEST PUSH2 0x391 PUSH1 0x4 DUP1 CALLDATASIZE SUB DUP2 ADD SWAP1 PUSH2 0x38C SWAP2 SWAP1 PUSH2 0x2FD8 JUMP JUMPDEST PUSH2 0xF47 JUMP JUMPDEST STOP JUMPDEST PUSH2 0x3AD PUSH1 0x4 DUP1 CALLDATASIZE SUB DUP2 ADD SWAP1 PUSH2 0x3A8 SWAP2 SWAP1 PUSH2 0x3025 JUMP JUMPDEST PUSH2 0x1012 JUMP JUMPDEST PUSH1 0x40 MLOAD PUSH2 0x3BA SWAP2 SWAP1 PUSH2 0x2596 JUMP JUMPDEST PUSH1 0x40 MLOAD DUP1 SWAP2 SUB SWAP1 RETURN JUMPDEST PUSH2 0x3DD PUSH1 0x4 DUP1 CALLDATASIZE SUB DUP2 ADD SWAP1 PUSH2 0x3D8 SWAP2 SWAP1 PUSH2 0x3065 JUMP JUMPDEST PUSH2 0x10A6 JUMP JUMPDEST STOP JUMPDEST PUSH2 0x3F9 PUSH1 0x4 DUP1 CALLDATASIZE SUB DUP2 ADD SWAP1 PUSH2 0x3F4 SWAP2 SWAP1 PUSH2 0x30FC JUMP JUMPDEST PUSH2 0x1147 JUMP JUMPDEST STOP JUMPDEST PUSH2 0x415 PUSH1 0x4 DUP1 CALLDATASIZE SUB DUP2 ADD SWAP1 PUSH2 0x410 SWAP2 SWAP1 PUSH2 0x3129 JUMP JUMPDEST PUSH2 0x11CA JUMP JUMPDEST STOP JUMPDEST PUSH1 0x0 DUP1 PUSH20 0xFFFFFFFFFFFFFFFFFFFFFFFFFFFFFFFFFFFFFFFF AND DUP4 PUSH20 0xFFFFFFFFFFFFFFFFFFFFFFFFFFFFFFFFFFFFFFFF AND SUB PUSH2 0x487 JUMPI PUSH1 0x40 MLOAD PUSH32 0x8C379A000000000000000000000000000000000000000000000000000000000 DUP2 MSTORE PUSH1 0x4 ADD PUSH2 0x47E SWAP1 PUSH2 0x3232 JUMP JUMPDEST PUSH1 0x40 MLOAD DUP1 SWAP2 SUB SWAP1 REVERT JUMPDEST PUSH1 0x0 DUP1 DUP4 DUP2 MSTORE PUSH1 0x20 ADD SWAP1 DUP2 MSTORE PUSH1 0x20 ADD PUSH1 0x0 KECCAK256 PUSH1 0x0 DUP5 PUSH20 0xFFFFFFFFFFFFFFFFFFFFFFFFFFFFFFFFFFFFFFFF AND PUSH20 0xFFFFFFFFFFFFFFFFFFFFFFFFFFFFFFFFFFFFFFFF AND DUP2 MSTORE PUSH1 0x20 ADD SWAP1 DUP2 MSTORE PUSH1 0x20 ADD PUSH1 0x0 KECCAK256 SLOAD SWAP1 POP SWAP3 SWAP2 POP POP JUMP JUMPDEST PUSH1 0x0 PUSH32 0xD9B67A2600000000000000000000000000000000000000000000000000000000 PUSH28 0xFFFFFFFFFFFFFFFFFFFFFFFFFFFFFFFFFFFFFFFFFFFFFFFFFFFFFFFF NOT AND DUP3 PUSH28 0xFFFFFFFFFFFFFFFFFFFFFFFFFFFFFFFFFFFFFFFFFFFFFFFFFFFFFFFF NOT AND EQ DUP1 PUSH2 0x5AA JUMPI POP PUSH32 0xE89341C00000000000000000000000000000000000000000000000000000000 PUSH28 0xFFFFFFFFFFFFFFFFFFFFFFFFFFFFFFFFFFFFFFFFFFFFFFFFFFFFFFFF NOT AND DUP3 PUSH28 0xFFFFFFFFFFFFFFFFFFFFFFFFFFFFFFFFFFFFFFFFFFFFFFFFFFFFFFFF NOT AND EQ JUMPDEST DUP1 PUSH2 0x5BA JUMPI POP PUSH2 0x5B9 DUP3 PUSH2 0x12CF JUMP JUMPDEST JUMPDEST SWAP1 POP SWAP2 SWAP1 POP JUMP JUMPDEST PUSH1 0x60 PUSH1 0x2 DUP1 SLOAD PUSH2 0x5D0 SWAP1 PUSH2 0x3281 JUMP JUMPDEST DUP1 PUSH1 0x1F ADD PUSH1 0x20 DUP1 SWAP2 DIV MUL PUSH1 0x20 ADD PUSH1 0x40 MLOAD SWAP1 DUP2 ADD PUSH1 0x40 MSTORE DUP1 SWAP3 SWAP2 SWAP1 DUP2 DUP2 MSTORE PUSH1 0x20 ADD DUP3 DUP1 SLOAD PUSH2 0x5FC SWAP1 PUSH2 0x3281 JUMP JUMPDEST DUP1 ISZERO PUSH2 0x649 JUMPI DUP1 PUSH1 0x1F LT PUSH2 0x61E JUMPI PUSH2 0x100 DUP1 DUP4 SLOAD DIV MUL DUP4 MSTORE SWAP2 PUSH1 0x20 ADD SWAP2 PUSH2 0x649 JUMP JUMPDEST DUP3 ADD SWAP2 SWAP1 PUSH1 0x0 MSTORE PUSH1 0x20 PUSH1 0x0 KECCAK256 SWAP1 JUMPDEST DUP2 SLOAD DUP2 MSTORE SWAP1 PUSH1 0x1 ADD SWAP1 PUSH1 0x20 ADD DUP1 DUP4 GT PUSH2 0x62C JUMPI DUP3 SWAP1 SUB PUSH1 0x1F AND DUP3 ADD SWAP2 JUMPDEST POP POP POP POP POP SWAP1 POP SWAP2 SWAP1 POP JUMP JUMPDEST PUSH1 0x6 PUSH1 0x20 MSTORE DUP1 PUSH1 0x0 MSTORE PUSH1 0x40 PUSH1 0x0 KECCAK256 PUSH1 0x0 SWAP2 POP SLOAD SWAP1 PUSH2 0x100 EXP SWAP1 DIV PUSH1 0xFF AND DUP2 JUMP JUMPDEST PUSH2 0x67D PUSH2 0x1339 JUMP JUMPDEST PUSH2 0x689 DUP5 DUP5 DUP5 DUP5 PUSH2 0x13B7 JUMP JUMPDEST POP POP POP POP JUMP JUMPDEST PUSH2 0x697 PUSH2 0x15E3 JUMP JUMPDEST PUSH20 0xFFFFFFFFFFFFFFFFFFFFFFFFFFFFFFFFFFFFFFFF AND DUP6 PUSH20 0xFFFFFFFFFFFFFFFFFFFFFFFFFFFFFFFFFFFFFFFF AND EQ DUP1 PUSH2 0x6DD JUMPI POP PUSH2 0x6DC DUP6 PUSH2 0x6D7 PUSH2 0x15E3 JUMP JUMPDEST PUSH2 0x1012 JUMP JUMPDEST JUMPDEST PUSH2 0x71C JUMPI PUSH1 0x40 MLOAD PUSH32 0x8C379A000000000000000000000000000000000000000000000000000000000 DUP2 MSTORE PUSH1 0x4 ADD PUSH2 0x713 SWAP1 PUSH2 0x3324 JUMP JUMPDEST PUSH1 0x40 MLOAD DUP1 SWAP2 SUB SWAP1 REVERT JUMPDEST PUSH2 0x729 DUP6 DUP6 DUP6 DUP6 DUP6 PUSH2 0x15EB JUMP JUMPDEST POP POP POP POP POP JUMP JUMPDEST CALLER PUSH20 0xFFFFFFFFFFFFFFFFFFFFFFFFFFFFFFFFFFFFFFFF AND PUSH32 0x8610B7B5ACDEEC4D9229259544302AE0E252928822763A75ADB58B66BA1F2D88 DUP3 PUSH1 0x40 MLOAD PUSH2 0x776 SWAP2 SWAP1 PUSH2 0x24DB JUMP JUMPDEST PUSH1 0x40 MLOAD DUP1 SWAP2 SUB SWAP1 LOG2 PUSH1 0x0 DUP1 PUSH1 0x0 JUMPDEST PUSH1 0x4 DUP1 SLOAD SWAP1 POP DUP2 LT ISZERO PUSH2 0x821 JUMPI PUSH1 0x4 DUP2 DUP2 SLOAD DUP2 LT PUSH2 0x7A5 JUMPI PUSH2 0x7A4 PUSH2 0x3344 JUMP JUMPDEST JUMPDEST SWAP1 PUSH1 0x0 MSTORE PUSH1 0x20 PUSH1 0x0 KECCAK256 ADD PUSH1 0x0 SWAP1 SLOAD SWAP1 PUSH2 0x100 EXP SWAP1 DIV PUSH20 0xFFFFFFFFFFFFFFFFFFFFFFFFFFFFFFFFFFFFFFFF AND PUSH20 0xFFFFFFFFFFFFFFFFFFFFFFFFFFFFFFFFFFFFFFFF AND CALLER PUSH20 0xFFFFFFFFFFFFFFFFFFFFFFFFFFFFFFFFFFFFFFFF AND SUB PUSH2 0x80E JUMPI PUSH1 0x1 SWAP3 POP DUP1 SWAP2 POP PUSH2 0x821 JUMP JUMPDEST DUP1 DUP1 PUSH2 0x819 SWAP1 PUSH2 0x33A2 JUMP JUMPDEST SWAP2 POP POP PUSH2 0x784 JUMP JUMPDEST POP DUP2 ISZERO PUSH2 0x86B JUMPI PUSH1 0x2 PUSH1 0x7 PUSH1 0x0 DUP6 DUP2 MSTORE PUSH1 0x20 ADD SWAP1 DUP2 MSTORE PUSH1 0x20 ADD PUSH1 0x0 KECCAK256 PUSH1 0x0 PUSH2 0x100 EXP DUP2 SLOAD DUP2 PUSH1 0xFF MUL NOT AND SWAP1 DUP4 PUSH1 0x2 DUP2 GT ISZERO PUSH2 0x85F JUMPI PUSH2 0x85E PUSH2 0x2690 JUMP JUMPDEST JUMPDEST MUL OR SWAP1 SSTORE POP POP POP PUSH2 0x985 JUMP JUMPDEST PUSH1 0x1 PUSH1 0x7 PUSH1 0x0 DUP6 DUP2 MSTORE PUSH1 0x20 ADD SWAP1 DUP2 MSTORE PUSH1 0x20 ADD PUSH1 0x0 KECCAK256 PUSH1 0x0 PUSH2 0x100 EXP DUP2 SLOAD DUP2 PUSH1 0xFF MUL NOT AND SWAP1 DUP4 PUSH1 0x2 DUP2 GT ISZERO PUSH2 0x8A2 JUMPI PUSH2 0x8A1 PUSH2 0x2690 JUMP JUMPDEST JUMPDEST MUL OR SWAP1 SSTORE POP PUSH1 0x0 JUMPDEST PUSH1 0x4 DUP1 SLOAD SWAP1 POP DUP2 LT ISZERO PUSH2 0x981 JUMPI PUSH1 0x1 PUSH1 0x5 PUSH1 0x0 PUSH1 0x4 DUP5 DUP2 SLOAD DUP2 LT PUSH2 0x8D1 JUMPI PUSH2 0x8D0 PUSH2 0x3344 JUMP JUMPDEST JUMPDEST SWAP1 PUSH1 0x0 MSTORE PUSH1 0x20 PUSH1 0x0 KECCAK256 ADD PUSH1 0x0 SWAP1 SLOAD SWAP1 PUSH2 0x100 EXP SWAP1 DIV PUSH20 0xFFFFFFFFFFFFFFFFFFFFFFFFFFFFFFFFFFFFFFFF AND PUSH20 0xFFFFFFFFFFFFFFFFFFFFFFFFFFFFFFFFFFFFFFFF AND PUSH20 0xFFFFFFFFFFFFFFFFFFFFFFFFFFFFFFFFFFFFFFFF AND DUP2 MSTORE PUSH1 0x20 ADD SWAP1 DUP2 MSTORE PUSH1 0x20 ADD PUSH1 0x0 KECCAK256 PUSH1 0x0 DUP7 DUP2 MSTORE PUSH1 0x20 ADD SWAP1 DUP2 MSTORE PUSH1 0x20 ADD PUSH1 0x0 KECCAK256 PUSH1 0x0 PUSH2 0x100 EXP DUP2 SLOAD DUP2 PUSH1 0xFF MUL NOT AND SWAP1 DUP4 PUSH1 0x3 DUP2 GT ISZERO PUSH2 0x969 JUMPI PUSH2 0x968 PUSH2 0x2690 JUMP JUMPDEST JUMPDEST MUL OR SWAP1 SSTORE POP DUP1 DUP1 PUSH2 0x979 SWAP1 PUSH2 0x33A2 JUMP JUMPDEST SWAP2 POP POP PUSH2 0x8AA JUMP JUMPDEST POP POP POP JUMPDEST POP JUMP JUMPDEST PUSH1 0x60 DUP2 MLOAD DUP4 MLOAD EQ PUSH2 0x9CE JUMPI PUSH1 0x40 MLOAD PUSH32 0x8C379A000000000000000000000000000000000000000000000000000000000 DUP2 MSTORE PUSH1 0x4 ADD PUSH2 0x9C5 SWAP1 PUSH2 0x345C JUMP JUMPDEST PUSH1 0x40 MLOAD DUP1 SWAP2 SUB SWAP1 REVERT JUMPDEST PUSH1 0x0 DUP4 MLOAD PUSH8 0xFFFFFFFFFFFFFFFF DUP2 GT ISZERO PUSH2 0x9EB JUMPI PUSH2 0x9EA PUSH2 0x2727 JUMP JUMPDEST JUMPDEST PUSH1 0x40 MLOAD SWAP1 DUP1 DUP3 MSTORE DUP1 PUSH1 0x20 MUL PUSH1 0x20 ADD DUP3 ADD PUSH1 0x40 MSTORE DUP1 ISZERO PUSH2 0xA19 JUMPI DUP2 PUSH1 0x20 ADD PUSH1 0x20 DUP3 MUL DUP1 CALLDATASIZE DUP4 CALLDATACOPY DUP1 DUP3 ADD SWAP2 POP POP SWAP1 POP JUMPDEST POP SWAP1 POP PUSH1 0x0 JUMPDEST DUP5 MLOAD DUP2 LT ISZERO PUSH2 0xA96 JUMPI PUSH2 0xA66 DUP6 DUP3 DUP2 MLOAD DUP2 LT PUSH2 0xA3E JUMPI PUSH2 0xA3D PUSH2 0x3344 JUMP JUMPDEST JUMPDEST PUSH1 0x20 MUL PUSH1 0x20 ADD ADD MLOAD DUP6 DUP4 DUP2 MLOAD DUP2 LT PUSH2 0xA59 JUMPI PUSH2 0xA58 PUSH2 0x3344 JUMP JUMPDEST JUMPDEST PUSH1 0x20 MUL PUSH1 0x20 ADD ADD MLOAD PUSH2 0x417 JUMP JUMPDEST DUP3 DUP3 DUP2 MLOAD DUP2 LT PUSH2 0xA79 JUMPI PUSH2 0xA78 PUSH2 0x3344 JUMP JUMPDEST JUMPDEST PUSH1 0x20 MUL PUSH1 0x20 ADD ADD DUP2 DUP2 MSTORE POP POP DUP1 PUSH2 0xA8F SWAP1 PUSH2 0x33A2 JUMP JUMPDEST SWAP1 POP PUSH2 0xA1F JUMP JUMPDEST POP DUP1 SWAP2 POP POP SWAP3 SWAP2 POP POP JUMP JUMPDEST PUSH1 0x0 JUMPDEST DUP7 DUP7 SWAP1 POP DUP2 LT ISZERO PUSH2 0xBFE JUMPI PUSH1 0x8 PUSH1 0x0 DUP9 DUP9 DUP5 DUP2 DUP2 LT PUSH2 0xAC6 JUMPI PUSH2 0xAC5 PUSH2 0x3344 JUMP JUMPDEST JUMPDEST SWAP1 POP PUSH1 0x20 MUL ADD CALLDATALOAD DUP2 MSTORE PUSH1 0x20 ADD SWAP1 DUP2 MSTORE PUSH1 0x20 ADD PUSH1 0x0 KECCAK256 PUSH1 0x0 SWAP1 SLOAD SWAP1 PUSH2 0x100 EXP SWAP1 DIV PUSH1 0xFF AND DUP1 ISZERO PUSH2 0xAF2 JUMPI POP DUP2 JUMPDEST ISZERO PUSH2 0xB5B JUMPI PUSH1 0x4 DUP9 SWAP1 DUP1 PUSH1 0x1 DUP2 SLOAD ADD DUP1 DUP3 SSTORE DUP1 SWAP2 POP POP PUSH1 0x1 SWAP1 SUB SWAP1 PUSH1 0x0 MSTORE PUSH1 0x20 PUSH1 0x0 KECCAK256 ADD PUSH1 0x0 SWAP1 SWAP2 SWAP1 SWAP2 SWAP1 SWAP2 PUSH2 0x100 EXP DUP2 SLOAD DUP2 PUSH20 0xFFFFFFFFFFFFFFFFFFFFFFFFFFFFFFFFFFFFFFFF MUL NOT AND SWAP1 DUP4 PUSH20 0xFFFFFFFFFFFFFFFFFFFFFFFFFFFFFFFFFFFFFFFF AND MUL OR SWAP1 SSTORE POP JUMPDEST DUP2 ISZERO DUP1 ISZERO PUSH2 0xBA0 JUMPI POP PUSH1 0x8 PUSH1 0x0 DUP9 DUP9 DUP5 DUP2 DUP2 LT PUSH2 0xB7B JUMPI PUSH2 0xB7A PUSH2 0x3344 JUMP JUMPDEST JUMPDEST SWAP1 POP PUSH1 0x20 MUL ADD CALLDATALOAD DUP2 MSTORE PUSH1 0x20 ADD SWAP1 DUP2 MSTORE PUSH1 0x20 ADD PUSH1 0x0 KECCAK256 PUSH1 0x0 SWAP1 SLOAD SWAP1 PUSH2 0x100 EXP SWAP1 DIV PUSH1 0xFF AND ISZERO JUMPDEST ISZERO PUSH2 0xBEB JUMPI PUSH1 0x0 PUSH1 0x8 PUSH1 0x0 DUP10 DUP10 DUP6 DUP2 DUP2 LT PUSH2 0xBBE JUMPI PUSH2 0xBBD PUSH2 0x3344 JUMP JUMPDEST JUMPDEST SWAP1 POP PUSH1 0x20 MUL ADD CALLDATALOAD DUP2 MSTORE PUSH1 0x20 ADD SWAP1 DUP2 MSTORE PUSH1 0x20 ADD PUSH1 0x0 KECCAK256 PUSH1 0x0 PUSH2 0x100 EXP DUP2 SLOAD DUP2 PUSH1 0xFF MUL NOT AND SWAP1 DUP4 ISZERO ISZERO MUL OR SWAP1 SSTORE POP JUMPDEST DUP1 DUP1 PUSH2 0xBF6 SWAP1 PUSH2 0x33A2 JUMP JUMPDEST SWAP2 POP POP PUSH2 0xAA4 JUMP JUMPDEST POP PUSH2 0xC8E CALLER DUP9 DUP9 DUP9 DUP1 DUP1 PUSH1 0x20 MUL PUSH1 0x20 ADD PUSH1 0x40 MLOAD SWAP1 DUP2 ADD PUSH1 0x40 MSTORE DUP1 SWAP4 SWAP3 SWAP2 SWAP1 DUP2 DUP2 MSTORE PUSH1 0x20 ADD DUP4 DUP4 PUSH1 0x20 MUL DUP1 DUP3 DUP5 CALLDATACOPY PUSH1 0x0 DUP2 DUP5 ADD MSTORE PUSH1 0x1F NOT PUSH1 0x1F DUP3 ADD AND SWAP1 POP DUP1 DUP4 ADD SWAP3 POP POP POP POP POP POP POP DUP8 DUP8 DUP1 DUP1 PUSH1 0x20 MUL PUSH1 0x20 ADD PUSH1 0x40 MLOAD SWAP1 DUP2 ADD PUSH1 0x40 MSTORE DUP1 SWAP4 SWAP3 SWAP2 SWAP1 DUP2 DUP2 MSTORE PUSH1 0x20 ADD DUP4 DUP4 PUSH1 0x20 MUL DUP1 DUP3 DUP5 CALLDATACOPY PUSH1 0x0 DUP2 DUP5 ADD MSTORE PUSH1 0x1F NOT PUSH1 0x1F DUP3 ADD AND SWAP1 POP DUP1 DUP4 ADD SWAP3 POP POP POP POP POP POP POP DUP7 PUSH2 0x68F JUMP JUMPDEST POP POP POP POP POP POP POP JUMP JUMPDEST PUSH2 0xC9F PUSH2 0x1339 JUMP JUMPDEST PUSH2 0xCA9 PUSH1 0x0 PUSH2 0x190C JUMP JUMPDEST JUMP JUMPDEST PUSH2 0xCB3 PUSH2 0x1339 JUMP JUMPDEST PUSH2 0xCBF DUP5 DUP5 DUP5 DUP5 PUSH2 0x19D2 JUMP JUMPDEST POP POP POP POP JUMP JUMPDEST PUSH1 0x0 PUSH1 0x3 PUSH1 0x0 SWAP1 SLOAD SWAP1 PUSH2 0x100 EXP SWAP1 DIV PUSH20 0xFFFFFFFFFFFFFFFFFFFFFFFFFFFFFFFFFFFFFFFF AND SWAP1 POP SWAP1 JUMP JUMPDEST PUSH1 0x8 PUSH1 0x20 MSTORE DUP1 PUSH1 0x0 MSTORE PUSH1 0x40 PUSH1 0x0 KECCAK256 PUSH1 0x0 SWAP2 POP SLOAD SWAP1 PUSH2 0x100 EXP SWAP1 DIV PUSH1 0xFF AND DUP2 JUMP JUMPDEST PUSH2 0xD21 PUSH2 0xD1A PUSH2 0x15E3 JUMP JUMPDEST DUP4 DUP4 PUSH2 0x1B82 JUMP JUMPDEST POP POP JUMP JUMPDEST PUSH1 0x0 DUP1 JUMPDEST PUSH1 0x4 DUP1 SLOAD SWAP1 POP DUP2 LT ISZERO PUSH2 0xDC3 JUMPI PUSH1 0x4 DUP2 DUP2 SLOAD DUP2 LT PUSH2 0xD4A JUMPI PUSH2 0xD49 PUSH2 0x3344 JUMP JUMPDEST JUMPDEST SWAP1 PUSH1 0x0 MSTORE PUSH1 0x20 PUSH1 0x0 KECCAK256 ADD PUSH1 0x0 SWAP1 SLOAD SWAP1 PUSH2 0x100 EXP SWAP1 DIV PUSH20 0xFFFFFFFFFFFFFFFFFFFFFFFFFFFFFFFFFFFFFFFF AND PUSH20 0xFFFFFFFFFFFFFFFFFFFFFFFFFFFFFFFFFFFFFFFF AND CALLER PUSH20 0xFFFFFFFFFFFFFFFFFFFFFFFFFFFFFFFFFFFFFFFF AND SUB PUSH2 0xDB0 JUMPI PUSH1 0x1 SWAP2 POP PUSH2 0xDC3 JUMP JUMPDEST DUP1 DUP1 PUSH2 0xDBB SWAP1 PUSH2 0x33A2 JUMP JUMPDEST SWAP2 POP POP PUSH2 0xD29 JUMP JUMPDEST POP PUSH1 0x1 ISZERO ISZERO DUP2 ISZERO ISZERO EQ PUSH2 0xE0B JUMPI PUSH1 0x40 MLOAD PUSH32 0x8C379A000000000000000000000000000000000000000000000000000000000 DUP2 MSTORE PUSH1 0x4 ADD PUSH2 0xE02 SWAP1 PUSH2 0x34C8 JUMP JUMPDEST PUSH1 0x40 MLOAD DUP1 SWAP2 SUB SWAP1 REVERT JUMPDEST PUSH1 0x0 DUP1 JUMPDEST PUSH1 0x4 DUP1 SLOAD SWAP1 POP DUP2 LT ISZERO PUSH2 0xEA8 JUMPI PUSH1 0x4 DUP2 DUP2 SLOAD DUP2 LT PUSH2 0xE30 JUMPI PUSH2 0xE2F PUSH2 0x3344 JUMP JUMPDEST JUMPDEST SWAP1 PUSH1 0x0 MSTORE PUSH1 0x20 PUSH1 0x0 KECCAK256 ADD PUSH1 0x0 SWAP1 SLOAD SWAP1 PUSH2 0x100 EXP SWAP1 DIV PUSH20 0xFFFFFFFFFFFFFFFFFFFFFFFFFFFFFFFFFFFFFFFF AND PUSH20 0xFFFFFFFFFFFFFFFFFFFFFFFFFFFFFFFFFFFFFFFF AND CALLER PUSH20 0xFFFFFFFFFFFFFFFFFFFFFFFFFFFFFFFFFFFFFFFF AND SUB PUSH2 0xE95 JUMPI DUP1 SWAP2 POP PUSH2 0xEA8 JUMP JUMPDEST DUP1 DUP1 PUSH2 0xEA0 SWAP1 PUSH2 0x33A2 JUMP JUMPDEST SWAP2 POP POP PUSH2 0xE0F JUMP JUMPDEST POP DUP3 PUSH1 0x5 PUSH1 0x0 CALLER PUSH20 0xFFFFFFFFFFFFFFFFFFFFFFFFFFFFFFFFFFFFFFFF AND PUSH20 0xFFFFFFFFFFFFFFFFFFFFFFFFFFFFFFFFFFFFFFFF AND DUP2 MSTORE PUSH1 0x20 ADD SWAP1 DUP2 MSTORE PUSH1 0x20 ADD PUSH1 0x0 KECCAK256 PUSH1 0x0 DUP7 DUP2 MSTORE PUSH1 0x20 ADD SWAP1 DUP2 MSTORE PUSH1 0x20 ADD PUSH1 0x0 KECCAK256 PUSH1 0x0 PUSH2 0x100 EXP DUP2 SLOAD DUP2 PUSH1 0xFF MUL NOT AND SWAP1 DUP4 PUSH1 0x3 DUP2 GT ISZERO PUSH2 0xF1C JUMPI PUSH2 0xF1B PUSH2 0x2690 JUMP JUMPDEST JUMPDEST MUL OR SWAP1 SSTORE POP POP POP POP POP JUMP JUMPDEST PUSH1 0x7 PUSH1 0x20 MSTORE DUP1 PUSH1 0x0 MSTORE PUSH1 0x40 PUSH1 0x0 KECCAK256 PUSH1 0x0 SWAP2 POP SLOAD SWAP1 PUSH2 0x100 EXP SWAP1 DIV PUSH1 0xFF AND DUP2 JUMP JUMPDEST CALLER PUSH20 0xFFFFFFFFFFFFFFFFFFFFFFFFFFFFFFFFFFFFFFFF AND PUSH32 0x3D3735B6B82DC6DBC33760218A1DC3A6CF77780E1774C8CD7D74DEC8DA518AA0 DUP4 DUP4 PUSH1 0x40 MLOAD PUSH2 0xF8F SWAP3 SWAP2 SWAP1 PUSH2 0x3552 JUMP JUMPDEST PUSH1 0x40 MLOAD DUP1 SWAP2 SUB SWAP1 LOG2 PUSH1 0x0 JUMPDEST DUP3 DUP3 SWAP1 POP DUP2 LT ISZERO PUSH2 0x100D JUMPI PUSH1 0x2 PUSH1 0x7 PUSH1 0x0 DUP6 DUP6 DUP6 DUP2 DUP2 LT PUSH2 0xFBE JUMPI PUSH2 0xFBD PUSH2 0x3344 JUMP JUMPDEST JUMPDEST SWAP1 POP PUSH1 0x20 MUL ADD CALLDATALOAD DUP2 MSTORE PUSH1 0x20 ADD SWAP1 DUP2 MSTORE PUSH1 0x20 ADD PUSH1 0x0 KECCAK256 PUSH1 0x0 PUSH2 0x100 EXP DUP2 SLOAD DUP2 PUSH1 0xFF MUL NOT AND SWAP1 DUP4 PUSH1 0x2 DUP2 GT ISZERO PUSH2 0xFF5 JUMPI PUSH2 0xFF4 PUSH2 0x2690 JUMP JUMPDEST JUMPDEST MUL OR SWAP1 SSTORE POP DUP1 DUP1 PUSH2 0x1005 SWAP1 PUSH2 0x33A2 JUMP JUMPDEST SWAP2 POP POP PUSH2 0xF9A JUMP JUMPDEST POP POP POP JUMP JUMPDEST PUSH1 0x0 PUSH1 0x1 PUSH1 0x0 DUP5 PUSH20 0xFFFFFFFFFFFFFFFFFFFFFFFFFFFFFFFFFFFFFFFF AND PUSH20 0xFFFFFFFFFFFFFFFFFFFFFFFFFFFFFFFFFFFFFFFF AND DUP2 MSTORE PUSH1 0x20 ADD SWAP1 DUP2 MSTORE PUSH1 0x20 ADD PUSH1 0x0 KECCAK256 PUSH1 0x0 DUP4 PUSH20 0xFFFFFFFFFFFFFFFFFFFFFFFFFFFFFFFFFFFFFFFF AND PUSH20 0xFFFFFFFFFFFFFFFFFFFFFFFFFFFFFFFFFFFFFFFF AND DUP2 MSTORE PUSH1 0x20 ADD SWAP1 DUP2 MSTORE PUSH1 0x20 ADD PUSH1 0x0 KECCAK256 PUSH1 0x0 SWAP1 SLOAD SWAP1 PUSH2 0x100 EXP SWAP1 DIV PUSH1 0xFF AND SWAP1 POP SWAP3 SWAP2 POP POP JUMP JUMPDEST PUSH2 0x10AE PUSH2 0x15E3 JUMP JUMPDEST PUSH20 0xFFFFFFFFFFFFFFFFFFFFFFFFFFFFFFFFFFFFFFFF AND DUP6 PUSH20 0xFFFFFFFFFFFFFFFFFFFFFFFFFFFFFFFFFFFFFFFF AND EQ DUP1 PUSH2 0x10F4 JUMPI POP PUSH2 0x10F3 DUP6 PUSH2 0x10EE PUSH2 0x15E3 JUMP JUMPDEST PUSH2 0x1012 JUMP JUMPDEST JUMPDEST PUSH2 0x1133 JUMPI PUSH1 0x40 MLOAD PUSH32 0x8C379A000000000000000000000000000000000000000000000000000000000 DUP2 MSTORE PUSH1 0x4 ADD PUSH2 0x112A SWAP1 PUSH2 0x3324 JUMP JUMPDEST PUSH1 0x40 MLOAD DUP1 SWAP2 SUB SWAP1 REVERT JUMPDEST PUSH2 0x1140 DUP6 DUP6 DUP6 DUP6 DUP6 PUSH2 0x1CEE JUMP JUMPDEST POP POP POP POP POP JUMP JUMPDEST PUSH2 0x114F PUSH2 0x1339 JUMP JUMPDEST PUSH1 0x0 PUSH20 0xFFFFFFFFFFFFFFFFFFFFFFFFFFFFFFFFFFFFFFFF AND DUP2 PUSH20 0xFFFFFFFFFFFFFFFFFFFFFFFFFFFFFFFFFFFFFFFF AND SUB PUSH2 0x11BE JUMPI PUSH1 0x40 MLOAD PUSH32 0x8C379A000000000000000000000000000000000000000000000000000000000 DUP2 MSTORE PUSH1 0x4 ADD PUSH2 0x11B5 SWAP1 PUSH2 0x35E8 JUMP JUMPDEST PUSH1 0x40 MLOAD DUP1 SWAP2 SUB SWAP1 REVERT JUMPDEST PUSH2 0x11C7 DUP2 PUSH2 0x190C JUMP JUMPDEST POP JUMP JUMPDEST PUSH1 0x8 PUSH1 0x0 DUP6 DUP2 MSTORE PUSH1 0x20 ADD SWAP1 DUP2 MSTORE PUSH1 0x20 ADD PUSH1 0x0 KECCAK256 PUSH1 0x0 SWAP1 SLOAD SWAP1 PUSH2 0x100 EXP SWAP1 DIV PUSH1 0xFF AND DUP1 ISZERO PUSH2 0x11F4 JUMPI POP DUP1 JUMPDEST ISZERO PUSH2 0x125D JUMPI PUSH1 0x4 DUP6 SWAP1 DUP1 PUSH1 0x1 DUP2 SLOAD ADD DUP1 DUP3 SSTORE DUP1 SWAP2 POP POP PUSH1 0x1 SWAP1 SUB SWAP1 PUSH1 0x0 MSTORE PUSH1 0x20 PUSH1 0x0 KECCAK256 ADD PUSH1 0x0 SWAP1 SWAP2 SWAP1 SWAP2 SWAP1 SWAP2 PUSH2 0x100 EXP DUP2 SLOAD DUP2 PUSH20 0xFFFFFFFFFFFFFFFFFFFFFFFFFFFFFFFFFFFFFFFF MUL NOT AND SWAP1 DUP4 PUSH20 0xFFFFFFFFFFFFFFFFFFFFFFFFFFFFFFFFFFFFFFFF AND MUL OR SWAP1 SSTORE POP JUMPDEST DUP1 ISZERO DUP1 ISZERO PUSH2 0x1289 JUMPI POP PUSH1 0x8 PUSH1 0x0 DUP6 DUP2 MSTORE PUSH1 0x20 ADD SWAP1 DUP2 MSTORE PUSH1 0x20 ADD PUSH1 0x0 KECCAK256 PUSH1 0x0 SWAP1 SLOAD SWAP1 PUSH2 0x100 EXP SWAP1 DIV PUSH1 0xFF AND ISZERO JUMPDEST ISZERO PUSH2 0x12BB JUMPI PUSH1 0x0 PUSH1 0x8 PUSH1 0x0 DUP7 DUP2 MSTORE PUSH1 0x20 ADD SWAP1 DUP2 MSTORE PUSH1 0x20 ADD PUSH1 0x0 KECCAK256 PUSH1 0x0 PUSH2 0x100 EXP DUP2 SLOAD DUP2 PUSH1 0xFF MUL NOT AND SWAP1 DUP4 ISZERO ISZERO MUL OR SWAP1 SSTORE POP JUMPDEST PUSH2 0x12C8 CALLER DUP7 DUP7 DUP7 DUP7 PUSH2 0x10A6 JUMP JUMPDEST POP POP POP POP POP JUMP JUMPDEST PUSH1 0x0 PUSH32 0x1FFC9A700000000000000000000000000000000000000000000000000000000 PUSH28 0xFFFFFFFFFFFFFFFFFFFFFFFFFFFFFFFFFFFFFFFFFFFFFFFFFFFFFFFF NOT AND DUP3 PUSH28 0xFFFFFFFFFFFFFFFFFFFFFFFFFFFFFFFFFFFFFFFFFFFFFFFFFFFFFFFF NOT AND EQ SWAP1 POP SWAP2 SWAP1 POP JUMP JUMPDEST PUSH2 0x1341 PUSH2 0x15E3 JUMP JUMPDEST PUSH20 0xFFFFFFFFFFFFFFFFFFFFFFFFFFFFFFFFFFFFFFFF AND PUSH2 0x135F PUSH2 0xCC5 JUMP JUMPDEST PUSH20 0xFFFFFFFFFFFFFFFFFFFFFFFFFFFFFFFFFFFFFFFF AND EQ PUSH2 0x13B5 JUMPI PUSH1 0x40 MLOAD PUSH32 0x8C379A000000000000000000000000000000000000000000000000000000000 DUP2 MSTORE PUSH1 0x4 ADD PUSH2 0x13AC SWAP1 PUSH2 0x3654 JUMP JUMPDEST PUSH1 0x40 MLOAD DUP1 SWAP2 SUB SWAP1 REVERT JUMPDEST JUMP JUMPDEST PUSH1 0x0 PUSH20 0xFFFFFFFFFFFFFFFFFFFFFFFFFFFFFFFFFFFFFFFF AND DUP5 PUSH20 0xFFFFFFFFFFFFFFFFFFFFFFFFFFFFFFFFFFFFFFFF AND SUB PUSH2 0x1426 JUMPI PUSH1 0x40 MLOAD PUSH32 0x8C379A000000000000000000000000000000000000000000000000000000000 DUP2 MSTORE PUSH1 0x4 ADD PUSH2 0x141D SWAP1 PUSH2 0x36E6 JUMP JUMPDEST PUSH1 0x40 MLOAD DUP1 SWAP2 SUB SWAP1 REVERT JUMPDEST DUP2 MLOAD DUP4 MLOAD EQ PUSH2 0x146A JUMPI PUSH1 0x40 MLOAD PUSH32 0x8C379A000000000000000000000000000000000000000000000000000000000 DUP2 MSTORE PUSH1 0x4 ADD PUSH2 0x1461 SWAP1 PUSH2 0x3778 JUMP JUMPDEST PUSH1 0x40 MLOAD DUP1 SWAP2 SUB SWAP1 REVERT JUMPDEST PUSH1 0x0 PUSH2 0x1474 PUSH2 0x15E3 JUMP JUMPDEST SWAP1 POP PUSH2 0x1485 DUP2 PUSH1 0x0 DUP8 DUP8 DUP8 DUP8 PUSH2 0x1F89 JUMP JUMPDEST PUSH1 0x0 JUMPDEST DUP5 MLOAD DUP2 LT ISZERO PUSH2 0x153E JUMPI DUP4 DUP2 DUP2 MLOAD DUP2 LT PUSH2 0x14A4 JUMPI PUSH2 0x14A3 PUSH2 0x3344 JUMP JUMPDEST JUMPDEST PUSH1 0x20 MUL PUSH1 0x20 ADD ADD MLOAD PUSH1 0x0 DUP1 DUP8 DUP5 DUP2 MLOAD DUP2 LT PUSH2 0x14C2 JUMPI PUSH2 0x14C1 PUSH2 0x3344 JUMP JUMPDEST JUMPDEST PUSH1 0x20 MUL PUSH1 0x20 ADD ADD MLOAD DUP2 MSTORE PUSH1 0x20 ADD SWAP1 DUP2 MSTORE PUSH1 0x20 ADD PUSH1 0x0 KECCAK256 PUSH1 0x0 DUP9 PUSH20 0xFFFFFFFFFFFFFFFFFFFFFFFFFFFFFFFFFFFFFFFF AND PUSH20 0xFFFFFFFFFFFFFFFFFFFFFFFFFFFFFFFFFFFFFFFF AND DUP2 MSTORE PUSH1 0x20 ADD SWAP1 DUP2 MSTORE PUSH1 0x20 ADD PUSH1 0x0 KECCAK256 PUSH1 0x0 DUP3 DUP3 SLOAD PUSH2 0x1524 SWAP2 SWAP1 PUSH2 0x3798 JUMP JUMPDEST SWAP3 POP POP DUP2 SWAP1 SSTORE POP DUP1 DUP1 PUSH2 0x1536 SWAP1 PUSH2 0x33A2 JUMP JUMPDEST SWAP2 POP POP PUSH2 0x1488 JUMP JUMPDEST POP DUP5 PUSH20 0xFFFFFFFFFFFFFFFFFFFFFFFFFFFFFFFFFFFFFFFF AND PUSH1 0x0 PUSH20 0xFFFFFFFFFFFFFFFFFFFFFFFFFFFFFFFFFFFFFFFF AND DUP3 PUSH20 0xFFFFFFFFFFFFFFFFFFFFFFFFFFFFFFFFFFFFFFFF AND PUSH32 0x4A39DC06D4C0DBC64B70AF90FD698A233A518AA5D07E595D983B8C0526C8F7FB DUP8 DUP8 PUSH1 0x40 MLOAD PUSH2 0x15B6 SWAP3 SWAP2 SWAP1 PUSH2 0x37CC JUMP JUMPDEST PUSH1 0x40 MLOAD DUP1 SWAP2 SUB SWAP1 LOG4 PUSH2 0x15CD DUP2 PUSH1 0x0 DUP8 DUP8 DUP8 DUP8 PUSH2 0x1F91 JUMP JUMPDEST PUSH2 0x15DC DUP2 PUSH1 0x0 DUP8 DUP8 DUP8 DUP8 PUSH2 0x1F99 JUMP JUMPDEST POP POP POP POP POP JUMP JUMPDEST PUSH1 0x0 CALLER SWAP1 POP SWAP1 JUMP JUMPDEST DUP2 MLOAD DUP4 MLOAD EQ PUSH2 0x162F JUMPI PUSH1 0x40 MLOAD PUSH32 0x8C379A000000000000000000000000000000000000000000000000000000000 DUP2 MSTORE PUSH1 0x4 ADD PUSH2 0x1626 SWAP1 PUSH2 0x3778 JUMP JUMPDEST PUSH1 0x40 MLOAD DUP1 SWAP2 SUB SWAP1 REVERT JUMPDEST PUSH1 0x0 PUSH20 0xFFFFFFFFFFFFFFFFFFFFFFFFFFFFFFFFFFFFFFFF AND DUP5 PUSH20 0xFFFFFFFFFFFFFFFFFFFFFFFFFFFFFFFFFFFFFFFF AND SUB PUSH2 0x169E JUMPI PUSH1 0x40 MLOAD PUSH32 0x8C379A000000000000000000000000000000000000000000000000000000000 DUP2 MSTORE PUSH1 0x4 ADD PUSH2 0x1695 SWAP1 PUSH2 0x3875 JUMP JUMPDEST PUSH1 0x40 MLOAD DUP1 SWAP2 SUB SWAP1 REVERT JUMPDEST PUSH1 0x0 PUSH2 0x16A8 PUSH2 0x15E3 JUMP JUMPDEST SWAP1 POP PUSH2 0x16B8 DUP2 DUP8 DUP8 DUP8 DUP8 DUP8 PUSH2 0x1F89 JUMP JUMPDEST PUSH1 0x0 JUMPDEST DUP5 MLOAD DUP2 LT ISZERO PUSH2 0x1869 JUMPI PUSH1 0x0 DUP6 DUP3 DUP2 MLOAD DUP2 LT PUSH2 0x16D9 JUMPI PUSH2 0x16D8 PUSH2 0x3344 JUMP JUMPDEST JUMPDEST PUSH1 0x20 MUL PUSH1 0x20 ADD ADD MLOAD SWAP1 POP PUSH1 0x0 DUP6 DUP4 DUP2 MLOAD DUP2 LT PUSH2 0x16F8 JUMPI PUSH2 0x16F7 PUSH2 0x3344 JUMP JUMPDEST JUMPDEST PUSH1 0x20 MUL PUSH1 0x20 ADD ADD MLOAD SWAP1 POP PUSH1 0x0 DUP1 PUSH1 0x0 DUP5 DUP2 MSTORE PUSH1 0x20 ADD SWAP1 DUP2 MSTORE PUSH1 0x20 ADD PUSH1 0x0 KECCAK256 PUSH1 0x0 DUP12 PUSH20 0xFFFFFFFFFFFFFFFFFFFFFFFFFFFFFFFFFFFFFFFF AND PUSH20 0xFFFFFFFFFFFFFFFFFFFFFFFFFFFFFFFFFFFFFFFF AND DUP2 MSTORE PUSH1 0x20 ADD SWAP1 DUP2 MSTORE PUSH1 0x20 ADD PUSH1 0x0 KECCAK256 SLOAD SWAP1 POP DUP2 DUP2 LT ISZERO PUSH2 0x1799 JUMPI PUSH1 0x40 MLOAD PUSH32 0x8C379A000000000000000000000000000000000000000000000000000000000 DUP2 MSTORE PUSH1 0x4 ADD PUSH2 0x1790 SWAP1 PUSH2 0x3907 JUMP JUMPDEST PUSH1 0x40 MLOAD DUP1 SWAP2 SUB SWAP1 REVERT JUMPDEST DUP2 DUP2 SUB PUSH1 0x0 DUP1 DUP6 DUP2 MSTORE PUSH1 0x20 ADD SWAP1 DUP2 MSTORE PUSH1 0x20 ADD PUSH1 0x0 KECCAK256 PUSH1 0x0 DUP13 PUSH20 0xFFFFFFFFFFFFFFFFFFFFFFFFFFFFFFFFFFFFFFFF AND PUSH20 0xFFFFFFFFFFFFFFFFFFFFFFFFFFFFFFFFFFFFFFFF AND DUP2 MSTORE PUSH1 0x20 ADD SWAP1 DUP2 MSTORE PUSH1 0x20 ADD PUSH1 0x0 KECCAK256 DUP2 SWAP1 SSTORE POP DUP2 PUSH1 0x0 DUP1 DUP6 DUP2 MSTORE PUSH1 0x20 ADD SWAP1 DUP2 MSTORE PUSH1 0x20 ADD PUSH1 0x0 KECCAK256 PUSH1 0x0 DUP12 PUSH20 0xFFFFFFFFFFFFFFFFFFFFFFFFFFFFFFFFFFFFFFFF AND PUSH20 0xFFFFFFFFFFFFFFFFFFFFFFFFFFFFFFFFFFFFFFFF AND DUP2 MSTORE PUSH1 0x20 ADD SWAP1 DUP2 MSTORE PUSH1 0x20 ADD PUSH1 0x0 KECCAK256 PUSH1 0x0 DUP3 DUP3 SLOAD PUSH2 0x184E SWAP2 SWAP1 PUSH2 0x3798 JUMP JUMPDEST SWAP3 POP POP DUP2 SWAP1 SSTORE POP POP POP POP DUP1 PUSH2 0x1862 SWAP1 PUSH2 0x33A2 JUMP JUMPDEST SWAP1 POP PUSH2 0x16BB JUMP JUMPDEST POP DUP5 PUSH20 0xFFFFFFFFFFFFFFFFFFFFFFFFFFFFFFFFFFFFFFFF AND DUP7 PUSH20 0xFFFFFFFFFFFFFFFFFFFFFFFFFFFFFFFFFFFFFFFF AND DUP3 PUSH20 0xFFFFFFFFFFFFFFFFFFFFFFFFFFFFFFFFFFFFFFFF AND PUSH32 0x4A39DC06D4C0DBC64B70AF90FD698A233A518AA5D07E595D983B8C0526C8F7FB DUP8 DUP8 PUSH1 0x40 MLOAD PUSH2 0x18E0 SWAP3 SWAP2 SWAP1 PUSH2 0x37CC JUMP JUMPDEST PUSH1 0x40 MLOAD DUP1 SWAP2 SUB SWAP1 LOG4 PUSH2 0x18F6 DUP2 DUP8 DUP8 DUP8 DUP8 DUP8 PUSH2 0x1F91 JUMP JUMPDEST PUSH2 0x1904 DUP2 DUP8 DUP8 DUP8 DUP8 DUP8 PUSH2 0x1F99 JUMP JUMPDEST POP POP POP POP POP POP JUMP JUMPDEST PUSH1 0x0 PUSH1 0x3 PUSH1 0x0 SWAP1 SLOAD SWAP1 PUSH2 0x100 EXP SWAP1 DIV PUSH20 0xFFFFFFFFFFFFFFFFFFFFFFFFFFFFFFFFFFFFFFFF AND SWAP1 POP DUP2 PUSH1 0x3 PUSH1 0x0 PUSH2 0x100 EXP DUP2 SLOAD DUP2 PUSH20 0xFFFFFFFFFFFFFFFFFFFFFFFFFFFFFFFFFFFFFFFF MUL NOT AND SWAP1 DUP4 PUSH20 0xFFFFFFFFFFFFFFFFFFFFFFFFFFFFFFFFFFFFFFFF AND MUL OR SWAP1 SSTORE POP DUP2 PUSH20 0xFFFFFFFFFFFFFFFFFFFFFFFFFFFFFFFFFFFFFFFF AND DUP2 PUSH20 0xFFFFFFFFFFFFFFFFFFFFFFFFFFFFFFFFFFFFFFFF AND PUSH32 0x8BE0079C531659141344CD1FD0A4F28419497F9722A3DAAFE3B4186F6B6457E0 PUSH1 0x40 MLOAD PUSH1 0x40 MLOAD DUP1 SWAP2 SUB SWAP1 LOG3 POP POP JUMP JUMPDEST PUSH1 0x0 PUSH20 0xFFFFFFFFFFFFFFFFFFFFFFFFFFFFFFFFFFFFFFFF AND DUP5 PUSH20 0xFFFFFFFFFFFFFFFFFFFFFFFFFFFFFFFFFFFFFFFF AND SUB PUSH2 0x1A41 JUMPI PUSH1 0x40 MLOAD PUSH32 0x8C379A000000000000000000000000000000000000000000000000000000000 DUP2 MSTORE PUSH1 0x4 ADD PUSH2 0x1A38 SWAP1 PUSH2 0x36E6 JUMP JUMPDEST PUSH1 0x40 MLOAD DUP1 SWAP2 SUB SWAP1 REVERT JUMPDEST PUSH1 0x0 PUSH2 0x1A4B PUSH2 0x15E3 JUMP JUMPDEST SWAP1 POP PUSH1 0x0 PUSH2 0x1A58 DUP6 PUSH2 0x2170 JUMP JUMPDEST SWAP1 POP PUSH1 0x0 PUSH2 0x1A65 DUP6 PUSH2 0x2170 JUMP JUMPDEST SWAP1 POP PUSH2 0x1A76 DUP4 PUSH1 0x0 DUP10 DUP6 DUP6 DUP10 PUSH2 0x1F89 JUMP JUMPDEST DUP5 PUSH1 0x0 DUP1 DUP9 DUP2 MSTORE PUSH1 0x20 ADD SWAP1 DUP2 MSTORE PUSH1 0x20 ADD PUSH1 0x0 KECCAK256 PUSH1 0x0 DUP10 PUSH20 0xFFFFFFFFFFFFFFFFFFFFFFFFFFFFFFFFFFFFFFFF AND PUSH20 0xFFFFFFFFFFFFFFFFFFFFFFFFFFFFFFFFFFFFFFFF AND DUP2 MSTORE PUSH1 0x20 ADD SWAP1 DUP2 MSTORE PUSH1 0x20 ADD PUSH1 0x0 KECCAK256 PUSH1 0x0 DUP3 DUP3 SLOAD PUSH2 0x1AD5 SWAP2 SWAP1 PUSH2 0x3798 JUMP JUMPDEST SWAP3 POP POP DUP2 SWAP1 SSTORE POP DUP7 PUSH20 0xFFFFFFFFFFFFFFFFFFFFFFFFFFFFFFFFFFFFFFFF AND PUSH1 0x0 PUSH20 0xFFFFFFFFFFFFFFFFFFFFFFFFFFFFFFFFFFFFFFFF AND DUP5 PUSH20 0xFFFFFFFFFFFFFFFFFFFFFFFFFFFFFFFFFFFFFFFF AND PUSH32 0xC3D58168C5AE7397731D063D5BBF3D657854427343F4C083240F7AACAA2D0F62 DUP10 DUP10 PUSH1 0x40 MLOAD PUSH2 0x1B53 SWAP3 SWAP2 SWAP1 PUSH2 0x3927 JUMP JUMPDEST PUSH1 0x40 MLOAD DUP1 SWAP2 SUB SWAP1 LOG4 PUSH2 0x1B6A DUP4 PUSH1 0x0 DUP10 DUP6 DUP6 DUP10 PUSH2 0x1F91 JUMP JUMPDEST PUSH2 0x1B79 DUP4 PUSH1 0x0 DUP10 DUP10 DUP10 DUP10 PUSH2 0x21EA JUMP JUMPDEST POP POP POP POP POP POP POP JUMP JUMPDEST DUP2 PUSH20 0xFFFFFFFFFFFFFFFFFFFFFFFFFFFFFFFFFFFFFFFF AND DUP4 PUSH20 0xFFFFFFFFFFFFFFFFFFFFFFFFFFFFFFFFFFFFFFFF AND SUB PUSH2 0x1BF0 JUMPI PUSH1 0x40 MLOAD PUSH32 0x8C379A000000000000000000000000000000000000000000000000000000000 DUP2 MSTORE PUSH1 0x4 ADD PUSH2 0x1BE7 SWAP1 PUSH2 0x39C2 JUMP JUMPDEST PUSH1 0x40 MLOAD DUP1 SWAP2 SUB SWAP1 REVERT JUMPDEST DUP1 PUSH1 0x1 PUSH1 0x0 DUP6 PUSH20 0xFFFFFFFFFFFFFFFFFFFFFFFFFFFFFFFFFFFFFFFF AND PUSH20 0xFFFFFFFFFFFFFFFFFFFFFFFFFFFFFFFFFFFFFFFF AND DUP2 MSTORE PUSH1 0x20 ADD SWAP1 DUP2 MSTORE PUSH1 0x20 ADD PUSH1 0x0 KECCAK256 PUSH1 0x0 DUP5 PUSH20 0xFFFFFFFFFFFFFFFFFFFFFFFFFFFFFFFFFFFFFFFF AND PUSH20 0xFFFFFFFFFFFFFFFFFFFFFFFFFFFFFFFFFFFFFFFF AND DUP2 MSTORE PUSH1 0x20 ADD SWAP1 DUP2 MSTORE PUSH1 0x20 ADD PUSH1 0x0 KECCAK256 PUSH1 0x0 PUSH2 0x100 EXP DUP2 SLOAD DUP2 PUSH1 0xFF MUL NOT AND SWAP1 DUP4 ISZERO ISZERO MUL OR SWAP1 SSTORE POP DUP2 PUSH20 0xFFFFFFFFFFFFFFFFFFFFFFFFFFFFFFFFFFFFFFFF AND DUP4 PUSH20 0xFFFFFFFFFFFFFFFFFFFFFFFFFFFFFFFFFFFFFFFF AND PUSH32 0x17307EAB39AB6107E8899845AD3D59BD9653F200F220920489CA2B5937696C31 DUP4 PUSH1 0x40 MLOAD PUSH2 0x1CE1 SWAP2 SWAP1 PUSH2 0x2596 JUMP JUMPDEST PUSH1 0x40 MLOAD DUP1 SWAP2 SUB SWAP1 LOG3 POP POP POP JUMP JUMPDEST PUSH1 0x0 PUSH20 0xFFFFFFFFFFFFFFFFFFFFFFFFFFFFFFFFFFFFFFFF AND DUP5 PUSH20 0xFFFFFFFFFFFFFFFFFFFFFFFFFFFFFFFFFFFFFFFF AND SUB PUSH2 0x1D5D JUMPI PUSH1 0x40 MLOAD PUSH32 0x8C379A000000000000000000000000000000000000000000000000000000000 DUP2 MSTORE PUSH1 0x4 ADD PUSH2 0x1D54 SWAP1 PUSH2 0x3875 JUMP JUMPDEST PUSH1 0x40 MLOAD DUP1 SWAP2 SUB SWAP1 REVERT JUMPDEST PUSH1 0x0 PUSH2 0x1D67 PUSH2 0x15E3 JUMP JUMPDEST SWAP1 POP PUSH1 0x0 PUSH2 0x1D74 DUP6 PUSH2 0x2170 JUMP JUMPDEST SWAP1 POP PUSH1 0x0 PUSH2 0x1D81 DUP6 PUSH2 0x2170 JUMP JUMPDEST SWAP1 POP PUSH2 0x1D91 DUP4 DUP10 DUP10 DUP6 DUP6 DUP10 PUSH2 0x1F89 JUMP JUMPDEST PUSH1 0x0 DUP1 PUSH1 0x0 DUP9 DUP2 MSTORE PUSH1 0x20 ADD SWAP1 DUP2 MSTORE PUSH1 0x20 ADD PUSH1 0x0 KECCAK256 PUSH1 0x0 DUP11 PUSH20 0xFFFFFFFFFFFFFFFFFFFFFFFFFFFFFFFFFFFFFFFF AND PUSH20 0xFFFFFFFFFFFFFFFFFFFFFFFFFFFFFFFFFFFFFFFF AND DUP2 MSTORE PUSH1 0x20 ADD SWAP1 DUP2 MSTORE PUSH1 0x20 ADD PUSH1 0x0 KECCAK256 SLOAD SWAP1 POP DUP6 DUP2 LT ISZERO PUSH2 0x1E28 JUMPI PUSH1 0x40 MLOAD PUSH32 0x8C379A000000000000000000000000000000000000000000000000000000000 DUP2 MSTORE PUSH1 0x4 ADD PUSH2 0x1E1F SWAP1 PUSH2 0x3907 JUMP JUMPDEST PUSH1 0x40 MLOAD DUP1 SWAP2 SUB SWAP1 REVERT JUMPDEST DUP6 DUP2 SUB PUSH1 0x0 DUP1 DUP10 DUP2 MSTORE PUSH1 0x20 ADD SWAP1 DUP2 MSTORE PUSH1 0x20 ADD PUSH1 0x0 KECCAK256 PUSH1 0x0 DUP12 PUSH20 0xFFFFFFFFFFFFFFFFFFFFFFFFFFFFFFFFFFFFFFFF AND PUSH20 0xFFFFFFFFFFFFFFFFFFFFFFFFFFFFFFFFFFFFFFFF AND DUP2 MSTORE PUSH1 0x20 ADD SWAP1 DUP2 MSTORE PUSH1 0x20 ADD PUSH1 0x0 KECCAK256 DUP2 SWAP1 SSTORE POP DUP6 PUSH1 0x0 DUP1 DUP10 DUP2 MSTORE PUSH1 0x20 ADD SWAP1 DUP2 MSTORE PUSH1 0x20 ADD PUSH1 0x0 KECCAK256 PUSH1 0x0 DUP11 PUSH20 0xFFFFFFFFFFFFFFFFFFFFFFFFFFFFFFFFFFFFFFFF AND PUSH20 0xFFFFFFFFFFFFFFFFFFFFFFFFFFFFFFFFFFFFFFFF AND DUP2 MSTORE PUSH1 0x20 ADD SWAP1 DUP2 MSTORE PUSH1 0x20 ADD PUSH1 0x0 KECCAK256 PUSH1 0x0 DUP3 DUP3 SLOAD PUSH2 0x1EDD SWAP2 SWAP1 PUSH2 0x3798 JUMP JUMPDEST SWAP3 POP POP DUP2 SWAP1 SSTORE POP DUP8 PUSH20 0xFFFFFFFFFFFFFFFFFFFFFFFFFFFFFFFFFFFFFFFF AND DUP10 PUSH20 0xFFFFFFFFFFFFFFFFFFFFFFFFFFFFFFFFFFFFFFFF AND DUP6 PUSH20 0xFFFFFFFFFFFFFFFFFFFFFFFFFFFFFFFFFFFFFFFF AND PUSH32 0xC3D58168C5AE7397731D063D5BBF3D657854427343F4C083240F7AACAA2D0F62 DUP11 DUP11 PUSH1 0x40 MLOAD PUSH2 0x1F5A SWAP3 SWAP2 SWAP1 PUSH2 0x3927 JUMP JUMPDEST PUSH1 0x40 MLOAD DUP1 SWAP2 SUB SWAP1 LOG4 PUSH2 0x1F70 DUP5 DUP11 DUP11 DUP7 DUP7 DUP11 PUSH2 0x1F91 JUMP JUMPDEST PUSH2 0x1F7E DUP5 DUP11 DUP11 DUP11 DUP11 DUP11 PUSH2 0x21EA JUMP JUMPDEST POP POP POP POP POP POP POP POP POP JUMP JUMPDEST POP POP POP POP POP POP JUMP JUMPDEST POP POP POP POP POP POP JUMP JUMPDEST PUSH2 0x1FB8 DUP5 PUSH20 0xFFFFFFFFFFFFFFFFFFFFFFFFFFFFFFFFFFFFFFFF AND PUSH2 0x23C1 JUMP JUMPDEST ISZERO PUSH2 0x2168 JUMPI DUP4 PUSH20 0xFFFFFFFFFFFFFFFFFFFFFFFFFFFFFFFFFFFFFFFF AND PUSH4 0xBC197C81 DUP8 DUP8 DUP7 DUP7 DUP7 PUSH1 0x40 MLOAD DUP7 PUSH4 0xFFFFFFFF AND PUSH1 0xE0 SHL DUP2 MSTORE PUSH1 0x4 ADD PUSH2 0x1FFE SWAP6 SWAP5 SWAP4 SWAP3 SWAP2 SWAP1 PUSH2 0x3A37 JUMP JUMPDEST PUSH1 0x20 PUSH1 0x40 MLOAD DUP1 DUP4 SUB DUP2 PUSH1 0x0 DUP8 GAS CALL SWAP3 POP POP POP DUP1 ISZERO PUSH2 0x203A JUMPI POP PUSH1 0x40 MLOAD RETURNDATASIZE PUSH1 0x1F NOT PUSH1 0x1F DUP3 ADD AND DUP3 ADD DUP1 PUSH1 0x40 MSTORE POP DUP2 ADD SWAP1 PUSH2 0x2037 SWAP2 SWAP1 PUSH2 0x3AB4 JUMP JUMPDEST PUSH1 0x1 JUMPDEST PUSH2 0x20DF JUMPI PUSH2 0x2046 PUSH2 0x3AEE JUMP JUMPDEST DUP1 PUSH4 0x8C379A0 SUB PUSH2 0x20A2 JUMPI POP PUSH2 0x205A PUSH2 0x3B10 JUMP JUMPDEST DUP1 PUSH2 0x2065 JUMPI POP PUSH2 0x20A4 JUMP JUMPDEST DUP1 PUSH1 0x40 MLOAD PUSH32 0x8C379A000000000000000000000000000000000000000000000000000000000 DUP2 MSTORE PUSH1 0x4 ADD PUSH2 0x2099 SWAP2 SWAP1 PUSH2 0x266E JUMP JUMPDEST PUSH1 0x40 MLOAD DUP1 SWAP2 SUB SWAP1 REVERT JUMPDEST POP JUMPDEST PUSH1 0x40 MLOAD PUSH32 0x8C379A000000000000000000000000000000000000000000000000000000000 DUP2 MSTORE PUSH1 0x4 ADD PUSH2 0x20D6 SWAP1 PUSH2 0x3C12 JUMP JUMPDEST PUSH1 0x40 MLOAD DUP1 SWAP2 SUB SWAP1 REVERT JUMPDEST PUSH4 0xBC197C81 PUSH1 0xE0 SHL PUSH28 0xFFFFFFFFFFFFFFFFFFFFFFFFFFFFFFFFFFFFFFFFFFFFFFFFFFFFFFFF NOT AND DUP2 PUSH28 0xFFFFFFFFFFFFFFFFFFFFFFFFFFFFFFFFFFFFFFFFFFFFFFFFFFFFFFFF NOT AND EQ PUSH2 0x2166 JUMPI PUSH1 0x40 MLOAD PUSH32 0x8C379A000000000000000000000000000000000000000000000000000000000 DUP2 MSTORE PUSH1 0x4 ADD PUSH2 0x215D SWAP1 PUSH2 0x3CA4 JUMP JUMPDEST PUSH1 0x40 MLOAD DUP1 SWAP2 SUB SWAP1 REVERT JUMPDEST POP JUMPDEST POP POP POP POP POP POP JUMP JUMPDEST PUSH1 0x60 PUSH1 0x0 PUSH1 0x1 PUSH8 0xFFFFFFFFFFFFFFFF DUP2 GT ISZERO PUSH2 0x218F JUMPI PUSH2 0x218E PUSH2 0x2727 JUMP JUMPDEST JUMPDEST PUSH1 0x40 MLOAD SWAP1 DUP1 DUP3 MSTORE DUP1 PUSH1 0x20 MUL PUSH1 0x20 ADD DUP3 ADD PUSH1 0x40 MSTORE DUP1 ISZERO PUSH2 0x21BD JUMPI DUP2 PUSH1 0x20 ADD PUSH1 0x20 DUP3 MUL DUP1 CALLDATASIZE DUP4 CALLDATACOPY DUP1 DUP3 ADD SWAP2 POP POP SWAP1 POP JUMPDEST POP SWAP1 POP DUP3 DUP2 PUSH1 0x0 DUP2 MLOAD DUP2 LT PUSH2 0x21D5 JUMPI PUSH2 0x21D4 PUSH2 0x3344 JUMP JUMPDEST JUMPDEST PUSH1 0x20 MUL PUSH1 0x20 ADD ADD DUP2 DUP2 MSTORE POP POP DUP1 SWAP2 POP POP SWAP2 SWAP1 POP JUMP JUMPDEST PUSH2 0x2209 DUP5 PUSH20 0xFFFFFFFFFFFFFFFFFFFFFFFFFFFFFFFFFFFFFFFF AND PUSH2 0x23C1 JUMP JUMPDEST ISZERO PUSH2 0x23B9 JUMPI DUP4 PUSH20 0xFFFFFFFFFFFFFFFFFFFFFFFFFFFFFFFFFFFFFFFF AND PUSH4 0xF23A6E61 DUP8 DUP8 DUP7 DUP7 DUP7 PUSH1 0x40 MLOAD DUP7 PUSH4 0xFFFFFFFF AND PUSH1 0xE0 SHL DUP2 MSTORE PUSH1 0x4 ADD PUSH2 0x224F SWAP6 SWAP5 SWAP4 SWAP3 SWAP2 SWAP1 PUSH2 0x3CC4 JUMP JUMPDEST PUSH1 0x20 PUSH1 0x40 MLOAD DUP1 DUP4 SUB DUP2 PUSH1 0x0 DUP8 GAS CALL SWAP3 POP POP POP DUP1 ISZERO PUSH2 0x228B JUMPI POP PUSH1 0x40 MLOAD RETURNDATASIZE PUSH1 0x1F NOT PUSH1 0x1F DUP3 ADD AND DUP3 ADD DUP1 PUSH1 0x40 MSTORE POP DUP2 ADD SWAP1 PUSH2 0x2288 SWAP2 SWAP1 PUSH2 0x3AB4 JUMP JUMPDEST PUSH1 0x1 JUMPDEST PUSH2 0x2330 JUMPI PUSH2 0x2297 PUSH2 0x3AEE JUMP JUMPDEST DUP1 PUSH4 0x8C379A0 SUB PUSH2 0x22F3 JUMPI POP PUSH2 0x22AB PUSH2 0x3B10 JUMP JUMPDEST DUP1 PUSH2 0x22B6 JUMPI POP PUSH2 0x22F5 JUMP JUMPDEST DUP1 PUSH1 0x40 MLOAD PUSH32 0x8C379A000000000000000000000000000000000000000000000000000000000 DUP2 MSTORE PUSH1 0x4 ADD PUSH2 0x22EA SWAP2 SWAP1 PUSH2 0x266E JUMP JUMPDEST PUSH1 0x40 MLOAD DUP1 SWAP2 SUB SWAP1 REVERT JUMPDEST POP JUMPDEST PUSH1 0x40 MLOAD PUSH32 0x8C379A000000000000000000000000000000000000000000000000000000000 DUP2 MSTORE PUSH1 0x4 ADD PUSH2 0x2327 SWAP1 PUSH2 0x3C12 JUMP JUMPDEST PUSH1 0x40 MLOAD DUP1 SWAP2 SUB SWAP1 REVERT JUMPDEST PUSH4 0xF23A6E61 PUSH1 0xE0 SHL PUSH28 0xFFFFFFFFFFFFFFFFFFFFFFFFFFFFFFFFFFFFFFFFFFFFFFFFFFFFFFFF NOT AND DUP2 PUSH28 0xFFFFFFFFFFFFFFFFFFFFFFFFFFFFFFFFFFFFFFFFFFFFFFFFFFFFFFFF NOT AND EQ PUSH2 0x23B7 JUMPI PUSH1 0x40 MLOAD PUSH32 0x8C379A000000000000000000000000000000000000000000000000000000000 DUP2 MSTORE PUSH1 0x4 ADD PUSH2 0x23AE SWAP1 PUSH2 0x3CA4 JUMP JUMPDEST PUSH1 0x40 MLOAD DUP1 SWAP2 SUB SWAP1 REVERT JUMPDEST POP JUMPDEST POP POP POP POP POP POP JUMP JUMPDEST PUSH1 0x0 DUP1 DUP3 PUSH20 0xFFFFFFFFFFFFFFFFFFFFFFFFFFFFFFFFFFFFFFFF AND EXTCODESIZE GT SWAP1 POP SWAP2 SWAP1 POP JUMP JUMPDEST PUSH1 0x0 PUSH1 0x40 MLOAD SWAP1 POP SWAP1 JUMP JUMPDEST PUSH1 0x0 DUP1 REVERT JUMPDEST PUSH1 0x0 DUP1 REVERT JUMPDEST PUSH1 0x0 PUSH20 0xFFFFFFFFFFFFFFFFFFFFFFFFFFFFFFFFFFFFFFFF DUP3 AND SWAP1 POP SWAP2 SWAP1 POP JUMP JUMPDEST PUSH1 0x0 PUSH2 0x2423 DUP3 PUSH2 0x23F8 JUMP JUMPDEST SWAP1 POP SWAP2 SWAP1 POP JUMP JUMPDEST PUSH2 0x2433 DUP2 PUSH2 0x2418 JUMP JUMPDEST DUP2 EQ PUSH2 0x243E JUMPI PUSH1 0x0 DUP1 REVERT JUMPDEST POP JUMP JUMPDEST PUSH1 0x0 DUP2 CALLDATALOAD SWAP1 POP PUSH2 0x2450 DUP2 PUSH2 0x242A JUMP JUMPDEST SWAP3 SWAP2 POP POP JUMP JUMPDEST PUSH1 0x0 DUP2 SWAP1 POP SWAP2 SWAP1 POP JUMP JUMPDEST PUSH2 0x2469 DUP2 PUSH2 0x2456 JUMP JUMPDEST DUP2 EQ PUSH2 0x2474 JUMPI PUSH1 0x0 DUP1 REVERT JUMPDEST POP JUMP JUMPDEST PUSH1 0x0 DUP2 CALLDATALOAD SWAP1 POP PUSH2 0x2486 DUP2 PUSH2 0x2460 JUMP JUMPDEST SWAP3 SWAP2 POP POP JUMP JUMPDEST PUSH1 0x0 DUP1 PUSH1 0x40 DUP4 DUP6 SUB SLT ISZERO PUSH2 0x24A3 JUMPI PUSH2 0x24A2 PUSH2 0x23EE JUMP JUMPDEST JUMPDEST PUSH1 0x0 PUSH2 0x24B1 DUP6 DUP3 DUP7 ADD PUSH2 0x2441 JUMP JUMPDEST SWAP3 POP POP PUSH1 0x20 PUSH2 0x24C2 DUP6 DUP3 DUP7 ADD PUSH2 0x2477 JUMP JUMPDEST SWAP2 POP POP SWAP3 POP SWAP3 SWAP1 POP JUMP JUMPDEST PUSH2 0x24D5 DUP2 PUSH2 0x2456 JUMP JUMPDEST DUP3 MSTORE POP POP JUMP JUMPDEST PUSH1 0x0 PUSH1 0x20 DUP3 ADD SWAP1 POP PUSH2 0x24F0 PUSH1 0x0 DUP4 ADD DUP5 PUSH2 0x24CC JUMP JUMPDEST SWAP3 SWAP2 POP POP JUMP JUMPDEST PUSH1 0x0 PUSH32 0xFFFFFFFF00000000000000000000000000000000000000000000000000000000 DUP3 AND SWAP1 POP SWAP2 SWAP1 POP JUMP JUMPDEST PUSH2 0x252B DUP2 PUSH2 0x24F6 JUMP JUMPDEST DUP2 EQ PUSH2 0x2536 JUMPI PUSH1 0x0 DUP1 REVERT JUMPDEST POP JUMP JUMPDEST PUSH1 0x0 DUP2 CALLDATALOAD SWAP1 POP PUSH2 0x2548 DUP2 PUSH2 0x2522 JUMP JUMPDEST SWAP3 SWAP2 POP POP JUMP JUMPDEST PUSH1 0x0 PUSH1 0x20 DUP3 DUP5 SUB SLT ISZERO PUSH2 0x2564 JUMPI PUSH2 0x2563 PUSH2 0x23EE JUMP JUMPDEST JUMPDEST PUSH1 0x0 PUSH2 0x2572 DUP5 DUP3 DUP6 ADD PUSH2 0x2539 JUMP JUMPDEST SWAP2 POP POP SWAP3 SWAP2 POP POP JUMP JUMPDEST PUSH1 0x0 DUP2 ISZERO ISZERO SWAP1 POP SWAP2 SWAP1 POP JUMP JUMPDEST PUSH2 0x2590 DUP2 PUSH2 0x257B JUMP JUMPDEST DUP3 MSTORE POP POP JUMP JUMPDEST PUSH1 0x0 PUSH1 0x20 DUP3 ADD SWAP1 POP PUSH2 0x25AB PUSH1 0x0 DUP4 ADD DUP5 PUSH2 0x2587 JUMP JUMPDEST SWAP3 SWAP2 POP POP JUMP JUMPDEST PUSH1 0x0 PUSH1 0x20 DUP3 DUP5 SUB SLT ISZERO PUSH2 0x25C7 JUMPI PUSH2 0x25C6 PUSH2 0x23EE JUMP JUMPDEST JUMPDEST PUSH1 0x0 PUSH2 0x25D5 DUP5 DUP3 DUP6 ADD PUSH2 0x2477 JUMP JUMPDEST SWAP2 POP POP SWAP3 SWAP2 POP POP JUMP JUMPDEST PUSH1 0x0 DUP2 MLOAD SWAP1 POP SWAP2 SWAP1 POP JUMP JUMPDEST PUSH1 0x0 DUP3 DUP3 MSTORE PUSH1 0x20 DUP3 ADD SWAP1 POP SWAP3 SWAP2 POP POP JUMP JUMPDEST PUSH1 0x0 JUMPDEST DUP4 DUP2 LT ISZERO PUSH2 0x2618 JUMPI DUP1 DUP3 ADD MLOAD DUP2 DUP5 ADD MSTORE PUSH1 0x20 DUP2 ADD SWAP1 POP PUSH2 0x25FD JUMP JUMPDEST PUSH1 0x0 DUP5 DUP5 ADD MSTORE POP POP POP POP JUMP JUMPDEST PUSH1 0x0 PUSH1 0x1F NOT PUSH1 0x1F DUP4 ADD AND SWAP1 POP SWAP2 SWAP1 POP JUMP JUMPDEST PUSH1 0x0 PUSH2 0x2640 DUP3 PUSH2 0x25DE JUMP JUMPDEST PUSH2 0x264A DUP2 DUP6 PUSH2 0x25E9 JUMP JUMPDEST SWAP4 POP PUSH2 0x265A DUP2 DUP6 PUSH1 0x20 DUP7 ADD PUSH2 0x25FA JUMP JUMPDEST PUSH2 0x2663 DUP2 PUSH2 0x2624 JUMP JUMPDEST DUP5 ADD SWAP2 POP POP SWAP3 SWAP2 POP POP JUMP JUMPDEST PUSH1 0x0 PUSH1 0x20 DUP3 ADD SWAP1 POP DUP2 DUP2 SUB PUSH1 0x0 DUP4 ADD MSTORE PUSH2 0x2688 DUP2 DUP5 PUSH2 0x2635 JUMP JUMPDEST SWAP1 POP SWAP3 SWAP2 POP POP JUMP JUMPDEST PUSH32 0x4E487B7100000000000000000000000000000000000000000000000000000000 PUSH1 0x0 MSTORE PUSH1 0x21 PUSH1 0x4 MSTORE PUSH1 0x24 PUSH1 0x0 REVERT JUMPDEST PUSH1 0x4 DUP2 LT PUSH2 0x26D0 JUMPI PUSH2 0x26CF PUSH2 0x2690 JUMP JUMPDEST JUMPDEST POP JUMP JUMPDEST PUSH1 0x0 DUP2 SWAP1 POP PUSH2 0x26E1 DUP3 PUSH2 0x26BF JUMP JUMPDEST SWAP2 SWAP1 POP JUMP JUMPDEST PUSH1 0x0 PUSH2 0x26F1 DUP3 PUSH2 0x26D3 JUMP JUMPDEST SWAP1 POP SWAP2 SWAP1 POP JUMP JUMPDEST PUSH2 0x2701 DUP2 PUSH2 0x26E6 JUMP JUMPDEST DUP3 MSTORE POP POP JUMP JUMPDEST PUSH1 0x0 PUSH1 0x20 DUP3 ADD SWAP1 POP PUSH2 0x271C PUSH1 0x0 DUP4 ADD DUP5 PUSH2 0x26F8 JUMP JUMPDEST SWAP3 SWAP2 POP POP JUMP JUMPDEST PUSH1 0x0 DUP1 REVERT JUMPDEST PUSH32 0x4E487B7100000000000000000000000000000000000000000000000000000000 PUSH1 0x0 MSTORE PUSH1 0x41 PUSH1 0x4 MSTORE PUSH1 0x24 PUSH1 0x0 REVERT JUMPDEST PUSH2 0x275F DUP3 PUSH2 0x2624 JUMP JUMPDEST DUP2 ADD DUP2 DUP2 LT PUSH8 0xFFFFFFFFFFFFFFFF DUP3 GT OR ISZERO PUSH2 0x277E JUMPI PUSH2 0x277D PUSH2 0x2727 JUMP JUMPDEST JUMPDEST DUP1 PUSH1 0x40 MSTORE POP POP POP JUMP JUMPDEST PUSH1 0x0 PUSH2 0x2791 PUSH2 0x23E4 JUMP JUMPDEST SWAP1 POP PUSH2 0x279D DUP3 DUP3 PUSH2 0x2756 JUMP JUMPDEST SWAP2 SWAP1 POP JUMP JUMPDEST PUSH1 0x0 PUSH8 0xFFFFFFFFFFFFFFFF DUP3 GT ISZERO PUSH2 0x27BD JUMPI PUSH2 0x27BC PUSH2 0x2727 JUMP JUMPDEST JUMPDEST PUSH1 0x20 DUP3 MUL SWAP1 POP PUSH1 0x20 DUP2 ADD SWAP1 POP SWAP2 SWAP1 POP JUMP JUMPDEST PUSH1 0x0 DUP1 REVERT JUMPDEST PUSH1 0x0 PUSH2 0x27E6 PUSH2 0x27E1 DUP5 PUSH2 0x27A2 JUMP JUMPDEST PUSH2 0x2787 JUMP JUMPDEST SWAP1 POP DUP1 DUP4 DUP3 MSTORE PUSH1 0x20 DUP3 ADD SWAP1 POP PUSH1 0x20 DUP5 MUL DUP4 ADD DUP6 DUP2 GT ISZERO PUSH2 0x2809 JUMPI PUSH2 0x2808 PUSH2 0x27CE JUMP JUMPDEST JUMPDEST DUP4 JUMPDEST DUP2 DUP2 LT ISZERO PUSH2 0x2832 JUMPI DUP1 PUSH2 0x281E DUP9 DUP3 PUSH2 0x2477 JUMP JUMPDEST DUP5 MSTORE PUSH1 0x20 DUP5 ADD SWAP4 POP POP PUSH1 0x20 DUP2 ADD SWAP1 POP PUSH2 0x280B JUMP JUMPDEST POP POP POP SWAP4 SWAP3 POP POP POP JUMP JUMPDEST PUSH1 0x0 DUP3 PUSH1 0x1F DUP4 ADD SLT PUSH2 0x2851 JUMPI PUSH2 0x2850 PUSH2 0x2722 JUMP JUMPDEST JUMPDEST DUP2 CALLDATALOAD PUSH2 0x2861 DUP5 DUP3 PUSH1 0x20 DUP7 ADD PUSH2 0x27D3 JUMP JUMPDEST SWAP2 POP POP SWAP3 SWAP2 POP POP JUMP JUMPDEST PUSH1 0x0 DUP1 REVERT JUMPDEST PUSH1 0x0 PUSH8 0xFFFFFFFFFFFFFFFF DUP3 GT ISZERO PUSH2 0x288A JUMPI PUSH2 0x2889 PUSH2 0x2727 JUMP JUMPDEST JUMPDEST PUSH2 0x2893 DUP3 PUSH2 0x2624 JUMP JUMPDEST SWAP1 POP PUSH1 0x20 DUP2 ADD SWAP1 POP SWAP2 SWAP1 POP JUMP JUMPDEST DUP3 DUP2 DUP4 CALLDATACOPY PUSH1 0x0 DUP4 DUP4 ADD MSTORE POP POP POP JUMP JUMPDEST PUSH1 0x0 PUSH2 0x28C2 PUSH2 0x28BD DUP5 PUSH2 0x286F JUMP JUMPDEST PUSH2 0x2787 JUMP JUMPDEST SWAP1 POP DUP3 DUP2 MSTORE PUSH1 0x20 DUP2 ADD DUP5 DUP5 DUP5 ADD GT ISZERO PUSH2 0x28DE JUMPI PUSH2 0x28DD PUSH2 0x286A JUMP JUMPDEST JUMPDEST PUSH2 0x28E9 DUP5 DUP3 DUP6 PUSH2 0x28A0 JUMP JUMPDEST POP SWAP4 SWAP3 POP POP POP JUMP JUMPDEST PUSH1 0x0 DUP3 PUSH1 0x1F DUP4 ADD SLT PUSH2 0x2906 JUMPI PUSH2 0x2905 PUSH2 0x2722 JUMP JUMPDEST JUMPDEST DUP2 CALLDATALOAD PUSH2 0x2916 DUP5 DUP3 PUSH1 0x20 DUP7 ADD PUSH2 0x28AF JUMP JUMPDEST SWAP2 POP POP SWAP3 SWAP2 POP POP JUMP JUMPDEST PUSH1 0x0 DUP1 PUSH1 0x0 DUP1 PUSH1 0x80 DUP6 DUP8 SUB SLT ISZERO PUSH2 0x2939 JUMPI PUSH2 0x2938 PUSH2 0x23EE JUMP JUMPDEST JUMPDEST PUSH1 0x0 PUSH2 0x2947 DUP8 DUP3 DUP9 ADD PUSH2 0x2441 JUMP JUMPDEST SWAP5 POP POP PUSH1 0x20 DUP6 ADD CALLDATALOAD PUSH8 0xFFFFFFFFFFFFFFFF DUP2 GT ISZERO PUSH2 0x2968 JUMPI PUSH2 0x2967 PUSH2 0x23F3 JUMP JUMPDEST JUMPDEST PUSH2 0x2974 DUP8 DUP3 DUP9 ADD PUSH2 0x283C JUMP JUMPDEST SWAP4 POP POP PUSH1 0x40 DUP6 ADD CALLDATALOAD PUSH8 0xFFFFFFFFFFFFFFFF DUP2 GT ISZERO PUSH2 0x2995 JUMPI PUSH2 0x2994 PUSH2 0x23F3 JUMP JUMPDEST JUMPDEST PUSH2 0x29A1 DUP8 DUP3 DUP9 ADD PUSH2 0x283C JUMP JUMPDEST SWAP3 POP POP PUSH1 0x60 DUP6 ADD CALLDATALOAD PUSH8 0xFFFFFFFFFFFFFFFF DUP2 GT ISZERO PUSH2 0x29C2 JUMPI PUSH2 0x29C1 PUSH2 0x23F3 JUMP JUMPDEST JUMPDEST PUSH2 0x29CE DUP8 DUP3 DUP9 ADD PUSH2 0x28F1 JUMP JUMPDEST SWAP2 POP POP SWAP3 SWAP6 SWAP2 SWAP5 POP SWAP3 POP JUMP JUMPDEST PUSH1 0x0 DUP1 PUSH1 0x0 DUP1 PUSH1 0x0 PUSH1 0xA0 DUP7 DUP9 SUB SLT ISZERO PUSH2 0x29F6 JUMPI PUSH2 0x29F5 PUSH2 0x23EE JUMP JUMPDEST JUMPDEST PUSH1 0x0 PUSH2 0x2A04 DUP9 DUP3 DUP10 ADD PUSH2 0x2441 JUMP JUMPDEST SWAP6 POP POP PUSH1 0x20 PUSH2 0x2A15 DUP9 DUP3 DUP10 ADD PUSH2 0x2441 JUMP JUMPDEST SWAP5 POP POP PUSH1 0x40 DUP7 ADD CALLDATALOAD PUSH8 0xFFFFFFFFFFFFFFFF DUP2 GT ISZERO PUSH2 0x2A36 JUMPI PUSH2 0x2A35 PUSH2 0x23F3 JUMP JUMPDEST JUMPDEST PUSH2 0x2A42 DUP9 DUP3 DUP10 ADD PUSH2 0x283C JUMP JUMPDEST SWAP4 POP POP PUSH1 0x60 DUP7 ADD CALLDATALOAD PUSH8 0xFFFFFFFFFFFFFFFF DUP2 GT ISZERO PUSH2 0x2A63 JUMPI PUSH2 0x2A62 PUSH2 0x23F3 JUMP JUMPDEST JUMPDEST PUSH2 0x2A6F DUP9 DUP3 DUP10 ADD PUSH2 0x283C JUMP JUMPDEST SWAP3 POP POP PUSH1 0x80 DUP7 ADD CALLDATALOAD PUSH8 0xFFFFFFFFFFFFFFFF DUP2 GT ISZERO PUSH2 0x2A90 JUMPI PUSH2 0x2A8F PUSH2 0x23F3 JUMP JUMPDEST JUMPDEST PUSH2 0x2A9C DUP9 DUP3 DUP10 ADD PUSH2 0x28F1 JUMP JUMPDEST SWAP2 POP POP SWAP3 SWAP6 POP SWAP3 SWAP6 SWAP1 SWAP4 POP JUMP JUMPDEST PUSH1 0x0 PUSH8 0xFFFFFFFFFFFFFFFF DUP3 GT ISZERO PUSH2 0x2AC4 JUMPI PUSH2 0x2AC3 PUSH2 0x2727 JUMP JUMPDEST JUMPDEST PUSH1 0x20 DUP3 MUL SWAP1 POP PUSH1 0x20 DUP2 ADD SWAP1 POP SWAP2 SWAP1 POP JUMP JUMPDEST PUSH1 0x0 PUSH2 0x2AE8 PUSH2 0x2AE3 DUP5 PUSH2 0x2AA9 JUMP JUMPDEST PUSH2 0x2787 JUMP JUMPDEST SWAP1 POP DUP1 DUP4 DUP3 MSTORE PUSH1 0x20 DUP3 ADD SWAP1 POP PUSH1 0x20 DUP5 MUL DUP4 ADD DUP6 DUP2 GT ISZERO PUSH2 0x2B0B JUMPI PUSH2 0x2B0A PUSH2 0x27CE JUMP JUMPDEST JUMPDEST DUP4 JUMPDEST DUP2 DUP2 LT ISZERO PUSH2 0x2B34 JUMPI DUP1 PUSH2 0x2B20 DUP9 DUP3 PUSH2 0x2441 JUMP JUMPDEST DUP5 MSTORE PUSH1 0x20 DUP5 ADD SWAP4 POP POP PUSH1 0x20 DUP2 ADD SWAP1 POP PUSH2 0x2B0D JUMP JUMPDEST POP POP POP SWAP4 SWAP3 POP POP POP JUMP JUMPDEST PUSH1 0x0 DUP3 PUSH1 0x1F DUP4 ADD SLT PUSH2 0x2B53 JUMPI PUSH2 0x2B52 PUSH2 0x2722 JUMP JUMPDEST JUMPDEST DUP2 CALLDATALOAD PUSH2 0x2B63 DUP5 DUP3 PUSH1 0x20 DUP7 ADD PUSH2 0x2AD5 JUMP JUMPDEST SWAP2 POP POP SWAP3 SWAP2 POP POP JUMP JUMPDEST PUSH1 0x0 DUP1 PUSH1 0x40 DUP4 DUP6 SUB SLT ISZERO PUSH2 0x2B83 JUMPI PUSH2 0x2B82 PUSH2 0x23EE JUMP JUMPDEST JUMPDEST PUSH1 0x0 DUP4 ADD CALLDATALOAD PUSH8 0xFFFFFFFFFFFFFFFF DUP2 GT ISZERO PUSH2 0x2BA1 JUMPI PUSH2 0x2BA0 PUSH2 0x23F3 JUMP JUMPDEST JUMPDEST PUSH2 0x2BAD DUP6 DUP3 DUP7 ADD PUSH2 0x2B3E JUMP JUMPDEST SWAP3 POP POP PUSH1 0x20 DUP4 ADD CALLDATALOAD PUSH8 0xFFFFFFFFFFFFFFFF DUP2 GT ISZERO PUSH2 0x2BCE JUMPI PUSH2 0x2BCD PUSH2 0x23F3 JUMP JUMPDEST JUMPDEST PUSH2 0x2BDA DUP6 DUP3 DUP7 ADD PUSH2 0x283C JUMP JUMPDEST SWAP2 POP POP SWAP3 POP SWAP3 SWAP1 POP JUMP JUMPDEST PUSH1 0x0 DUP2 MLOAD SWAP1 POP SWAP2 SWAP1 POP JUMP JUMPDEST PUSH1 0x0 DUP3 DUP3 MSTORE PUSH1 0x20 DUP3 ADD SWAP1 POP SWAP3 SWAP2 POP POP JUMP JUMPDEST PUSH1 0x0 DUP2 SWAP1 POP PUSH1 0x20 DUP3 ADD SWAP1 POP SWAP2 SWAP1 POP JUMP JUMPDEST PUSH2 0x2C19 DUP2 PUSH2 0x2456 JUMP JUMPDEST DUP3 MSTORE POP POP JUMP JUMPDEST PUSH1 0x0 PUSH2 0x2C2B DUP4 DUP4 PUSH2 0x2C10 JUMP JUMPDEST PUSH1 0x20 DUP4 ADD SWAP1 POP SWAP3 SWAP2 POP POP JUMP JUMPDEST PUSH1 0x0 PUSH1 0x20 DUP3 ADD SWAP1 POP SWAP2 SWAP1 POP JUMP JUMPDEST PUSH1 0x0 PUSH2 0x2C4F DUP3 PUSH2 0x2BE4 JUMP JUMPDEST PUSH2 0x2C59 DUP2 DUP6 PUSH2 0x2BEF JUMP JUMPDEST SWAP4 POP PUSH2 0x2C64 DUP4 PUSH2 0x2C00 JUMP JUMPDEST DUP1 PUSH1 0x0 JUMPDEST DUP4 DUP2 LT ISZERO PUSH2 0x2C95 JUMPI DUP2 MLOAD PUSH2 0x2C7C DUP9 DUP3 PUSH2 0x2C1F JUMP JUMPDEST SWAP8 POP PUSH2 0x2C87 DUP4 PUSH2 0x2C37 JUMP JUMPDEST SWAP3 POP POP PUSH1 0x1 DUP2 ADD SWAP1 POP PUSH2 0x2C68 JUMP JUMPDEST POP DUP6 SWAP4 POP POP POP POP SWAP3 SWAP2 POP POP JUMP JUMPDEST PUSH1 0x0 PUSH1 0x20 DUP3 ADD SWAP1 POP DUP2 DUP2 SUB PUSH1 0x0 DUP4 ADD MSTORE PUSH2 0x2CBC DUP2 DUP5 PUSH2 0x2C44 JUMP JUMPDEST SWAP1 POP SWAP3 SWAP2 POP POP JUMP JUMPDEST PUSH1 0x0 DUP1 REVERT JUMPDEST PUSH1 0x0 DUP1 DUP4 PUSH1 0x1F DUP5 ADD SLT PUSH2 0x2CDF JUMPI PUSH2 0x2CDE PUSH2 0x2722 JUMP JUMPDEST JUMPDEST DUP3 CALLDATALOAD SWAP1 POP PUSH8 0xFFFFFFFFFFFFFFFF DUP2 GT ISZERO PUSH2 0x2CFC JUMPI PUSH2 0x2CFB PUSH2 0x2CC4 JUMP JUMPDEST JUMPDEST PUSH1 0x20 DUP4 ADD SWAP2 POP DUP4 PUSH1 0x20 DUP3 MUL DUP4 ADD GT ISZERO PUSH2 0x2D18 JUMPI PUSH2 0x2D17 PUSH2 0x27CE JUMP JUMPDEST JUMPDEST SWAP3 POP SWAP3 SWAP1 POP JUMP JUMPDEST PUSH2 0x2D28 DUP2 PUSH2 0x257B JUMP JUMPDEST DUP2 EQ PUSH2 0x2D33 JUMPI PUSH1 0x0 DUP1 REVERT JUMPDEST POP JUMP JUMPDEST PUSH1 0x0 DUP2 CALLDATALOAD SWAP1 POP PUSH2 0x2D45 DUP2 PUSH2 0x2D1F JUMP JUMPDEST SWAP3 SWAP2 POP POP JUMP JUMPDEST PUSH1 0x0 DUP1 PUSH1 0x0 DUP1 PUSH1 0x0 DUP1 PUSH1 0x0 PUSH1 0xA0 DUP9 DUP11 SUB SLT ISZERO PUSH2 0x2D6A JUMPI PUSH2 0x2D69 PUSH2 0x23EE JUMP JUMPDEST JUMPDEST PUSH1 0x0 PUSH2 0x2D78 DUP11 DUP3 DUP12 ADD PUSH2 0x2441 JUMP JUMPDEST SWAP8 POP POP PUSH1 0x20 DUP9 ADD CALLDATALOAD PUSH8 0xFFFFFFFFFFFFFFFF DUP2 GT ISZERO PUSH2 0x2D99 JUMPI PUSH2 0x2D98 PUSH2 0x23F3 JUMP JUMPDEST JUMPDEST PUSH2 0x2DA5 DUP11 DUP3 DUP12 ADD PUSH2 0x2CC9 JUMP JUMPDEST SWAP7 POP SWAP7 POP POP PUSH1 0x40 DUP9 ADD CALLDATALOAD PUSH8 0xFFFFFFFFFFFFFFFF DUP2 GT ISZERO PUSH2 0x2DC8 JUMPI PUSH2 0x2DC7 PUSH2 0x23F3 JUMP JUMPDEST JUMPDEST PUSH2 0x2DD4 DUP11 DUP3 DUP12 ADD PUSH2 0x2CC9 JUMP JUMPDEST SWAP5 POP SWAP5 POP POP PUSH1 0x60 DUP9 ADD CALLDATALOAD PUSH8 0xFFFFFFFFFFFFFFFF DUP2 GT ISZERO PUSH2 0x2DF7 JUMPI PUSH2 0x2DF6 PUSH2 0x23F3 JUMP JUMPDEST JUMPDEST PUSH2 0x2E03 DUP11 DUP3 DUP12 ADD PUSH2 0x28F1 JUMP JUMPDEST SWAP3 POP POP PUSH1 0x80 PUSH2 0x2E14 DUP11 DUP3 DUP12 ADD PUSH2 0x2D36 JUMP JUMPDEST SWAP2 POP POP SWAP3 SWAP6 SWAP9 SWAP2 SWAP5 SWAP8 POP SWAP3 SWAP6 POP JUMP JUMPDEST PUSH1 0x0 DUP1 PUSH1 0x0 DUP1 PUSH1 0x80 DUP6 DUP8 SUB SLT ISZERO PUSH2 0x2E3D JUMPI PUSH2 0x2E3C PUSH2 0x23EE JUMP JUMPDEST JUMPDEST PUSH1 0x0 PUSH2 0x2E4B DUP8 DUP3 DUP9 ADD PUSH2 0x2441 JUMP JUMPDEST SWAP5 POP POP PUSH1 0x20 PUSH2 0x2E5C DUP8 DUP3 DUP9 ADD PUSH2 0x2477 JUMP JUMPDEST SWAP4 POP POP PUSH1 0x40 PUSH2 0x2E6D DUP8 DUP3 DUP9 ADD PUSH2 0x2477 JUMP JUMPDEST SWAP3 POP POP PUSH1 0x60 DUP6 ADD CALLDATALOAD PUSH8 0xFFFFFFFFFFFFFFFF DUP2 GT ISZERO PUSH2 0x2E8E JUMPI PUSH2 0x2E8D PUSH2 0x23F3 JUMP JUMPDEST JUMPDEST PUSH2 0x2E9A DUP8 DUP3 DUP9 ADD PUSH2 0x28F1 JUMP JUMPDEST SWAP2 POP POP SWAP3 SWAP6 SWAP2 SWAP5 POP SWAP3 POP JUMP JUMPDEST PUSH2 0x2EAF DUP2 PUSH2 0x2418 JUMP JUMPDEST DUP3 MSTORE POP POP JUMP JUMPDEST PUSH1 0x0 PUSH1 0x20 DUP3 ADD SWAP1 POP PUSH2 0x2ECA PUSH1 0x0 DUP4 ADD DUP5 PUSH2 0x2EA6 JUMP JUMPDEST SWAP3 SWAP2 POP POP JUMP JUMPDEST PUSH1 0x0 DUP1 PUSH1 0x40 DUP4 DUP6 SUB SLT ISZERO PUSH2 0x2EE7 JUMPI PUSH2 0x2EE6 PUSH2 0x23EE JUMP JUMPDEST JUMPDEST PUSH1 0x0 PUSH2 0x2EF5 DUP6 DUP3 DUP7 ADD PUSH2 0x2441 JUMP JUMPDEST SWAP3 POP POP PUSH1 0x20 PUSH2 0x2F06 DUP6 DUP3 DUP7 ADD PUSH2 0x2D36 JUMP JUMPDEST SWAP2 POP POP SWAP3 POP SWAP3 SWAP1 POP JUMP JUMPDEST PUSH1 0x4 DUP2 LT PUSH2 0x2F1D JUMPI PUSH1 0x0 DUP1 REVERT JUMPDEST POP JUMP JUMPDEST PUSH1 0x0 DUP2 CALLDATALOAD SWAP1 POP PUSH2 0x2F2F DUP2 PUSH2 0x2F10 JUMP JUMPDEST SWAP3 SWAP2 POP POP JUMP JUMPDEST PUSH1 0x0 DUP1 PUSH1 0x40 DUP4 DUP6 SUB SLT ISZERO PUSH2 0x2F4C JUMPI PUSH2 0x2F4B PUSH2 0x23EE JUMP JUMPDEST JUMPDEST PUSH1 0x0 PUSH2 0x2F5A DUP6 DUP3 DUP7 ADD PUSH2 0x2477 JUMP JUMPDEST SWAP3 POP POP PUSH1 0x20 PUSH2 0x2F6B DUP6 DUP3 DUP7 ADD PUSH2 0x2F20 JUMP JUMPDEST SWAP2 POP POP SWAP3 POP SWAP3 SWAP1 POP JUMP JUMPDEST PUSH1 0x3 DUP2 LT PUSH2 0x2F86 JUMPI PUSH2 0x2F85 PUSH2 0x2690 JUMP JUMPDEST JUMPDEST POP JUMP JUMPDEST PUSH1 0x0 DUP2 SWAP1 POP PUSH2 0x2F97 DUP3 PUSH2 0x2F75 JUMP JUMPDEST SWAP2 SWAP1 POP JUMP JUMPDEST PUSH1 0x0 PUSH2 0x2FA7 DUP3 PUSH2 0x2F89 JUMP JUMPDEST SWAP1 POP SWAP2 SWAP1 POP JUMP JUMPDEST PUSH2 0x2FB7 DUP2 PUSH2 0x2F9C JUMP JUMPDEST DUP3 MSTORE POP POP JUMP JUMPDEST PUSH1 0x0 PUSH1 0x20 DUP3 ADD SWAP1 POP PUSH2 0x2FD2 PUSH1 0x0 DUP4 ADD DUP5 PUSH2 0x2FAE JUMP JUMPDEST SWAP3 SWAP2 POP POP JUMP JUMPDEST PUSH1 0x0 DUP1 PUSH1 0x20 DUP4 DUP6 SUB SLT ISZERO PUSH2 0x2FEF JUMPI PUSH2 0x2FEE PUSH2 0x23EE JUMP JUMPDEST JUMPDEST PUSH1 0x0 DUP4 ADD CALLDATALOAD PUSH8 0xFFFFFFFFFFFFFFFF DUP2 GT ISZERO PUSH2 0x300D JUMPI PUSH2 0x300C PUSH2 0x23F3 JUMP JUMPDEST JUMPDEST PUSH2 0x3019 DUP6 DUP3 DUP7 ADD PUSH2 0x2CC9 JUMP JUMPDEST SWAP3 POP SWAP3 POP POP SWAP3 POP SWAP3 SWAP1 POP JUMP JUMPDEST PUSH1 0x0 DUP1 PUSH1 0x40 DUP4 DUP6 SUB SLT ISZERO PUSH2 0x303C JUMPI PUSH2 0x303B PUSH2 0x23EE JUMP JUMPDEST JUMPDEST PUSH1 0x0 PUSH2 0x304A DUP6 DUP3 DUP7 ADD PUSH2 0x2441 JUMP JUMPDEST SWAP3 POP POP PUSH1 0x20 PUSH2 0x305B DUP6 DUP3 DUP7 ADD PUSH2 0x2441 JUMP JUMPDEST SWAP2 POP POP SWAP3 POP SWAP3 SWAP1 POP JUMP JUMPDEST PUSH1 0x0 DUP1 PUSH1 0x0 DUP1 PUSH1 0x0 PUSH1 0xA0 DUP7 DUP9 SUB SLT ISZERO PUSH2 0x3081 JUMPI PUSH2 0x3080 PUSH2 0x23EE JUMP JUMPDEST JUMPDEST PUSH1 0x0 PUSH2 0x308F DUP9 DUP3 DUP10 ADD PUSH2 0x2441 JUMP JUMPDEST SWAP6 POP POP PUSH1 0x20 PUSH2 0x30A0 DUP9 DUP3 DUP10 ADD PUSH2 0x2441 JUMP JUMPDEST SWAP5 POP POP PUSH1 0x40 PUSH2 0x30B1 DUP9 DUP3 DUP10 ADD PUSH2 0x2477 JUMP JUMPDEST SWAP4 POP POP PUSH1 0x60 PUSH2 0x30C2 DUP9 DUP3 DUP10 ADD PUSH2 0x2477 JUMP JUMPDEST SWAP3 POP POP PUSH1 0x80 DUP7 ADD CALLDATALOAD PUSH8 0xFFFFFFFFFFFFFFFF DUP2 GT ISZERO PUSH2 0x30E3 JUMPI PUSH2 0x30E2 PUSH2 0x23F3 JUMP JUMPDEST JUMPDEST PUSH2 0x30EF DUP9 DUP3 DUP10 ADD PUSH2 0x28F1 JUMP JUMPDEST SWAP2 POP POP SWAP3 SWAP6 POP SWAP3 SWAP6 SWAP1 SWAP4 POP JUMP JUMPDEST PUSH1 0x0 PUSH1 0x20 DUP3 DUP5 SUB SLT ISZERO PUSH2 0x3112 JUMPI PUSH2 0x3111 PUSH2 0x23EE JUMP JUMPDEST JUMPDEST PUSH1 0x0 PUSH2 0x3120 DUP5 DUP3 DUP6 ADD PUSH2 0x2441 JUMP JUMPDEST SWAP2 POP POP SWAP3 SWAP2 POP POP JUMP JUMPDEST PUSH1 0x0 DUP1 PUSH1 0x0 DUP1 PUSH1 0x0 PUSH1 0xA0 DUP7 DUP9 SUB SLT ISZERO PUSH2 0x3145 JUMPI PUSH2 0x3144 PUSH2 0x23EE JUMP JUMPDEST JUMPDEST PUSH1 0x0 PUSH2 0x3153 DUP9 DUP3 DUP10 ADD PUSH2 0x2441 JUMP JUMPDEST SWAP6 POP POP PUSH1 0x20 PUSH2 0x3164 DUP9 DUP3 DUP10 ADD PUSH2 0x2477 JUMP JUMPDEST SWAP5 POP POP PUSH1 0x40 PUSH2 0x3175 DUP9 DUP3 DUP10 ADD PUSH2 0x2477 JUMP JUMPDEST SWAP4 POP POP PUSH1 0x60 DUP7 ADD CALLDATALOAD PUSH8 0xFFFFFFFFFFFFFFFF DUP2 GT ISZERO PUSH2 0x3196 JUMPI PUSH2 0x3195 PUSH2 0x23F3 JUMP JUMPDEST JUMPDEST PUSH2 0x31A2 DUP9 DUP3 DUP10 ADD PUSH2 0x28F1 JUMP JUMPDEST SWAP3 POP POP PUSH1 0x80 PUSH2 0x31B3 DUP9 DUP3 DUP10 ADD PUSH2 0x2D36 JUMP JUMPDEST SWAP2 POP POP SWAP3 SWAP6 POP SWAP3 SWAP6 SWAP1 SWAP4 POP JUMP JUMPDEST PUSH32 0x455243313135353A2061646472657373207A65726F206973206E6F7420612076 PUSH1 0x0 DUP3 ADD MSTORE PUSH32 0x616C6964206F776E657200000000000000000000000000000000000000000000 PUSH1 0x20 DUP3 ADD MSTORE POP JUMP JUMPDEST PUSH1 0x0 PUSH2 0x321C PUSH1 0x2A DUP4 PUSH2 0x25E9 JUMP JUMPDEST SWAP2 POP PUSH2 0x3227 DUP3 PUSH2 0x31C0 JUMP JUMPDEST PUSH1 0x40 DUP3 ADD SWAP1 POP SWAP2 SWAP1 POP JUMP JUMPDEST PUSH1 0x0 PUSH1 0x20 DUP3 ADD SWAP1 POP DUP2 DUP2 SUB PUSH1 0x0 DUP4 ADD MSTORE PUSH2 0x324B DUP2 PUSH2 0x320F JUMP JUMPDEST SWAP1 POP SWAP2 SWAP1 POP JUMP JUMPDEST PUSH32 0x4E487B7100000000000000000000000000000000000000000000000000000000 PUSH1 0x0 MSTORE PUSH1 0x22 PUSH1 0x4 MSTORE PUSH1 0x24 PUSH1 0x0 REVERT JUMPDEST PUSH1 0x0 PUSH1 0x2 DUP3 DIV SWAP1 POP PUSH1 0x1 DUP3 AND DUP1 PUSH2 0x3299 JUMPI PUSH1 0x7F DUP3 AND SWAP2 POP JUMPDEST PUSH1 0x20 DUP3 LT DUP2 SUB PUSH2 0x32AC JUMPI PUSH2 0x32AB PUSH2 0x3252 JUMP JUMPDEST JUMPDEST POP SWAP2 SWAP1 POP JUMP JUMPDEST PUSH32 0x455243313135353A2063616C6C6572206973206E6F7420746F6B656E206F776E PUSH1 0x0 DUP3 ADD MSTORE PUSH32 0x6572206F7220617070726F766564000000000000000000000000000000000000 PUSH1 0x20 DUP3 ADD MSTORE POP JUMP JUMPDEST PUSH1 0x0 PUSH2 0x330E PUSH1 0x2E DUP4 PUSH2 0x25E9 JUMP JUMPDEST SWAP2 POP PUSH2 0x3319 DUP3 PUSH2 0x32B2 JUMP JUMPDEST PUSH1 0x40 DUP3 ADD SWAP1 POP SWAP2 SWAP1 POP JUMP JUMPDEST PUSH1 0x0 PUSH1 0x20 DUP3 ADD SWAP1 POP DUP2 DUP2 SUB PUSH1 0x0 DUP4 ADD MSTORE PUSH2 0x333D DUP2 PUSH2 0x3301 JUMP JUMPDEST SWAP1 POP SWAP2 SWAP1 POP JUMP JUMPDEST PUSH32 0x4E487B7100000000000000000000000000000000000000000000000000000000 PUSH1 0x0 MSTORE PUSH1 0x32 PUSH1 0x4 MSTORE PUSH1 0x24 PUSH1 0x0 REVERT JUMPDEST PUSH32 0x4E487B7100000000000000000000000000000000000000000000000000000000 PUSH1 0x0 MSTORE PUSH1 0x11 PUSH1 0x4 MSTORE PUSH1 0x24 PUSH1 0x0 REVERT JUMPDEST PUSH1 0x0 PUSH2 0x33AD DUP3 PUSH2 0x2456 JUMP JUMPDEST SWAP2 POP PUSH32 0xFFFFFFFFFFFFFFFFFFFFFFFFFFFFFFFFFFFFFFFFFFFFFFFFFFFFFFFFFFFFFFFF DUP3 SUB PUSH2 0x33DF JUMPI PUSH2 0x33DE PUSH2 0x3373 JUMP JUMPDEST JUMPDEST PUSH1 0x1 DUP3 ADD SWAP1 POP SWAP2 SWAP1 POP JUMP JUMPDEST PUSH32 0x455243313135353A206163636F756E747320616E6420696473206C656E677468 PUSH1 0x0 DUP3 ADD MSTORE PUSH32 0x206D69736D617463680000000000000000000000000000000000000000000000 PUSH1 0x20 DUP3 ADD MSTORE POP JUMP JUMPDEST PUSH1 0x0 PUSH2 0x3446 PUSH1 0x29 DUP4 PUSH2 0x25E9 JUMP JUMPDEST SWAP2 POP PUSH2 0x3451 DUP3 PUSH2 0x33EA JUMP JUMPDEST PUSH1 0x40 DUP3 ADD SWAP1 POP SWAP2 SWAP1 POP JUMP JUMPDEST PUSH1 0x0 PUSH1 0x20 DUP3 ADD SWAP1 POP DUP2 DUP2 SUB PUSH1 0x0 DUP4 ADD MSTORE PUSH2 0x3475 DUP2 PUSH2 0x3439 JUMP JUMPDEST SWAP1 POP SWAP2 SWAP1 POP JUMP JUMPDEST PUSH32 0x4D757374206265204D616E756661637475726572000000000000000000000000 PUSH1 0x0 DUP3 ADD MSTORE POP JUMP JUMPDEST PUSH1 0x0 PUSH2 0x34B2 PUSH1 0x14 DUP4 PUSH2 0x25E9 JUMP JUMPDEST SWAP2 POP PUSH2 0x34BD DUP3 PUSH2 0x347C JUMP JUMPDEST PUSH1 0x20 DUP3 ADD SWAP1 POP SWAP2 SWAP1 POP JUMP JUMPDEST PUSH1 0x0 PUSH1 0x20 DUP3 ADD SWAP1 POP DUP2 DUP2 SUB PUSH1 0x0 DUP4 ADD MSTORE PUSH2 0x34E1 DUP2 PUSH2 0x34A5 JUMP JUMPDEST SWAP1 POP SWAP2 SWAP1 POP JUMP JUMPDEST PUSH1 0x0 DUP1 REVERT JUMPDEST DUP3 DUP2 DUP4 CALLDATACOPY POP POP POP JUMP JUMPDEST PUSH1 0x0 PUSH2 0x3502 DUP4 DUP6 PUSH2 0x2BEF JUMP JUMPDEST SWAP4 POP PUSH32 0x7FFFFFFFFFFFFFFFFFFFFFFFFFFFFFFFFFFFFFFFFFFFFFFFFFFFFFFFFFFFFFF DUP4 GT ISZERO PUSH2 0x3535 JUMPI PUSH2 0x3534 PUSH2 0x34E8 JUMP JUMPDEST JUMPDEST PUSH1 0x20 DUP4 MUL SWAP3 POP PUSH2 0x3546 DUP4 DUP6 DUP5 PUSH2 0x34ED JUMP JUMPDEST DUP3 DUP5 ADD SWAP1 POP SWAP4 SWAP3 POP POP POP JUMP JUMPDEST PUSH1 0x0 PUSH1 0x20 DUP3 ADD SWAP1 POP DUP2 DUP2 SUB PUSH1 0x0 DUP4 ADD MSTORE PUSH2 0x356D DUP2 DUP5 DUP7 PUSH2 0x34F6 JUMP JUMPDEST SWAP1 POP SWAP4 SWAP3 POP POP POP JUMP JUMPDEST PUSH32 0x4F776E61626C653A206E6577206F776E657220697320746865207A65726F2061 PUSH1 0x0 DUP3 ADD MSTORE PUSH32 0x6464726573730000000000000000000000000000000000000000000000000000 PUSH1 0x20 DUP3 ADD MSTORE POP JUMP JUMPDEST PUSH1 0x0 PUSH2 0x35D2 PUSH1 0x26 DUP4 PUSH2 0x25E9 JUMP JUMPDEST SWAP2 POP PUSH2 0x35DD DUP3 PUSH2 0x3576 JUMP JUMPDEST PUSH1 0x40 DUP3 ADD SWAP1 POP SWAP2 SWAP1 POP JUMP JUMPDEST PUSH1 0x0 PUSH1 0x20 DUP3 ADD SWAP1 POP DUP2 DUP2 SUB PUSH1 0x0 DUP4 ADD MSTORE PUSH2 0x3601 DUP2 PUSH2 0x35C5 JUMP JUMPDEST SWAP1 POP SWAP2 SWAP1 POP JUMP JUMPDEST PUSH32 0x4F776E61626C653A2063616C6C6572206973206E6F7420746865206F776E6572 PUSH1 0x0 DUP3 ADD MSTORE POP JUMP JUMPDEST PUSH1 0x0 PUSH2 0x363E PUSH1 0x20 DUP4 PUSH2 0x25E9 JUMP JUMPDEST SWAP2 POP PUSH2 0x3649 DUP3 PUSH2 0x3608 JUMP JUMPDEST PUSH1 0x20 DUP3 ADD SWAP1 POP SWAP2 SWAP1 POP JUMP JUMPDEST PUSH1 0x0 PUSH1 0x20 DUP3 ADD SWAP1 POP DUP2 DUP2 SUB PUSH1 0x0 DUP4 ADD MSTORE PUSH2 0x366D DUP2 PUSH2 0x3631 JUMP JUMPDEST SWAP1 POP SWAP2 SWAP1 POP JUMP JUMPDEST PUSH32 0x455243313135353A206D696E7420746F20746865207A65726F20616464726573 PUSH1 0x0 DUP3 ADD MSTORE PUSH32 0x7300000000000000000000000000000000000000000000000000000000000000 PUSH1 0x20 DUP3 ADD MSTORE POP JUMP JUMPDEST PUSH1 0x0 PUSH2 0x36D0 PUSH1 0x21 DUP4 PUSH2 0x25E9 JUMP JUMPDEST SWAP2 POP PUSH2 0x36DB DUP3 PUSH2 0x3674 JUMP JUMPDEST PUSH1 0x40 DUP3 ADD SWAP1 POP SWAP2 SWAP1 POP JUMP JUMPDEST PUSH1 0x0 PUSH1 0x20 DUP3 ADD SWAP1 POP DUP2 DUP2 SUB PUSH1 0x0 DUP4 ADD MSTORE PUSH2 0x36FF DUP2 PUSH2 0x36C3 JUMP JUMPDEST SWAP1 POP SWAP2 SWAP1 POP JUMP JUMPDEST PUSH32 0x455243313135353A2069647320616E6420616D6F756E7473206C656E67746820 PUSH1 0x0 DUP3 ADD MSTORE PUSH32 0x6D69736D61746368000000000000000000000000000000000000000000000000 PUSH1 0x20 DUP3 ADD MSTORE POP JUMP JUMPDEST PUSH1 0x0 PUSH2 0x3762 PUSH1 0x28 DUP4 PUSH2 0x25E9 JUMP JUMPDEST SWAP2 POP PUSH2 0x376D DUP3 PUSH2 0x3706 JUMP JUMPDEST PUSH1 0x40 DUP3 ADD SWAP1 POP SWAP2 SWAP1 POP JUMP JUMPDEST PUSH1 0x0 PUSH1 0x20 DUP3 ADD SWAP1 POP DUP2 DUP2 SUB PUSH1 0x0 DUP4 ADD MSTORE PUSH2 0x3791 DUP2 PUSH2 0x3755 JUMP JUMPDEST SWAP1 POP SWAP2 SWAP1 POP JUMP JUMPDEST PUSH1 0x0 PUSH2 0x37A3 DUP3 PUSH2 0x2456 JUMP JUMPDEST SWAP2 POP PUSH2 0x37AE DUP4 PUSH2 0x2456 JUMP JUMPDEST SWAP3 POP DUP3 DUP3 ADD SWAP1 POP DUP1 DUP3 GT ISZERO PUSH2 0x37C6 JUMPI PUSH2 0x37C5 PUSH2 0x3373 JUMP JUMPDEST JUMPDEST SWAP3 SWAP2 POP POP JUMP JUMPDEST PUSH1 0x0 PUSH1 0x40 DUP3 ADD SWAP1 POP DUP2 DUP2 SUB PUSH1 0x0 DUP4 ADD MSTORE PUSH2 0x37E6 DUP2 DUP6 PUSH2 0x2C44 JUMP JUMPDEST SWAP1 POP DUP2 DUP2 SUB PUSH1 0x20 DUP4 ADD MSTORE PUSH2 0x37FA DUP2 DUP5 PUSH2 0x2C44 JUMP JUMPDEST SWAP1 POP SWAP4 SWAP3 POP POP POP JUMP JUMPDEST PUSH32 0x455243313135353A207472616E7366657220746F20746865207A65726F206164 PUSH1 0x0 DUP3 ADD MSTORE PUSH32 0x6472657373000000000000000000000000000000000000000000000000000000 PUSH1 0x20 DUP3 ADD MSTORE POP JUMP JUMPDEST PUSH1 0x0 PUSH2 0x385F PUSH1 0x25 DUP4 PUSH2 0x25E9 JUMP JUMPDEST SWAP2 POP PUSH2 0x386A DUP3 PUSH2 0x3803 JUMP JUMPDEST PUSH1 0x40 DUP3 ADD SWAP1 POP SWAP2 SWAP1 POP JUMP JUMPDEST PUSH1 0x0 PUSH1 0x20 DUP3 ADD SWAP1 POP DUP2 DUP2 SUB PUSH1 0x0 DUP4 ADD MSTORE PUSH2 0x388E DUP2 PUSH2 0x3852 JUMP JUMPDEST SWAP1 POP SWAP2 SWAP1 POP JUMP JUMPDEST PUSH32 0x455243313135353A20696E73756666696369656E742062616C616E636520666F PUSH1 0x0 DUP3 ADD MSTORE PUSH32 0x72207472616E7366657200000000000000000000000000000000000000000000 PUSH1 0x20 DUP3 ADD MSTORE POP JUMP JUMPDEST PUSH1 0x0 PUSH2 0x38F1 PUSH1 0x2A DUP4 PUSH2 0x25E9 JUMP JUMPDEST SWAP2 POP PUSH2 0x38FC DUP3 PUSH2 0x3895 JUMP JUMPDEST PUSH1 0x40 DUP3 ADD SWAP1 POP SWAP2 SWAP1 POP JUMP JUMPDEST PUSH1 0x0 PUSH1 0x20 DUP3 ADD SWAP1 POP DUP2 DUP2 SUB PUSH1 0x0 DUP4 ADD MSTORE PUSH2 0x3920 DUP2 PUSH2 0x38E4 JUMP JUMPDEST SWAP1 POP SWAP2 SWAP1 POP JUMP JUMPDEST PUSH1 0x0 PUSH1 0x40 DUP3 ADD SWAP1 POP PUSH2 0x393C PUSH1 0x0 DUP4 ADD DUP6 PUSH2 0x24CC JUMP JUMPDEST PUSH2 0x3949 PUSH1 0x20 DUP4 ADD DUP5 PUSH2 0x24CC JUMP JUMPDEST SWAP4 SWAP3 POP POP POP JUMP JUMPDEST PUSH32 0x455243313135353A2073657474696E6720617070726F76616C20737461747573 PUSH1 0x0 DUP3 ADD MSTORE PUSH32 0x20666F722073656C660000000000000000000000000000000000000000000000 PUSH1 0x20 DUP3 ADD MSTORE POP JUMP JUMPDEST PUSH1 0x0 PUSH2 0x39AC PUSH1 0x29 DUP4 PUSH2 0x25E9 JUMP JUMPDEST SWAP2 POP PUSH2 0x39B7 DUP3 PUSH2 0x3950 JUMP JUMPDEST PUSH1 0x40 DUP3 ADD SWAP1 POP SWAP2 SWAP1 POP JUMP JUMPDEST PUSH1 0x0 PUSH1 0x20 DUP3 ADD SWAP1 POP DUP2 DUP2 SUB PUSH1 0x0 DUP4 ADD MSTORE PUSH2 0x39DB DUP2 PUSH2 0x399F JUMP JUMPDEST SWAP1 POP SWAP2 SWAP1 POP JUMP JUMPDEST PUSH1 0x0 DUP2 MLOAD SWAP1 POP SWAP2 SWAP1 POP JUMP JUMPDEST PUSH1 0x0 DUP3 DUP3 MSTORE PUSH1 0x20 DUP3 ADD SWAP1 POP SWAP3 SWAP2 POP POP JUMP JUMPDEST PUSH1 0x0 PUSH2 0x3A09 DUP3 PUSH2 0x39E2 JUMP JUMPDEST PUSH2 0x3A13 DUP2 DUP6 PUSH2 0x39ED JUMP JUMPDEST SWAP4 POP PUSH2 0x3A23 DUP2 DUP6 PUSH1 0x20 DUP7 ADD PUSH2 0x25FA JUMP JUMPDEST PUSH2 0x3A2C DUP2 PUSH2 0x2624 JUMP JUMPDEST DUP5 ADD SWAP2 POP POP SWAP3 SWAP2 POP POP JUMP JUMPDEST PUSH1 0x0 PUSH1 0xA0 DUP3 ADD SWAP1 POP PUSH2 0x3A4C PUSH1 0x0 DUP4 ADD DUP9 PUSH2 0x2EA6 JUMP JUMPDEST PUSH2 0x3A59 PUSH1 0x20 DUP4 ADD DUP8 PUSH2 0x2EA6 JUMP JUMPDEST DUP2 DUP2 SUB PUSH1 0x40 DUP4 ADD MSTORE PUSH2 0x3A6B DUP2 DUP7 PUSH2 0x2C44 JUMP JUMPDEST SWAP1 POP DUP2 DUP2 SUB PUSH1 0x60 DUP4 ADD MSTORE PUSH2 0x3A7F DUP2 DUP6 PUSH2 0x2C44 JUMP JUMPDEST SWAP1 POP DUP2 DUP2 SUB PUSH1 0x80 DUP4 ADD MSTORE PUSH2 0x3A93 DUP2 DUP5 PUSH2 0x39FE JUMP JUMPDEST SWAP1 POP SWAP7 SWAP6 POP POP POP POP POP POP JUMP JUMPDEST PUSH1 0x0 DUP2 MLOAD SWAP1 POP PUSH2 0x3AAE DUP2 PUSH2 0x2522 JUMP JUMPDEST SWAP3 SWAP2 POP POP JUMP JUMPDEST PUSH1 0x0 PUSH1 0x20 DUP3 DUP5 SUB SLT ISZERO PUSH2 0x3ACA JUMPI PUSH2 0x3AC9 PUSH2 0x23EE JUMP JUMPDEST JUMPDEST PUSH1 0x0 PUSH2 0x3AD8 DUP5 DUP3 DUP6 ADD PUSH2 0x3A9F JUMP JUMPDEST SWAP2 POP POP SWAP3 SWAP2 POP POP JUMP JUMPDEST PUSH1 0x0 DUP2 PUSH1 0xE0 SHR SWAP1 POP SWAP2 SWAP1 POP JUMP JUMPDEST PUSH1 0x0 PUSH1 0x3 RETURNDATASIZE GT ISZERO PUSH2 0x3B0D JUMPI PUSH1 0x4 PUSH1 0x0 DUP1 RETURNDATACOPY PUSH2 0x3B0A PUSH1 0x0 MLOAD PUSH2 0x3AE1 JUMP JUMPDEST SWAP1 POP JUMPDEST SWAP1 JUMP JUMPDEST PUSH1 0x0 PUSH1 0x44 RETURNDATASIZE LT PUSH2 0x3B9D JUMPI PUSH2 0x3B22 PUSH2 0x23E4 JUMP JUMPDEST PUSH1 0x4 RETURNDATASIZE SUB PUSH1 0x4 DUP3 RETURNDATACOPY DUP1 MLOAD RETURNDATASIZE PUSH1 0x24 DUP3 ADD GT PUSH8 0xFFFFFFFFFFFFFFFF DUP3 GT OR ISZERO PUSH2 0x3B4A JUMPI POP POP PUSH2 0x3B9D JUMP JUMPDEST DUP1 DUP3 ADD DUP1 MLOAD PUSH8 0xFFFFFFFFFFFFFFFF DUP2 GT ISZERO PUSH2 0x3B68 JUMPI POP POP POP POP PUSH2 0x3B9D JUMP JUMPDEST DUP1 PUSH1 0x20 DUP4 ADD ADD PUSH1 0x4 RETURNDATASIZE SUB DUP6 ADD DUP2 GT ISZERO PUSH2 0x3B85 JUMPI POP POP POP POP POP PUSH2 0x3B9D JUMP JUMPDEST PUSH2 0x3B94 DUP3 PUSH1 0x20 ADD DUP6 ADD DUP7 PUSH2 0x2756 JUMP JUMPDEST DUP3 SWAP6 POP POP POP POP POP POP JUMPDEST SWAP1 JUMP JUMPDEST PUSH32 0x455243313135353A207472616E7366657220746F206E6F6E2D45524331313535 PUSH1 0x0 DUP3 ADD MSTORE PUSH32 0x526563656976657220696D706C656D656E746572000000000000000000000000 PUSH1 0x20 DUP3 ADD MSTORE POP JUMP JUMPDEST PUSH1 0x0 PUSH2 0x3BFC PUSH1 0x34 DUP4 PUSH2 0x25E9 JUMP JUMPDEST SWAP2 POP PUSH2 0x3C07 DUP3 PUSH2 0x3BA0 JUMP JUMPDEST PUSH1 0x40 DUP3 ADD SWAP1 POP SWAP2 SWAP1 POP JUMP JUMPDEST PUSH1 0x0 PUSH1 0x20 DUP3 ADD SWAP1 POP DUP2 DUP2 SUB PUSH1 0x0 DUP4 ADD MSTORE PUSH2 0x3C2B DUP2 PUSH2 0x3BEF JUMP JUMPDEST SWAP1 POP SWAP2 SWAP1 POP JUMP JUMPDEST PUSH32 0x455243313135353A204552433131353552656365697665722072656A65637465 PUSH1 0x0 DUP3 ADD MSTORE PUSH32 0x6420746F6B656E73000000000000000000000000000000000000000000000000 PUSH1 0x20 DUP3 ADD MSTORE POP JUMP JUMPDEST PUSH1 0x0 PUSH2 0x3C8E PUSH1 0x28 DUP4 PUSH2 0x25E9 JUMP JUMPDEST SWAP2 POP PUSH2 0x3C99 DUP3 PUSH2 0x3C32 JUMP JUMPDEST PUSH1 0x40 DUP3 ADD SWAP1 POP SWAP2 SWAP1 POP JUMP JUMPDEST PUSH1 0x0 PUSH1 0x20 DUP3 ADD SWAP1 POP DUP2 DUP2 SUB PUSH1 0x0 DUP4 ADD MSTORE PUSH2 0x3CBD DUP2 PUSH2 0x3C81 JUMP JUMPDEST SWAP1 POP SWAP2 SWAP1 POP JUMP JUMPDEST PUSH1 0x0 PUSH1 0xA0 DUP3 ADD SWAP1 POP PUSH2 0x3CD9 PUSH1 0x0 DUP4 ADD DUP9 PUSH2 0x2EA6 JUMP JUMPDEST PUSH2 0x3CE6 PUSH1 0x20 DUP4 ADD DUP8 PUSH2 0x2EA6 JUMP JUMPDEST PUSH2 0x3CF3 PUSH1 0x40 DUP4 ADD DUP7 PUSH2 0x24CC JUMP JUMPDEST PUSH2 0x3D00 PUSH1 0x60 DUP4 ADD DUP6 PUSH2 0x24CC JUMP JUMPDEST DUP2 DUP2 SUB PUSH1 0x80 DUP4 ADD MSTORE PUSH2 0x3D12 DUP2 DUP5 PUSH2 0x39FE JUMP JUMPDEST SWAP1 POP SWAP7 SWAP6 POP POP POP POP POP POP JUMP INVALID LOG2 PUSH5 0x6970667358 0x22 SLT KECCAK256 0xD9 0xC5 SLOAD 0x2F 0xE9 SWAP11 0xE3 0x26 SWAP5 0xB4 0x29 0xC2 CALLDATALOAD STOP DUP12 0xD4 PUSH4 0x2FC7975E 0xE9 SAR CALL 0xA6 ADD 0xAA 0x2E 0x4D 0x25 0xD0 0xDE PUSH5 0x736F6C6343 STOP ADDMOD SLT STOP CALLER "},"methodIdentifiers":{"announceDefect(uint256)":"432f4113","balanceOf(address,uint256)":"00fdd58e","balanceOfBatch(address[],uint256[])":"4e1273f4","batchTransferRecallToken(address,uint256[],uint256[],bytes,bool)":"69c7ca52","checkToken(uint256,uint8)":"a76fe719","forwardRecall(uint256[])":"ab588748","inProduction(uint256)":"95dbe2db","isApprovedForAll(address,address)":"e985e9c5","mint(address,uint256,uint256,bytes)":"731133e9","mintBatch(address,uint256[],uint256[],bytes)":"1f7fdffa","owner()":"8da5cb5b","renounceOwnership()":"715018a6","safeBatchTransferFrom(address,address,uint256[],uint256[],bytes)":"2eb2c2d6","safeTransferFrom(address,address,uint256,uint256,bytes)":"f242432a","setApprovalForAll(address,bool)":"a22cb465","supportsInterface(bytes4)":"01ffc9a7","tokenCheckingStates(uint256)":"1ae82590","tokenStates(uint256)":"aa9f3eca","transferOwnership(address)":"f2fde38b","transferRecallToken(address,uint256,uint256,bytes,bool)":"f3498223","uri(uint256)":"0e89341c"}}}}}