{
  "_format": "hh-sol-artifact-1",
  "contractName": "RecallToken",
  "sourceName": "contracts/RecallToken.sol",
  "abi": [
    {
      "inputs": [
        {
          "internalType": "string",
          "name": "uri",
          "type": "string"
        }
      ],
      "stateMutability": "nonpayable",
      "type": "constructor"
    },
    {
      "anonymous": false,
      "inputs": [
        {
          "indexed": true,
          "internalType": "address",
          "name": "account",
          "type": "address"
        },
        {
          "indexed": true,
          "internalType": "address",
          "name": "operator",
          "type": "address"
        },
        {
          "indexed": false,
          "internalType": "bool",
          "name": "approved",
          "type": "bool"
        }
      ],
      "name": "ApprovalForAll",
      "type": "event"
    },
    {
      "anonymous": false,
      "inputs": [
        {
          "indexed": true,
          "internalType": "address",
          "name": "_announcer",
          "type": "address"
        },
        {
          "indexed": false,
          "internalType": "uint256",
          "name": "_tokenId",
          "type": "uint256"
        }
      ],
      "name": "DefectAnnounced",
      "type": "event"
    },
    {
      "anonymous": false,
      "inputs": [
        {
          "indexed": true,
          "internalType": "address",
          "name": "_announcer",
          "type": "address"
        },
        {
          "indexed": false,
          "internalType": "uint256[]",
          "name": "_tokenIds",
          "type": "uint256[]"
        }
      ],
      "name": "ForwardRecall",
      "type": "event"
    },
    {
      "anonymous": false,
      "inputs": [
        {
          "indexed": true,
          "internalType": "address",
          "name": "previousOwner",
          "type": "address"
        },
        {
          "indexed": true,
          "internalType": "address",
          "name": "newOwner",
          "type": "address"
        }
      ],
      "name": "OwnershipTransferred",
      "type": "event"
    },
    {
      "anonymous": false,
      "inputs": [
        {
          "indexed": true,
          "internalType": "address",
          "name": "_announcer",
          "type": "address"
        },
        {
          "indexed": false,
          "internalType": "uint256",
          "name": "_tokenId",
          "type": "uint256"
        },
        {
          "indexed": false,
          "internalType": "enum RecallToken.TokenCheckingState",
          "name": "_resultState",
          "type": "uint8"
        }
      ],
      "name": "TokenChecked",
      "type": "event"
    },
    {
      "anonymous": false,
      "inputs": [
        {
          "indexed": true,
          "internalType": "address",
          "name": "_announcer",
          "type": "address"
        },
        {
          "indexed": false,
          "internalType": "uint256",
          "name": "_tokenId",
          "type": "uint256"
        },
        {
          "indexed": false,
          "internalType": "uint256",
          "name": "_mergedTokenId",
          "type": "uint256"
        }
      ],
      "name": "TokenMerged",
      "type": "event"
    },
    {
      "anonymous": false,
      "inputs": [
        {
          "indexed": true,
          "internalType": "address",
          "name": "operator",
          "type": "address"
        },
        {
          "indexed": true,
          "internalType": "address",
          "name": "from",
          "type": "address"
        },
        {
          "indexed": true,
          "internalType": "address",
          "name": "to",
          "type": "address"
        },
        {
          "indexed": false,
          "internalType": "uint256[]",
          "name": "ids",
          "type": "uint256[]"
        },
        {
          "indexed": false,
          "internalType": "uint256[]",
          "name": "values",
          "type": "uint256[]"
        }
      ],
      "name": "TransferBatch",
      "type": "event"
    },
    {
      "anonymous": false,
      "inputs": [
        {
          "indexed": true,
          "internalType": "address",
          "name": "operator",
          "type": "address"
        },
        {
          "indexed": true,
          "internalType": "address",
          "name": "from",
          "type": "address"
        },
        {
          "indexed": true,
          "internalType": "address",
          "name": "to",
          "type": "address"
        },
        {
          "indexed": false,
          "internalType": "uint256",
          "name": "id",
          "type": "uint256"
        },
        {
          "indexed": false,
          "internalType": "uint256",
          "name": "value",
          "type": "uint256"
        }
      ],
      "name": "TransferSingle",
      "type": "event"
    },
    {
      "anonymous": false,
      "inputs": [
        {
          "indexed": false,
          "internalType": "string",
          "name": "value",
          "type": "string"
        },
        {
          "indexed": true,
          "internalType": "uint256",
          "name": "id",
          "type": "uint256"
        }
      ],
      "name": "URI",
      "type": "event"
    },
    {
      "inputs": [
        {
          "internalType": "address",
          "name": "_from",
          "type": "address"
        },
        {
          "internalType": "uint256",
          "name": "_tokenId",
          "type": "uint256"
        }
      ],
      "name": "_authorizedForToken",
      "outputs": [],
      "stateMutability": "view",
      "type": "function"
    },
    {
      "inputs": [
        {
          "internalType": "uint256",
          "name": "_tokenId",
          "type": "uint256"
        }
      ],
      "name": "announceDefect",
      "outputs": [],
      "stateMutability": "nonpayable",
      "type": "function"
    },
    {
      "inputs": [
        {
          "internalType": "address",
          "name": "account",
          "type": "address"
        },
        {
          "internalType": "uint256",
          "name": "id",
          "type": "uint256"
        }
      ],
      "name": "balanceOf",
      "outputs": [
        {
          "internalType": "uint256",
          "name": "",
          "type": "uint256"
        }
      ],
      "stateMutability": "view",
      "type": "function"
    },
    {
      "inputs": [
        {
          "internalType": "address[]",
          "name": "accounts",
          "type": "address[]"
        },
        {
          "internalType": "uint256[]",
          "name": "ids",
          "type": "uint256[]"
        }
      ],
      "name": "balanceOfBatch",
      "outputs": [
        {
          "internalType": "uint256[]",
          "name": "",
          "type": "uint256[]"
        }
      ],
      "stateMutability": "view",
      "type": "function"
    },
    {
      "inputs": [
        {
          "internalType": "address",
          "name": "_receiver",
          "type": "address"
        },
        {
          "internalType": "uint256[]",
          "name": "_tokenIds",
          "type": "uint256[]"
        },
        {
          "internalType": "uint256[]",
          "name": "_amounts",
          "type": "uint256[]"
        },
        {
          "internalType": "bytes",
          "name": "data",
          "type": "bytes"
        },
        {
          "internalType": "bool",
          "name": "_internal",
          "type": "bool"
        }
      ],
      "name": "batchTransferRecallToken",
      "outputs": [],
      "stateMutability": "nonpayable",
      "type": "function"
    },
    {
      "inputs": [
        {
          "internalType": "uint256",
          "name": "_tokenId",
          "type": "uint256"
        },
        {
          "internalType": "enum RecallToken.TokenCheckingState",
          "name": "_tokenCheckingState",
          "type": "uint8"
        }
      ],
      "name": "checkToken",
      "outputs": [],
      "stateMutability": "nonpayable",
      "type": "function"
    },
    {
      "inputs": [
        {
          "internalType": "uint256[]",
          "name": "_tokenIds",
          "type": "uint256[]"
        }
      ],
      "name": "forwardRecall",
      "outputs": [],
      "stateMutability": "nonpayable",
      "type": "function"
    },
    {
      "inputs": [
        {
          "internalType": "uint256",
          "name": "_tokenId",
          "type": "uint256"
        }
      ],
      "name": "getInProductionValue",
      "outputs": [
        {
          "internalType": "bool",
          "name": "",
          "type": "bool"
        }
      ],
      "stateMutability": "view",
      "type": "function"
    },
    {
      "inputs": [
        {
          "internalType": "address",
          "name": "_address",
          "type": "address"
        },
        {
          "internalType": "uint256",
          "name": "_tokenId",
          "type": "uint256"
        }
      ],
      "name": "getManufacturerTokenCheckingStateValue",
      "outputs": [
        {
          "internalType": "enum RecallToken.TokenCheckingState",
          "name": "",
          "type": "uint8"
        }
      ],
      "stateMutability": "view",
      "type": "function"
    },
    {
      "inputs": [
        {
          "internalType": "uint256",
          "name": "_tokenId",
          "type": "uint256"
        }
      ],
      "name": "getManufacturersOfToken",
      "outputs": [
        {
          "internalType": "address[]",
          "name": "",
          "type": "address[]"
        }
      ],
      "stateMutability": "view",
      "type": "function"
    },
    {
      "inputs": [
        {
          "internalType": "uint256",
          "name": "_tokenId",
          "type": "uint256"
        }
      ],
      "name": "getTokenCheckingState",
      "outputs": [
        {
          "internalType": "enum RecallToken.TokenCheckingState",
          "name": "",
          "type": "uint8"
        }
      ],
      "stateMutability": "view",
      "type": "function"
    },
    {
      "inputs": [
        {
          "internalType": "uint256",
          "name": "_tokenId",
          "type": "uint256"
        }
      ],
      "name": "getTokenStateValue",
      "outputs": [
        {
          "internalType": "enum RecallToken.TokenState",
          "name": "",
          "type": "uint8"
        }
      ],
      "stateMutability": "view",
      "type": "function"
    },
    {
      "inputs": [
        {
          "internalType": "uint256",
          "name": "",
          "type": "uint256"
        }
      ],
      "name": "inProduction",
      "outputs": [
        {
          "internalType": "bool",
          "name": "",
          "type": "bool"
        }
      ],
      "stateMutability": "view",
      "type": "function"
    },
    {
      "inputs": [
        {
          "internalType": "address",
          "name": "account",
          "type": "address"
        },
        {
          "internalType": "address",
          "name": "operator",
          "type": "address"
        }
      ],
      "name": "isApprovedForAll",
      "outputs": [
        {
          "internalType": "bool",
          "name": "",
          "type": "bool"
        }
      ],
      "stateMutability": "view",
      "type": "function"
    },
    {
      "inputs": [
        {
          "internalType": "uint256",
          "name": "_tokenIdMergeTo",
          "type": "uint256"
        },
        {
          "internalType": "uint256",
          "name": "_tokenIdMergeSource",
          "type": "uint256"
        }
      ],
      "name": "mergeToken",
      "outputs": [],
      "stateMutability": "nonpayable",
      "type": "function"
    },
    {
      "inputs": [
        {
          "internalType": "address",
          "name": "to",
          "type": "address"
        },
        {
          "internalType": "uint256",
          "name": "id",
          "type": "uint256"
        },
        {
          "internalType": "uint256",
          "name": "amount",
          "type": "uint256"
        },
        {
          "internalType": "bytes",
          "name": "data",
          "type": "bytes"
        }
      ],
      "name": "mint",
      "outputs": [],
      "stateMutability": "nonpayable",
      "type": "function"
    },
    {
      "inputs": [
        {
          "internalType": "address",
          "name": "to",
          "type": "address"
        },
        {
          "internalType": "uint256[]",
          "name": "ids",
          "type": "uint256[]"
        },
        {
          "internalType": "uint256[]",
          "name": "amounts",
          "type": "uint256[]"
        },
        {
          "internalType": "bytes",
          "name": "data",
          "type": "bytes"
        }
      ],
      "name": "mintBatch",
      "outputs": [],
      "stateMutability": "nonpayable",
      "type": "function"
    },
    {
      "inputs": [],
      "name": "owner",
      "outputs": [
        {
          "internalType": "address",
          "name": "",
          "type": "address"
        }
      ],
      "stateMutability": "view",
      "type": "function"
    },
    {
      "inputs": [],
      "name": "renounceOwnership",
      "outputs": [],
      "stateMutability": "nonpayable",
      "type": "function"
    },
    {
      "inputs": [
        {
          "internalType": "address",
          "name": "from",
          "type": "address"
        },
        {
          "internalType": "address",
          "name": "to",
          "type": "address"
        },
        {
          "internalType": "uint256[]",
          "name": "ids",
          "type": "uint256[]"
        },
        {
          "internalType": "uint256[]",
          "name": "amounts",
          "type": "uint256[]"
        },
        {
          "internalType": "bytes",
          "name": "data",
          "type": "bytes"
        }
      ],
      "name": "safeBatchTransferFrom",
      "outputs": [],
      "stateMutability": "nonpayable",
      "type": "function"
    },
    {
      "inputs": [
        {
          "internalType": "address",
          "name": "from",
          "type": "address"
        },
        {
          "internalType": "address",
          "name": "to",
          "type": "address"
        },
        {
          "internalType": "uint256",
          "name": "id",
          "type": "uint256"
        },
        {
          "internalType": "uint256",
          "name": "amount",
          "type": "uint256"
        },
        {
          "internalType": "bytes",
          "name": "data",
          "type": "bytes"
        }
      ],
      "name": "safeTransferFrom",
      "outputs": [],
      "stateMutability": "nonpayable",
      "type": "function"
    },
    {
      "inputs": [
        {
          "internalType": "address",
          "name": "operator",
          "type": "address"
        },
        {
          "internalType": "bool",
          "name": "approved",
          "type": "bool"
        }
      ],
      "name": "setApprovalForAll",
      "outputs": [],
      "stateMutability": "nonpayable",
      "type": "function"
    },
    {
      "inputs": [
        {
          "internalType": "bytes4",
          "name": "interfaceId",
          "type": "bytes4"
        }
      ],
      "name": "supportsInterface",
      "outputs": [
        {
          "internalType": "bool",
          "name": "",
          "type": "bool"
        }
      ],
      "stateMutability": "view",
      "type": "function"
    },
    {
      "inputs": [
        {
          "internalType": "uint256",
          "name": "",
          "type": "uint256"
        }
      ],
      "name": "tokenCheckingStates",
      "outputs": [
        {
          "internalType": "enum RecallToken.TokenCheckingState",
          "name": "",
          "type": "uint8"
        }
      ],
      "stateMutability": "view",
      "type": "function"
    },
    {
      "inputs": [
        {
          "internalType": "uint256",
          "name": "",
          "type": "uint256"
        }
      ],
      "name": "tokenStates",
      "outputs": [
        {
          "internalType": "enum RecallToken.TokenState",
          "name": "",
          "type": "uint8"
        }
      ],
      "stateMutability": "view",
      "type": "function"
    },
    {
      "inputs": [
        {
          "internalType": "address",
          "name": "newOwner",
          "type": "address"
        }
      ],
      "name": "transferOwnership",
      "outputs": [],
      "stateMutability": "nonpayable",
      "type": "function"
    },
    {
      "inputs": [
        {
          "internalType": "address",
          "name": "_receiver",
          "type": "address"
        },
        {
          "internalType": "uint256",
          "name": "_tokenId",
          "type": "uint256"
        },
        {
          "internalType": "uint256",
          "name": "amount",
          "type": "uint256"
        },
        {
          "internalType": "bytes",
          "name": "data",
          "type": "bytes"
        },
        {
          "internalType": "bool",
          "name": "_internal",
          "type": "bool"
        }
      ],
      "name": "transferRecallToken",
      "outputs": [],
      "stateMutability": "nonpayable",
      "type": "function"
    },
    {
      "inputs": [
        {
          "internalType": "uint256",
          "name": "",
          "type": "uint256"
        }
      ],
      "name": "uri",
      "outputs": [
        {
          "internalType": "string",
          "name": "",
          "type": "string"
        }
      ],
      "stateMutability": "view",
      "type": "function"
    }
  ],
  "bytecode": "0x60806040523480156200001157600080fd5b5060405162005291380380620052918339818101604052810190620000379190620002e7565b8062000049816200007160201b60201c565b506200006a6200005e6200008660201b60201c565b6200008e60201b60201c565b506200066a565b806002908162000082919062000583565b5050565b600033905090565b6000600360009054906101000a900473ffffffffffffffffffffffffffffffffffffffff16905081600360006101000a81548173ffffffffffffffffffffffffffffffffffffffff021916908373ffffffffffffffffffffffffffffffffffffffff1602179055508173ffffffffffffffffffffffffffffffffffffffff168173ffffffffffffffffffffffffffffffffffffffff167f8be0079c531659141344cd1fd0a4f28419497f9722a3daafe3b4186f6b6457e060405160405180910390a35050565b6000604051905090565b600080fd5b600080fd5b600080fd5b600080fd5b6000601f19601f8301169050919050565b7f4e487b7100000000000000000000000000000000000000000000000000000000600052604160045260246000fd5b620001bd8262000172565b810181811067ffffffffffffffff82111715620001df57620001de62000183565b5b80604052505050565b6000620001f462000154565b9050620002028282620001b2565b919050565b600067ffffffffffffffff82111562000225576200022462000183565b5b620002308262000172565b9050602081019050919050565b60005b838110156200025d57808201518184015260208101905062000240565b60008484015250505050565b6000620002806200027a8462000207565b620001e8565b9050828152602081018484840111156200029f576200029e6200016d565b5b620002ac8482856200023d565b509392505050565b600082601f830112620002cc57620002cb62000168565b5b8151620002de84826020860162000269565b91505092915050565b6000602082840312156200030057620002ff6200015e565b5b600082015167ffffffffffffffff81111562000321576200032062000163565b5b6200032f84828501620002b4565b91505092915050565b600081519050919050565b7f4e487b7100000000000000000000000000000000000000000000000000000000600052602260045260246000fd5b600060028204905060018216806200038b57607f821691505b602082108103620003a157620003a062000343565b5b50919050565b60008190508160005260206000209050919050565b60006020601f8301049050919050565b600082821b905092915050565b6000600883026200040b7fffffffffffffffffffffffffffffffffffffffffffffffffffffffffffffffff82620003cc565b620004178683620003cc565b95508019841693508086168417925050509392505050565b6000819050919050565b6000819050919050565b6000620004646200045e62000458846200042f565b62000439565b6200042f565b9050919050565b6000819050919050565b620004808362000443565b620004986200048f826200046b565b848454620003d9565b825550505050565b600090565b620004af620004a0565b620004bc81848462000475565b505050565b5b81811015620004e457620004d8600082620004a5565b600181019050620004c2565b5050565b601f8211156200053357620004fd81620003a7565b6200050884620003bc565b8101602085101562000518578190505b620005306200052785620003bc565b830182620004c1565b50505b505050565b600082821c905092915050565b6000620005586000198460080262000538565b1980831691505092915050565b600062000573838362000545565b9150826002028217905092915050565b6200058e8262000338565b67ffffffffffffffff811115620005aa57620005a962000183565b5b620005b6825462000372565b620005c3828285620004e8565b600060209050601f831160018114620005fb5760008415620005e6578287015190505b620005f2858262000565565b86555062000662565b601f1984166200060b86620003a7565b60005b8281101562000635578489015182556001820191506020850194506020810190506200060e565b8683101562000655578489015162000651601f89168262000545565b8355505b6001600288020188555050505b505050505050565b614c17806200067a6000396000f3fe608060405234801561001057600080fd5b50600436106101c35760003560e01c8063857af47b116100f9578063aa9f3eca11610097578063e985e9c511610071578063e985e9c514610548578063f242432a14610578578063f2fde38b14610594578063f3498223146105b0576101c3565b8063aa9f3eca146104cc578063ab588748146104fc578063d9ef919514610518576101c3565b806395dbe2db116100d357806395dbe2db14610448578063a0245f7114610478578063a22cb46514610494578063a76fe719146104b0576101c3565b8063857af47b146103ca578063876ca0d2146103fa5780638da5cb5b1461042a576101c3565b80632eb2c2d6116101665780634e1273f4116101405780634e1273f41461035857806369c7ca5214610388578063715018a6146103a4578063731133e9146103ae576101c3565b80632eb2c2d6146102f0578063432f41131461030c57806344c70be514610328576101c3565b80631ae82590116101a25780631ae82590146102585780631ef65b12146102885780631f7fdffa146102a45780632e477ad9146102c0576101c3565b8062fdd58e146101c857806301ffc9a7146101f85780630e89341c14610228575b600080fd5b6101e260048036038101906101dd9190613059565b6105cc565b6040516101ef91906130a8565b60405180910390f35b610212600480360381019061020d919061311b565b610694565b60405161021f9190613163565b60405180910390f35b610242600480360381019061023d919061317e565b610776565b60405161024f919061323b565b60405180910390f35b610272600480360381019061026d919061317e565b61080a565b60405161027f91906132d4565b60405180910390f35b6102a2600480360381019061029d91906132ef565b61082a565b005b6102be60048036038101906102b9919061352c565b610a36565b005b6102da60048036038101906102d5919061317e565b610b4b565b6040516102e7919061362f565b60405180910390f35b61030a6004803603810190610305919061364a565b610b75565b005b6103266004803603810190610321919061317e565b610c16565b005b610342600480360381019061033d9190613059565b610f26565b60405161034f91906132d4565b60405180910390f35b610372600480360381019061036d91906137dc565b610f8e565b60405161037f9190613912565b60405180910390f35b6103a2600480360381019061039d91906139bb565b6110a7565b005b6103ac611264565b005b6103c860048036038101906103c39190613a93565b611278565b005b6103e460048036038101906103df919061317e565b611339565b6040516103f19190613163565b60405180910390f35b610414600480360381019061040f919061317e565b611363565b60405161042191906132d4565b60405180910390f35b61043261138d565b60405161043f9190613b25565b60405180910390f35b610462600480360381019061045d919061317e565b6113b7565b60405161046f9190613163565b60405180910390f35b610492600480360381019061048d9190613059565b6113d7565b005b6104ae60048036038101906104a99190613b40565b6114bc565b005b6104ca60048036038101906104c59190613ba5565b6114d2565b005b6104e660048036038101906104e1919061317e565b6117fa565b6040516104f3919061362f565b60405180910390f35b61051660048036038101906105119190613be5565b61181a565b005b610532600480360381019061052d919061317e565b611a50565b60405161053f9190613cf0565b60405180910390f35b610562600480360381019061055d9190613d12565b611af1565b60405161056f9190613163565b60405180910390f35b610592600480360381019061058d9190613d52565b611b85565b005b6105ae60048036038101906105a99190613de9565b611c26565b005b6105ca60048036038101906105c59190613e16565b611ca9565b005b60008073ffffffffffffffffffffffffffffffffffffffff168373ffffffffffffffffffffffffffffffffffffffff160361063c576040517f08c379a000000000000000000000000000000000000000000000000000000000815260040161063390613f1f565b60405180910390fd5b60008083815260200190815260200160002060008473ffffffffffffffffffffffffffffffffffffffff1673ffffffffffffffffffffffffffffffffffffffff16815260200190815260200160002054905092915050565b60007fd9b67a26000000000000000000000000000000000000000000000000000000007bffffffffffffffffffffffffffffffffffffffffffffffffffffffff1916827bffffffffffffffffffffffffffffffffffffffffffffffffffffffff1916148061075f57507f0e89341c000000000000000000000000000000000000000000000000000000007bffffffffffffffffffffffffffffffffffffffffffffffffffffffff1916827bffffffffffffffffffffffffffffffffffffffffffffffffffffffff1916145b8061076f575061076e82611d5c565b5b9050919050565b60606002805461078590613f6e565b80601f01602080910402602001604051908101604052809291908181526020018280546107b190613f6e565b80156107fe5780601f106107d3576101008083540402835291602001916107fe565b820191906000526020600020905b8154815290600101906020018083116107e157829003601f168201915b50505050509050919050565b60066020528060005260406000206000915054906101000a900460ff1681565b816000805b60046000848152602001908152602001600020805490508110156108f25760046000848152602001908152602001600020818154811061087257610871613f9f565b5b9060005260206000200160009054906101000a900473ffffffffffffffffffffffffffffffffffffffff1673ffffffffffffffffffffffffffffffffffffffff166108bb611dc6565b73ffffffffffffffffffffffffffffffffffffffff16036108df57600191506108f2565b80806108ea90613ffd565b91505061082f565b50600115158115151461093a576040517f08c379a000000000000000000000000000000000000000000000000000000000815260040161093190614091565b60405180910390fd5b61094b610945611dc6565b856113d7565b60005b60046000858152602001908152602001600020805490508110156109d8576109c560046000868152602001908152602001600020828154811061099457610993613f9f565b5b9060005260206000200160009054906101000a900473ffffffffffffffffffffffffffffffffffffffff1686611dce565b80806109d090613ffd565b91505061094e565b506109e1611dc6565b73ffffffffffffffffffffffffffffffffffffffff167ffdf497102acd4fca1559122a4724cd4ca97128b277217777ab37f6907678ae3e8585604051610a289291906140b1565b60405180910390a250505050565b610a3e611f0e565b610a4a84848484611f8c565b60005b8351811015610b4457600160086000868481518110610a6f57610a6e613f9f565b5b6020026020010151815260200190815260200160002060006101000a81548160ff02191690831515021790555060046000858381518110610ab357610ab2613f9f565b5b60200260200101518152602001908152602001600020610ad1611dc6565b9080600181540180825580915050600190039060005260206000200160009091909190916101000a81548173ffffffffffffffffffffffffffffffffffffffff021916908373ffffffffffffffffffffffffffffffffffffffff1602179055508080610b3c90613ffd565b915050610a4d565b5050505050565b60006007600083815260200190815260200160002060009054906101000a900460ff169050919050565b610b7d611dc6565b73ffffffffffffffffffffffffffffffffffffffff168573ffffffffffffffffffffffffffffffffffffffff161480610bc35750610bc285610bbd611dc6565b611af1565b5b610c02576040517f08c379a0000000000000000000000000000000000000000000000000000000008152600401610bf99061414c565b60405180910390fd5b610c0f85858585856121b8565b5050505050565b610c27610c21611dc6565b826113d7565b60008060005b6004600085815260200190815260200160002080549050811015610cf357600460008581526020019081526020016000208181548110610c7057610c6f613f9f565b5b9060005260206000200160009054906101000a900473ffffffffffffffffffffffffffffffffffffffff1673ffffffffffffffffffffffffffffffffffffffff16610cb9611dc6565b73ffffffffffffffffffffffffffffffffffffffff1603610ce05760019250809150610cf3565b8080610ceb90613ffd565b915050610c2d565b508115610d925760026007600085815260200190815260200160002060006101000a81548160ff02191690836002811115610d3157610d3061325d565b5b0217905550610d3e611dc6565b73ffffffffffffffffffffffffffffffffffffffff167f8610b7b5acdeec4d9229259544302ae0e252928822763a75adb58b66ba1f2d8884604051610d8391906130a8565b60405180910390a25050610f23565b60016007600085815260200190815260200160002060006101000a81548160ff02191690836002811115610dc957610dc861325d565b5b021790555060005b6004600085815260200190815260200160002080549050811015610eca57600160056000600460008881526020019081526020016000208481548110610e1a57610e19613f9f565b5b9060005260206000200160009054906101000a900473ffffffffffffffffffffffffffffffffffffffff1673ffffffffffffffffffffffffffffffffffffffff1673ffffffffffffffffffffffffffffffffffffffff168152602001908152602001600020600086815260200190815260200160002060006101000a81548160ff02191690836003811115610eb257610eb161325d565b5b02179055508080610ec290613ffd565b915050610dd1565b50610ed3611dc6565b73ffffffffffffffffffffffffffffffffffffffff167f8610b7b5acdeec4d9229259544302ae0e252928822763a75adb58b66ba1f2d8884604051610f1891906130a8565b60405180910390a250505b50565b6000600560008473ffffffffffffffffffffffffffffffffffffffff1673ffffffffffffffffffffffffffffffffffffffff168152602001908152602001600020600083815260200190815260200160002060009054906101000a900460ff16905092915050565b60608151835114610fd4576040517f08c379a0000000000000000000000000000000000000000000000000000000008152600401610fcb906141de565b60405180910390fd5b6000835167ffffffffffffffff811115610ff157610ff0613334565b5b60405190808252806020026020018201604052801561101f5781602001602082028036833780820191505090505b50905060005b845181101561109c5761106c85828151811061104457611043613f9f565b5b602002602001015185838151811061105f5761105e613f9f565b5b60200260200101516105cc565b82828151811061107f5761107e613f9f565b5b6020026020010181815250508061109590613ffd565b9050611025565b508091505092915050565b61113d6110b2611dc6565b88888880806020026020016040519081016040528093929190818152602001838360200280828437600081840152601f19601f82011690508083019250505050505050878780806020026020016040519081016040528093929190818152602001838360200280828437600081840152601f19601f8201169050808301925050505050505086610b75565b60005b8686905081101561125a576008600088888481811061116257611161613f9f565b5b90506020020135815260200190815260200160002060009054906101000a900460ff16801561118e5750815b156111b7576111b6888888848181106111aa576111a9613f9f565b5b90506020020135611dce565b5b811580156111fc5750600860008888848181106111d7576111d6613f9f565b5b90506020020135815260200190815260200160002060009054906101000a900460ff16155b156112475760006008600089898581811061121a57611219613f9f565b5b90506020020135815260200190815260200160002060006101000a81548160ff0219169083151502179055505b808061125290613ffd565b915050611140565b5050505050505050565b61126c611f0e565b61127660006124d9565b565b611280611f0e565b61128c8484848461259f565b60016008600085815260200190815260200160002060006101000a81548160ff021916908315150217905550600460008481526020019081526020016000206112d3611dc6565b9080600181540180825580915050600190039060005260206000200160009091909190916101000a81548173ffffffffffffffffffffffffffffffffffffffff021916908373ffffffffffffffffffffffffffffffffffffffff16021790555050505050565b60006008600083815260200190815260200160002060009054906101000a900460ff169050919050565b60006006600083815260200190815260200160002060009054906101000a900460ff169050919050565b6000600360009054906101000a900473ffffffffffffffffffffffffffffffffffffffff16905090565b60086020528060005260406000206000915054906101000a900460ff1681565b60016113ea6113e4611dc6565b836105cc565b101561142b576040517f08c379a00000000000000000000000000000000000000000000000000000000081526004016114229061424a565b60405180910390fd5b611433611dc6565b73ffffffffffffffffffffffffffffffffffffffff168273ffffffffffffffffffffffffffffffffffffffff161480611479575061147882611473611dc6565b611af1565b5b6114b8576040517f08c379a00000000000000000000000000000000000000000000000000000000081526004016114af906142dc565b60405180910390fd5b5050565b6114ce6114c7611dc6565b838361274f565b5050565b816000805b600460008481526020019081526020016000208054905081101561159a5760046000848152602001908152602001600020818154811061151a57611519613f9f565b5b9060005260206000200160009054906101000a900473ffffffffffffffffffffffffffffffffffffffff1673ffffffffffffffffffffffffffffffffffffffff16611563611dc6565b73ffffffffffffffffffffffffffffffffffffffff1603611587576001915061159a565b808061159290613ffd565b9150506114d7565b5060011515811515146115e2576040517f08c379a00000000000000000000000000000000000000000000000000000000081526004016115d990614091565b60405180910390fd5b6000805b60046000878152602001908152602001600020805490508110156116a85760046000878152602001908152602001600020818154811061162957611628613f9f565b5b9060005260206000200160009054906101000a900473ffffffffffffffffffffffffffffffffffffffff1673ffffffffffffffffffffffffffffffffffffffff16611672611dc6565b73ffffffffffffffffffffffffffffffffffffffff1603611695578091506116a8565b80806116a090613ffd565b9150506115e6565b50600160038111156116bd576116bc61325d565b5b600560006116c9611dc6565b73ffffffffffffffffffffffffffffffffffffffff1673ffffffffffffffffffffffffffffffffffffffff168152602001908152602001600020600087815260200190815260200160002060009054906101000a900460ff1660038111156117345761173361325d565b5b14611774576040517f08c379a000000000000000000000000000000000000000000000000000000000815260040161176b90614348565b60405180910390fd5b8360056000611781611dc6565b73ffffffffffffffffffffffffffffffffffffffff1673ffffffffffffffffffffffffffffffffffffffff168152602001908152602001600020600087815260200190815260200160002060006101000a81548160ff021916908360038111156117ee576117ed61325d565b5b02179055505050505050565b60076020528060005260406000206000915054906101000a900460ff1681565b60005b8282905081101561197d576000805b6004600086868681811061184357611842613f9f565b5b90506020020135815260200190815260200160002080549050811015611921576004600086868681811061187a57611879613f9f565b5b90506020020135815260200190815260200160002081815481106118a1576118a0613f9f565b5b9060005260206000200160009054906101000a900473ffffffffffffffffffffffffffffffffffffffff1673ffffffffffffffffffffffffffffffffffffffff166118ea611dc6565b73ffffffffffffffffffffffffffffffffffffffff160361190e5760019150611921565b808061191990613ffd565b91505061182c565b506001151581151514611969576040517f08c379a0000000000000000000000000000000000000000000000000000000008152600401611960906143b4565b60405180910390fd5b50808061197590613ffd565b91505061181d565b5060005b828290508110156119f4576002600760008585858181106119a5576119a4613f9f565b5b90506020020135815260200190815260200160002060006101000a81548160ff021916908360028111156119dc576119db61325d565b5b021790555080806119ec90613ffd565b915050611981565b506119fd611dc6565b73ffffffffffffffffffffffffffffffffffffffff167f3d3735b6b82dc6dbc33760218a1dc3a6cf77780e1774c8cd7d74dec8da518aa08383604051611a4492919061443e565b60405180910390a25050565b606060046000838152602001908152602001600020805480602002602001604051908101604052809291908181526020018280548015611ae557602002820191906000526020600020905b8160009054906101000a900473ffffffffffffffffffffffffffffffffffffffff1673ffffffffffffffffffffffffffffffffffffffff1681526020019060010190808311611a9b575b50505050509050919050565b6000600160008473ffffffffffffffffffffffffffffffffffffffff1673ffffffffffffffffffffffffffffffffffffffff16815260200190815260200160002060008373ffffffffffffffffffffffffffffffffffffffff1673ffffffffffffffffffffffffffffffffffffffff16815260200190815260200160002060009054906101000a900460ff16905092915050565b611b8d611dc6565b73ffffffffffffffffffffffffffffffffffffffff168573ffffffffffffffffffffffffffffffffffffffff161480611bd35750611bd285611bcd611dc6565b611af1565b5b611c12576040517f08c379a0000000000000000000000000000000000000000000000000000000008152600401611c099061414c565b60405180910390fd5b611c1f85858585856128bb565b5050505050565b611c2e611f0e565b600073ffffffffffffffffffffffffffffffffffffffff168173ffffffffffffffffffffffffffffffffffffffff1603611c9d576040517f08c379a0000000000000000000000000000000000000000000000000000000008152600401611c94906144d4565b60405180910390fd5b611ca6816124d9565b50565b611cbd611cb4611dc6565b86868686611b85565b6008600085815260200190815260200160002060009054906101000a900460ff168015611ce75750805b15611cf757611cf68585611dce565b5b80158015611d2357506008600085815260200190815260200160002060009054906101000a900460ff16155b15611d555760006008600086815260200190815260200160002060006101000a81548160ff0219169083151502179055505b5050505050565b60007f01ffc9a7000000000000000000000000000000000000000000000000000000007bffffffffffffffffffffffffffffffffffffffffffffffffffffffff1916827bffffffffffffffffffffffffffffffffffffffffffffffffffffffff1916149050919050565b600033905090565b6000805b6004600084815260200190815260200160002080549050811015611e8e578373ffffffffffffffffffffffffffffffffffffffff16600460008581526020019081526020016000208281548110611e2c57611e2b613f9f565b5b9060005260206000200160009054906101000a900473ffffffffffffffffffffffffffffffffffffffff1673ffffffffffffffffffffffffffffffffffffffff1603611e7b5760019150611e8e565b8080611e8690613ffd565b915050611dd2565b5080611f095760046000838152602001908152602001600020839080600181540180825580915050600190039060005260206000200160009091909190916101000a81548173ffffffffffffffffffffffffffffffffffffffff021916908373ffffffffffffffffffffffffffffffffffffffff1602179055505b505050565b611f16611dc6565b73ffffffffffffffffffffffffffffffffffffffff16611f3461138d565b73ffffffffffffffffffffffffffffffffffffffff1614611f8a576040517f08c379a0000000000000000000000000000000000000000000000000000000008152600401611f8190614540565b60405180910390fd5b565b600073ffffffffffffffffffffffffffffffffffffffff168473ffffffffffffffffffffffffffffffffffffffff1603611ffb576040517f08c379a0000000000000000000000000000000000000000000000000000000008152600401611ff2906145d2565b60405180910390fd5b815183511461203f576040517f08c379a000000000000000000000000000000000000000000000000000000000815260040161203690614664565b60405180910390fd5b6000612049611dc6565b905061205a81600087878787612b56565b60005b84518110156121135783818151811061207957612078613f9f565b5b602002602001015160008087848151811061209757612096613f9f565b5b6020026020010151815260200190815260200160002060008873ffffffffffffffffffffffffffffffffffffffff1673ffffffffffffffffffffffffffffffffffffffff16815260200190815260200160002060008282546120f99190614684565b92505081905550808061210b90613ffd565b91505061205d565b508473ffffffffffffffffffffffffffffffffffffffff16600073ffffffffffffffffffffffffffffffffffffffff168273ffffffffffffffffffffffffffffffffffffffff167f4a39dc06d4c0dbc64b70af90fd698a233a518aa5d07e595d983b8c0526c8f7fb878760405161218b9291906146b8565b60405180910390a46121a281600087878787612b5e565b6121b181600087878787612b66565b5050505050565b81518351146121fc576040517f08c379a00000000000000000000000000000000000000000000000000000000081526004016121f390614664565b60405180910390fd5b600073ffffffffffffffffffffffffffffffffffffffff168473ffffffffffffffffffffffffffffffffffffffff160361226b576040517f08c379a000000000000000000000000000000000000000000000000000000000815260040161226290614761565b60405180910390fd5b6000612275611dc6565b9050612285818787878787612b56565b60005b84518110156124365760008582815181106122a6576122a5613f9f565b5b6020026020010151905060008583815181106122c5576122c4613f9f565b5b60200260200101519050600080600084815260200190815260200160002060008b73ffffffffffffffffffffffffffffffffffffffff1673ffffffffffffffffffffffffffffffffffffffff16815260200190815260200160002054905081811015612366576040517f08c379a000000000000000000000000000000000000000000000000000000000815260040161235d906147f3565b60405180910390fd5b81810360008085815260200190815260200160002060008c73ffffffffffffffffffffffffffffffffffffffff1673ffffffffffffffffffffffffffffffffffffffff168152602001908152602001600020819055508160008085815260200190815260200160002060008b73ffffffffffffffffffffffffffffffffffffffff1673ffffffffffffffffffffffffffffffffffffffff168152602001908152602001600020600082825461241b9190614684565b925050819055505050508061242f90613ffd565b9050612288565b508473ffffffffffffffffffffffffffffffffffffffff168673ffffffffffffffffffffffffffffffffffffffff168273ffffffffffffffffffffffffffffffffffffffff167f4a39dc06d4c0dbc64b70af90fd698a233a518aa5d07e595d983b8c0526c8f7fb87876040516124ad9291906146b8565b60405180910390a46124c3818787878787612b5e565b6124d1818787878787612b66565b505050505050565b6000600360009054906101000a900473ffffffffffffffffffffffffffffffffffffffff16905081600360006101000a81548173ffffffffffffffffffffffffffffffffffffffff021916908373ffffffffffffffffffffffffffffffffffffffff1602179055508173ffffffffffffffffffffffffffffffffffffffff168173ffffffffffffffffffffffffffffffffffffffff167f8be0079c531659141344cd1fd0a4f28419497f9722a3daafe3b4186f6b6457e060405160405180910390a35050565b600073ffffffffffffffffffffffffffffffffffffffff168473ffffffffffffffffffffffffffffffffffffffff160361260e576040517f08c379a0000000000000000000000000000000000000000000000000000000008152600401612605906145d2565b60405180910390fd5b6000612618611dc6565b9050600061262585612d3d565b9050600061263285612d3d565b905061264383600089858589612b56565b8460008088815260200190815260200160002060008973ffffffffffffffffffffffffffffffffffffffff1673ffffffffffffffffffffffffffffffffffffffff16815260200190815260200160002060008282546126a29190614684565b925050819055508673ffffffffffffffffffffffffffffffffffffffff16600073ffffffffffffffffffffffffffffffffffffffff168473ffffffffffffffffffffffffffffffffffffffff167fc3d58168c5ae7397731d063d5bbf3d657854427343f4c083240f7aacaa2d0f6289896040516127209291906140b1565b60405180910390a461273783600089858589612b5e565b61274683600089898989612db7565b50505050505050565b8173ffffffffffffffffffffffffffffffffffffffff168373ffffffffffffffffffffffffffffffffffffffff16036127bd576040517f08c379a00000000000000000000000000000000000000000000000000000000081526004016127b490614885565b60405180910390fd5b80600160008573ffffffffffffffffffffffffffffffffffffffff1673ffffffffffffffffffffffffffffffffffffffff16815260200190815260200160002060008473ffffffffffffffffffffffffffffffffffffffff1673ffffffffffffffffffffffffffffffffffffffff16815260200190815260200160002060006101000a81548160ff0219169083151502179055508173ffffffffffffffffffffffffffffffffffffffff168373ffffffffffffffffffffffffffffffffffffffff167f17307eab39ab6107e8899845ad3d59bd9653f200f220920489ca2b5937696c31836040516128ae9190613163565b60405180910390a3505050565b600073ffffffffffffffffffffffffffffffffffffffff168473ffffffffffffffffffffffffffffffffffffffff160361292a576040517f08c379a000000000000000000000000000000000000000000000000000000000815260040161292190614761565b60405180910390fd5b6000612934611dc6565b9050600061294185612d3d565b9050600061294e85612d3d565b905061295e838989858589612b56565b600080600088815260200190815260200160002060008a73ffffffffffffffffffffffffffffffffffffffff1673ffffffffffffffffffffffffffffffffffffffff168152602001908152602001600020549050858110156129f5576040517f08c379a00000000000000000000000000000000000000000000000000000000081526004016129ec906147f3565b60405180910390fd5b85810360008089815260200190815260200160002060008b73ffffffffffffffffffffffffffffffffffffffff1673ffffffffffffffffffffffffffffffffffffffff168152602001908152602001600020819055508560008089815260200190815260200160002060008a73ffffffffffffffffffffffffffffffffffffffff1673ffffffffffffffffffffffffffffffffffffffff1681526020019081526020016000206000828254612aaa9190614684565b925050819055508773ffffffffffffffffffffffffffffffffffffffff168973ffffffffffffffffffffffffffffffffffffffff168573ffffffffffffffffffffffffffffffffffffffff167fc3d58168c5ae7397731d063d5bbf3d657854427343f4c083240f7aacaa2d0f628a8a604051612b279291906140b1565b60405180910390a4612b3d848a8a86868a612b5e565b612b4b848a8a8a8a8a612db7565b505050505050505050565b505050505050565b505050505050565b612b858473ffffffffffffffffffffffffffffffffffffffff16612f8e565b15612d35578373ffffffffffffffffffffffffffffffffffffffff1663bc197c8187878686866040518663ffffffff1660e01b8152600401612bcb9594939291906148fa565b6020604051808303816000875af1925050508015612c0757506040513d601f19601f82011682018060405250810190612c049190614977565b60015b612cac57612c136149b1565b806308c379a003612c6f5750612c276149d3565b80612c325750612c71565b806040517f08c379a0000000000000000000000000000000000000000000000000000000008152600401612c66919061323b565b60405180910390fd5b505b6040517f08c379a0000000000000000000000000000000000000000000000000000000008152600401612ca390614ad5565b60405180910390fd5b63bc197c8160e01b7bffffffffffffffffffffffffffffffffffffffffffffffffffffffff1916817bffffffffffffffffffffffffffffffffffffffffffffffffffffffff191614612d33576040517f08c379a0000000000000000000000000000000000000000000000000000000008152600401612d2a90614b67565b60405180910390fd5b505b505050505050565b60606000600167ffffffffffffffff811115612d5c57612d5b613334565b5b604051908082528060200260200182016040528015612d8a5781602001602082028036833780820191505090505b5090508281600081518110612da257612da1613f9f565b5b60200260200101818152505080915050919050565b612dd68473ffffffffffffffffffffffffffffffffffffffff16612f8e565b15612f86578373ffffffffffffffffffffffffffffffffffffffff1663f23a6e6187878686866040518663ffffffff1660e01b8152600401612e1c959493929190614b87565b6020604051808303816000875af1925050508015612e5857506040513d601f19601f82011682018060405250810190612e559190614977565b60015b612efd57612e646149b1565b806308c379a003612ec05750612e786149d3565b80612e835750612ec2565b806040517f08c379a0000000000000000000000000000000000000000000000000000000008152600401612eb7919061323b565b60405180910390fd5b505b6040517f08c379a0000000000000000000000000000000000000000000000000000000008152600401612ef490614ad5565b60405180910390fd5b63f23a6e6160e01b7bffffffffffffffffffffffffffffffffffffffffffffffffffffffff1916817bffffffffffffffffffffffffffffffffffffffffffffffffffffffff191614612f84576040517f08c379a0000000000000000000000000000000000000000000000000000000008152600401612f7b90614b67565b60405180910390fd5b505b505050505050565b6000808273ffffffffffffffffffffffffffffffffffffffff163b119050919050565b6000604051905090565b600080fd5b600080fd5b600073ffffffffffffffffffffffffffffffffffffffff82169050919050565b6000612ff082612fc5565b9050919050565b61300081612fe5565b811461300b57600080fd5b50565b60008135905061301d81612ff7565b92915050565b6000819050919050565b61303681613023565b811461304157600080fd5b50565b6000813590506130538161302d565b92915050565b600080604083850312156130705761306f612fbb565b5b600061307e8582860161300e565b925050602061308f85828601613044565b9150509250929050565b6130a281613023565b82525050565b60006020820190506130bd6000830184613099565b92915050565b60007fffffffff0000000000000000000000000000000000000000000000000000000082169050919050565b6130f8816130c3565b811461310357600080fd5b50565b600081359050613115816130ef565b92915050565b60006020828403121561313157613130612fbb565b5b600061313f84828501613106565b91505092915050565b60008115159050919050565b61315d81613148565b82525050565b60006020820190506131786000830184613154565b92915050565b60006020828403121561319457613193612fbb565b5b60006131a284828501613044565b91505092915050565b600081519050919050565b600082825260208201905092915050565b60005b838110156131e55780820151818401526020810190506131ca565b60008484015250505050565b6000601f19601f8301169050919050565b600061320d826131ab565b61321781856131b6565b93506132278185602086016131c7565b613230816131f1565b840191505092915050565b600060208201905081810360008301526132558184613202565b905092915050565b7f4e487b7100000000000000000000000000000000000000000000000000000000600052602160045260246000fd5b6004811061329d5761329c61325d565b5b50565b60008190506132ae8261328c565b919050565b60006132be826132a0565b9050919050565b6132ce816132b3565b82525050565b60006020820190506132e960008301846132c5565b92915050565b6000806040838503121561330657613305612fbb565b5b600061331485828601613044565b925050602061332585828601613044565b9150509250929050565b600080fd5b7f4e487b7100000000000000000000000000000000000000000000000000000000600052604160045260246000fd5b61336c826131f1565b810181811067ffffffffffffffff8211171561338b5761338a613334565b5b80604052505050565b600061339e612fb1565b90506133aa8282613363565b919050565b600067ffffffffffffffff8211156133ca576133c9613334565b5b602082029050602081019050919050565b600080fd5b60006133f36133ee846133af565b613394565b90508083825260208201905060208402830185811115613416576134156133db565b5b835b8181101561343f578061342b8882613044565b845260208401935050602081019050613418565b5050509392505050565b600082601f83011261345e5761345d61332f565b5b813561346e8482602086016133e0565b91505092915050565b600080fd5b600067ffffffffffffffff82111561349757613496613334565b5b6134a0826131f1565b9050602081019050919050565b82818337600083830152505050565b60006134cf6134ca8461347c565b613394565b9050828152602081018484840111156134eb576134ea613477565b5b6134f68482856134ad565b509392505050565b600082601f8301126135135761351261332f565b5b81356135238482602086016134bc565b91505092915050565b6000806000806080858703121561354657613545612fbb565b5b60006135548782880161300e565b945050602085013567ffffffffffffffff81111561357557613574612fc0565b5b61358187828801613449565b935050604085013567ffffffffffffffff8111156135a2576135a1612fc0565b5b6135ae87828801613449565b925050606085013567ffffffffffffffff8111156135cf576135ce612fc0565b5b6135db878288016134fe565b91505092959194509250565b600381106135f8576135f761325d565b5b50565b6000819050613609826135e7565b919050565b6000613619826135fb565b9050919050565b6136298161360e565b82525050565b60006020820190506136446000830184613620565b92915050565b600080600080600060a0868803121561366657613665612fbb565b5b60006136748882890161300e565b95505060206136858882890161300e565b945050604086013567ffffffffffffffff8111156136a6576136a5612fc0565b5b6136b288828901613449565b935050606086013567ffffffffffffffff8111156136d3576136d2612fc0565b5b6136df88828901613449565b925050608086013567ffffffffffffffff811115613700576136ff612fc0565b5b61370c888289016134fe565b9150509295509295909350565b600067ffffffffffffffff82111561373457613733613334565b5b602082029050602081019050919050565b600061375861375384613719565b613394565b9050808382526020820190506020840283018581111561377b5761377a6133db565b5b835b818110156137a45780613790888261300e565b84526020840193505060208101905061377d565b5050509392505050565b600082601f8301126137c3576137c261332f565b5b81356137d3848260208601613745565b91505092915050565b600080604083850312156137f3576137f2612fbb565b5b600083013567ffffffffffffffff81111561381157613810612fc0565b5b61381d858286016137ae565b925050602083013567ffffffffffffffff81111561383e5761383d612fc0565b5b61384a85828601613449565b9150509250929050565b600081519050919050565b600082825260208201905092915050565b6000819050602082019050919050565b61388981613023565b82525050565b600061389b8383613880565b60208301905092915050565b6000602082019050919050565b60006138bf82613854565b6138c9818561385f565b93506138d483613870565b8060005b838110156139055781516138ec888261388f565b97506138f7836138a7565b9250506001810190506138d8565b5085935050505092915050565b6000602082019050818103600083015261392c81846138b4565b905092915050565b600080fd5b60008083601f84011261394f5761394e61332f565b5b8235905067ffffffffffffffff81111561396c5761396b613934565b5b602083019150836020820283011115613988576139876133db565b5b9250929050565b61399881613148565b81146139a357600080fd5b50565b6000813590506139b58161398f565b92915050565b600080600080600080600060a0888a0312156139da576139d9612fbb565b5b60006139e88a828b0161300e565b975050602088013567ffffffffffffffff811115613a0957613a08612fc0565b5b613a158a828b01613939565b9650965050604088013567ffffffffffffffff811115613a3857613a37612fc0565b5b613a448a828b01613939565b9450945050606088013567ffffffffffffffff811115613a6757613a66612fc0565b5b613a738a828b016134fe565b9250506080613a848a828b016139a6565b91505092959891949750929550565b60008060008060808587031215613aad57613aac612fbb565b5b6000613abb8782880161300e565b9450506020613acc87828801613044565b9350506040613add87828801613044565b925050606085013567ffffffffffffffff811115613afe57613afd612fc0565b5b613b0a878288016134fe565b91505092959194509250565b613b1f81612fe5565b82525050565b6000602082019050613b3a6000830184613b16565b92915050565b60008060408385031215613b5757613b56612fbb565b5b6000613b658582860161300e565b9250506020613b76858286016139a6565b9150509250929050565b60048110613b8d57600080fd5b50565b600081359050613b9f81613b80565b92915050565b60008060408385031215613bbc57613bbb612fbb565b5b6000613bca85828601613044565b9250506020613bdb85828601613b90565b9150509250929050565b60008060208385031215613bfc57613bfb612fbb565b5b600083013567ffffffffffffffff811115613c1a57613c19612fc0565b5b613c2685828601613939565b92509250509250929050565b600081519050919050565b600082825260208201905092915050565b6000819050602082019050919050565b613c6781612fe5565b82525050565b6000613c798383613c5e565b60208301905092915050565b6000602082019050919050565b6000613c9d82613c32565b613ca78185613c3d565b9350613cb283613c4e565b8060005b83811015613ce3578151613cca8882613c6d565b9750613cd583613c85565b925050600181019050613cb6565b5085935050505092915050565b60006020820190508181036000830152613d0a8184613c92565b905092915050565b60008060408385031215613d2957613d28612fbb565b5b6000613d378582860161300e565b9250506020613d488582860161300e565b9150509250929050565b600080600080600060a08688031215613d6e57613d6d612fbb565b5b6000613d7c8882890161300e565b9550506020613d8d8882890161300e565b9450506040613d9e88828901613044565b9350506060613daf88828901613044565b925050608086013567ffffffffffffffff811115613dd057613dcf612fc0565b5b613ddc888289016134fe565b9150509295509295909350565b600060208284031215613dff57613dfe612fbb565b5b6000613e0d8482850161300e565b91505092915050565b600080600080600060a08688031215613e3257613e31612fbb565b5b6000613e408882890161300e565b9550506020613e5188828901613044565b9450506040613e6288828901613044565b935050606086013567ffffffffffffffff811115613e8357613e82612fc0565b5b613e8f888289016134fe565b9250506080613ea0888289016139a6565b9150509295509295909350565b7f455243313135353a2061646472657373207a65726f206973206e6f742061207660008201527f616c6964206f776e657200000000000000000000000000000000000000000000602082015250565b6000613f09602a836131b6565b9150613f1482613ead565b604082019050919050565b60006020820190508181036000830152613f3881613efc565b9050919050565b7f4e487b7100000000000000000000000000000000000000000000000000000000600052602260045260246000fd5b60006002820490506001821680613f8657607f821691505b602082108103613f9957613f98613f3f565b5b50919050565b7f4e487b7100000000000000000000000000000000000000000000000000000000600052603260045260246000fd5b7f4e487b7100000000000000000000000000000000000000000000000000000000600052601160045260246000fd5b600061400882613023565b91507fffffffffffffffffffffffffffffffffffffffffffffffffffffffffffffffff820361403a57614039613fce565b5b600182019050919050565b7f4d757374206265204d616e756661637475726572000000000000000000000000600082015250565b600061407b6014836131b6565b915061408682614045565b602082019050919050565b600060208201905081810360008301526140aa8161406e565b9050919050565b60006040820190506140c66000830185613099565b6140d36020830184613099565b9392505050565b7f455243313135353a2063616c6c6572206973206e6f7420746f6b656e206f776e60008201527f6572206f7220617070726f766564000000000000000000000000000000000000602082015250565b6000614136602e836131b6565b9150614141826140da565b604082019050919050565b6000602082019050818103600083015261416581614129565b9050919050565b7f455243313135353a206163636f756e747320616e6420696473206c656e67746860008201527f206d69736d617463680000000000000000000000000000000000000000000000602082015250565b60006141c86029836131b6565b91506141d38261416c565b604082019050919050565b600060208201905081810360008301526141f7816141bb565b9050919050565b7f4e6f20546f6b656e206f776e6564000000000000000000000000000000000000600082015250565b6000614234600e836131b6565b915061423f826141fe565b602082019050919050565b6000602082019050818103600083015261426381614227565b9050919050565b7f63616c6c6572206973206e6f7420746f6b656e206f776e6572206f722061707060008201527f726f766564000000000000000000000000000000000000000000000000000000602082015250565b60006142c66025836131b6565b91506142d18261426a565b604082019050919050565b600060208201905081810360008301526142f5816142b9565b9050919050565b7f546f6b656e2063616e206e6f7420626520636865636b65640000000000000000600082015250565b60006143326018836131b6565b915061433d826142fc565b602082019050919050565b6000602082019050818103600083015261436181614325565b9050919050565b7f4e6f742061204d616e756661637475726572206f66207468697320746f6b656e600082015250565b600061439e6020836131b6565b91506143a982614368565b602082019050919050565b600060208201905081810360008301526143cd81614391565b9050919050565b600080fd5b82818337505050565b60006143ee838561385f565b93507f07ffffffffffffffffffffffffffffffffffffffffffffffffffffffffffffff831115614421576144206143d4565b5b6020830292506144328385846143d9565b82840190509392505050565b600060208201905081810360008301526144598184866143e2565b90509392505050565b7f4f776e61626c653a206e6577206f776e657220697320746865207a65726f206160008201527f6464726573730000000000000000000000000000000000000000000000000000602082015250565b60006144be6026836131b6565b91506144c982614462565b604082019050919050565b600060208201905081810360008301526144ed816144b1565b9050919050565b7f4f776e61626c653a2063616c6c6572206973206e6f7420746865206f776e6572600082015250565b600061452a6020836131b6565b9150614535826144f4565b602082019050919050565b600060208201905081810360008301526145598161451d565b9050919050565b7f455243313135353a206d696e7420746f20746865207a65726f2061646472657360008201527f7300000000000000000000000000000000000000000000000000000000000000602082015250565b60006145bc6021836131b6565b91506145c782614560565b604082019050919050565b600060208201905081810360008301526145eb816145af565b9050919050565b7f455243313135353a2069647320616e6420616d6f756e7473206c656e6774682060008201527f6d69736d61746368000000000000000000000000000000000000000000000000602082015250565b600061464e6028836131b6565b9150614659826145f2565b604082019050919050565b6000602082019050818103600083015261467d81614641565b9050919050565b600061468f82613023565b915061469a83613023565b92508282019050808211156146b2576146b1613fce565b5b92915050565b600060408201905081810360008301526146d281856138b4565b905081810360208301526146e681846138b4565b90509392505050565b7f455243313135353a207472616e7366657220746f20746865207a65726f20616460008201527f6472657373000000000000000000000000000000000000000000000000000000602082015250565b600061474b6025836131b6565b9150614756826146ef565b604082019050919050565b6000602082019050818103600083015261477a8161473e565b9050919050565b7f455243313135353a20696e73756666696369656e742062616c616e636520666f60008201527f72207472616e7366657200000000000000000000000000000000000000000000602082015250565b60006147dd602a836131b6565b91506147e882614781565b604082019050919050565b6000602082019050818103600083015261480c816147d0565b9050919050565b7f455243313135353a2073657474696e6720617070726f76616c2073746174757360008201527f20666f722073656c660000000000000000000000000000000000000000000000602082015250565b600061486f6029836131b6565b915061487a82614813565b604082019050919050565b6000602082019050818103600083015261489e81614862565b9050919050565b600081519050919050565b600082825260208201905092915050565b60006148cc826148a5565b6148d681856148b0565b93506148e68185602086016131c7565b6148ef816131f1565b840191505092915050565b600060a08201905061490f6000830188613b16565b61491c6020830187613b16565b818103604083015261492e81866138b4565b9050818103606083015261494281856138b4565b9050818103608083015261495681846148c1565b90509695505050505050565b600081519050614971816130ef565b92915050565b60006020828403121561498d5761498c612fbb565b5b600061499b84828501614962565b91505092915050565b60008160e01c9050919050565b600060033d11156149d05760046000803e6149cd6000516149a4565b90505b90565b600060443d10614a60576149e5612fb1565b60043d036004823e80513d602482011167ffffffffffffffff82111715614a0d575050614a60565b808201805167ffffffffffffffff811115614a2b5750505050614a60565b80602083010160043d038501811115614a48575050505050614a60565b614a5782602001850186613363565b82955050505050505b90565b7f455243313135353a207472616e7366657220746f206e6f6e2d4552433131353560008201527f526563656976657220696d706c656d656e746572000000000000000000000000602082015250565b6000614abf6034836131b6565b9150614aca82614a63565b604082019050919050565b60006020820190508181036000830152614aee81614ab2565b9050919050565b7f455243313135353a204552433131353552656365697665722072656a6563746560008201527f6420746f6b656e73000000000000000000000000000000000000000000000000602082015250565b6000614b516028836131b6565b9150614b5c82614af5565b604082019050919050565b60006020820190508181036000830152614b8081614b44565b9050919050565b600060a082019050614b9c6000830188613b16565b614ba96020830187613b16565b614bb66040830186613099565b614bc36060830185613099565b8181036080830152614bd581846148c1565b9050969550505050505056fea264697066735822122032b44107a03d74719533e7e870a9ff5f381211d24010e9f57d6576585b4d396764736f6c63430008120033",
  "linkReferences": {},
  "deployedLinkReferences": {}
}