{
  "_format": "hh-sol-artifact-1",
  "contractName": "RecallToken",
  "sourceName": "contracts/RecallToken.sol",
  "abi": [
    {
      "inputs": [
        {
          "internalType": "string",
          "name": "uri",
          "type": "string"
        }
      ],
      "stateMutability": "nonpayable",
      "type": "constructor"
    },
    {
      "anonymous": false,
      "inputs": [
        {
          "indexed": true,
          "internalType": "address",
          "name": "account",
          "type": "address"
        },
        {
          "indexed": true,
          "internalType": "address",
          "name": "operator",
          "type": "address"
        },
        {
          "indexed": false,
          "internalType": "bool",
          "name": "approved",
          "type": "bool"
        }
      ],
      "name": "ApprovalForAll",
      "type": "event"
    },
    {
      "anonymous": false,
      "inputs": [
        {
          "indexed": true,
          "internalType": "address",
          "name": "_announcer",
          "type": "address"
        },
        {
          "indexed": false,
          "internalType": "uint256",
          "name": "_tokenId",
          "type": "uint256"
        }
      ],
      "name": "DefectAnnounced",
      "type": "event"
    },
    {
      "anonymous": false,
      "inputs": [
        {
          "indexed": true,
          "internalType": "address",
          "name": "_announcer",
          "type": "address"
        },
        {
          "indexed": false,
          "internalType": "uint256[]",
          "name": "_tokenIds",
          "type": "uint256[]"
        }
      ],
      "name": "ForwardRecall",
      "type": "event"
    },
    {
      "anonymous": false,
      "inputs": [
        {
          "indexed": true,
          "internalType": "address",
          "name": "previousOwner",
          "type": "address"
        },
        {
          "indexed": true,
          "internalType": "address",
          "name": "newOwner",
          "type": "address"
        }
      ],
      "name": "OwnershipTransferred",
      "type": "event"
    },
    {
      "anonymous": false,
      "inputs": [
        {
          "indexed": true,
          "internalType": "address",
          "name": "_announcer",
          "type": "address"
        },
        {
          "indexed": false,
          "internalType": "uint256",
          "name": "_tokenId",
          "type": "uint256"
        },
        {
          "indexed": false,
          "internalType": "enum RecallToken.TokenCheckingState",
          "name": "_resultState",
          "type": "uint8"
        }
      ],
      "name": "TokenChecked",
      "type": "event"
    },
    {
      "anonymous": false,
      "inputs": [
        {
          "indexed": true,
          "internalType": "address",
          "name": "_announcer",
          "type": "address"
        },
        {
          "indexed": false,
          "internalType": "uint256",
          "name": "_tokenId",
          "type": "uint256"
        },
        {
          "indexed": false,
          "internalType": "uint256",
          "name": "_mergedTokenId",
          "type": "uint256"
        },
        {
          "indexed": false,
          "internalType": "address[]",
          "name": "_manufacturers",
          "type": "address[]"
        }
      ],
      "name": "TokenMerged",
      "type": "event"
    },
    {
      "anonymous": false,
      "inputs": [
        {
          "indexed": true,
          "internalType": "address",
          "name": "operator",
          "type": "address"
        },
        {
          "indexed": true,
          "internalType": "address",
          "name": "from",
          "type": "address"
        },
        {
          "indexed": true,
          "internalType": "address",
          "name": "to",
          "type": "address"
        },
        {
          "indexed": false,
          "internalType": "uint256[]",
          "name": "ids",
          "type": "uint256[]"
        },
        {
          "indexed": false,
          "internalType": "uint256[]",
          "name": "values",
          "type": "uint256[]"
        }
      ],
      "name": "TransferBatch",
      "type": "event"
    },
    {
      "anonymous": false,
      "inputs": [
        {
          "indexed": true,
          "internalType": "address",
          "name": "operator",
          "type": "address"
        },
        {
          "indexed": true,
          "internalType": "address",
          "name": "from",
          "type": "address"
        },
        {
          "indexed": true,
          "internalType": "address",
          "name": "to",
          "type": "address"
        },
        {
          "indexed": false,
          "internalType": "uint256",
          "name": "id",
          "type": "uint256"
        },
        {
          "indexed": false,
          "internalType": "uint256",
          "name": "value",
          "type": "uint256"
        }
      ],
      "name": "TransferSingle",
      "type": "event"
    },
    {
      "anonymous": false,
      "inputs": [
        {
          "indexed": false,
          "internalType": "string",
          "name": "value",
          "type": "string"
        },
        {
          "indexed": true,
          "internalType": "uint256",
          "name": "id",
          "type": "uint256"
        }
      ],
      "name": "URI",
      "type": "event"
    },
    {
      "inputs": [
        {
          "internalType": "address",
          "name": "_from",
          "type": "address"
        },
        {
          "internalType": "uint256",
          "name": "_tokenId",
          "type": "uint256"
        }
      ],
      "name": "_authorizedForToken",
      "outputs": [],
      "stateMutability": "view",
      "type": "function"
    },
    {
      "inputs": [
        {
          "internalType": "uint256",
          "name": "_tokenId",
          "type": "uint256"
        }
      ],
      "name": "announceDefect",
      "outputs": [],
      "stateMutability": "nonpayable",
      "type": "function"
    },
    {
      "inputs": [
        {
          "internalType": "address",
          "name": "account",
          "type": "address"
        },
        {
          "internalType": "uint256",
          "name": "id",
          "type": "uint256"
        }
      ],
      "name": "balanceOf",
      "outputs": [
        {
          "internalType": "uint256",
          "name": "",
          "type": "uint256"
        }
      ],
      "stateMutability": "view",
      "type": "function"
    },
    {
      "inputs": [
        {
          "internalType": "address[]",
          "name": "accounts",
          "type": "address[]"
        },
        {
          "internalType": "uint256[]",
          "name": "ids",
          "type": "uint256[]"
        }
      ],
      "name": "balanceOfBatch",
      "outputs": [
        {
          "internalType": "uint256[]",
          "name": "",
          "type": "uint256[]"
        }
      ],
      "stateMutability": "view",
      "type": "function"
    },
    {
      "inputs": [
        {
          "internalType": "address",
          "name": "_receiver",
          "type": "address"
        },
        {
          "internalType": "uint256[]",
          "name": "_tokenIds",
          "type": "uint256[]"
        },
        {
          "internalType": "uint256[]",
          "name": "_amounts",
          "type": "uint256[]"
        },
        {
          "internalType": "bytes",
          "name": "data",
          "type": "bytes"
        },
        {
          "internalType": "bool",
          "name": "_internal",
          "type": "bool"
        }
      ],
      "name": "batchTransferRecallToken",
      "outputs": [],
      "stateMutability": "nonpayable",
      "type": "function"
    },
    {
      "inputs": [
        {
          "internalType": "uint256",
          "name": "_tokenId",
          "type": "uint256"
        },
        {
          "internalType": "enum RecallToken.TokenCheckingState",
          "name": "_tokenCheckingState",
          "type": "uint8"
        }
      ],
      "name": "checkToken",
      "outputs": [],
      "stateMutability": "nonpayable",
      "type": "function"
    },
    {
      "inputs": [
        {
          "internalType": "uint256[]",
          "name": "_tokenIds",
          "type": "uint256[]"
        }
      ],
      "name": "forwardRecall",
      "outputs": [],
      "stateMutability": "nonpayable",
      "type": "function"
    },
    {
      "inputs": [
        {
          "internalType": "uint256",
          "name": "_tokenId",
          "type": "uint256"
        }
      ],
      "name": "getInProductionValue",
      "outputs": [
        {
          "internalType": "bool",
          "name": "",
          "type": "bool"
        }
      ],
      "stateMutability": "view",
      "type": "function"
    },
    {
      "inputs": [
        {
          "internalType": "address",
          "name": "_address",
          "type": "address"
        },
        {
          "internalType": "uint256",
          "name": "_tokenId",
          "type": "uint256"
        }
      ],
      "name": "getManufacturerTokenCheckingStateValue",
      "outputs": [
        {
          "internalType": "enum RecallToken.TokenCheckingState",
          "name": "",
          "type": "uint8"
        }
      ],
      "stateMutability": "view",
      "type": "function"
    },
    {
      "inputs": [
        {
          "internalType": "uint256",
          "name": "_tokenId",
          "type": "uint256"
        }
      ],
      "name": "getManufacturersOfToken",
      "outputs": [
        {
          "internalType": "address[]",
          "name": "",
          "type": "address[]"
        }
      ],
      "stateMutability": "view",
      "type": "function"
    },
    {
      "inputs": [
        {
          "internalType": "uint256",
          "name": "_tokenId",
          "type": "uint256"
        }
      ],
      "name": "getTokenCheckingState",
      "outputs": [
        {
          "internalType": "enum RecallToken.TokenCheckingState",
          "name": "",
          "type": "uint8"
        }
      ],
      "stateMutability": "view",
      "type": "function"
    },
    {
      "inputs": [
        {
          "internalType": "uint256",
          "name": "_tokenId",
          "type": "uint256"
        }
      ],
      "name": "getTokenStateValue",
      "outputs": [
        {
          "internalType": "enum RecallToken.TokenState",
          "name": "",
          "type": "uint8"
        }
      ],
      "stateMutability": "view",
      "type": "function"
    },
    {
      "inputs": [
        {
          "internalType": "uint256",
          "name": "",
          "type": "uint256"
        }
      ],
      "name": "inProduction",
      "outputs": [
        {
          "internalType": "bool",
          "name": "",
          "type": "bool"
        }
      ],
      "stateMutability": "view",
      "type": "function"
    },
    {
      "inputs": [
        {
          "internalType": "address",
          "name": "account",
          "type": "address"
        },
        {
          "internalType": "address",
          "name": "operator",
          "type": "address"
        }
      ],
      "name": "isApprovedForAll",
      "outputs": [
        {
          "internalType": "bool",
          "name": "",
          "type": "bool"
        }
      ],
      "stateMutability": "view",
      "type": "function"
    },
    {
      "inputs": [
        {
          "internalType": "address",
          "name": "_tokenContractAddress",
          "type": "address"
        },
        {
          "internalType": "uint256",
          "name": "_tokenIdMergeTo",
          "type": "uint256"
        },
        {
          "internalType": "uint256",
          "name": "_tokenIdMergeSource",
          "type": "uint256"
        }
      ],
      "name": "mergeExternalToken",
      "outputs": [],
      "stateMutability": "nonpayable",
      "type": "function"
    },
    {
      "inputs": [
        {
          "internalType": "uint256",
          "name": "_tokenIdMergeTo",
          "type": "uint256"
        },
        {
          "internalType": "uint256",
          "name": "_tokenIdMergeSource",
          "type": "uint256"
        }
      ],
      "name": "mergeToken",
      "outputs": [],
      "stateMutability": "nonpayable",
      "type": "function"
    },
    {
      "inputs": [
        {
          "internalType": "address",
          "name": "to",
          "type": "address"
        },
        {
          "internalType": "uint256",
          "name": "id",
          "type": "uint256"
        },
        {
          "internalType": "uint256",
          "name": "amount",
          "type": "uint256"
        },
        {
          "internalType": "bytes",
          "name": "data",
          "type": "bytes"
        }
      ],
      "name": "mint",
      "outputs": [],
      "stateMutability": "nonpayable",
      "type": "function"
    },
    {
      "inputs": [
        {
          "internalType": "address",
          "name": "to",
          "type": "address"
        },
        {
          "internalType": "uint256[]",
          "name": "ids",
          "type": "uint256[]"
        },
        {
          "internalType": "uint256[]",
          "name": "amounts",
          "type": "uint256[]"
        },
        {
          "internalType": "bytes",
          "name": "data",
          "type": "bytes"
        }
      ],
      "name": "mintBatch",
      "outputs": [],
      "stateMutability": "nonpayable",
      "type": "function"
    },
    {
      "inputs": [],
      "name": "owner",
      "outputs": [
        {
          "internalType": "address",
          "name": "",
          "type": "address"
        }
      ],
      "stateMutability": "view",
      "type": "function"
    },
    {
      "inputs": [],
      "name": "renounceOwnership",
      "outputs": [],
      "stateMutability": "nonpayable",
      "type": "function"
    },
    {
      "inputs": [
        {
          "internalType": "address",
          "name": "from",
          "type": "address"
        },
        {
          "internalType": "address",
          "name": "to",
          "type": "address"
        },
        {
          "internalType": "uint256[]",
          "name": "ids",
          "type": "uint256[]"
        },
        {
          "internalType": "uint256[]",
          "name": "amounts",
          "type": "uint256[]"
        },
        {
          "internalType": "bytes",
          "name": "data",
          "type": "bytes"
        }
      ],
      "name": "safeBatchTransferFrom",
      "outputs": [],
      "stateMutability": "nonpayable",
      "type": "function"
    },
    {
      "inputs": [
        {
          "internalType": "address",
          "name": "from",
          "type": "address"
        },
        {
          "internalType": "address",
          "name": "to",
          "type": "address"
        },
        {
          "internalType": "uint256",
          "name": "id",
          "type": "uint256"
        },
        {
          "internalType": "uint256",
          "name": "amount",
          "type": "uint256"
        },
        {
          "internalType": "bytes",
          "name": "data",
          "type": "bytes"
        }
      ],
      "name": "safeTransferFrom",
      "outputs": [],
      "stateMutability": "nonpayable",
      "type": "function"
    },
    {
      "inputs": [
        {
          "internalType": "address",
          "name": "operator",
          "type": "address"
        },
        {
          "internalType": "bool",
          "name": "approved",
          "type": "bool"
        }
      ],
      "name": "setApprovalForAll",
      "outputs": [],
      "stateMutability": "nonpayable",
      "type": "function"
    },
    {
      "inputs": [
        {
          "internalType": "bytes4",
          "name": "interfaceId",
          "type": "bytes4"
        }
      ],
      "name": "supportsInterface",
      "outputs": [
        {
          "internalType": "bool",
          "name": "",
          "type": "bool"
        }
      ],
      "stateMutability": "view",
      "type": "function"
    },
    {
      "inputs": [
        {
          "internalType": "uint256",
          "name": "",
          "type": "uint256"
        }
      ],
      "name": "tokenCheckingStates",
      "outputs": [
        {
          "internalType": "enum RecallToken.TokenCheckingState",
          "name": "",
          "type": "uint8"
        }
      ],
      "stateMutability": "view",
      "type": "function"
    },
    {
      "inputs": [
        {
          "internalType": "uint256",
          "name": "",
          "type": "uint256"
        }
      ],
      "name": "tokenStates",
      "outputs": [
        {
          "internalType": "enum RecallToken.TokenState",
          "name": "",
          "type": "uint8"
        }
      ],
      "stateMutability": "view",
      "type": "function"
    },
    {
      "inputs": [
        {
          "internalType": "address",
          "name": "newOwner",
          "type": "address"
        }
      ],
      "name": "transferOwnership",
      "outputs": [],
      "stateMutability": "nonpayable",
      "type": "function"
    },
    {
      "inputs": [
        {
          "internalType": "address",
          "name": "_receiver",
          "type": "address"
        },
        {
          "internalType": "uint256",
          "name": "_tokenId",
          "type": "uint256"
        },
        {
          "internalType": "uint256",
          "name": "amount",
          "type": "uint256"
        },
        {
          "internalType": "bytes",
          "name": "data",
          "type": "bytes"
        },
        {
          "internalType": "bool",
          "name": "_internal",
          "type": "bool"
        }
      ],
      "name": "transferRecallToken",
      "outputs": [],
      "stateMutability": "nonpayable",
      "type": "function"
    },
    {
      "inputs": [
        {
          "internalType": "uint256",
          "name": "",
          "type": "uint256"
        }
      ],
      "name": "uri",
      "outputs": [
        {
          "internalType": "string",
          "name": "",
          "type": "string"
        }
      ],
      "stateMutability": "view",
      "type": "function"
    }
  ],
  "bytecode": "0x60806040523480156200001157600080fd5b5060405162005817380380620058178339818101604052810190620000379190620002e7565b8062000049816200007160201b60201c565b506200006a6200005e6200008660201b60201c565b6200008e60201b60201c565b506200066a565b806002908162000082919062000583565b5050565b600033905090565b6000600360009054906101000a900473ffffffffffffffffffffffffffffffffffffffff16905081600360006101000a81548173ffffffffffffffffffffffffffffffffffffffff021916908373ffffffffffffffffffffffffffffffffffffffff1602179055508173ffffffffffffffffffffffffffffffffffffffff168173ffffffffffffffffffffffffffffffffffffffff167f8be0079c531659141344cd1fd0a4f28419497f9722a3daafe3b4186f6b6457e060405160405180910390a35050565b6000604051905090565b600080fd5b600080fd5b600080fd5b600080fd5b6000601f19601f8301169050919050565b7f4e487b7100000000000000000000000000000000000000000000000000000000600052604160045260246000fd5b620001bd8262000172565b810181811067ffffffffffffffff82111715620001df57620001de62000183565b5b80604052505050565b6000620001f462000154565b9050620002028282620001b2565b919050565b600067ffffffffffffffff82111562000225576200022462000183565b5b620002308262000172565b9050602081019050919050565b60005b838110156200025d57808201518184015260208101905062000240565b60008484015250505050565b6000620002806200027a8462000207565b620001e8565b9050828152602081018484840111156200029f576200029e6200016d565b5b620002ac8482856200023d565b509392505050565b600082601f830112620002cc57620002cb62000168565b5b8151620002de84826020860162000269565b91505092915050565b6000602082840312156200030057620002ff6200015e565b5b600082015167ffffffffffffffff81111562000321576200032062000163565b5b6200032f84828501620002b4565b91505092915050565b600081519050919050565b7f4e487b7100000000000000000000000000000000000000000000000000000000600052602260045260246000fd5b600060028204905060018216806200038b57607f821691505b602082108103620003a157620003a062000343565b5b50919050565b60008190508160005260206000209050919050565b60006020601f8301049050919050565b600082821b905092915050565b6000600883026200040b7fffffffffffffffffffffffffffffffffffffffffffffffffffffffffffffffff82620003cc565b620004178683620003cc565b95508019841693508086168417925050509392505050565b6000819050919050565b6000819050919050565b6000620004646200045e62000458846200042f565b62000439565b6200042f565b9050919050565b6000819050919050565b620004808362000443565b620004986200048f826200046b565b848454620003d9565b825550505050565b600090565b620004af620004a0565b620004bc81848462000475565b505050565b5b81811015620004e457620004d8600082620004a5565b600181019050620004c2565b5050565b601f8211156200053357620004fd81620003a7565b6200050884620003bc565b8101602085101562000518578190505b620005306200052785620003bc565b830182620004c1565b50505b505050565b600082821c905092915050565b6000620005586000198460080262000538565b1980831691505092915050565b600062000573838362000545565b9150826002028217905092915050565b6200058e8262000338565b67ffffffffffffffff811115620005aa57620005a962000183565b5b620005b6825462000372565b620005c3828285620004e8565b600060209050601f831160018114620005fb5760008415620005e6578287015190505b620005f2858262000565565b86555062000662565b601f1984166200060b86620003a7565b60005b8281101562000635578489015182556001820191506020850194506020810190506200060e565b8683101562000655578489015162000651601f89168262000545565b8355505b6001600288020188555050505b505050505050565b61519d806200067a6000396000f3fe608060405234801561001057600080fd5b50600436106101ce5760003560e01c8063731133e911610104578063a76fe719116100a2578063e985e9c511610071578063e985e9c51461056f578063f242432a1461059f578063f2fde38b146105bb578063f3498223146105d7576101ce565b8063a76fe719146104d7578063aa9f3eca146104f3578063ab58874814610523578063d9ef91951461053f576101ce565b80638da5cb5b116100de5780638da5cb5b1461045157806395dbe2db1461046f578063a0245f711461049f578063a22cb465146104bb576101ce565b8063731133e9146103d5578063857af47b146103f1578063876ca0d214610421576101ce565b80632e477ad91161017157806344c70be51161014b57806344c70be51461034f5780634e1273f41461037f57806369c7ca52146103af578063715018a6146103cb576101ce565b80632e477ad9146102e75780632eb2c2d614610317578063432f411314610333576101ce565b806318196cbc116101ad57806318196cbc146102635780631ae825901461027f5780631ef65b12146102af5780631f7fdffa146102cb576101ce565b8062fdd58e146101d357806301ffc9a7146102035780630e89341c14610233575b600080fd5b6101ed60048036038101906101e8919061336d565b6105f3565b6040516101fa91906133bc565b60405180910390f35b61021d6004803603810190610218919061342f565b6106bb565b60405161022a9190613477565b60405180910390f35b61024d60048036038101906102489190613492565b61079d565b60405161025a919061354f565b60405180910390f35b61027d60048036038101906102789190613571565b610831565b005b61029960048036038101906102949190613492565b610b0a565b6040516102a6919061363b565b60405180910390f35b6102c960048036038101906102c49190613656565b610b2a565b005b6102e560048036038101906102e09190613893565b610d4a565b005b61030160048036038101906102fc9190613492565b610e5f565b60405161030e9190613996565b60405180910390f35b610331600480360381019061032c91906139b1565b610e89565b005b61034d60048036038101906103489190613492565b610f2a565b005b6103696004803603810190610364919061336d565b61123a565b604051610376919061363b565b60405180910390f35b61039960048036038101906103949190613b43565b6112a2565b6040516103a69190613c79565b60405180910390f35b6103c960048036038101906103c49190613d22565b6113bb565b005b6103d3611578565b005b6103ef60048036038101906103ea9190613dfa565b61158c565b005b61040b60048036038101906104069190613492565b61164d565b6040516104189190613477565b60405180910390f35b61043b60048036038101906104369190613492565b611677565b604051610448919061363b565b60405180910390f35b6104596116a1565b6040516104669190613e8c565b60405180910390f35b61048960048036038101906104849190613492565b6116cb565b6040516104969190613477565b60405180910390f35b6104b960048036038101906104b4919061336d565b6116eb565b005b6104d560048036038101906104d09190613ea7565b6117d0565b005b6104f160048036038101906104ec9190613f0c565b6117e6565b005b61050d60048036038101906105089190613492565b611b0e565b60405161051a9190613996565b60405180910390f35b61053d60048036038101906105389190613f4c565b611b2e565b005b61055960048036038101906105549190613492565b611d64565b6040516105669190614057565b60405180910390f35b61058960048036038101906105849190614079565b611e05565b6040516105969190613477565b60405180910390f35b6105b960048036038101906105b491906140b9565b611e99565b005b6105d560048036038101906105d09190614150565b611f3a565b005b6105f160048036038101906105ec919061417d565b611fbd565b005b60008073ffffffffffffffffffffffffffffffffffffffff168373ffffffffffffffffffffffffffffffffffffffff1603610663576040517f08c379a000000000000000000000000000000000000000000000000000000000815260040161065a90614286565b60405180910390fd5b60008083815260200190815260200160002060008473ffffffffffffffffffffffffffffffffffffffff1673ffffffffffffffffffffffffffffffffffffffff16815260200190815260200160002054905092915050565b60007fd9b67a26000000000000000000000000000000000000000000000000000000007bffffffffffffffffffffffffffffffffffffffffffffffffffffffff1916827bffffffffffffffffffffffffffffffffffffffffffffffffffffffff1916148061078657507f0e89341c000000000000000000000000000000000000000000000000000000007bffffffffffffffffffffffffffffffffffffffffffffffffffffffff1916827bffffffffffffffffffffffffffffffffffffffffffffffffffffffff1916145b80610796575061079582612070565b5b9050919050565b6060600280546107ac906142d5565b80601f01602080910402602001604051908101604052809291908181526020018280546107d8906142d5565b80156108255780601f106107fa57610100808354040283529160200191610825565b820191906000526020600020905b81548152906001019060200180831161080857829003601f168201915b50505050509050919050565b816000805b60046000848152602001908152602001600020805490508110156108f95760046000848152602001908152602001600020818154811061087957610878614306565b5b9060005260206000200160009054906101000a900473ffffffffffffffffffffffffffffffffffffffff1673ffffffffffffffffffffffffffffffffffffffff166108c26120da565b73ffffffffffffffffffffffffffffffffffffffff16036108e657600191506108f9565b80806108f190614364565b915050610836565b506001151581151514610941576040517f08c379a0000000000000000000000000000000000000000000000000000000008152600401610938906143f8565b60405180910390fd5b61095261094c6120da565b856116eb565b600085905060005b8173ffffffffffffffffffffffffffffffffffffffff1663d9ef9195866040518263ffffffff1660e01b815260040161099391906133bc565b600060405180830381865afa1580156109b0573d6000803e3d6000fd5b505050506040513d6000823e3d601f19601f820116820180604052508101906109d991906144c4565b51811015610a9657610a838273ffffffffffffffffffffffffffffffffffffffff1663d9ef9195876040518263ffffffff1660e01b8152600401610a1d91906133bc565b600060405180830381865afa158015610a3a573d6000803e3d6000fd5b505050506040513d6000823e3d601f19601f82011682018060405250810190610a6391906144c4565b8281518110610a7557610a74614306565b5b6020026020010151876120e2565b8080610a8e90614364565b91505061095a565b50610a9f6120da565b73ffffffffffffffffffffffffffffffffffffffff167f5fad86333e1e2b687abcc2f48beee1ec5baed9d19ca66711cecb8a38ec5c907c8686600460008a8152602001908152602001600020604051610afa939291906145f9565b60405180910390a2505050505050565b60066020528060005260406000206000915054906101000a900460ff1681565b816000805b6004600084815260200190815260200160002080549050811015610bf257600460008481526020019081526020016000208181548110610b7257610b71614306565b5b9060005260206000200160009054906101000a900473ffffffffffffffffffffffffffffffffffffffff1673ffffffffffffffffffffffffffffffffffffffff16610bbb6120da565b73ffffffffffffffffffffffffffffffffffffffff1603610bdf5760019150610bf2565b8080610bea90614364565b915050610b2f565b506001151581151514610c3a576040517f08c379a0000000000000000000000000000000000000000000000000000000008152600401610c31906143f8565b60405180910390fd5b610c4b610c456120da565b856116eb565b60005b6004600085815260200190815260200160002080549050811015610cd857610cc5600460008681526020019081526020016000208281548110610c9457610c93614306565b5b9060005260206000200160009054906101000a900473ffffffffffffffffffffffffffffffffffffffff16866120e2565b8080610cd090614364565b915050610c4e565b50610ce16120da565b73ffffffffffffffffffffffffffffffffffffffff167f5fad86333e1e2b687abcc2f48beee1ec5baed9d19ca66711cecb8a38ec5c907c858560046000898152602001908152602001600020604051610d3c939291906145f9565b60405180910390a250505050565b610d52612222565b610d5e848484846122a0565b60005b8351811015610e5857600160086000868481518110610d8357610d82614306565b5b6020026020010151815260200190815260200160002060006101000a81548160ff02191690831515021790555060046000858381518110610dc757610dc6614306565b5b60200260200101518152602001908152602001600020610de56120da565b9080600181540180825580915050600190039060005260206000200160009091909190916101000a81548173ffffffffffffffffffffffffffffffffffffffff021916908373ffffffffffffffffffffffffffffffffffffffff1602179055508080610e5090614364565b915050610d61565b5050505050565b60006007600083815260200190815260200160002060009054906101000a900460ff169050919050565b610e916120da565b73ffffffffffffffffffffffffffffffffffffffff168573ffffffffffffffffffffffffffffffffffffffff161480610ed75750610ed685610ed16120da565b611e05565b5b610f16576040517f08c379a0000000000000000000000000000000000000000000000000000000008152600401610f0d906146a9565b60405180910390fd5b610f2385858585856124cc565b5050505050565b610f3b610f356120da565b826116eb565b60008060005b600460008581526020019081526020016000208054905081101561100757600460008581526020019081526020016000208181548110610f8457610f83614306565b5b9060005260206000200160009054906101000a900473ffffffffffffffffffffffffffffffffffffffff1673ffffffffffffffffffffffffffffffffffffffff16610fcd6120da565b73ffffffffffffffffffffffffffffffffffffffff1603610ff45760019250809150611007565b8080610fff90614364565b915050610f41565b5081156110a65760026007600085815260200190815260200160002060006101000a81548160ff02191690836002811115611045576110446135c4565b5b02179055506110526120da565b73ffffffffffffffffffffffffffffffffffffffff167f8610b7b5acdeec4d9229259544302ae0e252928822763a75adb58b66ba1f2d888460405161109791906133bc565b60405180910390a25050611237565b60016007600085815260200190815260200160002060006101000a81548160ff021916908360028111156110dd576110dc6135c4565b5b021790555060005b60046000858152602001908152602001600020805490508110156111de5760016005600060046000888152602001908152602001600020848154811061112e5761112d614306565b5b9060005260206000200160009054906101000a900473ffffffffffffffffffffffffffffffffffffffff1673ffffffffffffffffffffffffffffffffffffffff1673ffffffffffffffffffffffffffffffffffffffff168152602001908152602001600020600086815260200190815260200160002060006101000a81548160ff021916908360038111156111c6576111c56135c4565b5b021790555080806111d690614364565b9150506110e5565b506111e76120da565b73ffffffffffffffffffffffffffffffffffffffff167f8610b7b5acdeec4d9229259544302ae0e252928822763a75adb58b66ba1f2d888460405161122c91906133bc565b60405180910390a250505b50565b6000600560008473ffffffffffffffffffffffffffffffffffffffff1673ffffffffffffffffffffffffffffffffffffffff168152602001908152602001600020600083815260200190815260200160002060009054906101000a900460ff16905092915050565b606081518351146112e8576040517f08c379a00000000000000000000000000000000000000000000000000000000081526004016112df9061473b565b60405180910390fd5b6000835167ffffffffffffffff8111156113055761130461369b565b5b6040519080825280602002602001820160405280156113335781602001602082028036833780820191505090505b50905060005b84518110156113b05761138085828151811061135857611357614306565b5b602002602001015185838151811061137357611372614306565b5b60200260200101516105f3565b82828151811061139357611392614306565b5b602002602001018181525050806113a990614364565b9050611339565b508091505092915050565b6114516113c66120da565b88888880806020026020016040519081016040528093929190818152602001838360200280828437600081840152601f19601f82011690508083019250505050505050878780806020026020016040519081016040528093929190818152602001838360200280828437600081840152601f19601f8201169050808301925050505050505086610e89565b60005b8686905081101561156e576008600088888481811061147657611475614306565b5b90506020020135815260200190815260200160002060009054906101000a900460ff1680156114a25750815b156114cb576114ca888888848181106114be576114bd614306565b5b905060200201356120e2565b5b811580156115105750600860008888848181106114eb576114ea614306565b5b90506020020135815260200190815260200160002060009054906101000a900460ff16155b1561155b5760006008600089898581811061152e5761152d614306565b5b90506020020135815260200190815260200160002060006101000a81548160ff0219169083151502179055505b808061156690614364565b915050611454565b5050505050505050565b611580612222565b61158a60006127ed565b565b611594612222565b6115a0848484846128b3565b60016008600085815260200190815260200160002060006101000a81548160ff021916908315150217905550600460008481526020019081526020016000206115e76120da565b9080600181540180825580915050600190039060005260206000200160009091909190916101000a81548173ffffffffffffffffffffffffffffffffffffffff021916908373ffffffffffffffffffffffffffffffffffffffff16021790555050505050565b60006008600083815260200190815260200160002060009054906101000a900460ff169050919050565b60006006600083815260200190815260200160002060009054906101000a900460ff169050919050565b6000600360009054906101000a900473ffffffffffffffffffffffffffffffffffffffff16905090565b60086020528060005260406000206000915054906101000a900460ff1681565b60016116fe6116f86120da565b836105f3565b101561173f576040517f08c379a0000000000000000000000000000000000000000000000000000000008152600401611736906147a7565b60405180910390fd5b6117476120da565b73ffffffffffffffffffffffffffffffffffffffff168273ffffffffffffffffffffffffffffffffffffffff16148061178d575061178c826117876120da565b611e05565b5b6117cc576040517f08c379a00000000000000000000000000000000000000000000000000000000081526004016117c390614839565b60405180910390fd5b5050565b6117e26117db6120da565b8383612a63565b5050565b816000805b60046000848152602001908152602001600020805490508110156118ae5760046000848152602001908152602001600020818154811061182e5761182d614306565b5b9060005260206000200160009054906101000a900473ffffffffffffffffffffffffffffffffffffffff1673ffffffffffffffffffffffffffffffffffffffff166118776120da565b73ffffffffffffffffffffffffffffffffffffffff160361189b57600191506118ae565b80806118a690614364565b9150506117eb565b5060011515811515146118f6576040517f08c379a00000000000000000000000000000000000000000000000000000000081526004016118ed906143f8565b60405180910390fd5b6000805b60046000878152602001908152602001600020805490508110156119bc5760046000878152602001908152602001600020818154811061193d5761193c614306565b5b9060005260206000200160009054906101000a900473ffffffffffffffffffffffffffffffffffffffff1673ffffffffffffffffffffffffffffffffffffffff166119866120da565b73ffffffffffffffffffffffffffffffffffffffff16036119a9578091506119bc565b80806119b490614364565b9150506118fa565b50600160038111156119d1576119d06135c4565b5b600560006119dd6120da565b73ffffffffffffffffffffffffffffffffffffffff1673ffffffffffffffffffffffffffffffffffffffff168152602001908152602001600020600087815260200190815260200160002060009054906101000a900460ff166003811115611a4857611a476135c4565b5b14611a88576040517f08c379a0000000000000000000000000000000000000000000000000000000008152600401611a7f906148a5565b60405180910390fd5b8360056000611a956120da565b73ffffffffffffffffffffffffffffffffffffffff1673ffffffffffffffffffffffffffffffffffffffff168152602001908152602001600020600087815260200190815260200160002060006101000a81548160ff02191690836003811115611b0257611b016135c4565b5b02179055505050505050565b60076020528060005260406000206000915054906101000a900460ff1681565b60005b82829050811015611c91576000805b60046000868686818110611b5757611b56614306565b5b90506020020135815260200190815260200160002080549050811015611c355760046000868686818110611b8e57611b8d614306565b5b9050602002013581526020019081526020016000208181548110611bb557611bb4614306565b5b9060005260206000200160009054906101000a900473ffffffffffffffffffffffffffffffffffffffff1673ffffffffffffffffffffffffffffffffffffffff16611bfe6120da565b73ffffffffffffffffffffffffffffffffffffffff1603611c225760019150611c35565b8080611c2d90614364565b915050611b40565b506001151581151514611c7d576040517f08c379a0000000000000000000000000000000000000000000000000000000008152600401611c7490614911565b60405180910390fd5b508080611c8990614364565b915050611b31565b5060005b82829050811015611d0857600260076000858585818110611cb957611cb8614306565b5b90506020020135815260200190815260200160002060006101000a81548160ff02191690836002811115611cf057611cef6135c4565b5b02179055508080611d0090614364565b915050611c95565b50611d116120da565b73ffffffffffffffffffffffffffffffffffffffff167f3d3735b6b82dc6dbc33760218a1dc3a6cf77780e1774c8cd7d74dec8da518aa08383604051611d5892919061499b565b60405180910390a25050565b606060046000838152602001908152602001600020805480602002602001604051908101604052809291908181526020018280548015611df957602002820191906000526020600020905b8160009054906101000a900473ffffffffffffffffffffffffffffffffffffffff1673ffffffffffffffffffffffffffffffffffffffff1681526020019060010190808311611daf575b50505050509050919050565b6000600160008473ffffffffffffffffffffffffffffffffffffffff1673ffffffffffffffffffffffffffffffffffffffff16815260200190815260200160002060008373ffffffffffffffffffffffffffffffffffffffff1673ffffffffffffffffffffffffffffffffffffffff16815260200190815260200160002060009054906101000a900460ff16905092915050565b611ea16120da565b73ffffffffffffffffffffffffffffffffffffffff168573ffffffffffffffffffffffffffffffffffffffff161480611ee75750611ee685611ee16120da565b611e05565b5b611f26576040517f08c379a0000000000000000000000000000000000000000000000000000000008152600401611f1d906146a9565b60405180910390fd5b611f338585858585612bcf565b5050505050565b611f42612222565b600073ffffffffffffffffffffffffffffffffffffffff168173ffffffffffffffffffffffffffffffffffffffff1603611fb1576040517f08c379a0000000000000000000000000000000000000000000000000000000008152600401611fa890614a31565b60405180910390fd5b611fba816127ed565b50565b611fd1611fc86120da565b86868686611e99565b6008600085815260200190815260200160002060009054906101000a900460ff168015611ffb5750805b1561200b5761200a85856120e2565b5b8015801561203757506008600085815260200190815260200160002060009054906101000a900460ff16155b156120695760006008600086815260200190815260200160002060006101000a81548160ff0219169083151502179055505b5050505050565b60007f01ffc9a7000000000000000000000000000000000000000000000000000000007bffffffffffffffffffffffffffffffffffffffffffffffffffffffff1916827bffffffffffffffffffffffffffffffffffffffffffffffffffffffff1916149050919050565b600033905090565b6000805b60046000848152602001908152602001600020805490508110156121a2578373ffffffffffffffffffffffffffffffffffffffff166004600085815260200190815260200160002082815481106121405761213f614306565b5b9060005260206000200160009054906101000a900473ffffffffffffffffffffffffffffffffffffffff1673ffffffffffffffffffffffffffffffffffffffff160361218f57600191506121a2565b808061219a90614364565b9150506120e6565b508061221d5760046000838152602001908152602001600020839080600181540180825580915050600190039060005260206000200160009091909190916101000a81548173ffffffffffffffffffffffffffffffffffffffff021916908373ffffffffffffffffffffffffffffffffffffffff1602179055505b505050565b61222a6120da565b73ffffffffffffffffffffffffffffffffffffffff166122486116a1565b73ffffffffffffffffffffffffffffffffffffffff161461229e576040517f08c379a000000000000000000000000000000000000000000000000000000000815260040161229590614a9d565b60405180910390fd5b565b600073ffffffffffffffffffffffffffffffffffffffff168473ffffffffffffffffffffffffffffffffffffffff160361230f576040517f08c379a000000000000000000000000000000000000000000000000000000000815260040161230690614b2f565b60405180910390fd5b8151835114612353576040517f08c379a000000000000000000000000000000000000000000000000000000000815260040161234a90614bc1565b60405180910390fd5b600061235d6120da565b905061236e81600087878787612e6a565b60005b84518110156124275783818151811061238d5761238c614306565b5b60200260200101516000808784815181106123ab576123aa614306565b5b6020026020010151815260200190815260200160002060008873ffffffffffffffffffffffffffffffffffffffff1673ffffffffffffffffffffffffffffffffffffffff168152602001908152602001600020600082825461240d9190614be1565b92505081905550808061241f90614364565b915050612371565b508473ffffffffffffffffffffffffffffffffffffffff16600073ffffffffffffffffffffffffffffffffffffffff168273ffffffffffffffffffffffffffffffffffffffff167f4a39dc06d4c0dbc64b70af90fd698a233a518aa5d07e595d983b8c0526c8f7fb878760405161249f929190614c15565b60405180910390a46124b681600087878787612e72565b6124c581600087878787612e7a565b5050505050565b8151835114612510576040517f08c379a000000000000000000000000000000000000000000000000000000000815260040161250790614bc1565b60405180910390fd5b600073ffffffffffffffffffffffffffffffffffffffff168473ffffffffffffffffffffffffffffffffffffffff160361257f576040517f08c379a000000000000000000000000000000000000000000000000000000000815260040161257690614cbe565b60405180910390fd5b60006125896120da565b9050612599818787878787612e6a565b60005b845181101561274a5760008582815181106125ba576125b9614306565b5b6020026020010151905060008583815181106125d9576125d8614306565b5b60200260200101519050600080600084815260200190815260200160002060008b73ffffffffffffffffffffffffffffffffffffffff1673ffffffffffffffffffffffffffffffffffffffff1681526020019081526020016000205490508181101561267a576040517f08c379a000000000000000000000000000000000000000000000000000000000815260040161267190614d50565b60405180910390fd5b81810360008085815260200190815260200160002060008c73ffffffffffffffffffffffffffffffffffffffff1673ffffffffffffffffffffffffffffffffffffffff168152602001908152602001600020819055508160008085815260200190815260200160002060008b73ffffffffffffffffffffffffffffffffffffffff1673ffffffffffffffffffffffffffffffffffffffff168152602001908152602001600020600082825461272f9190614be1565b925050819055505050508061274390614364565b905061259c565b508473ffffffffffffffffffffffffffffffffffffffff168673ffffffffffffffffffffffffffffffffffffffff168273ffffffffffffffffffffffffffffffffffffffff167f4a39dc06d4c0dbc64b70af90fd698a233a518aa5d07e595d983b8c0526c8f7fb87876040516127c1929190614c15565b60405180910390a46127d7818787878787612e72565b6127e5818787878787612e7a565b505050505050565b6000600360009054906101000a900473ffffffffffffffffffffffffffffffffffffffff16905081600360006101000a81548173ffffffffffffffffffffffffffffffffffffffff021916908373ffffffffffffffffffffffffffffffffffffffff1602179055508173ffffffffffffffffffffffffffffffffffffffff168173ffffffffffffffffffffffffffffffffffffffff167f8be0079c531659141344cd1fd0a4f28419497f9722a3daafe3b4186f6b6457e060405160405180910390a35050565b600073ffffffffffffffffffffffffffffffffffffffff168473ffffffffffffffffffffffffffffffffffffffff1603612922576040517f08c379a000000000000000000000000000000000000000000000000000000000815260040161291990614b2f565b60405180910390fd5b600061292c6120da565b9050600061293985613051565b9050600061294685613051565b905061295783600089858589612e6a565b8460008088815260200190815260200160002060008973ffffffffffffffffffffffffffffffffffffffff1673ffffffffffffffffffffffffffffffffffffffff16815260200190815260200160002060008282546129b69190614be1565b925050819055508673ffffffffffffffffffffffffffffffffffffffff16600073ffffffffffffffffffffffffffffffffffffffff168473ffffffffffffffffffffffffffffffffffffffff167fc3d58168c5ae7397731d063d5bbf3d657854427343f4c083240f7aacaa2d0f628989604051612a34929190614d70565b60405180910390a4612a4b83600089858589612e72565b612a5a836000898989896130cb565b50505050505050565b8173ffffffffffffffffffffffffffffffffffffffff168373ffffffffffffffffffffffffffffffffffffffff1603612ad1576040517f08c379a0000000000000000000000000000000000000000000000000000000008152600401612ac890614e0b565b60405180910390fd5b80600160008573ffffffffffffffffffffffffffffffffffffffff1673ffffffffffffffffffffffffffffffffffffffff16815260200190815260200160002060008473ffffffffffffffffffffffffffffffffffffffff1673ffffffffffffffffffffffffffffffffffffffff16815260200190815260200160002060006101000a81548160ff0219169083151502179055508173ffffffffffffffffffffffffffffffffffffffff168373ffffffffffffffffffffffffffffffffffffffff167f17307eab39ab6107e8899845ad3d59bd9653f200f220920489ca2b5937696c3183604051612bc29190613477565b60405180910390a3505050565b600073ffffffffffffffffffffffffffffffffffffffff168473ffffffffffffffffffffffffffffffffffffffff1603612c3e576040517f08c379a0000000000000000000000000000000000000000000000000000000008152600401612c3590614cbe565b60405180910390fd5b6000612c486120da565b90506000612c5585613051565b90506000612c6285613051565b9050612c72838989858589612e6a565b600080600088815260200190815260200160002060008a73ffffffffffffffffffffffffffffffffffffffff1673ffffffffffffffffffffffffffffffffffffffff16815260200190815260200160002054905085811015612d09576040517f08c379a0000000000000000000000000000000000000000000000000000000008152600401612d0090614d50565b60405180910390fd5b85810360008089815260200190815260200160002060008b73ffffffffffffffffffffffffffffffffffffffff1673ffffffffffffffffffffffffffffffffffffffff168152602001908152602001600020819055508560008089815260200190815260200160002060008a73ffffffffffffffffffffffffffffffffffffffff1673ffffffffffffffffffffffffffffffffffffffff1681526020019081526020016000206000828254612dbe9190614be1565b925050819055508773ffffffffffffffffffffffffffffffffffffffff168973ffffffffffffffffffffffffffffffffffffffff168573ffffffffffffffffffffffffffffffffffffffff167fc3d58168c5ae7397731d063d5bbf3d657854427343f4c083240f7aacaa2d0f628a8a604051612e3b929190614d70565b60405180910390a4612e51848a8a86868a612e72565b612e5f848a8a8a8a8a6130cb565b505050505050505050565b505050505050565b505050505050565b612e998473ffffffffffffffffffffffffffffffffffffffff166132a2565b15613049578373ffffffffffffffffffffffffffffffffffffffff1663bc197c8187878686866040518663ffffffff1660e01b8152600401612edf959493929190614e80565b6020604051808303816000875af1925050508015612f1b57506040513d601f19601f82011682018060405250810190612f189190614efd565b60015b612fc057612f27614f37565b806308c379a003612f835750612f3b614f59565b80612f465750612f85565b806040517f08c379a0000000000000000000000000000000000000000000000000000000008152600401612f7a919061354f565b60405180910390fd5b505b6040517f08c379a0000000000000000000000000000000000000000000000000000000008152600401612fb79061505b565b60405180910390fd5b63bc197c8160e01b7bffffffffffffffffffffffffffffffffffffffffffffffffffffffff1916817bffffffffffffffffffffffffffffffffffffffffffffffffffffffff191614613047576040517f08c379a000000000000000000000000000000000000000000000000000000000815260040161303e906150ed565b60405180910390fd5b505b505050505050565b60606000600167ffffffffffffffff8111156130705761306f61369b565b5b60405190808252806020026020018201604052801561309e5781602001602082028036833780820191505090505b50905082816000815181106130b6576130b5614306565b5b60200260200101818152505080915050919050565b6130ea8473ffffffffffffffffffffffffffffffffffffffff166132a2565b1561329a578373ffffffffffffffffffffffffffffffffffffffff1663f23a6e6187878686866040518663ffffffff1660e01b815260040161313095949392919061510d565b6020604051808303816000875af192505050801561316c57506040513d601f19601f820116820180604052508101906131699190614efd565b60015b61321157613178614f37565b806308c379a0036131d4575061318c614f59565b8061319757506131d6565b806040517f08c379a00000000000000000000000000000000000000000000000000000000081526004016131cb919061354f565b60405180910390fd5b505b6040517f08c379a00000000000000000000000000000000000000000000000000000000081526004016132089061505b565b60405180910390fd5b63f23a6e6160e01b7bffffffffffffffffffffffffffffffffffffffffffffffffffffffff1916817bffffffffffffffffffffffffffffffffffffffffffffffffffffffff191614613298576040517f08c379a000000000000000000000000000000000000000000000000000000000815260040161328f906150ed565b60405180910390fd5b505b505050505050565b6000808273ffffffffffffffffffffffffffffffffffffffff163b119050919050565b6000604051905090565b600080fd5b600080fd5b600073ffffffffffffffffffffffffffffffffffffffff82169050919050565b6000613304826132d9565b9050919050565b613314816132f9565b811461331f57600080fd5b50565b6000813590506133318161330b565b92915050565b6000819050919050565b61334a81613337565b811461335557600080fd5b50565b60008135905061336781613341565b92915050565b60008060408385031215613384576133836132cf565b5b600061339285828601613322565b92505060206133a385828601613358565b9150509250929050565b6133b681613337565b82525050565b60006020820190506133d160008301846133ad565b92915050565b60007fffffffff0000000000000000000000000000000000000000000000000000000082169050919050565b61340c816133d7565b811461341757600080fd5b50565b60008135905061342981613403565b92915050565b600060208284031215613445576134446132cf565b5b60006134538482850161341a565b91505092915050565b60008115159050919050565b6134718161345c565b82525050565b600060208201905061348c6000830184613468565b92915050565b6000602082840312156134a8576134a76132cf565b5b60006134b684828501613358565b91505092915050565b600081519050919050565b600082825260208201905092915050565b60005b838110156134f95780820151818401526020810190506134de565b60008484015250505050565b6000601f19601f8301169050919050565b6000613521826134bf565b61352b81856134ca565b935061353b8185602086016134db565b61354481613505565b840191505092915050565b600060208201905081810360008301526135698184613516565b905092915050565b60008060006060848603121561358a576135896132cf565b5b600061359886828701613322565b93505060206135a986828701613358565b92505060406135ba86828701613358565b9150509250925092565b7f4e487b7100000000000000000000000000000000000000000000000000000000600052602160045260246000fd5b60048110613604576136036135c4565b5b50565b6000819050613615826135f3565b919050565b600061362582613607565b9050919050565b6136358161361a565b82525050565b6000602082019050613650600083018461362c565b92915050565b6000806040838503121561366d5761366c6132cf565b5b600061367b85828601613358565b925050602061368c85828601613358565b9150509250929050565b600080fd5b7f4e487b7100000000000000000000000000000000000000000000000000000000600052604160045260246000fd5b6136d382613505565b810181811067ffffffffffffffff821117156136f2576136f161369b565b5b80604052505050565b60006137056132c5565b905061371182826136ca565b919050565b600067ffffffffffffffff8211156137315761373061369b565b5b602082029050602081019050919050565b600080fd5b600061375a61375584613716565b6136fb565b9050808382526020820190506020840283018581111561377d5761377c613742565b5b835b818110156137a657806137928882613358565b84526020840193505060208101905061377f565b5050509392505050565b600082601f8301126137c5576137c4613696565b5b81356137d5848260208601613747565b91505092915050565b600080fd5b600067ffffffffffffffff8211156137fe576137fd61369b565b5b61380782613505565b9050602081019050919050565b82818337600083830152505050565b6000613836613831846137e3565b6136fb565b905082815260208101848484011115613852576138516137de565b5b61385d848285613814565b509392505050565b600082601f83011261387a57613879613696565b5b813561388a848260208601613823565b91505092915050565b600080600080608085870312156138ad576138ac6132cf565b5b60006138bb87828801613322565b945050602085013567ffffffffffffffff8111156138dc576138db6132d4565b5b6138e8878288016137b0565b935050604085013567ffffffffffffffff811115613909576139086132d4565b5b613915878288016137b0565b925050606085013567ffffffffffffffff811115613936576139356132d4565b5b61394287828801613865565b91505092959194509250565b6003811061395f5761395e6135c4565b5b50565b60008190506139708261394e565b919050565b600061398082613962565b9050919050565b61399081613975565b82525050565b60006020820190506139ab6000830184613987565b92915050565b600080600080600060a086880312156139cd576139cc6132cf565b5b60006139db88828901613322565b95505060206139ec88828901613322565b945050604086013567ffffffffffffffff811115613a0d57613a0c6132d4565b5b613a19888289016137b0565b935050606086013567ffffffffffffffff811115613a3a57613a396132d4565b5b613a46888289016137b0565b925050608086013567ffffffffffffffff811115613a6757613a666132d4565b5b613a7388828901613865565b9150509295509295909350565b600067ffffffffffffffff821115613a9b57613a9a61369b565b5b602082029050602081019050919050565b6000613abf613aba84613a80565b6136fb565b90508083825260208201905060208402830185811115613ae257613ae1613742565b5b835b81811015613b0b5780613af78882613322565b845260208401935050602081019050613ae4565b5050509392505050565b600082601f830112613b2a57613b29613696565b5b8135613b3a848260208601613aac565b91505092915050565b60008060408385031215613b5a57613b596132cf565b5b600083013567ffffffffffffffff811115613b7857613b776132d4565b5b613b8485828601613b15565b925050602083013567ffffffffffffffff811115613ba557613ba46132d4565b5b613bb1858286016137b0565b9150509250929050565b600081519050919050565b600082825260208201905092915050565b6000819050602082019050919050565b613bf081613337565b82525050565b6000613c028383613be7565b60208301905092915050565b6000602082019050919050565b6000613c2682613bbb565b613c308185613bc6565b9350613c3b83613bd7565b8060005b83811015613c6c578151613c538882613bf6565b9750613c5e83613c0e565b925050600181019050613c3f565b5085935050505092915050565b60006020820190508181036000830152613c938184613c1b565b905092915050565b600080fd5b60008083601f840112613cb657613cb5613696565b5b8235905067ffffffffffffffff811115613cd357613cd2613c9b565b5b602083019150836020820283011115613cef57613cee613742565b5b9250929050565b613cff8161345c565b8114613d0a57600080fd5b50565b600081359050613d1c81613cf6565b92915050565b600080600080600080600060a0888a031215613d4157613d406132cf565b5b6000613d4f8a828b01613322565b975050602088013567ffffffffffffffff811115613d7057613d6f6132d4565b5b613d7c8a828b01613ca0565b9650965050604088013567ffffffffffffffff811115613d9f57613d9e6132d4565b5b613dab8a828b01613ca0565b9450945050606088013567ffffffffffffffff811115613dce57613dcd6132d4565b5b613dda8a828b01613865565b9250506080613deb8a828b01613d0d565b91505092959891949750929550565b60008060008060808587031215613e1457613e136132cf565b5b6000613e2287828801613322565b9450506020613e3387828801613358565b9350506040613e4487828801613358565b925050606085013567ffffffffffffffff811115613e6557613e646132d4565b5b613e7187828801613865565b91505092959194509250565b613e86816132f9565b82525050565b6000602082019050613ea16000830184613e7d565b92915050565b60008060408385031215613ebe57613ebd6132cf565b5b6000613ecc85828601613322565b9250506020613edd85828601613d0d565b9150509250929050565b60048110613ef457600080fd5b50565b600081359050613f0681613ee7565b92915050565b60008060408385031215613f2357613f226132cf565b5b6000613f3185828601613358565b9250506020613f4285828601613ef7565b9150509250929050565b60008060208385031215613f6357613f626132cf565b5b600083013567ffffffffffffffff811115613f8157613f806132d4565b5b613f8d85828601613ca0565b92509250509250929050565b600081519050919050565b600082825260208201905092915050565b6000819050602082019050919050565b613fce816132f9565b82525050565b6000613fe08383613fc5565b60208301905092915050565b6000602082019050919050565b600061400482613f99565b61400e8185613fa4565b935061401983613fb5565b8060005b8381101561404a5781516140318882613fd4565b975061403c83613fec565b92505060018101905061401d565b5085935050505092915050565b600060208201905081810360008301526140718184613ff9565b905092915050565b600080604083850312156140905761408f6132cf565b5b600061409e85828601613322565b92505060206140af85828601613322565b9150509250929050565b600080600080600060a086880312156140d5576140d46132cf565b5b60006140e388828901613322565b95505060206140f488828901613322565b945050604061410588828901613358565b935050606061411688828901613358565b925050608086013567ffffffffffffffff811115614137576141366132d4565b5b61414388828901613865565b9150509295509295909350565b600060208284031215614166576141656132cf565b5b600061417484828501613322565b91505092915050565b600080600080600060a08688031215614199576141986132cf565b5b60006141a788828901613322565b95505060206141b888828901613358565b94505060406141c988828901613358565b935050606086013567ffffffffffffffff8111156141ea576141e96132d4565b5b6141f688828901613865565b925050608061420788828901613d0d565b9150509295509295909350565b7f455243313135353a2061646472657373207a65726f206973206e6f742061207660008201527f616c6964206f776e657200000000000000000000000000000000000000000000602082015250565b6000614270602a836134ca565b915061427b82614214565b604082019050919050565b6000602082019050818103600083015261429f81614263565b9050919050565b7f4e487b7100000000000000000000000000000000000000000000000000000000600052602260045260246000fd5b600060028204905060018216806142ed57607f821691505b602082108103614300576142ff6142a6565b5b50919050565b7f4e487b7100000000000000000000000000000000000000000000000000000000600052603260045260246000fd5b7f4e487b7100000000000000000000000000000000000000000000000000000000600052601160045260246000fd5b600061436f82613337565b91507fffffffffffffffffffffffffffffffffffffffffffffffffffffffffffffffff82036143a1576143a0614335565b5b600182019050919050565b7f4d757374206265204d616e756661637475726572000000000000000000000000600082015250565b60006143e26014836134ca565b91506143ed826143ac565b602082019050919050565b60006020820190508181036000830152614411816143d5565b9050919050565b6000815190506144278161330b565b92915050565b600061444061443b84613a80565b6136fb565b9050808382526020820190506020840283018581111561446357614462613742565b5b835b8181101561448c57806144788882614418565b845260208401935050602081019050614465565b5050509392505050565b600082601f8301126144ab576144aa613696565b5b81516144bb84826020860161442d565b91505092915050565b6000602082840312156144da576144d96132cf565b5b600082015167ffffffffffffffff8111156144f8576144f76132d4565b5b61450484828501614496565b91505092915050565b600081549050919050565b60008190508160005260206000209050919050565b60008160001c9050919050565b600073ffffffffffffffffffffffffffffffffffffffff82169050919050565b600061456d6145688361452d565b61453a565b9050919050565b6000614580825461455a565b9050919050565b6000600182019050919050565b600061459f8261450d565b6145a98185613fa4565b93506145b483614518565b8060005b838110156145ec576145c982614574565b6145d38882613fd4565b97506145de83614587565b9250506001810190506145b8565b5085935050505092915050565b600060608201905061460e60008301866133ad565b61461b60208301856133ad565b818103604083015261462d8184614594565b9050949350505050565b7f455243313135353a2063616c6c6572206973206e6f7420746f6b656e206f776e60008201527f6572206f7220617070726f766564000000000000000000000000000000000000602082015250565b6000614693602e836134ca565b915061469e82614637565b604082019050919050565b600060208201905081810360008301526146c281614686565b9050919050565b7f455243313135353a206163636f756e747320616e6420696473206c656e67746860008201527f206d69736d617463680000000000000000000000000000000000000000000000602082015250565b60006147256029836134ca565b9150614730826146c9565b604082019050919050565b6000602082019050818103600083015261475481614718565b9050919050565b7f4e6f20546f6b656e206f776e6564000000000000000000000000000000000000600082015250565b6000614791600e836134ca565b915061479c8261475b565b602082019050919050565b600060208201905081810360008301526147c081614784565b9050919050565b7f43616c6c6572206973206e6f7420546f6b656e204f776e6572206f722061707060008201527f726f766564000000000000000000000000000000000000000000000000000000602082015250565b60006148236025836134ca565b915061482e826147c7565b604082019050919050565b6000602082019050818103600083015261485281614816565b9050919050565b7f546f6b656e2063616e206e6f7420626520636865636b65640000000000000000600082015250565b600061488f6018836134ca565b915061489a82614859565b602082019050919050565b600060208201905081810360008301526148be81614882565b9050919050565b7f4e6f742061204d616e756661637475726572206f66207468697320546f6b656e600082015250565b60006148fb6020836134ca565b9150614906826148c5565b602082019050919050565b6000602082019050818103600083015261492a816148ee565b9050919050565b600080fd5b82818337505050565b600061494b8385613bc6565b93507f07ffffffffffffffffffffffffffffffffffffffffffffffffffffffffffffff83111561497e5761497d614931565b5b60208302925061498f838584614936565b82840190509392505050565b600060208201905081810360008301526149b681848661493f565b90509392505050565b7f4f776e61626c653a206e6577206f776e657220697320746865207a65726f206160008201527f6464726573730000000000000000000000000000000000000000000000000000602082015250565b6000614a1b6026836134ca565b9150614a26826149bf565b604082019050919050565b60006020820190508181036000830152614a4a81614a0e565b9050919050565b7f4f776e61626c653a2063616c6c6572206973206e6f7420746865206f776e6572600082015250565b6000614a876020836134ca565b9150614a9282614a51565b602082019050919050565b60006020820190508181036000830152614ab681614a7a565b9050919050565b7f455243313135353a206d696e7420746f20746865207a65726f2061646472657360008201527f7300000000000000000000000000000000000000000000000000000000000000602082015250565b6000614b196021836134ca565b9150614b2482614abd565b604082019050919050565b60006020820190508181036000830152614b4881614b0c565b9050919050565b7f455243313135353a2069647320616e6420616d6f756e7473206c656e6774682060008201527f6d69736d61746368000000000000000000000000000000000000000000000000602082015250565b6000614bab6028836134ca565b9150614bb682614b4f565b604082019050919050565b60006020820190508181036000830152614bda81614b9e565b9050919050565b6000614bec82613337565b9150614bf783613337565b9250828201905080821115614c0f57614c0e614335565b5b92915050565b60006040820190508181036000830152614c2f8185613c1b565b90508181036020830152614c438184613c1b565b90509392505050565b7f455243313135353a207472616e7366657220746f20746865207a65726f20616460008201527f6472657373000000000000000000000000000000000000000000000000000000602082015250565b6000614ca86025836134ca565b9150614cb382614c4c565b604082019050919050565b60006020820190508181036000830152614cd781614c9b565b9050919050565b7f455243313135353a20696e73756666696369656e742062616c616e636520666f60008201527f72207472616e7366657200000000000000000000000000000000000000000000602082015250565b6000614d3a602a836134ca565b9150614d4582614cde565b604082019050919050565b60006020820190508181036000830152614d6981614d2d565b9050919050565b6000604082019050614d8560008301856133ad565b614d9260208301846133ad565b9392505050565b7f455243313135353a2073657474696e6720617070726f76616c2073746174757360008201527f20666f722073656c660000000000000000000000000000000000000000000000602082015250565b6000614df56029836134ca565b9150614e0082614d99565b604082019050919050565b60006020820190508181036000830152614e2481614de8565b9050919050565b600081519050919050565b600082825260208201905092915050565b6000614e5282614e2b565b614e5c8185614e36565b9350614e6c8185602086016134db565b614e7581613505565b840191505092915050565b600060a082019050614e956000830188613e7d565b614ea26020830187613e7d565b8181036040830152614eb48186613c1b565b90508181036060830152614ec88185613c1b565b90508181036080830152614edc8184614e47565b90509695505050505050565b600081519050614ef781613403565b92915050565b600060208284031215614f1357614f126132cf565b5b6000614f2184828501614ee8565b91505092915050565b60008160e01c9050919050565b600060033d1115614f565760046000803e614f53600051614f2a565b90505b90565b600060443d10614fe657614f6b6132c5565b60043d036004823e80513d602482011167ffffffffffffffff82111715614f93575050614fe6565b808201805167ffffffffffffffff811115614fb15750505050614fe6565b80602083010160043d038501811115614fce575050505050614fe6565b614fdd826020018501866136ca565b82955050505050505b90565b7f455243313135353a207472616e7366657220746f206e6f6e2d4552433131353560008201527f526563656976657220696d706c656d656e746572000000000000000000000000602082015250565b60006150456034836134ca565b915061505082614fe9565b604082019050919050565b6000602082019050818103600083015261507481615038565b9050919050565b7f455243313135353a204552433131353552656365697665722072656a6563746560008201527f6420746f6b656e73000000000000000000000000000000000000000000000000602082015250565b60006150d76028836134ca565b91506150e28261507b565b604082019050919050565b60006020820190508181036000830152615106816150ca565b9050919050565b600060a0820190506151226000830188613e7d565b61512f6020830187613e7d565b61513c60408301866133ad565b61514960608301856133ad565b818103608083015261515b8184614e47565b9050969550505050505056fea2646970667358221220f371bd064e3f86a5c2b2961d8ecef468de081df1bad4e4e78fc5317edf423e1f64736f6c63430008120033",
  "linkReferences": {},
  "deployedLinkReferences": {}
}