{
  "_format": "hh-sol-artifact-1",
  "contractName": "RecallToken",
  "sourceName": "contracts/RecallToken.sol",
  "abi": [
    {
      "inputs": [
        {
          "internalType": "string",
          "name": "uri",
          "type": "string"
        }
      ],
      "stateMutability": "nonpayable",
      "type": "constructor"
    },
    {
      "anonymous": false,
      "inputs": [
        {
          "indexed": true,
          "internalType": "address",
          "name": "account",
          "type": "address"
        },
        {
          "indexed": true,
          "internalType": "address",
          "name": "operator",
          "type": "address"
        },
        {
          "indexed": false,
          "internalType": "bool",
          "name": "approved",
          "type": "bool"
        }
      ],
      "name": "ApprovalForAll",
      "type": "event"
    },
    {
      "anonymous": false,
      "inputs": [
        {
          "indexed": true,
          "internalType": "address",
          "name": "_announcer",
          "type": "address"
        },
        {
          "indexed": false,
          "internalType": "uint256",
          "name": "_tokenId",
          "type": "uint256"
        }
      ],
      "name": "DefectAnnounced",
      "type": "event"
    },
    {
      "anonymous": false,
      "inputs": [
        {
          "indexed": true,
          "internalType": "address",
          "name": "_announcer",
          "type": "address"
        },
        {
          "indexed": false,
          "internalType": "uint256[]",
          "name": "_tokenIds",
          "type": "uint256[]"
        }
      ],
      "name": "ForwardRecall",
      "type": "event"
    },
    {
      "anonymous": false,
      "inputs": [
        {
          "indexed": true,
          "internalType": "address",
          "name": "previousOwner",
          "type": "address"
        },
        {
          "indexed": true,
          "internalType": "address",
          "name": "newOwner",
          "type": "address"
        }
      ],
      "name": "OwnershipTransferred",
      "type": "event"
    },
    {
      "anonymous": false,
      "inputs": [
        {
          "indexed": true,
          "internalType": "address",
          "name": "_announcer",
          "type": "address"
        },
        {
          "indexed": false,
          "internalType": "uint256",
          "name": "_tokenId",
          "type": "uint256"
        },
        {
          "indexed": false,
          "internalType": "enum RecallToken.TokenCheckingState",
          "name": "_resultState",
          "type": "uint8"
        }
      ],
      "name": "TokenChecked",
      "type": "event"
    },
    {
      "anonymous": false,
      "inputs": [
        {
          "indexed": true,
          "internalType": "address",
          "name": "operator",
          "type": "address"
        },
        {
          "indexed": true,
          "internalType": "address",
          "name": "from",
          "type": "address"
        },
        {
          "indexed": true,
          "internalType": "address",
          "name": "to",
          "type": "address"
        },
        {
          "indexed": false,
          "internalType": "uint256[]",
          "name": "ids",
          "type": "uint256[]"
        },
        {
          "indexed": false,
          "internalType": "uint256[]",
          "name": "values",
          "type": "uint256[]"
        }
      ],
      "name": "TransferBatch",
      "type": "event"
    },
    {
      "anonymous": false,
      "inputs": [
        {
          "indexed": true,
          "internalType": "address",
          "name": "operator",
          "type": "address"
        },
        {
          "indexed": true,
          "internalType": "address",
          "name": "from",
          "type": "address"
        },
        {
          "indexed": true,
          "internalType": "address",
          "name": "to",
          "type": "address"
        },
        {
          "indexed": false,
          "internalType": "uint256",
          "name": "id",
          "type": "uint256"
        },
        {
          "indexed": false,
          "internalType": "uint256",
          "name": "value",
          "type": "uint256"
        }
      ],
      "name": "TransferSingle",
      "type": "event"
    },
    {
      "anonymous": false,
      "inputs": [
        {
          "indexed": false,
          "internalType": "string",
          "name": "value",
          "type": "string"
        },
        {
          "indexed": true,
          "internalType": "uint256",
          "name": "id",
          "type": "uint256"
        }
      ],
      "name": "URI",
      "type": "event"
    },
    {
      "inputs": [
        {
          "internalType": "address",
          "name": "_from",
          "type": "address"
        },
        {
          "internalType": "uint256",
          "name": "_tokenId",
          "type": "uint256"
        }
      ],
      "name": "_authorizedForToken",
      "outputs": [],
      "stateMutability": "view",
      "type": "function"
    },
    {
      "inputs": [
        {
          "internalType": "uint256",
          "name": "_tokenId",
          "type": "uint256"
        }
      ],
      "name": "announceDefect",
      "outputs": [],
      "stateMutability": "nonpayable",
      "type": "function"
    },
    {
      "inputs": [
        {
          "internalType": "address",
          "name": "account",
          "type": "address"
        },
        {
          "internalType": "uint256",
          "name": "id",
          "type": "uint256"
        }
      ],
      "name": "balanceOf",
      "outputs": [
        {
          "internalType": "uint256",
          "name": "",
          "type": "uint256"
        }
      ],
      "stateMutability": "view",
      "type": "function"
    },
    {
      "inputs": [
        {
          "internalType": "address[]",
          "name": "accounts",
          "type": "address[]"
        },
        {
          "internalType": "uint256[]",
          "name": "ids",
          "type": "uint256[]"
        }
      ],
      "name": "balanceOfBatch",
      "outputs": [
        {
          "internalType": "uint256[]",
          "name": "",
          "type": "uint256[]"
        }
      ],
      "stateMutability": "view",
      "type": "function"
    },
    {
      "inputs": [
        {
          "internalType": "address",
          "name": "_receiver",
          "type": "address"
        },
        {
          "internalType": "uint256[]",
          "name": "_tokenIds",
          "type": "uint256[]"
        },
        {
          "internalType": "uint256[]",
          "name": "_amounts",
          "type": "uint256[]"
        },
        {
          "internalType": "bytes",
          "name": "data",
          "type": "bytes"
        },
        {
          "internalType": "bool",
          "name": "_internal",
          "type": "bool"
        }
      ],
      "name": "batchTransferRecallToken",
      "outputs": [],
      "stateMutability": "nonpayable",
      "type": "function"
    },
    {
      "inputs": [
        {
          "internalType": "uint256",
          "name": "_tokenId",
          "type": "uint256"
        },
        {
          "internalType": "enum RecallToken.TokenCheckingState",
          "name": "_tokenCheckingState",
          "type": "uint8"
        }
      ],
      "name": "checkToken",
      "outputs": [],
      "stateMutability": "nonpayable",
      "type": "function"
    },
    {
      "inputs": [
        {
          "internalType": "uint256[]",
          "name": "_tokenIds",
          "type": "uint256[]"
        }
      ],
      "name": "forwardRecall",
      "outputs": [],
      "stateMutability": "nonpayable",
      "type": "function"
    },
    {
      "inputs": [
        {
          "internalType": "uint256",
          "name": "_tokenId",
          "type": "uint256"
        }
      ],
      "name": "getInProductionValue",
      "outputs": [
        {
          "internalType": "bool",
          "name": "",
          "type": "bool"
        }
      ],
      "stateMutability": "view",
      "type": "function"
    },
    {
      "inputs": [
        {
          "internalType": "address",
          "name": "_address",
          "type": "address"
        },
        {
          "internalType": "uint256",
          "name": "_tokenId",
          "type": "uint256"
        }
      ],
      "name": "getManufacturerTokenCheckingStateValue",
      "outputs": [
        {
          "internalType": "enum RecallToken.TokenCheckingState",
          "name": "",
          "type": "uint8"
        }
      ],
      "stateMutability": "view",
      "type": "function"
    },
    {
      "inputs": [
        {
          "internalType": "uint256",
          "name": "_tokenId",
          "type": "uint256"
        }
      ],
      "name": "getTokenCheckingState",
      "outputs": [
        {
          "internalType": "enum RecallToken.TokenCheckingState",
          "name": "",
          "type": "uint8"
        }
      ],
      "stateMutability": "view",
      "type": "function"
    },
    {
      "inputs": [
        {
          "internalType": "uint256",
          "name": "_tokenId",
          "type": "uint256"
        }
      ],
      "name": "getTokenStateValue",
      "outputs": [
        {
          "internalType": "enum RecallToken.TokenState",
          "name": "",
          "type": "uint8"
        }
      ],
      "stateMutability": "view",
      "type": "function"
    },
    {
      "inputs": [
        {
          "internalType": "uint256",
          "name": "",
          "type": "uint256"
        }
      ],
      "name": "inProduction",
      "outputs": [
        {
          "internalType": "bool",
          "name": "",
          "type": "bool"
        }
      ],
      "stateMutability": "view",
      "type": "function"
    },
    {
      "inputs": [
        {
          "internalType": "address",
          "name": "account",
          "type": "address"
        },
        {
          "internalType": "address",
          "name": "operator",
          "type": "address"
        }
      ],
      "name": "isApprovedForAll",
      "outputs": [
        {
          "internalType": "bool",
          "name": "",
          "type": "bool"
        }
      ],
      "stateMutability": "view",
      "type": "function"
    },
    {
      "inputs": [
        {
          "internalType": "uint256",
          "name": "_tokenIdMergeTo",
          "type": "uint256"
        },
        {
          "internalType": "uint256",
          "name": "_tokenIdMergeSource",
          "type": "uint256"
        }
      ],
      "name": "mergeToken",
      "outputs": [],
      "stateMutability": "nonpayable",
      "type": "function"
    },
    {
      "inputs": [
        {
          "internalType": "address",
          "name": "to",
          "type": "address"
        },
        {
          "internalType": "uint256",
          "name": "id",
          "type": "uint256"
        },
        {
          "internalType": "uint256",
          "name": "amount",
          "type": "uint256"
        },
        {
          "internalType": "bytes",
          "name": "data",
          "type": "bytes"
        }
      ],
      "name": "mint",
      "outputs": [],
      "stateMutability": "nonpayable",
      "type": "function"
    },
    {
      "inputs": [
        {
          "internalType": "address",
          "name": "to",
          "type": "address"
        },
        {
          "internalType": "uint256[]",
          "name": "ids",
          "type": "uint256[]"
        },
        {
          "internalType": "uint256[]",
          "name": "amounts",
          "type": "uint256[]"
        },
        {
          "internalType": "bytes",
          "name": "data",
          "type": "bytes"
        }
      ],
      "name": "mintBatch",
      "outputs": [],
      "stateMutability": "nonpayable",
      "type": "function"
    },
    {
      "inputs": [],
      "name": "owner",
      "outputs": [
        {
          "internalType": "address",
          "name": "",
          "type": "address"
        }
      ],
      "stateMutability": "view",
      "type": "function"
    },
    {
      "inputs": [],
      "name": "renounceOwnership",
      "outputs": [],
      "stateMutability": "nonpayable",
      "type": "function"
    },
    {
      "inputs": [
        {
          "internalType": "address",
          "name": "from",
          "type": "address"
        },
        {
          "internalType": "address",
          "name": "to",
          "type": "address"
        },
        {
          "internalType": "uint256[]",
          "name": "ids",
          "type": "uint256[]"
        },
        {
          "internalType": "uint256[]",
          "name": "amounts",
          "type": "uint256[]"
        },
        {
          "internalType": "bytes",
          "name": "data",
          "type": "bytes"
        }
      ],
      "name": "safeBatchTransferFrom",
      "outputs": [],
      "stateMutability": "nonpayable",
      "type": "function"
    },
    {
      "inputs": [
        {
          "internalType": "address",
          "name": "from",
          "type": "address"
        },
        {
          "internalType": "address",
          "name": "to",
          "type": "address"
        },
        {
          "internalType": "uint256",
          "name": "id",
          "type": "uint256"
        },
        {
          "internalType": "uint256",
          "name": "amount",
          "type": "uint256"
        },
        {
          "internalType": "bytes",
          "name": "data",
          "type": "bytes"
        }
      ],
      "name": "safeTransferFrom",
      "outputs": [],
      "stateMutability": "nonpayable",
      "type": "function"
    },
    {
      "inputs": [
        {
          "internalType": "address",
          "name": "operator",
          "type": "address"
        },
        {
          "internalType": "bool",
          "name": "approved",
          "type": "bool"
        }
      ],
      "name": "setApprovalForAll",
      "outputs": [],
      "stateMutability": "nonpayable",
      "type": "function"
    },
    {
      "inputs": [
        {
          "internalType": "bytes4",
          "name": "interfaceId",
          "type": "bytes4"
        }
      ],
      "name": "supportsInterface",
      "outputs": [
        {
          "internalType": "bool",
          "name": "",
          "type": "bool"
        }
      ],
      "stateMutability": "view",
      "type": "function"
    },
    {
      "inputs": [
        {
          "internalType": "uint256",
          "name": "",
          "type": "uint256"
        }
      ],
      "name": "tokenCheckingStates",
      "outputs": [
        {
          "internalType": "enum RecallToken.TokenCheckingState",
          "name": "",
          "type": "uint8"
        }
      ],
      "stateMutability": "view",
      "type": "function"
    },
    {
      "inputs": [
        {
          "internalType": "uint256",
          "name": "",
          "type": "uint256"
        }
      ],
      "name": "tokenStates",
      "outputs": [
        {
          "internalType": "enum RecallToken.TokenState",
          "name": "",
          "type": "uint8"
        }
      ],
      "stateMutability": "view",
      "type": "function"
    },
    {
      "inputs": [
        {
          "internalType": "address",
          "name": "newOwner",
          "type": "address"
        }
      ],
      "name": "transferOwnership",
      "outputs": [],
      "stateMutability": "nonpayable",
      "type": "function"
    },
    {
      "inputs": [
        {
          "internalType": "address",
          "name": "_receiver",
          "type": "address"
        },
        {
          "internalType": "uint256",
          "name": "_tokenId",
          "type": "uint256"
        },
        {
          "internalType": "uint256",
          "name": "amount",
          "type": "uint256"
        },
        {
          "internalType": "bytes",
          "name": "data",
          "type": "bytes"
        },
        {
          "internalType": "bool",
          "name": "_internal",
          "type": "bool"
        }
      ],
      "name": "transferRecallToken",
      "outputs": [],
      "stateMutability": "nonpayable",
      "type": "function"
    },
    {
      "inputs": [
        {
          "internalType": "uint256",
          "name": "",
          "type": "uint256"
        }
      ],
      "name": "uri",
      "outputs": [
        {
          "internalType": "string",
          "name": "",
          "type": "string"
        }
      ],
      "stateMutability": "view",
      "type": "function"
    }
  ],
  "bytecode": "0x60806040523480156200001157600080fd5b5060405162004bd338038062004bd38339818101604052810190620000379190620002e7565b8062000049816200007160201b60201c565b506200006a6200005e6200008660201b60201c565b6200008e60201b60201c565b506200066a565b806002908162000082919062000583565b5050565b600033905090565b6000600360009054906101000a900473ffffffffffffffffffffffffffffffffffffffff16905081600360006101000a81548173ffffffffffffffffffffffffffffffffffffffff021916908373ffffffffffffffffffffffffffffffffffffffff1602179055508173ffffffffffffffffffffffffffffffffffffffff168173ffffffffffffffffffffffffffffffffffffffff167f8be0079c531659141344cd1fd0a4f28419497f9722a3daafe3b4186f6b6457e060405160405180910390a35050565b6000604051905090565b600080fd5b600080fd5b600080fd5b600080fd5b6000601f19601f8301169050919050565b7f4e487b7100000000000000000000000000000000000000000000000000000000600052604160045260246000fd5b620001bd8262000172565b810181811067ffffffffffffffff82111715620001df57620001de62000183565b5b80604052505050565b6000620001f462000154565b9050620002028282620001b2565b919050565b600067ffffffffffffffff82111562000225576200022462000183565b5b620002308262000172565b9050602081019050919050565b60005b838110156200025d57808201518184015260208101905062000240565b60008484015250505050565b6000620002806200027a8462000207565b620001e8565b9050828152602081018484840111156200029f576200029e6200016d565b5b620002ac8482856200023d565b509392505050565b600082601f830112620002cc57620002cb62000168565b5b8151620002de84826020860162000269565b91505092915050565b6000602082840312156200030057620002ff6200015e565b5b600082015167ffffffffffffffff81111562000321576200032062000163565b5b6200032f84828501620002b4565b91505092915050565b600081519050919050565b7f4e487b7100000000000000000000000000000000000000000000000000000000600052602260045260246000fd5b600060028204905060018216806200038b57607f821691505b602082108103620003a157620003a062000343565b5b50919050565b60008190508160005260206000209050919050565b60006020601f8301049050919050565b600082821b905092915050565b6000600883026200040b7fffffffffffffffffffffffffffffffffffffffffffffffffffffffffffffffff82620003cc565b620004178683620003cc565b95508019841693508086168417925050509392505050565b6000819050919050565b6000819050919050565b6000620004646200045e62000458846200042f565b62000439565b6200042f565b9050919050565b6000819050919050565b620004808362000443565b620004986200048f826200046b565b848454620003d9565b825550505050565b600090565b620004af620004a0565b620004bc81848462000475565b505050565b5b81811015620004e457620004d8600082620004a5565b600181019050620004c2565b5050565b601f8211156200053357620004fd81620003a7565b6200050884620003bc565b8101602085101562000518578190505b620005306200052785620003bc565b830182620004c1565b50505b505050565b600082821c905092915050565b6000620005586000198460080262000538565b1980831691505092915050565b600062000573838362000545565b9150826002028217905092915050565b6200058e8262000338565b67ffffffffffffffff811115620005aa57620005a962000183565b5b620005b6825462000372565b620005c3828285620004e8565b600060209050601f831160018114620005fb5760008415620005e6578287015190505b620005f2858262000565565b86555062000662565b601f1984166200060b86620003a7565b60005b8281101562000635578489015182556001820191506020850194506020810190506200060e565b8683101562000655578489015162000651601f89168262000545565b8355505b6001600288020188555050505b505050505050565b614559806200067a6000396000f3fe608060405234801561001057600080fd5b50600436106101a85760003560e01c8063731133e9116100f9578063a76fe71911610097578063e985e9c511610071578063e985e9c5146104fd578063f242432a1461052d578063f2fde38b14610549578063f349822314610565576101a8565b8063a76fe71914610495578063aa9f3eca146104b1578063ab588748146104e1576101a8565b80638da5cb5b116100d35780638da5cb5b1461040f57806395dbe2db1461042d578063a0245f711461045d578063a22cb46514610479576101a8565b8063731133e914610393578063857af47b146103af578063876ca0d2146103df576101a8565b80632e477ad91161016657806344c70be51161014057806344c70be51461030d5780634e1273f41461033d57806369c7ca521461036d578063715018a614610389576101a8565b80632e477ad9146102a55780632eb2c2d6146102d5578063432f4113146102f1576101a8565b8062fdd58e146101ad57806301ffc9a7146101dd5780630e89341c1461020d5780631ae825901461023d5780631ef65b121461026d5780631f7fdffa14610289575b600080fd5b6101c760048036038101906101c29190612ae7565b610581565b6040516101d49190612b36565b60405180910390f35b6101f760048036038101906101f29190612ba9565b610649565b6040516102049190612bf1565b60405180910390f35b61022760048036038101906102229190612c0c565b61072b565b6040516102349190612cc9565b60405180910390f35b61025760048036038101906102529190612c0c565b6107bf565b6040516102649190612d62565b60405180910390f35b61028760048036038101906102829190612d7d565b6107df565b005b6102a3600480360381019061029e9190612fba565b6108ec565b005b6102bf60048036038101906102ba9190612c0c565b610952565b6040516102cc91906130bd565b60405180910390f35b6102ef60048036038101906102ea91906130d8565b61097c565b005b61030b60048036038101906103069190612c0c565b610a1d565b005b61032760048036038101906103229190612ae7565b610cca565b6040516103349190612d62565b60405180910390f35b6103576004803603810190610352919061326a565b610d32565b60405161036491906133a0565b60405180910390f35b61038760048036038101906103829190613449565b610e4b565b005b61039161106b565b005b6103ad60048036038101906103a89190613521565b61107f565b005b6103c960048036038101906103c49190612c0c565b6110c5565b6040516103d69190612bf1565b60405180910390f35b6103f960048036038101906103f49190612c0c565b6110ef565b6040516104069190612d62565b60405180910390f35b610417611119565b60405161042491906135b3565b60405180910390f35b61044760048036038101906104429190612c0c565b611143565b6040516104549190612bf1565b60405180910390f35b61047760048036038101906104729190612ae7565b611163565b005b610493600480360381019061048e91906135ce565b611248565b005b6104af60048036038101906104aa9190613633565b61125e565b005b6104cb60048036038101906104c69190612c0c565b611571565b6040516104d891906130bd565b60405180910390f35b6104fb60048036038101906104f69190613673565b611591565b005b610517600480360381019061051291906136c0565b61165c565b6040516105249190612bf1565b60405180910390f35b61054760048036038101906105429190613700565b6116f0565b005b610563600480360381019061055e9190613797565b611791565b005b61057f600480360381019061057a91906137c4565b611814565b005b60008073ffffffffffffffffffffffffffffffffffffffff168373ffffffffffffffffffffffffffffffffffffffff16036105f1576040517f08c379a00000000000000000000000000000000000000000000000000000000081526004016105e8906138cd565b60405180910390fd5b60008083815260200190815260200160002060008473ffffffffffffffffffffffffffffffffffffffff1673ffffffffffffffffffffffffffffffffffffffff16815260200190815260200160002054905092915050565b60007fd9b67a26000000000000000000000000000000000000000000000000000000007bffffffffffffffffffffffffffffffffffffffffffffffffffffffff1916827bffffffffffffffffffffffffffffffffffffffffffffffffffffffff1916148061071457507f0e89341c000000000000000000000000000000000000000000000000000000007bffffffffffffffffffffffffffffffffffffffffffffffffffffffff1916827bffffffffffffffffffffffffffffffffffffffffffffffffffffffff1916145b8061072457506107238261192a565b5b9050919050565b60606002805461073a9061391c565b80601f01602080910402602001604051908101604052809291908181526020018280546107669061391c565b80156107b35780601f10610788576101008083540402835291602001916107b3565b820191906000526020600020905b81548152906001019060200180831161079657829003601f168201915b50505050509050919050565b60066020528060005260406000206000915054906101000a900460ff1681565b6107f06107ea611994565b83611163565b60005b60046000838152602001908152602001600020805490508110156108e757600460008481526020019081526020016000206004600084815260200190815260200160002082815481106108495761084861394d565b5b9060005260206000200160009054906101000a900473ffffffffffffffffffffffffffffffffffffffff169080600181540180825580915050600190039060005260206000200160009091909190916101000a81548173ffffffffffffffffffffffffffffffffffffffff021916908373ffffffffffffffffffffffffffffffffffffffff16021790555080806108df906139ab565b9150506107f3565b505050565b6108f461199c565b61090084848484611a1a565b60005b835181101561094b5760016008600083815260200190815260200160002060006101000a81548160ff0219169083151502179055508080610943906139ab565b915050610903565b5050505050565b60006007600083815260200190815260200160002060009054906101000a900460ff169050919050565b610984611994565b73ffffffffffffffffffffffffffffffffffffffff168573ffffffffffffffffffffffffffffffffffffffff1614806109ca57506109c9856109c4611994565b61165c565b5b610a09576040517f08c379a0000000000000000000000000000000000000000000000000000000008152600401610a0090613a65565b60405180910390fd5b610a168585858585611c46565b5050505050565b610a2e610a28611994565b82611163565b3373ffffffffffffffffffffffffffffffffffffffff167f8610b7b5acdeec4d9229259544302ae0e252928822763a75adb58b66ba1f2d8882604051610a749190612b36565b60405180910390a260008060005b6004600085815260200190815260200160002080549050811015610b4157600460008581526020019081526020016000208181548110610ac557610ac461394d565b5b9060005260206000200160009054906101000a900473ffffffffffffffffffffffffffffffffffffffff1673ffffffffffffffffffffffffffffffffffffffff163373ffffffffffffffffffffffffffffffffffffffff1603610b2e5760019250809150610b41565b8080610b39906139ab565b915050610a82565b508115610b8b5760026007600085815260200190815260200160002060006101000a81548160ff02191690836002811115610b7f57610b7e612ceb565b5b02179055505050610cc7565b60016007600085815260200190815260200160002060006101000a81548160ff02191690836002811115610bc257610bc1612ceb565b5b021790555060005b6004600085815260200190815260200160002080549050811015610cc357600160056000600460008881526020019081526020016000208481548110610c1357610c1261394d565b5b9060005260206000200160009054906101000a900473ffffffffffffffffffffffffffffffffffffffff1673ffffffffffffffffffffffffffffffffffffffff1673ffffffffffffffffffffffffffffffffffffffff168152602001908152602001600020600086815260200190815260200160002060006101000a81548160ff02191690836003811115610cab57610caa612ceb565b5b02179055508080610cbb906139ab565b915050610bca565b5050505b50565b6000600560008473ffffffffffffffffffffffffffffffffffffffff1673ffffffffffffffffffffffffffffffffffffffff168152602001908152602001600020600083815260200190815260200160002060009054906101000a900460ff16905092915050565b60608151835114610d78576040517f08c379a0000000000000000000000000000000000000000000000000000000008152600401610d6f90613af7565b60405180910390fd5b6000835167ffffffffffffffff811115610d9557610d94612dc2565b5b604051908082528060200260200182016040528015610dc35781602001602082028036833780820191505090505b50905060005b8451811015610e4057610e10858281518110610de857610de761394d565b5b6020026020010151858381518110610e0357610e0261394d565b5b6020026020010151610581565b828281518110610e2357610e2261394d565b5b60200260200101818152505080610e39906139ab565b9050610dc9565b508091505092915050565b610eda3388888880806020026020016040519081016040528093929190818152602001838360200280828437600081840152601f19601f82011690508083019250505050505050878780806020026020016040519081016040528093929190818152602001838360200280828437600081840152601f19601f820116905080830192505050505050508661097c565b60005b868690508110156110615760086000888884818110610eff57610efe61394d565b5b90506020020135815260200190815260200160002060009054906101000a900460ff168015610f2b5750815b15610fbe5760046000888884818110610f4757610f4661394d565b5b905060200201358152602001908152602001600020889080600181540180825580915050600190039060005260206000200160009091909190916101000a81548173ffffffffffffffffffffffffffffffffffffffff021916908373ffffffffffffffffffffffffffffffffffffffff1602179055505b81158015611003575060086000888884818110610fde57610fdd61394d565b5b90506020020135815260200190815260200160002060009054906101000a900460ff16155b1561104e576000600860008989858181106110215761102061394d565b5b90506020020135815260200190815260200160002060006101000a81548160ff0219169083151502179055505b8080611059906139ab565b915050610edd565b5050505050505050565b61107361199c565b61107d6000611f67565b565b61108761199c565b6110938484848461202d565b60016008600085815260200190815260200160002060006101000a81548160ff02191690831515021790555050505050565b60006008600083815260200190815260200160002060009054906101000a900460ff169050919050565b60006006600083815260200190815260200160002060009054906101000a900460ff169050919050565b6000600360009054906101000a900473ffffffffffffffffffffffffffffffffffffffff16905090565b60086020528060005260406000206000915054906101000a900460ff1681565b6001611176611170611994565b83610581565b10156111b7576040517f08c379a00000000000000000000000000000000000000000000000000000000081526004016111ae90613b63565b60405180910390fd5b6111bf611994565b73ffffffffffffffffffffffffffffffffffffffff168273ffffffffffffffffffffffffffffffffffffffff1614806112055750611204826111ff611994565b61165c565b5b611244576040517f08c379a000000000000000000000000000000000000000000000000000000000815260040161123b90613bf5565b60405180910390fd5b5050565b61125a611253611994565b83836121dd565b5050565b816000805b6004600084815260200190815260200160002080549050811015611326576004600084815260200190815260200160002081815481106112a6576112a561394d565b5b9060005260206000200160009054906101000a900473ffffffffffffffffffffffffffffffffffffffff1673ffffffffffffffffffffffffffffffffffffffff166112ef611994565b73ffffffffffffffffffffffffffffffffffffffff16036113135760019150611326565b808061131e906139ab565b915050611263565b50600115158115151461136e576040517f08c379a000000000000000000000000000000000000000000000000000000000815260040161136590613c61565b60405180910390fd5b6000805b600460008781526020019081526020016000208054905081101561142d576004600087815260200190815260200160002081815481106113b5576113b461394d565b5b9060005260206000200160009054906101000a900473ffffffffffffffffffffffffffffffffffffffff1673ffffffffffffffffffffffffffffffffffffffff163373ffffffffffffffffffffffffffffffffffffffff160361141a5780915061142d565b8080611425906139ab565b915050611372565b506001600381111561144257611441612ceb565b5b600560003373ffffffffffffffffffffffffffffffffffffffff1673ffffffffffffffffffffffffffffffffffffffff168152602001908152602001600020600087815260200190815260200160002060009054906101000a900460ff1660038111156114b2576114b1612ceb565b5b146114f2576040517f08c379a00000000000000000000000000000000000000000000000000000000081526004016114e990613ccd565b60405180910390fd5b83600560003373ffffffffffffffffffffffffffffffffffffffff1673ffffffffffffffffffffffffffffffffffffffff168152602001908152602001600020600087815260200190815260200160002060006101000a81548160ff0219169083600381111561156557611564612ceb565b5b02179055505050505050565b60076020528060005260406000206000915054906101000a900460ff1681565b3373ffffffffffffffffffffffffffffffffffffffff167f3d3735b6b82dc6dbc33760218a1dc3a6cf77780e1774c8cd7d74dec8da518aa083836040516115d9929190613d57565b60405180910390a260005b82829050811015611657576002600760008585858181106116085761160761394d565b5b90506020020135815260200190815260200160002060006101000a81548160ff0219169083600281111561163f5761163e612ceb565b5b0217905550808061164f906139ab565b9150506115e4565b505050565b6000600160008473ffffffffffffffffffffffffffffffffffffffff1673ffffffffffffffffffffffffffffffffffffffff16815260200190815260200160002060008373ffffffffffffffffffffffffffffffffffffffff1673ffffffffffffffffffffffffffffffffffffffff16815260200190815260200160002060009054906101000a900460ff16905092915050565b6116f8611994565b73ffffffffffffffffffffffffffffffffffffffff168573ffffffffffffffffffffffffffffffffffffffff16148061173e575061173d85611738611994565b61165c565b5b61177d576040517f08c379a000000000000000000000000000000000000000000000000000000000815260040161177490613a65565b60405180910390fd5b61178a8585858585612349565b5050505050565b61179961199c565b600073ffffffffffffffffffffffffffffffffffffffff168173ffffffffffffffffffffffffffffffffffffffff1603611808576040517f08c379a00000000000000000000000000000000000000000000000000000000081526004016117ff90613ded565b60405180910390fd5b61181181611f67565b50565b61182133868686866116f0565b6008600085815260200190815260200160002060009054906101000a900460ff16801561184b5750805b156118c55760046000858152602001908152602001600020859080600181540180825580915050600190039060005260206000200160009091909190916101000a81548173ffffffffffffffffffffffffffffffffffffffff021916908373ffffffffffffffffffffffffffffffffffffffff1602179055505b801580156118f157506008600085815260200190815260200160002060009054906101000a900460ff16155b156119235760006008600086815260200190815260200160002060006101000a81548160ff0219169083151502179055505b5050505050565b60007f01ffc9a7000000000000000000000000000000000000000000000000000000007bffffffffffffffffffffffffffffffffffffffffffffffffffffffff1916827bffffffffffffffffffffffffffffffffffffffffffffffffffffffff1916149050919050565b600033905090565b6119a4611994565b73ffffffffffffffffffffffffffffffffffffffff166119c2611119565b73ffffffffffffffffffffffffffffffffffffffff1614611a18576040517f08c379a0000000000000000000000000000000000000000000000000000000008152600401611a0f90613e59565b60405180910390fd5b565b600073ffffffffffffffffffffffffffffffffffffffff168473ffffffffffffffffffffffffffffffffffffffff1603611a89576040517f08c379a0000000000000000000000000000000000000000000000000000000008152600401611a8090613eeb565b60405180910390fd5b8151835114611acd576040517f08c379a0000000000000000000000000000000000000000000000000000000008152600401611ac490613f7d565b60405180910390fd5b6000611ad7611994565b9050611ae8816000878787876125e4565b60005b8451811015611ba157838181518110611b0757611b0661394d565b5b6020026020010151600080878481518110611b2557611b2461394d565b5b6020026020010151815260200190815260200160002060008873ffffffffffffffffffffffffffffffffffffffff1673ffffffffffffffffffffffffffffffffffffffff1681526020019081526020016000206000828254611b879190613f9d565b925050819055508080611b99906139ab565b915050611aeb565b508473ffffffffffffffffffffffffffffffffffffffff16600073ffffffffffffffffffffffffffffffffffffffff168273ffffffffffffffffffffffffffffffffffffffff167f4a39dc06d4c0dbc64b70af90fd698a233a518aa5d07e595d983b8c0526c8f7fb8787604051611c19929190613fd1565b60405180910390a4611c30816000878787876125ec565b611c3f816000878787876125f4565b5050505050565b8151835114611c8a576040517f08c379a0000000000000000000000000000000000000000000000000000000008152600401611c8190613f7d565b60405180910390fd5b600073ffffffffffffffffffffffffffffffffffffffff168473ffffffffffffffffffffffffffffffffffffffff1603611cf9576040517f08c379a0000000000000000000000000000000000000000000000000000000008152600401611cf09061407a565b60405180910390fd5b6000611d03611994565b9050611d138187878787876125e4565b60005b8451811015611ec4576000858281518110611d3457611d3361394d565b5b602002602001015190506000858381518110611d5357611d5261394d565b5b60200260200101519050600080600084815260200190815260200160002060008b73ffffffffffffffffffffffffffffffffffffffff1673ffffffffffffffffffffffffffffffffffffffff16815260200190815260200160002054905081811015611df4576040517f08c379a0000000000000000000000000000000000000000000000000000000008152600401611deb9061410c565b60405180910390fd5b81810360008085815260200190815260200160002060008c73ffffffffffffffffffffffffffffffffffffffff1673ffffffffffffffffffffffffffffffffffffffff168152602001908152602001600020819055508160008085815260200190815260200160002060008b73ffffffffffffffffffffffffffffffffffffffff1673ffffffffffffffffffffffffffffffffffffffff1681526020019081526020016000206000828254611ea99190613f9d565b9250508190555050505080611ebd906139ab565b9050611d16565b508473ffffffffffffffffffffffffffffffffffffffff168673ffffffffffffffffffffffffffffffffffffffff168273ffffffffffffffffffffffffffffffffffffffff167f4a39dc06d4c0dbc64b70af90fd698a233a518aa5d07e595d983b8c0526c8f7fb8787604051611f3b929190613fd1565b60405180910390a4611f518187878787876125ec565b611f5f8187878787876125f4565b505050505050565b6000600360009054906101000a900473ffffffffffffffffffffffffffffffffffffffff16905081600360006101000a81548173ffffffffffffffffffffffffffffffffffffffff021916908373ffffffffffffffffffffffffffffffffffffffff1602179055508173ffffffffffffffffffffffffffffffffffffffff168173ffffffffffffffffffffffffffffffffffffffff167f8be0079c531659141344cd1fd0a4f28419497f9722a3daafe3b4186f6b6457e060405160405180910390a35050565b600073ffffffffffffffffffffffffffffffffffffffff168473ffffffffffffffffffffffffffffffffffffffff160361209c576040517f08c379a000000000000000000000000000000000000000000000000000000000815260040161209390613eeb565b60405180910390fd5b60006120a6611994565b905060006120b3856127cb565b905060006120c0856127cb565b90506120d1836000898585896125e4565b8460008088815260200190815260200160002060008973ffffffffffffffffffffffffffffffffffffffff1673ffffffffffffffffffffffffffffffffffffffff16815260200190815260200160002060008282546121309190613f9d565b925050819055508673ffffffffffffffffffffffffffffffffffffffff16600073ffffffffffffffffffffffffffffffffffffffff168473ffffffffffffffffffffffffffffffffffffffff167fc3d58168c5ae7397731d063d5bbf3d657854427343f4c083240f7aacaa2d0f6289896040516121ae92919061412c565b60405180910390a46121c5836000898585896125ec565b6121d483600089898989612845565b50505050505050565b8173ffffffffffffffffffffffffffffffffffffffff168373ffffffffffffffffffffffffffffffffffffffff160361224b576040517f08c379a0000000000000000000000000000000000000000000000000000000008152600401612242906141c7565b60405180910390fd5b80600160008573ffffffffffffffffffffffffffffffffffffffff1673ffffffffffffffffffffffffffffffffffffffff16815260200190815260200160002060008473ffffffffffffffffffffffffffffffffffffffff1673ffffffffffffffffffffffffffffffffffffffff16815260200190815260200160002060006101000a81548160ff0219169083151502179055508173ffffffffffffffffffffffffffffffffffffffff168373ffffffffffffffffffffffffffffffffffffffff167f17307eab39ab6107e8899845ad3d59bd9653f200f220920489ca2b5937696c318360405161233c9190612bf1565b60405180910390a3505050565b600073ffffffffffffffffffffffffffffffffffffffff168473ffffffffffffffffffffffffffffffffffffffff16036123b8576040517f08c379a00000000000000000000000000000000000000000000000000000000081526004016123af9061407a565b60405180910390fd5b60006123c2611994565b905060006123cf856127cb565b905060006123dc856127cb565b90506123ec8389898585896125e4565b600080600088815260200190815260200160002060008a73ffffffffffffffffffffffffffffffffffffffff1673ffffffffffffffffffffffffffffffffffffffff16815260200190815260200160002054905085811015612483576040517f08c379a000000000000000000000000000000000000000000000000000000000815260040161247a9061410c565b60405180910390fd5b85810360008089815260200190815260200160002060008b73ffffffffffffffffffffffffffffffffffffffff1673ffffffffffffffffffffffffffffffffffffffff168152602001908152602001600020819055508560008089815260200190815260200160002060008a73ffffffffffffffffffffffffffffffffffffffff1673ffffffffffffffffffffffffffffffffffffffff16815260200190815260200160002060008282546125389190613f9d565b925050819055508773ffffffffffffffffffffffffffffffffffffffff168973ffffffffffffffffffffffffffffffffffffffff168573ffffffffffffffffffffffffffffffffffffffff167fc3d58168c5ae7397731d063d5bbf3d657854427343f4c083240f7aacaa2d0f628a8a6040516125b592919061412c565b60405180910390a46125cb848a8a86868a6125ec565b6125d9848a8a8a8a8a612845565b505050505050505050565b505050505050565b505050505050565b6126138473ffffffffffffffffffffffffffffffffffffffff16612a1c565b156127c3578373ffffffffffffffffffffffffffffffffffffffff1663bc197c8187878686866040518663ffffffff1660e01b815260040161265995949392919061423c565b6020604051808303816000875af192505050801561269557506040513d601f19601f8201168201806040525081019061269291906142b9565b60015b61273a576126a16142f3565b806308c379a0036126fd57506126b5614315565b806126c057506126ff565b806040517f08c379a00000000000000000000000000000000000000000000000000000000081526004016126f49190612cc9565b60405180910390fd5b505b6040517f08c379a000000000000000000000000000000000000000000000000000000000815260040161273190614417565b60405180910390fd5b63bc197c8160e01b7bffffffffffffffffffffffffffffffffffffffffffffffffffffffff1916817bffffffffffffffffffffffffffffffffffffffffffffffffffffffff1916146127c1576040517f08c379a00000000000000000000000000000000000000000000000000000000081526004016127b8906144a9565b60405180910390fd5b505b505050505050565b60606000600167ffffffffffffffff8111156127ea576127e9612dc2565b5b6040519080825280602002602001820160405280156128185781602001602082028036833780820191505090505b50905082816000815181106128305761282f61394d565b5b60200260200101818152505080915050919050565b6128648473ffffffffffffffffffffffffffffffffffffffff16612a1c565b15612a14578373ffffffffffffffffffffffffffffffffffffffff1663f23a6e6187878686866040518663ffffffff1660e01b81526004016128aa9594939291906144c9565b6020604051808303816000875af19250505080156128e657506040513d601f19601f820116820180604052508101906128e391906142b9565b60015b61298b576128f26142f3565b806308c379a00361294e5750612906614315565b806129115750612950565b806040517f08c379a00000000000000000000000000000000000000000000000000000000081526004016129459190612cc9565b60405180910390fd5b505b6040517f08c379a000000000000000000000000000000000000000000000000000000000815260040161298290614417565b60405180910390fd5b63f23a6e6160e01b7bffffffffffffffffffffffffffffffffffffffffffffffffffffffff1916817bffffffffffffffffffffffffffffffffffffffffffffffffffffffff191614612a12576040517f08c379a0000000000000000000000000000000000000000000000000000000008152600401612a09906144a9565b60405180910390fd5b505b505050505050565b6000808273ffffffffffffffffffffffffffffffffffffffff163b119050919050565b6000604051905090565b600080fd5b600080fd5b600073ffffffffffffffffffffffffffffffffffffffff82169050919050565b6000612a7e82612a53565b9050919050565b612a8e81612a73565b8114612a9957600080fd5b50565b600081359050612aab81612a85565b92915050565b6000819050919050565b612ac481612ab1565b8114612acf57600080fd5b50565b600081359050612ae181612abb565b92915050565b60008060408385031215612afe57612afd612a49565b5b6000612b0c85828601612a9c565b9250506020612b1d85828601612ad2565b9150509250929050565b612b3081612ab1565b82525050565b6000602082019050612b4b6000830184612b27565b92915050565b60007fffffffff0000000000000000000000000000000000000000000000000000000082169050919050565b612b8681612b51565b8114612b9157600080fd5b50565b600081359050612ba381612b7d565b92915050565b600060208284031215612bbf57612bbe612a49565b5b6000612bcd84828501612b94565b91505092915050565b60008115159050919050565b612beb81612bd6565b82525050565b6000602082019050612c066000830184612be2565b92915050565b600060208284031215612c2257612c21612a49565b5b6000612c3084828501612ad2565b91505092915050565b600081519050919050565b600082825260208201905092915050565b60005b83811015612c73578082015181840152602081019050612c58565b60008484015250505050565b6000601f19601f8301169050919050565b6000612c9b82612c39565b612ca58185612c44565b9350612cb5818560208601612c55565b612cbe81612c7f565b840191505092915050565b60006020820190508181036000830152612ce38184612c90565b905092915050565b7f4e487b7100000000000000000000000000000000000000000000000000000000600052602160045260246000fd5b60048110612d2b57612d2a612ceb565b5b50565b6000819050612d3c82612d1a565b919050565b6000612d4c82612d2e565b9050919050565b612d5c81612d41565b82525050565b6000602082019050612d776000830184612d53565b92915050565b60008060408385031215612d9457612d93612a49565b5b6000612da285828601612ad2565b9250506020612db385828601612ad2565b9150509250929050565b600080fd5b7f4e487b7100000000000000000000000000000000000000000000000000000000600052604160045260246000fd5b612dfa82612c7f565b810181811067ffffffffffffffff82111715612e1957612e18612dc2565b5b80604052505050565b6000612e2c612a3f565b9050612e388282612df1565b919050565b600067ffffffffffffffff821115612e5857612e57612dc2565b5b602082029050602081019050919050565b600080fd5b6000612e81612e7c84612e3d565b612e22565b90508083825260208201905060208402830185811115612ea457612ea3612e69565b5b835b81811015612ecd5780612eb98882612ad2565b845260208401935050602081019050612ea6565b5050509392505050565b600082601f830112612eec57612eeb612dbd565b5b8135612efc848260208601612e6e565b91505092915050565b600080fd5b600067ffffffffffffffff821115612f2557612f24612dc2565b5b612f2e82612c7f565b9050602081019050919050565b82818337600083830152505050565b6000612f5d612f5884612f0a565b612e22565b905082815260208101848484011115612f7957612f78612f05565b5b612f84848285612f3b565b509392505050565b600082601f830112612fa157612fa0612dbd565b5b8135612fb1848260208601612f4a565b91505092915050565b60008060008060808587031215612fd457612fd3612a49565b5b6000612fe287828801612a9c565b945050602085013567ffffffffffffffff81111561300357613002612a4e565b5b61300f87828801612ed7565b935050604085013567ffffffffffffffff8111156130305761302f612a4e565b5b61303c87828801612ed7565b925050606085013567ffffffffffffffff81111561305d5761305c612a4e565b5b61306987828801612f8c565b91505092959194509250565b6003811061308657613085612ceb565b5b50565b600081905061309782613075565b919050565b60006130a782613089565b9050919050565b6130b78161309c565b82525050565b60006020820190506130d260008301846130ae565b92915050565b600080600080600060a086880312156130f4576130f3612a49565b5b600061310288828901612a9c565b955050602061311388828901612a9c565b945050604086013567ffffffffffffffff81111561313457613133612a4e565b5b61314088828901612ed7565b935050606086013567ffffffffffffffff81111561316157613160612a4e565b5b61316d88828901612ed7565b925050608086013567ffffffffffffffff81111561318e5761318d612a4e565b5b61319a88828901612f8c565b9150509295509295909350565b600067ffffffffffffffff8211156131c2576131c1612dc2565b5b602082029050602081019050919050565b60006131e66131e1846131a7565b612e22565b9050808382526020820190506020840283018581111561320957613208612e69565b5b835b81811015613232578061321e8882612a9c565b84526020840193505060208101905061320b565b5050509392505050565b600082601f83011261325157613250612dbd565b5b81356132618482602086016131d3565b91505092915050565b6000806040838503121561328157613280612a49565b5b600083013567ffffffffffffffff81111561329f5761329e612a4e565b5b6132ab8582860161323c565b925050602083013567ffffffffffffffff8111156132cc576132cb612a4e565b5b6132d885828601612ed7565b9150509250929050565b600081519050919050565b600082825260208201905092915050565b6000819050602082019050919050565b61331781612ab1565b82525050565b6000613329838361330e565b60208301905092915050565b6000602082019050919050565b600061334d826132e2565b61335781856132ed565b9350613362836132fe565b8060005b8381101561339357815161337a888261331d565b975061338583613335565b925050600181019050613366565b5085935050505092915050565b600060208201905081810360008301526133ba8184613342565b905092915050565b600080fd5b60008083601f8401126133dd576133dc612dbd565b5b8235905067ffffffffffffffff8111156133fa576133f96133c2565b5b60208301915083602082028301111561341657613415612e69565b5b9250929050565b61342681612bd6565b811461343157600080fd5b50565b6000813590506134438161341d565b92915050565b600080600080600080600060a0888a03121561346857613467612a49565b5b60006134768a828b01612a9c565b975050602088013567ffffffffffffffff81111561349757613496612a4e565b5b6134a38a828b016133c7565b9650965050604088013567ffffffffffffffff8111156134c6576134c5612a4e565b5b6134d28a828b016133c7565b9450945050606088013567ffffffffffffffff8111156134f5576134f4612a4e565b5b6135018a828b01612f8c565b92505060806135128a828b01613434565b91505092959891949750929550565b6000806000806080858703121561353b5761353a612a49565b5b600061354987828801612a9c565b945050602061355a87828801612ad2565b935050604061356b87828801612ad2565b925050606085013567ffffffffffffffff81111561358c5761358b612a4e565b5b61359887828801612f8c565b91505092959194509250565b6135ad81612a73565b82525050565b60006020820190506135c860008301846135a4565b92915050565b600080604083850312156135e5576135e4612a49565b5b60006135f385828601612a9c565b925050602061360485828601613434565b9150509250929050565b6004811061361b57600080fd5b50565b60008135905061362d8161360e565b92915050565b6000806040838503121561364a57613649612a49565b5b600061365885828601612ad2565b92505060206136698582860161361e565b9150509250929050565b6000806020838503121561368a57613689612a49565b5b600083013567ffffffffffffffff8111156136a8576136a7612a4e565b5b6136b4858286016133c7565b92509250509250929050565b600080604083850312156136d7576136d6612a49565b5b60006136e585828601612a9c565b92505060206136f685828601612a9c565b9150509250929050565b600080600080600060a0868803121561371c5761371b612a49565b5b600061372a88828901612a9c565b955050602061373b88828901612a9c565b945050604061374c88828901612ad2565b935050606061375d88828901612ad2565b925050608086013567ffffffffffffffff81111561377e5761377d612a4e565b5b61378a88828901612f8c565b9150509295509295909350565b6000602082840312156137ad576137ac612a49565b5b60006137bb84828501612a9c565b91505092915050565b600080600080600060a086880312156137e0576137df612a49565b5b60006137ee88828901612a9c565b95505060206137ff88828901612ad2565b945050604061381088828901612ad2565b935050606086013567ffffffffffffffff81111561383157613830612a4e565b5b61383d88828901612f8c565b925050608061384e88828901613434565b9150509295509295909350565b7f455243313135353a2061646472657373207a65726f206973206e6f742061207660008201527f616c6964206f776e657200000000000000000000000000000000000000000000602082015250565b60006138b7602a83612c44565b91506138c28261385b565b604082019050919050565b600060208201905081810360008301526138e6816138aa565b9050919050565b7f4e487b7100000000000000000000000000000000000000000000000000000000600052602260045260246000fd5b6000600282049050600182168061393457607f821691505b602082108103613947576139466138ed565b5b50919050565b7f4e487b7100000000000000000000000000000000000000000000000000000000600052603260045260246000fd5b7f4e487b7100000000000000000000000000000000000000000000000000000000600052601160045260246000fd5b60006139b682612ab1565b91507fffffffffffffffffffffffffffffffffffffffffffffffffffffffffffffffff82036139e8576139e761397c565b5b600182019050919050565b7f455243313135353a2063616c6c6572206973206e6f7420746f6b656e206f776e60008201527f6572206f7220617070726f766564000000000000000000000000000000000000602082015250565b6000613a4f602e83612c44565b9150613a5a826139f3565b604082019050919050565b60006020820190508181036000830152613a7e81613a42565b9050919050565b7f455243313135353a206163636f756e747320616e6420696473206c656e67746860008201527f206d69736d617463680000000000000000000000000000000000000000000000602082015250565b6000613ae1602983612c44565b9150613aec82613a85565b604082019050919050565b60006020820190508181036000830152613b1081613ad4565b9050919050565b7f4e6f20546f6b656e206f776e6564000000000000000000000000000000000000600082015250565b6000613b4d600e83612c44565b9150613b5882613b17565b602082019050919050565b60006020820190508181036000830152613b7c81613b40565b9050919050565b7f63616c6c6572206973206e6f7420746f6b656e206f776e6572206f722061707060008201527f726f766564000000000000000000000000000000000000000000000000000000602082015250565b6000613bdf602583612c44565b9150613bea82613b83565b604082019050919050565b60006020820190508181036000830152613c0e81613bd2565b9050919050565b7f4d757374206265204d616e756661637475726572000000000000000000000000600082015250565b6000613c4b601483612c44565b9150613c5682613c15565b602082019050919050565b60006020820190508181036000830152613c7a81613c3e565b9050919050565b7f546f6b656e2063616e206e6f7420626520636865636b65640000000000000000600082015250565b6000613cb7601883612c44565b9150613cc282613c81565b602082019050919050565b60006020820190508181036000830152613ce681613caa565b9050919050565b600080fd5b82818337505050565b6000613d0783856132ed565b93507f07ffffffffffffffffffffffffffffffffffffffffffffffffffffffffffffff831115613d3a57613d39613ced565b5b602083029250613d4b838584613cf2565b82840190509392505050565b60006020820190508181036000830152613d72818486613cfb565b90509392505050565b7f4f776e61626c653a206e6577206f776e657220697320746865207a65726f206160008201527f6464726573730000000000000000000000000000000000000000000000000000602082015250565b6000613dd7602683612c44565b9150613de282613d7b565b604082019050919050565b60006020820190508181036000830152613e0681613dca565b9050919050565b7f4f776e61626c653a2063616c6c6572206973206e6f7420746865206f776e6572600082015250565b6000613e43602083612c44565b9150613e4e82613e0d565b602082019050919050565b60006020820190508181036000830152613e7281613e36565b9050919050565b7f455243313135353a206d696e7420746f20746865207a65726f2061646472657360008201527f7300000000000000000000000000000000000000000000000000000000000000602082015250565b6000613ed5602183612c44565b9150613ee082613e79565b604082019050919050565b60006020820190508181036000830152613f0481613ec8565b9050919050565b7f455243313135353a2069647320616e6420616d6f756e7473206c656e6774682060008201527f6d69736d61746368000000000000000000000000000000000000000000000000602082015250565b6000613f67602883612c44565b9150613f7282613f0b565b604082019050919050565b60006020820190508181036000830152613f9681613f5a565b9050919050565b6000613fa882612ab1565b9150613fb383612ab1565b9250828201905080821115613fcb57613fca61397c565b5b92915050565b60006040820190508181036000830152613feb8185613342565b90508181036020830152613fff8184613342565b90509392505050565b7f455243313135353a207472616e7366657220746f20746865207a65726f20616460008201527f6472657373000000000000000000000000000000000000000000000000000000602082015250565b6000614064602583612c44565b915061406f82614008565b604082019050919050565b6000602082019050818103600083015261409381614057565b9050919050565b7f455243313135353a20696e73756666696369656e742062616c616e636520666f60008201527f72207472616e7366657200000000000000000000000000000000000000000000602082015250565b60006140f6602a83612c44565b91506141018261409a565b604082019050919050565b60006020820190508181036000830152614125816140e9565b9050919050565b60006040820190506141416000830185612b27565b61414e6020830184612b27565b9392505050565b7f455243313135353a2073657474696e6720617070726f76616c2073746174757360008201527f20666f722073656c660000000000000000000000000000000000000000000000602082015250565b60006141b1602983612c44565b91506141bc82614155565b604082019050919050565b600060208201905081810360008301526141e0816141a4565b9050919050565b600081519050919050565b600082825260208201905092915050565b600061420e826141e7565b61421881856141f2565b9350614228818560208601612c55565b61423181612c7f565b840191505092915050565b600060a08201905061425160008301886135a4565b61425e60208301876135a4565b81810360408301526142708186613342565b905081810360608301526142848185613342565b905081810360808301526142988184614203565b90509695505050505050565b6000815190506142b381612b7d565b92915050565b6000602082840312156142cf576142ce612a49565b5b60006142dd848285016142a4565b91505092915050565b60008160e01c9050919050565b600060033d11156143125760046000803e61430f6000516142e6565b90505b90565b600060443d106143a257614327612a3f565b60043d036004823e80513d602482011167ffffffffffffffff8211171561434f5750506143a2565b808201805167ffffffffffffffff81111561436d57505050506143a2565b80602083010160043d03850181111561438a5750505050506143a2565b61439982602001850186612df1565b82955050505050505b90565b7f455243313135353a207472616e7366657220746f206e6f6e2d4552433131353560008201527f526563656976657220696d706c656d656e746572000000000000000000000000602082015250565b6000614401603483612c44565b915061440c826143a5565b604082019050919050565b60006020820190508181036000830152614430816143f4565b9050919050565b7f455243313135353a204552433131353552656365697665722072656a6563746560008201527f6420746f6b656e73000000000000000000000000000000000000000000000000602082015250565b6000614493602883612c44565b915061449e82614437565b604082019050919050565b600060208201905081810360008301526144c281614486565b9050919050565b600060a0820190506144de60008301886135a4565b6144eb60208301876135a4565b6144f86040830186612b27565b6145056060830185612b27565b81810360808301526145178184614203565b9050969550505050505056fea26469706673582212203c2907c17701d7272148b8302a04c8e9d6da33437151b48ed8d263a89b28c76d64736f6c63430008120033",
  "linkReferences": {},
  "deployedLinkReferences": {}
}