{
  "_format": "hh-sol-artifact-1",
  "contractName": "RecallToken",
  "sourceName": "contracts/RecallToken.sol",
  "abi": [
    {
      "inputs": [
        {
          "internalType": "string",
          "name": "uri",
          "type": "string"
        }
      ],
      "stateMutability": "nonpayable",
      "type": "constructor"
    },
    {
      "anonymous": false,
      "inputs": [
        {
          "indexed": true,
          "internalType": "address",
          "name": "account",
          "type": "address"
        },
        {
          "indexed": true,
          "internalType": "address",
          "name": "operator",
          "type": "address"
        },
        {
          "indexed": false,
          "internalType": "bool",
          "name": "approved",
          "type": "bool"
        }
      ],
      "name": "ApprovalForAll",
      "type": "event"
    },
    {
      "anonymous": false,
      "inputs": [
        {
          "indexed": true,
          "internalType": "address",
          "name": "_announcer",
          "type": "address"
        },
        {
          "indexed": false,
          "internalType": "uint256",
          "name": "_tokenId",
          "type": "uint256"
        }
      ],
      "name": "DefectAnnounced",
      "type": "event"
    },
    {
      "anonymous": false,
      "inputs": [
        {
          "indexed": true,
          "internalType": "address",
          "name": "_announcer",
          "type": "address"
        },
        {
          "indexed": false,
          "internalType": "uint256[]",
          "name": "_tokenIds",
          "type": "uint256[]"
        }
      ],
      "name": "ForwardRecall",
      "type": "event"
    },
    {
      "anonymous": false,
      "inputs": [
        {
          "indexed": true,
          "internalType": "address",
          "name": "previousOwner",
          "type": "address"
        },
        {
          "indexed": true,
          "internalType": "address",
          "name": "newOwner",
          "type": "address"
        }
      ],
      "name": "OwnershipTransferred",
      "type": "event"
    },
    {
      "anonymous": false,
      "inputs": [
        {
          "indexed": true,
          "internalType": "address",
          "name": "_announcer",
          "type": "address"
        },
        {
          "indexed": false,
          "internalType": "uint256",
          "name": "_tokenId",
          "type": "uint256"
        },
        {
          "indexed": false,
          "internalType": "enum RecallToken.TokenCheckingState",
          "name": "_resultState",
          "type": "uint8"
        }
      ],
      "name": "TokenChecked",
      "type": "event"
    },
    {
      "anonymous": false,
      "inputs": [
        {
          "indexed": true,
          "internalType": "address",
          "name": "operator",
          "type": "address"
        },
        {
          "indexed": true,
          "internalType": "address",
          "name": "from",
          "type": "address"
        },
        {
          "indexed": true,
          "internalType": "address",
          "name": "to",
          "type": "address"
        },
        {
          "indexed": false,
          "internalType": "uint256[]",
          "name": "ids",
          "type": "uint256[]"
        },
        {
          "indexed": false,
          "internalType": "uint256[]",
          "name": "values",
          "type": "uint256[]"
        }
      ],
      "name": "TransferBatch",
      "type": "event"
    },
    {
      "anonymous": false,
      "inputs": [
        {
          "indexed": true,
          "internalType": "address",
          "name": "operator",
          "type": "address"
        },
        {
          "indexed": true,
          "internalType": "address",
          "name": "from",
          "type": "address"
        },
        {
          "indexed": true,
          "internalType": "address",
          "name": "to",
          "type": "address"
        },
        {
          "indexed": false,
          "internalType": "uint256",
          "name": "id",
          "type": "uint256"
        },
        {
          "indexed": false,
          "internalType": "uint256",
          "name": "value",
          "type": "uint256"
        }
      ],
      "name": "TransferSingle",
      "type": "event"
    },
    {
      "anonymous": false,
      "inputs": [
        {
          "indexed": false,
          "internalType": "string",
          "name": "value",
          "type": "string"
        },
        {
          "indexed": true,
          "internalType": "uint256",
          "name": "id",
          "type": "uint256"
        }
      ],
      "name": "URI",
      "type": "event"
    },
    {
      "inputs": [
        {
          "internalType": "uint256",
          "name": "_tokenId",
          "type": "uint256"
        }
      ],
      "name": "announceDefect",
      "outputs": [],
      "stateMutability": "nonpayable",
      "type": "function"
    },
    {
      "inputs": [
        {
          "internalType": "address",
          "name": "account",
          "type": "address"
        },
        {
          "internalType": "uint256",
          "name": "id",
          "type": "uint256"
        }
      ],
      "name": "balanceOf",
      "outputs": [
        {
          "internalType": "uint256",
          "name": "",
          "type": "uint256"
        }
      ],
      "stateMutability": "view",
      "type": "function"
    },
    {
      "inputs": [
        {
          "internalType": "address[]",
          "name": "accounts",
          "type": "address[]"
        },
        {
          "internalType": "uint256[]",
          "name": "ids",
          "type": "uint256[]"
        }
      ],
      "name": "balanceOfBatch",
      "outputs": [
        {
          "internalType": "uint256[]",
          "name": "",
          "type": "uint256[]"
        }
      ],
      "stateMutability": "view",
      "type": "function"
    },
    {
      "inputs": [
        {
          "internalType": "address",
          "name": "_receiver",
          "type": "address"
        },
        {
          "internalType": "uint256[]",
          "name": "_tokenIds",
          "type": "uint256[]"
        },
        {
          "internalType": "uint256[]",
          "name": "_amounts",
          "type": "uint256[]"
        },
        {
          "internalType": "bytes",
          "name": "data",
          "type": "bytes"
        },
        {
          "internalType": "bool",
          "name": "_internal",
          "type": "bool"
        }
      ],
      "name": "batchTransferRecallToken",
      "outputs": [],
      "stateMutability": "nonpayable",
      "type": "function"
    },
    {
      "inputs": [
        {
          "internalType": "uint256",
          "name": "_tokenId",
          "type": "uint256"
        },
        {
          "internalType": "enum RecallToken.TokenCheckingState",
          "name": "_tokenCheckingState",
          "type": "uint8"
        }
      ],
      "name": "checkToken",
      "outputs": [],
      "stateMutability": "nonpayable",
      "type": "function"
    },
    {
      "inputs": [
        {
          "internalType": "uint256[]",
          "name": "_tokenIds",
          "type": "uint256[]"
        }
      ],
      "name": "forwardRecall",
      "outputs": [],
      "stateMutability": "nonpayable",
      "type": "function"
    },
    {
      "inputs": [
        {
          "internalType": "uint256",
          "name": "",
          "type": "uint256"
        }
      ],
      "name": "inProduction",
      "outputs": [
        {
          "internalType": "bool",
          "name": "",
          "type": "bool"
        }
      ],
      "stateMutability": "view",
      "type": "function"
    },
    {
      "inputs": [
        {
          "internalType": "address",
          "name": "account",
          "type": "address"
        },
        {
          "internalType": "address",
          "name": "operator",
          "type": "address"
        }
      ],
      "name": "isApprovedForAll",
      "outputs": [
        {
          "internalType": "bool",
          "name": "",
          "type": "bool"
        }
      ],
      "stateMutability": "view",
      "type": "function"
    },
    {
      "inputs": [
        {
          "internalType": "address",
          "name": "to",
          "type": "address"
        },
        {
          "internalType": "uint256",
          "name": "id",
          "type": "uint256"
        },
        {
          "internalType": "uint256",
          "name": "amount",
          "type": "uint256"
        },
        {
          "internalType": "bytes",
          "name": "data",
          "type": "bytes"
        }
      ],
      "name": "mint",
      "outputs": [],
      "stateMutability": "nonpayable",
      "type": "function"
    },
    {
      "inputs": [
        {
          "internalType": "address",
          "name": "to",
          "type": "address"
        },
        {
          "internalType": "uint256[]",
          "name": "ids",
          "type": "uint256[]"
        },
        {
          "internalType": "uint256[]",
          "name": "amounts",
          "type": "uint256[]"
        },
        {
          "internalType": "bytes",
          "name": "data",
          "type": "bytes"
        }
      ],
      "name": "mintBatch",
      "outputs": [],
      "stateMutability": "nonpayable",
      "type": "function"
    },
    {
      "inputs": [],
      "name": "owner",
      "outputs": [
        {
          "internalType": "address",
          "name": "",
          "type": "address"
        }
      ],
      "stateMutability": "view",
      "type": "function"
    },
    {
      "inputs": [],
      "name": "renounceOwnership",
      "outputs": [],
      "stateMutability": "nonpayable",
      "type": "function"
    },
    {
      "inputs": [
        {
          "internalType": "address",
          "name": "from",
          "type": "address"
        },
        {
          "internalType": "address",
          "name": "to",
          "type": "address"
        },
        {
          "internalType": "uint256[]",
          "name": "ids",
          "type": "uint256[]"
        },
        {
          "internalType": "uint256[]",
          "name": "amounts",
          "type": "uint256[]"
        },
        {
          "internalType": "bytes",
          "name": "data",
          "type": "bytes"
        }
      ],
      "name": "safeBatchTransferFrom",
      "outputs": [],
      "stateMutability": "nonpayable",
      "type": "function"
    },
    {
      "inputs": [
        {
          "internalType": "address",
          "name": "from",
          "type": "address"
        },
        {
          "internalType": "address",
          "name": "to",
          "type": "address"
        },
        {
          "internalType": "uint256",
          "name": "id",
          "type": "uint256"
        },
        {
          "internalType": "uint256",
          "name": "amount",
          "type": "uint256"
        },
        {
          "internalType": "bytes",
          "name": "data",
          "type": "bytes"
        }
      ],
      "name": "safeTransferFrom",
      "outputs": [],
      "stateMutability": "nonpayable",
      "type": "function"
    },
    {
      "inputs": [
        {
          "internalType": "address",
          "name": "operator",
          "type": "address"
        },
        {
          "internalType": "bool",
          "name": "approved",
          "type": "bool"
        }
      ],
      "name": "setApprovalForAll",
      "outputs": [],
      "stateMutability": "nonpayable",
      "type": "function"
    },
    {
      "inputs": [
        {
          "internalType": "bytes4",
          "name": "interfaceId",
          "type": "bytes4"
        }
      ],
      "name": "supportsInterface",
      "outputs": [
        {
          "internalType": "bool",
          "name": "",
          "type": "bool"
        }
      ],
      "stateMutability": "view",
      "type": "function"
    },
    {
      "inputs": [
        {
          "internalType": "uint256",
          "name": "",
          "type": "uint256"
        }
      ],
      "name": "tokenCheckingStates",
      "outputs": [
        {
          "internalType": "enum RecallToken.TokenCheckingState",
          "name": "",
          "type": "uint8"
        }
      ],
      "stateMutability": "view",
      "type": "function"
    },
    {
      "inputs": [
        {
          "internalType": "uint256",
          "name": "",
          "type": "uint256"
        }
      ],
      "name": "tokenStates",
      "outputs": [
        {
          "internalType": "enum RecallToken.TokenState",
          "name": "",
          "type": "uint8"
        }
      ],
      "stateMutability": "view",
      "type": "function"
    },
    {
      "inputs": [
        {
          "internalType": "address",
          "name": "newOwner",
          "type": "address"
        }
      ],
      "name": "transferOwnership",
      "outputs": [],
      "stateMutability": "nonpayable",
      "type": "function"
    },
    {
      "inputs": [
        {
          "internalType": "address",
          "name": "_receiver",
          "type": "address"
        },
        {
          "internalType": "uint256",
          "name": "_tokenId",
          "type": "uint256"
        },
        {
          "internalType": "uint256",
          "name": "amount",
          "type": "uint256"
        },
        {
          "internalType": "bytes",
          "name": "data",
          "type": "bytes"
        },
        {
          "internalType": "bool",
          "name": "_internal",
          "type": "bool"
        }
      ],
      "name": "transferRecallToken",
      "outputs": [],
      "stateMutability": "nonpayable",
      "type": "function"
    },
    {
      "inputs": [
        {
          "internalType": "uint256",
          "name": "",
          "type": "uint256"
        }
      ],
      "name": "uri",
      "outputs": [
        {
          "internalType": "string",
          "name": "",
          "type": "string"
        }
      ],
      "stateMutability": "view",
      "type": "function"
    }
  ],
  "bytecode": "0x60806040523480156200001157600080fd5b50604051620043ce380380620043ce8339818101604052810190620000379190620002e7565b8062000049816200007160201b60201c565b506200006a6200005e6200008660201b60201c565b6200008e60201b60201c565b506200066a565b806002908162000082919062000583565b5050565b600033905090565b6000600360009054906101000a900473ffffffffffffffffffffffffffffffffffffffff16905081600360006101000a81548173ffffffffffffffffffffffffffffffffffffffff021916908373ffffffffffffffffffffffffffffffffffffffff1602179055508173ffffffffffffffffffffffffffffffffffffffff168173ffffffffffffffffffffffffffffffffffffffff167f8be0079c531659141344cd1fd0a4f28419497f9722a3daafe3b4186f6b6457e060405160405180910390a35050565b6000604051905090565b600080fd5b600080fd5b600080fd5b600080fd5b6000601f19601f8301169050919050565b7f4e487b7100000000000000000000000000000000000000000000000000000000600052604160045260246000fd5b620001bd8262000172565b810181811067ffffffffffffffff82111715620001df57620001de62000183565b5b80604052505050565b6000620001f462000154565b9050620002028282620001b2565b919050565b600067ffffffffffffffff82111562000225576200022462000183565b5b620002308262000172565b9050602081019050919050565b60005b838110156200025d57808201518184015260208101905062000240565b60008484015250505050565b6000620002806200027a8462000207565b620001e8565b9050828152602081018484840111156200029f576200029e6200016d565b5b620002ac8482856200023d565b509392505050565b600082601f830112620002cc57620002cb62000168565b5b8151620002de84826020860162000269565b91505092915050565b6000602082840312156200030057620002ff6200015e565b5b600082015167ffffffffffffffff81111562000321576200032062000163565b5b6200032f84828501620002b4565b91505092915050565b600081519050919050565b7f4e487b7100000000000000000000000000000000000000000000000000000000600052602260045260246000fd5b600060028204905060018216806200038b57607f821691505b602082108103620003a157620003a062000343565b5b50919050565b60008190508160005260206000209050919050565b60006020601f8301049050919050565b600082821b905092915050565b6000600883026200040b7fffffffffffffffffffffffffffffffffffffffffffffffffffffffffffffffff82620003cc565b620004178683620003cc565b95508019841693508086168417925050509392505050565b6000819050919050565b6000819050919050565b6000620004646200045e62000458846200042f565b62000439565b6200042f565b9050919050565b6000819050919050565b620004808362000443565b620004986200048f826200046b565b848454620003d9565b825550505050565b600090565b620004af620004a0565b620004bc81848462000475565b505050565b5b81811015620004e457620004d8600082620004a5565b600181019050620004c2565b5050565b601f8211156200053357620004fd81620003a7565b6200050884620003bc565b8101602085101562000518578190505b620005306200052785620003bc565b830182620004c1565b50505b505050565b600082821c905092915050565b6000620005586000198460080262000538565b1980831691505092915050565b600062000573838362000545565b9150826002028217905092915050565b6200058e8262000338565b67ffffffffffffffff811115620005aa57620005a962000183565b5b620005b6825462000372565b620005c3828285620004e8565b600060209050601f831160018114620005fb5760008415620005e6578287015190505b620005f2858262000565565b86555062000662565b601f1984166200060b86620003a7565b60005b8281101562000635578489015182556001820191506020850194506020810190506200060e565b8683101562000655578489015162000651601f89168262000545565b8355505b6001600288020188555050505b505050505050565b613d54806200067a6000396000f3fe608060405234801561001057600080fd5b50600436106101365760003560e01c8063731133e9116100b8578063aa9f3eca1161007c578063aa9f3eca14610347578063ab58874814610377578063e985e9c514610393578063f242432a146103c3578063f2fde38b146103df578063f3498223146103fb57610136565b8063731133e9146102a55780638da5cb5b146102c157806395dbe2db146102df578063a22cb4651461030f578063a76fe7191461032b57610136565b80632eb2c2d6116100ff5780632eb2c2d614610217578063432f4113146102335780634e1273f41461024f57806369c7ca521461027f578063715018a61461029b57610136565b8062fdd58e1461013b57806301ffc9a71461016b5780630e89341c1461019b5780631ae82590146101cb5780631f7fdffa146101fb575b600080fd5b6101556004803603810190610150919061248c565b610417565b60405161016291906124db565b60405180910390f35b6101856004803603810190610180919061254e565b6104df565b6040516101929190612596565b60405180910390f35b6101b560048036038101906101b091906125b1565b6105c1565b6040516101c2919061266e565b60405180910390f35b6101e560048036038101906101e091906125b1565b610655565b6040516101f29190612707565b60405180910390f35b6102156004803603810190610210919061291f565b610675565b005b610231600480360381019061022c91906129da565b61068f565b005b61024d600480360381019061024891906125b1565b610730565b005b61026960048036038101906102649190612b6c565b610988565b6040516102769190612ca2565b60405180910390f35b61029960048036038101906102949190612d4b565b610aa1565b005b6102a3610c97565b005b6102bf60048036038101906102ba9190612e23565b610cab565b005b6102c9610cc5565b6040516102d69190612eb5565b60405180910390f35b6102f960048036038101906102f491906125b1565b610cef565b6040516103069190612596565b60405180910390f35b61032960048036038101906103249190612ed0565b610d0f565b005b61034560048036038101906103409190612f35565b610d25565b005b610361600480360381019061035c91906125b1565b610f27565b60405161036e9190612fbd565b60405180910390f35b610391600480360381019061038c9190612fd8565b610f47565b005b6103ad60048036038101906103a89190613025565b611012565b6040516103ba9190612596565b60405180910390f35b6103dd60048036038101906103d89190613065565b6110a6565b005b6103f960048036038101906103f491906130fc565b611147565b005b61041560048036038101906104109190613129565b6111ca565b005b60008073ffffffffffffffffffffffffffffffffffffffff168373ffffffffffffffffffffffffffffffffffffffff1603610487576040517f08c379a000000000000000000000000000000000000000000000000000000000815260040161047e90613232565b60405180910390fd5b60008083815260200190815260200160002060008473ffffffffffffffffffffffffffffffffffffffff1673ffffffffffffffffffffffffffffffffffffffff16815260200190815260200160002054905092915050565b60007fd9b67a26000000000000000000000000000000000000000000000000000000007bffffffffffffffffffffffffffffffffffffffffffffffffffffffff1916827bffffffffffffffffffffffffffffffffffffffffffffffffffffffff191614806105aa57507f0e89341c000000000000000000000000000000000000000000000000000000007bffffffffffffffffffffffffffffffffffffffffffffffffffffffff1916827bffffffffffffffffffffffffffffffffffffffffffffffffffffffff1916145b806105ba57506105b9826112cf565b5b9050919050565b6060600280546105d090613281565b80601f01602080910402602001604051908101604052809291908181526020018280546105fc90613281565b80156106495780601f1061061e57610100808354040283529160200191610649565b820191906000526020600020905b81548152906001019060200180831161062c57829003601f168201915b50505050509050919050565b60066020528060005260406000206000915054906101000a900460ff1681565b61067d611339565b610689848484846113b7565b50505050565b6106976115e3565b73ffffffffffffffffffffffffffffffffffffffff168573ffffffffffffffffffffffffffffffffffffffff1614806106dd57506106dc856106d76115e3565b611012565b5b61071c576040517f08c379a000000000000000000000000000000000000000000000000000000000815260040161071390613324565b60405180910390fd5b61072985858585856115eb565b5050505050565b3373ffffffffffffffffffffffffffffffffffffffff167f8610b7b5acdeec4d9229259544302ae0e252928822763a75adb58b66ba1f2d888260405161077691906124db565b60405180910390a260008060005b60048054905081101561082157600481815481106107a5576107a4613344565b5b9060005260206000200160009054906101000a900473ffffffffffffffffffffffffffffffffffffffff1673ffffffffffffffffffffffffffffffffffffffff163373ffffffffffffffffffffffffffffffffffffffff160361080e5760019250809150610821565b8080610819906133a2565b915050610784565b50811561086b5760026007600085815260200190815260200160002060006101000a81548160ff0219169083600281111561085f5761085e612690565b5b02179055505050610985565b60016007600085815260200190815260200160002060006101000a81548160ff021916908360028111156108a2576108a1612690565b5b021790555060005b60048054905081101561098157600160056000600484815481106108d1576108d0613344565b5b9060005260206000200160009054906101000a900473ffffffffffffffffffffffffffffffffffffffff1673ffffffffffffffffffffffffffffffffffffffff1673ffffffffffffffffffffffffffffffffffffffff168152602001908152602001600020600086815260200190815260200160002060006101000a81548160ff0219169083600381111561096957610968612690565b5b02179055508080610979906133a2565b9150506108aa565b5050505b50565b606081518351146109ce576040517f08c379a00000000000000000000000000000000000000000000000000000000081526004016109c59061345c565b60405180910390fd5b6000835167ffffffffffffffff8111156109eb576109ea612727565b5b604051908082528060200260200182016040528015610a195781602001602082028036833780820191505090505b50905060005b8451811015610a9657610a66858281518110610a3e57610a3d613344565b5b6020026020010151858381518110610a5957610a58613344565b5b6020026020010151610417565b828281518110610a7957610a78613344565b5b60200260200101818152505080610a8f906133a2565b9050610a1f565b508091505092915050565b60005b86869050811015610bfe5760086000888884818110610ac657610ac5613344565b5b90506020020135815260200190815260200160002060009054906101000a900460ff168015610af25750815b15610b5b576004889080600181540180825580915050600190039060005260206000200160009091909190916101000a81548173ffffffffffffffffffffffffffffffffffffffff021916908373ffffffffffffffffffffffffffffffffffffffff1602179055505b81158015610ba0575060086000888884818110610b7b57610b7a613344565b5b90506020020135815260200190815260200160002060009054906101000a900460ff16155b15610beb57600060086000898985818110610bbe57610bbd613344565b5b90506020020135815260200190815260200160002060006101000a81548160ff0219169083151502179055505b8080610bf6906133a2565b915050610aa4565b50610c8e3388888880806020026020016040519081016040528093929190818152602001838360200280828437600081840152601f19601f82011690508083019250505050505050878780806020026020016040519081016040528093929190818152602001838360200280828437600081840152601f19601f820116905080830192505050505050508661068f565b50505050505050565b610c9f611339565b610ca9600061190c565b565b610cb3611339565b610cbf848484846119d2565b50505050565b6000600360009054906101000a900473ffffffffffffffffffffffffffffffffffffffff16905090565b60086020528060005260406000206000915054906101000a900460ff1681565b610d21610d1a6115e3565b8383611b82565b5050565b6000805b600480549050811015610dc35760048181548110610d4a57610d49613344565b5b9060005260206000200160009054906101000a900473ffffffffffffffffffffffffffffffffffffffff1673ffffffffffffffffffffffffffffffffffffffff163373ffffffffffffffffffffffffffffffffffffffff1603610db05760019150610dc3565b8080610dbb906133a2565b915050610d29565b506001151581151514610e0b576040517f08c379a0000000000000000000000000000000000000000000000000000000008152600401610e02906134c8565b60405180910390fd5b6000805b600480549050811015610ea85760048181548110610e3057610e2f613344565b5b9060005260206000200160009054906101000a900473ffffffffffffffffffffffffffffffffffffffff1673ffffffffffffffffffffffffffffffffffffffff163373ffffffffffffffffffffffffffffffffffffffff1603610e9557809150610ea8565b8080610ea0906133a2565b915050610e0f565b5082600560003373ffffffffffffffffffffffffffffffffffffffff1673ffffffffffffffffffffffffffffffffffffffff168152602001908152602001600020600086815260200190815260200160002060006101000a81548160ff02191690836003811115610f1c57610f1b612690565b5b021790555050505050565b60076020528060005260406000206000915054906101000a900460ff1681565b3373ffffffffffffffffffffffffffffffffffffffff167f3d3735b6b82dc6dbc33760218a1dc3a6cf77780e1774c8cd7d74dec8da518aa08383604051610f8f929190613552565b60405180910390a260005b8282905081101561100d57600260076000858585818110610fbe57610fbd613344565b5b90506020020135815260200190815260200160002060006101000a81548160ff02191690836002811115610ff557610ff4612690565b5b02179055508080611005906133a2565b915050610f9a565b505050565b6000600160008473ffffffffffffffffffffffffffffffffffffffff1673ffffffffffffffffffffffffffffffffffffffff16815260200190815260200160002060008373ffffffffffffffffffffffffffffffffffffffff1673ffffffffffffffffffffffffffffffffffffffff16815260200190815260200160002060009054906101000a900460ff16905092915050565b6110ae6115e3565b73ffffffffffffffffffffffffffffffffffffffff168573ffffffffffffffffffffffffffffffffffffffff1614806110f457506110f3856110ee6115e3565b611012565b5b611133576040517f08c379a000000000000000000000000000000000000000000000000000000000815260040161112a90613324565b60405180910390fd5b6111408585858585611cee565b5050505050565b61114f611339565b600073ffffffffffffffffffffffffffffffffffffffff168173ffffffffffffffffffffffffffffffffffffffff16036111be576040517f08c379a00000000000000000000000000000000000000000000000000000000081526004016111b5906135e8565b60405180910390fd5b6111c78161190c565b50565b6008600085815260200190815260200160002060009054906101000a900460ff1680156111f45750805b1561125d576004859080600181540180825580915050600190039060005260206000200160009091909190916101000a81548173ffffffffffffffffffffffffffffffffffffffff021916908373ffffffffffffffffffffffffffffffffffffffff1602179055505b8015801561128957506008600085815260200190815260200160002060009054906101000a900460ff16155b156112bb5760006008600086815260200190815260200160002060006101000a81548160ff0219169083151502179055505b6112c833868686866110a6565b5050505050565b60007f01ffc9a7000000000000000000000000000000000000000000000000000000007bffffffffffffffffffffffffffffffffffffffffffffffffffffffff1916827bffffffffffffffffffffffffffffffffffffffffffffffffffffffff1916149050919050565b6113416115e3565b73ffffffffffffffffffffffffffffffffffffffff1661135f610cc5565b73ffffffffffffffffffffffffffffffffffffffff16146113b5576040517f08c379a00000000000000000000000000000000000000000000000000000000081526004016113ac90613654565b60405180910390fd5b565b600073ffffffffffffffffffffffffffffffffffffffff168473ffffffffffffffffffffffffffffffffffffffff1603611426576040517f08c379a000000000000000000000000000000000000000000000000000000000815260040161141d906136e6565b60405180910390fd5b815183511461146a576040517f08c379a000000000000000000000000000000000000000000000000000000000815260040161146190613778565b60405180910390fd5b60006114746115e3565b905061148581600087878787611f89565b60005b845181101561153e578381815181106114a4576114a3613344565b5b60200260200101516000808784815181106114c2576114c1613344565b5b6020026020010151815260200190815260200160002060008873ffffffffffffffffffffffffffffffffffffffff1673ffffffffffffffffffffffffffffffffffffffff16815260200190815260200160002060008282546115249190613798565b925050819055508080611536906133a2565b915050611488565b508473ffffffffffffffffffffffffffffffffffffffff16600073ffffffffffffffffffffffffffffffffffffffff168273ffffffffffffffffffffffffffffffffffffffff167f4a39dc06d4c0dbc64b70af90fd698a233a518aa5d07e595d983b8c0526c8f7fb87876040516115b69291906137cc565b60405180910390a46115cd81600087878787611f91565b6115dc81600087878787611f99565b5050505050565b600033905090565b815183511461162f576040517f08c379a000000000000000000000000000000000000000000000000000000000815260040161162690613778565b60405180910390fd5b600073ffffffffffffffffffffffffffffffffffffffff168473ffffffffffffffffffffffffffffffffffffffff160361169e576040517f08c379a000000000000000000000000000000000000000000000000000000000815260040161169590613875565b60405180910390fd5b60006116a86115e3565b90506116b8818787878787611f89565b60005b84518110156118695760008582815181106116d9576116d8613344565b5b6020026020010151905060008583815181106116f8576116f7613344565b5b60200260200101519050600080600084815260200190815260200160002060008b73ffffffffffffffffffffffffffffffffffffffff1673ffffffffffffffffffffffffffffffffffffffff16815260200190815260200160002054905081811015611799576040517f08c379a000000000000000000000000000000000000000000000000000000000815260040161179090613907565b60405180910390fd5b81810360008085815260200190815260200160002060008c73ffffffffffffffffffffffffffffffffffffffff1673ffffffffffffffffffffffffffffffffffffffff168152602001908152602001600020819055508160008085815260200190815260200160002060008b73ffffffffffffffffffffffffffffffffffffffff1673ffffffffffffffffffffffffffffffffffffffff168152602001908152602001600020600082825461184e9190613798565b9250508190555050505080611862906133a2565b90506116bb565b508473ffffffffffffffffffffffffffffffffffffffff168673ffffffffffffffffffffffffffffffffffffffff168273ffffffffffffffffffffffffffffffffffffffff167f4a39dc06d4c0dbc64b70af90fd698a233a518aa5d07e595d983b8c0526c8f7fb87876040516118e09291906137cc565b60405180910390a46118f6818787878787611f91565b611904818787878787611f99565b505050505050565b6000600360009054906101000a900473ffffffffffffffffffffffffffffffffffffffff16905081600360006101000a81548173ffffffffffffffffffffffffffffffffffffffff021916908373ffffffffffffffffffffffffffffffffffffffff1602179055508173ffffffffffffffffffffffffffffffffffffffff168173ffffffffffffffffffffffffffffffffffffffff167f8be0079c531659141344cd1fd0a4f28419497f9722a3daafe3b4186f6b6457e060405160405180910390a35050565b600073ffffffffffffffffffffffffffffffffffffffff168473ffffffffffffffffffffffffffffffffffffffff1603611a41576040517f08c379a0000000000000000000000000000000000000000000000000000000008152600401611a38906136e6565b60405180910390fd5b6000611a4b6115e3565b90506000611a5885612170565b90506000611a6585612170565b9050611a7683600089858589611f89565b8460008088815260200190815260200160002060008973ffffffffffffffffffffffffffffffffffffffff1673ffffffffffffffffffffffffffffffffffffffff1681526020019081526020016000206000828254611ad59190613798565b925050819055508673ffffffffffffffffffffffffffffffffffffffff16600073ffffffffffffffffffffffffffffffffffffffff168473ffffffffffffffffffffffffffffffffffffffff167fc3d58168c5ae7397731d063d5bbf3d657854427343f4c083240f7aacaa2d0f628989604051611b53929190613927565b60405180910390a4611b6a83600089858589611f91565b611b79836000898989896121ea565b50505050505050565b8173ffffffffffffffffffffffffffffffffffffffff168373ffffffffffffffffffffffffffffffffffffffff1603611bf0576040517f08c379a0000000000000000000000000000000000000000000000000000000008152600401611be7906139c2565b60405180910390fd5b80600160008573ffffffffffffffffffffffffffffffffffffffff1673ffffffffffffffffffffffffffffffffffffffff16815260200190815260200160002060008473ffffffffffffffffffffffffffffffffffffffff1673ffffffffffffffffffffffffffffffffffffffff16815260200190815260200160002060006101000a81548160ff0219169083151502179055508173ffffffffffffffffffffffffffffffffffffffff168373ffffffffffffffffffffffffffffffffffffffff167f17307eab39ab6107e8899845ad3d59bd9653f200f220920489ca2b5937696c3183604051611ce19190612596565b60405180910390a3505050565b600073ffffffffffffffffffffffffffffffffffffffff168473ffffffffffffffffffffffffffffffffffffffff1603611d5d576040517f08c379a0000000000000000000000000000000000000000000000000000000008152600401611d5490613875565b60405180910390fd5b6000611d676115e3565b90506000611d7485612170565b90506000611d8185612170565b9050611d91838989858589611f89565b600080600088815260200190815260200160002060008a73ffffffffffffffffffffffffffffffffffffffff1673ffffffffffffffffffffffffffffffffffffffff16815260200190815260200160002054905085811015611e28576040517f08c379a0000000000000000000000000000000000000000000000000000000008152600401611e1f90613907565b60405180910390fd5b85810360008089815260200190815260200160002060008b73ffffffffffffffffffffffffffffffffffffffff1673ffffffffffffffffffffffffffffffffffffffff168152602001908152602001600020819055508560008089815260200190815260200160002060008a73ffffffffffffffffffffffffffffffffffffffff1673ffffffffffffffffffffffffffffffffffffffff1681526020019081526020016000206000828254611edd9190613798565b925050819055508773ffffffffffffffffffffffffffffffffffffffff168973ffffffffffffffffffffffffffffffffffffffff168573ffffffffffffffffffffffffffffffffffffffff167fc3d58168c5ae7397731d063d5bbf3d657854427343f4c083240f7aacaa2d0f628a8a604051611f5a929190613927565b60405180910390a4611f70848a8a86868a611f91565b611f7e848a8a8a8a8a6121ea565b505050505050505050565b505050505050565b505050505050565b611fb88473ffffffffffffffffffffffffffffffffffffffff166123c1565b15612168578373ffffffffffffffffffffffffffffffffffffffff1663bc197c8187878686866040518663ffffffff1660e01b8152600401611ffe959493929190613a37565b6020604051808303816000875af192505050801561203a57506040513d601f19601f820116820180604052508101906120379190613ab4565b60015b6120df57612046613aee565b806308c379a0036120a2575061205a613b10565b8061206557506120a4565b806040517f08c379a0000000000000000000000000000000000000000000000000000000008152600401612099919061266e565b60405180910390fd5b505b6040517f08c379a00000000000000000000000000000000000000000000000000000000081526004016120d690613c12565b60405180910390fd5b63bc197c8160e01b7bffffffffffffffffffffffffffffffffffffffffffffffffffffffff1916817bffffffffffffffffffffffffffffffffffffffffffffffffffffffff191614612166576040517f08c379a000000000000000000000000000000000000000000000000000000000815260040161215d90613ca4565b60405180910390fd5b505b505050505050565b60606000600167ffffffffffffffff81111561218f5761218e612727565b5b6040519080825280602002602001820160405280156121bd5781602001602082028036833780820191505090505b50905082816000815181106121d5576121d4613344565b5b60200260200101818152505080915050919050565b6122098473ffffffffffffffffffffffffffffffffffffffff166123c1565b156123b9578373ffffffffffffffffffffffffffffffffffffffff1663f23a6e6187878686866040518663ffffffff1660e01b815260040161224f959493929190613cc4565b6020604051808303816000875af192505050801561228b57506040513d601f19601f820116820180604052508101906122889190613ab4565b60015b61233057612297613aee565b806308c379a0036122f357506122ab613b10565b806122b657506122f5565b806040517f08c379a00000000000000000000000000000000000000000000000000000000081526004016122ea919061266e565b60405180910390fd5b505b6040517f08c379a000000000000000000000000000000000000000000000000000000000815260040161232790613c12565b60405180910390fd5b63f23a6e6160e01b7bffffffffffffffffffffffffffffffffffffffffffffffffffffffff1916817bffffffffffffffffffffffffffffffffffffffffffffffffffffffff1916146123b7576040517f08c379a00000000000000000000000000000000000000000000000000000000081526004016123ae90613ca4565b60405180910390fd5b505b505050505050565b6000808273ffffffffffffffffffffffffffffffffffffffff163b119050919050565b6000604051905090565b600080fd5b600080fd5b600073ffffffffffffffffffffffffffffffffffffffff82169050919050565b6000612423826123f8565b9050919050565b61243381612418565b811461243e57600080fd5b50565b6000813590506124508161242a565b92915050565b6000819050919050565b61246981612456565b811461247457600080fd5b50565b60008135905061248681612460565b92915050565b600080604083850312156124a3576124a26123ee565b5b60006124b185828601612441565b92505060206124c285828601612477565b9150509250929050565b6124d581612456565b82525050565b60006020820190506124f060008301846124cc565b92915050565b60007fffffffff0000000000000000000000000000000000000000000000000000000082169050919050565b61252b816124f6565b811461253657600080fd5b50565b60008135905061254881612522565b92915050565b600060208284031215612564576125636123ee565b5b600061257284828501612539565b91505092915050565b60008115159050919050565b6125908161257b565b82525050565b60006020820190506125ab6000830184612587565b92915050565b6000602082840312156125c7576125c66123ee565b5b60006125d584828501612477565b91505092915050565b600081519050919050565b600082825260208201905092915050565b60005b838110156126185780820151818401526020810190506125fd565b60008484015250505050565b6000601f19601f8301169050919050565b6000612640826125de565b61264a81856125e9565b935061265a8185602086016125fa565b61266381612624565b840191505092915050565b600060208201905081810360008301526126888184612635565b905092915050565b7f4e487b7100000000000000000000000000000000000000000000000000000000600052602160045260246000fd5b600481106126d0576126cf612690565b5b50565b60008190506126e1826126bf565b919050565b60006126f1826126d3565b9050919050565b612701816126e6565b82525050565b600060208201905061271c60008301846126f8565b92915050565b600080fd5b7f4e487b7100000000000000000000000000000000000000000000000000000000600052604160045260246000fd5b61275f82612624565b810181811067ffffffffffffffff8211171561277e5761277d612727565b5b80604052505050565b60006127916123e4565b905061279d8282612756565b919050565b600067ffffffffffffffff8211156127bd576127bc612727565b5b602082029050602081019050919050565b600080fd5b60006127e66127e1846127a2565b612787565b90508083825260208201905060208402830185811115612809576128086127ce565b5b835b81811015612832578061281e8882612477565b84526020840193505060208101905061280b565b5050509392505050565b600082601f83011261285157612850612722565b5b81356128618482602086016127d3565b91505092915050565b600080fd5b600067ffffffffffffffff82111561288a57612889612727565b5b61289382612624565b9050602081019050919050565b82818337600083830152505050565b60006128c26128bd8461286f565b612787565b9050828152602081018484840111156128de576128dd61286a565b5b6128e98482856128a0565b509392505050565b600082601f83011261290657612905612722565b5b81356129168482602086016128af565b91505092915050565b60008060008060808587031215612939576129386123ee565b5b600061294787828801612441565b945050602085013567ffffffffffffffff811115612968576129676123f3565b5b6129748782880161283c565b935050604085013567ffffffffffffffff811115612995576129946123f3565b5b6129a18782880161283c565b925050606085013567ffffffffffffffff8111156129c2576129c16123f3565b5b6129ce878288016128f1565b91505092959194509250565b600080600080600060a086880312156129f6576129f56123ee565b5b6000612a0488828901612441565b9550506020612a1588828901612441565b945050604086013567ffffffffffffffff811115612a3657612a356123f3565b5b612a428882890161283c565b935050606086013567ffffffffffffffff811115612a6357612a626123f3565b5b612a6f8882890161283c565b925050608086013567ffffffffffffffff811115612a9057612a8f6123f3565b5b612a9c888289016128f1565b9150509295509295909350565b600067ffffffffffffffff821115612ac457612ac3612727565b5b602082029050602081019050919050565b6000612ae8612ae384612aa9565b612787565b90508083825260208201905060208402830185811115612b0b57612b0a6127ce565b5b835b81811015612b345780612b208882612441565b845260208401935050602081019050612b0d565b5050509392505050565b600082601f830112612b5357612b52612722565b5b8135612b63848260208601612ad5565b91505092915050565b60008060408385031215612b8357612b826123ee565b5b600083013567ffffffffffffffff811115612ba157612ba06123f3565b5b612bad85828601612b3e565b925050602083013567ffffffffffffffff811115612bce57612bcd6123f3565b5b612bda8582860161283c565b9150509250929050565b600081519050919050565b600082825260208201905092915050565b6000819050602082019050919050565b612c1981612456565b82525050565b6000612c2b8383612c10565b60208301905092915050565b6000602082019050919050565b6000612c4f82612be4565b612c598185612bef565b9350612c6483612c00565b8060005b83811015612c95578151612c7c8882612c1f565b9750612c8783612c37565b925050600181019050612c68565b5085935050505092915050565b60006020820190508181036000830152612cbc8184612c44565b905092915050565b600080fd5b60008083601f840112612cdf57612cde612722565b5b8235905067ffffffffffffffff811115612cfc57612cfb612cc4565b5b602083019150836020820283011115612d1857612d176127ce565b5b9250929050565b612d288161257b565b8114612d3357600080fd5b50565b600081359050612d4581612d1f565b92915050565b600080600080600080600060a0888a031215612d6a57612d696123ee565b5b6000612d788a828b01612441565b975050602088013567ffffffffffffffff811115612d9957612d986123f3565b5b612da58a828b01612cc9565b9650965050604088013567ffffffffffffffff811115612dc857612dc76123f3565b5b612dd48a828b01612cc9565b9450945050606088013567ffffffffffffffff811115612df757612df66123f3565b5b612e038a828b016128f1565b9250506080612e148a828b01612d36565b91505092959891949750929550565b60008060008060808587031215612e3d57612e3c6123ee565b5b6000612e4b87828801612441565b9450506020612e5c87828801612477565b9350506040612e6d87828801612477565b925050606085013567ffffffffffffffff811115612e8e57612e8d6123f3565b5b612e9a878288016128f1565b91505092959194509250565b612eaf81612418565b82525050565b6000602082019050612eca6000830184612ea6565b92915050565b60008060408385031215612ee757612ee66123ee565b5b6000612ef585828601612441565b9250506020612f0685828601612d36565b9150509250929050565b60048110612f1d57600080fd5b50565b600081359050612f2f81612f10565b92915050565b60008060408385031215612f4c57612f4b6123ee565b5b6000612f5a85828601612477565b9250506020612f6b85828601612f20565b9150509250929050565b60038110612f8657612f85612690565b5b50565b6000819050612f9782612f75565b919050565b6000612fa782612f89565b9050919050565b612fb781612f9c565b82525050565b6000602082019050612fd26000830184612fae565b92915050565b60008060208385031215612fef57612fee6123ee565b5b600083013567ffffffffffffffff81111561300d5761300c6123f3565b5b61301985828601612cc9565b92509250509250929050565b6000806040838503121561303c5761303b6123ee565b5b600061304a85828601612441565b925050602061305b85828601612441565b9150509250929050565b600080600080600060a08688031215613081576130806123ee565b5b600061308f88828901612441565b95505060206130a088828901612441565b94505060406130b188828901612477565b93505060606130c288828901612477565b925050608086013567ffffffffffffffff8111156130e3576130e26123f3565b5b6130ef888289016128f1565b9150509295509295909350565b600060208284031215613112576131116123ee565b5b600061312084828501612441565b91505092915050565b600080600080600060a08688031215613145576131446123ee565b5b600061315388828901612441565b955050602061316488828901612477565b945050604061317588828901612477565b935050606086013567ffffffffffffffff811115613196576131956123f3565b5b6131a2888289016128f1565b92505060806131b388828901612d36565b9150509295509295909350565b7f455243313135353a2061646472657373207a65726f206973206e6f742061207660008201527f616c6964206f776e657200000000000000000000000000000000000000000000602082015250565b600061321c602a836125e9565b9150613227826131c0565b604082019050919050565b6000602082019050818103600083015261324b8161320f565b9050919050565b7f4e487b7100000000000000000000000000000000000000000000000000000000600052602260045260246000fd5b6000600282049050600182168061329957607f821691505b6020821081036132ac576132ab613252565b5b50919050565b7f455243313135353a2063616c6c6572206973206e6f7420746f6b656e206f776e60008201527f6572206f7220617070726f766564000000000000000000000000000000000000602082015250565b600061330e602e836125e9565b9150613319826132b2565b604082019050919050565b6000602082019050818103600083015261333d81613301565b9050919050565b7f4e487b7100000000000000000000000000000000000000000000000000000000600052603260045260246000fd5b7f4e487b7100000000000000000000000000000000000000000000000000000000600052601160045260246000fd5b60006133ad82612456565b91507fffffffffffffffffffffffffffffffffffffffffffffffffffffffffffffffff82036133df576133de613373565b5b600182019050919050565b7f455243313135353a206163636f756e747320616e6420696473206c656e67746860008201527f206d69736d617463680000000000000000000000000000000000000000000000602082015250565b60006134466029836125e9565b9150613451826133ea565b604082019050919050565b6000602082019050818103600083015261347581613439565b9050919050565b7f4d757374206265204d616e756661637475726572000000000000000000000000600082015250565b60006134b26014836125e9565b91506134bd8261347c565b602082019050919050565b600060208201905081810360008301526134e1816134a5565b9050919050565b600080fd5b82818337505050565b60006135028385612bef565b93507f07ffffffffffffffffffffffffffffffffffffffffffffffffffffffffffffff831115613535576135346134e8565b5b6020830292506135468385846134ed565b82840190509392505050565b6000602082019050818103600083015261356d8184866134f6565b90509392505050565b7f4f776e61626c653a206e6577206f776e657220697320746865207a65726f206160008201527f6464726573730000000000000000000000000000000000000000000000000000602082015250565b60006135d26026836125e9565b91506135dd82613576565b604082019050919050565b60006020820190508181036000830152613601816135c5565b9050919050565b7f4f776e61626c653a2063616c6c6572206973206e6f7420746865206f776e6572600082015250565b600061363e6020836125e9565b915061364982613608565b602082019050919050565b6000602082019050818103600083015261366d81613631565b9050919050565b7f455243313135353a206d696e7420746f20746865207a65726f2061646472657360008201527f7300000000000000000000000000000000000000000000000000000000000000602082015250565b60006136d06021836125e9565b91506136db82613674565b604082019050919050565b600060208201905081810360008301526136ff816136c3565b9050919050565b7f455243313135353a2069647320616e6420616d6f756e7473206c656e6774682060008201527f6d69736d61746368000000000000000000000000000000000000000000000000602082015250565b60006137626028836125e9565b915061376d82613706565b604082019050919050565b6000602082019050818103600083015261379181613755565b9050919050565b60006137a382612456565b91506137ae83612456565b92508282019050808211156137c6576137c5613373565b5b92915050565b600060408201905081810360008301526137e68185612c44565b905081810360208301526137fa8184612c44565b90509392505050565b7f455243313135353a207472616e7366657220746f20746865207a65726f20616460008201527f6472657373000000000000000000000000000000000000000000000000000000602082015250565b600061385f6025836125e9565b915061386a82613803565b604082019050919050565b6000602082019050818103600083015261388e81613852565b9050919050565b7f455243313135353a20696e73756666696369656e742062616c616e636520666f60008201527f72207472616e7366657200000000000000000000000000000000000000000000602082015250565b60006138f1602a836125e9565b91506138fc82613895565b604082019050919050565b60006020820190508181036000830152613920816138e4565b9050919050565b600060408201905061393c60008301856124cc565b61394960208301846124cc565b9392505050565b7f455243313135353a2073657474696e6720617070726f76616c2073746174757360008201527f20666f722073656c660000000000000000000000000000000000000000000000602082015250565b60006139ac6029836125e9565b91506139b782613950565b604082019050919050565b600060208201905081810360008301526139db8161399f565b9050919050565b600081519050919050565b600082825260208201905092915050565b6000613a09826139e2565b613a1381856139ed565b9350613a238185602086016125fa565b613a2c81612624565b840191505092915050565b600060a082019050613a4c6000830188612ea6565b613a596020830187612ea6565b8181036040830152613a6b8186612c44565b90508181036060830152613a7f8185612c44565b90508181036080830152613a9381846139fe565b90509695505050505050565b600081519050613aae81612522565b92915050565b600060208284031215613aca57613ac96123ee565b5b6000613ad884828501613a9f565b91505092915050565b60008160e01c9050919050565b600060033d1115613b0d5760046000803e613b0a600051613ae1565b90505b90565b600060443d10613b9d57613b226123e4565b60043d036004823e80513d602482011167ffffffffffffffff82111715613b4a575050613b9d565b808201805167ffffffffffffffff811115613b685750505050613b9d565b80602083010160043d038501811115613b85575050505050613b9d565b613b9482602001850186612756565b82955050505050505b90565b7f455243313135353a207472616e7366657220746f206e6f6e2d4552433131353560008201527f526563656976657220696d706c656d656e746572000000000000000000000000602082015250565b6000613bfc6034836125e9565b9150613c0782613ba0565b604082019050919050565b60006020820190508181036000830152613c2b81613bef565b9050919050565b7f455243313135353a204552433131353552656365697665722072656a6563746560008201527f6420746f6b656e73000000000000000000000000000000000000000000000000602082015250565b6000613c8e6028836125e9565b9150613c9982613c32565b604082019050919050565b60006020820190508181036000830152613cbd81613c81565b9050919050565b600060a082019050613cd96000830188612ea6565b613ce66020830187612ea6565b613cf360408301866124cc565b613d0060608301856124cc565b8181036080830152613d1281846139fe565b9050969550505050505056fea2646970667358221220d9c5542fe99ae32694b429c235008bd4632fc7975ee91df1a601aa2e4d25d0de64736f6c63430008120033",
  "linkReferences": {},
  "deployedLinkReferences": {}
}