{
  "_format": "hh-sol-artifact-1",
  "contractName": "RecallToken",
  "sourceName": "contracts/RecallToken.sol",
  "abi": [
    {
      "inputs": [
        {
          "internalType": "string",
          "name": "uri",
          "type": "string"
        }
      ],
      "stateMutability": "nonpayable",
      "type": "constructor"
    },
    {
      "anonymous": false,
      "inputs": [
        {
          "indexed": true,
          "internalType": "address",
          "name": "account",
          "type": "address"
        },
        {
          "indexed": true,
          "internalType": "address",
          "name": "operator",
          "type": "address"
        },
        {
          "indexed": false,
          "internalType": "bool",
          "name": "approved",
          "type": "bool"
        }
      ],
      "name": "ApprovalForAll",
      "type": "event"
    },
    {
      "anonymous": false,
      "inputs": [
        {
          "indexed": true,
          "internalType": "address",
          "name": "_announcer",
          "type": "address"
        },
        {
          "indexed": false,
          "internalType": "uint256",
          "name": "_tokenId",
          "type": "uint256"
        }
      ],
      "name": "DefectAnnounced",
      "type": "event"
    },
    {
      "anonymous": false,
      "inputs": [
        {
          "indexed": true,
          "internalType": "address",
          "name": "_announcer",
          "type": "address"
        },
        {
          "indexed": false,
          "internalType": "uint256[]",
          "name": "_tokenIds",
          "type": "uint256[]"
        }
      ],
      "name": "ForwardRecall",
      "type": "event"
    },
    {
      "anonymous": false,
      "inputs": [
        {
          "indexed": true,
          "internalType": "address",
          "name": "previousOwner",
          "type": "address"
        },
        {
          "indexed": true,
          "internalType": "address",
          "name": "newOwner",
          "type": "address"
        }
      ],
      "name": "OwnershipTransferred",
      "type": "event"
    },
    {
      "anonymous": false,
      "inputs": [
        {
          "indexed": true,
          "internalType": "address",
          "name": "_announcer",
          "type": "address"
        },
        {
          "indexed": false,
          "internalType": "uint256",
          "name": "_tokenId",
          "type": "uint256"
        },
        {
          "indexed": false,
          "internalType": "enum RecallToken.TokenCheckingState",
          "name": "_resultState",
          "type": "uint8"
        }
      ],
      "name": "TokenChecked",
      "type": "event"
    },
    {
      "anonymous": false,
      "inputs": [
        {
          "indexed": true,
          "internalType": "address",
          "name": "_announcer",
          "type": "address"
        },
        {
          "indexed": false,
          "internalType": "uint256",
          "name": "_tokenId",
          "type": "uint256"
        },
        {
          "indexed": false,
          "internalType": "uint256",
          "name": "_mergedTokenId",
          "type": "uint256"
        },
        {
          "indexed": false,
          "internalType": "address[]",
          "name": "_manufacturers",
          "type": "address[]"
        }
      ],
      "name": "TokenMerged",
      "type": "event"
    },
    {
      "anonymous": false,
      "inputs": [
        {
          "indexed": true,
          "internalType": "address",
          "name": "operator",
          "type": "address"
        },
        {
          "indexed": true,
          "internalType": "address",
          "name": "from",
          "type": "address"
        },
        {
          "indexed": true,
          "internalType": "address",
          "name": "to",
          "type": "address"
        },
        {
          "indexed": false,
          "internalType": "uint256[]",
          "name": "ids",
          "type": "uint256[]"
        },
        {
          "indexed": false,
          "internalType": "uint256[]",
          "name": "values",
          "type": "uint256[]"
        }
      ],
      "name": "TransferBatch",
      "type": "event"
    },
    {
      "anonymous": false,
      "inputs": [
        {
          "indexed": true,
          "internalType": "address",
          "name": "operator",
          "type": "address"
        },
        {
          "indexed": true,
          "internalType": "address",
          "name": "from",
          "type": "address"
        },
        {
          "indexed": true,
          "internalType": "address",
          "name": "to",
          "type": "address"
        },
        {
          "indexed": false,
          "internalType": "uint256",
          "name": "id",
          "type": "uint256"
        },
        {
          "indexed": false,
          "internalType": "uint256",
          "name": "value",
          "type": "uint256"
        }
      ],
      "name": "TransferSingle",
      "type": "event"
    },
    {
      "anonymous": false,
      "inputs": [
        {
          "indexed": false,
          "internalType": "string",
          "name": "value",
          "type": "string"
        },
        {
          "indexed": true,
          "internalType": "uint256",
          "name": "id",
          "type": "uint256"
        }
      ],
      "name": "URI",
      "type": "event"
    },
    {
      "inputs": [
        {
          "internalType": "address",
          "name": "_from",
          "type": "address"
        },
        {
          "internalType": "uint256",
          "name": "_tokenId",
          "type": "uint256"
        }
      ],
      "name": "_authorizedForToken",
      "outputs": [],
      "stateMutability": "view",
      "type": "function"
    },
    {
      "inputs": [
        {
          "internalType": "uint256",
          "name": "_tokenId",
          "type": "uint256"
        }
      ],
      "name": "announceDefect",
      "outputs": [],
      "stateMutability": "nonpayable",
      "type": "function"
    },
    {
      "inputs": [
        {
          "internalType": "address",
          "name": "account",
          "type": "address"
        },
        {
          "internalType": "uint256",
          "name": "id",
          "type": "uint256"
        }
      ],
      "name": "balanceOf",
      "outputs": [
        {
          "internalType": "uint256",
          "name": "",
          "type": "uint256"
        }
      ],
      "stateMutability": "view",
      "type": "function"
    },
    {
      "inputs": [
        {
          "internalType": "address[]",
          "name": "accounts",
          "type": "address[]"
        },
        {
          "internalType": "uint256[]",
          "name": "ids",
          "type": "uint256[]"
        }
      ],
      "name": "balanceOfBatch",
      "outputs": [
        {
          "internalType": "uint256[]",
          "name": "",
          "type": "uint256[]"
        }
      ],
      "stateMutability": "view",
      "type": "function"
    },
    {
      "inputs": [
        {
          "internalType": "address",
          "name": "_receiver",
          "type": "address"
        },
        {
          "internalType": "uint256[]",
          "name": "_tokenIds",
          "type": "uint256[]"
        },
        {
          "internalType": "uint256[]",
          "name": "_amounts",
          "type": "uint256[]"
        },
        {
          "internalType": "bytes",
          "name": "data",
          "type": "bytes"
        },
        {
          "internalType": "bool",
          "name": "_internal",
          "type": "bool"
        }
      ],
      "name": "batchTransferRecallToken",
      "outputs": [],
      "stateMutability": "nonpayable",
      "type": "function"
    },
    {
      "inputs": [
        {
          "internalType": "uint256",
          "name": "_tokenId",
          "type": "uint256"
        },
        {
          "internalType": "enum RecallToken.TokenCheckingState",
          "name": "_tokenCheckingState",
          "type": "uint8"
        }
      ],
      "name": "checkToken",
      "outputs": [],
      "stateMutability": "nonpayable",
      "type": "function"
    },
    {
      "inputs": [
        {
          "internalType": "uint256[]",
          "name": "_tokenIds",
          "type": "uint256[]"
        }
      ],
      "name": "forwardRecall",
      "outputs": [],
      "stateMutability": "nonpayable",
      "type": "function"
    },
    {
      "inputs": [
        {
          "internalType": "uint256",
          "name": "_tokenId",
          "type": "uint256"
        }
      ],
      "name": "getInProductionValue",
      "outputs": [
        {
          "internalType": "bool",
          "name": "",
          "type": "bool"
        }
      ],
      "stateMutability": "view",
      "type": "function"
    },
    {
      "inputs": [
        {
          "internalType": "address",
          "name": "_address",
          "type": "address"
        },
        {
          "internalType": "uint256",
          "name": "_tokenId",
          "type": "uint256"
        }
      ],
      "name": "getManufacturerTokenCheckingStateValue",
      "outputs": [
        {
          "internalType": "enum RecallToken.TokenCheckingState",
          "name": "",
          "type": "uint8"
        }
      ],
      "stateMutability": "view",
      "type": "function"
    },
    {
      "inputs": [
        {
          "internalType": "uint256",
          "name": "_tokenId",
          "type": "uint256"
        }
      ],
      "name": "getManufacturersOfToken",
      "outputs": [
        {
          "internalType": "address[]",
          "name": "",
          "type": "address[]"
        }
      ],
      "stateMutability": "view",
      "type": "function"
    },
    {
      "inputs": [
        {
          "internalType": "uint256",
          "name": "_tokenId",
          "type": "uint256"
        }
      ],
      "name": "getTokenCheckingState",
      "outputs": [
        {
          "internalType": "enum RecallToken.TokenCheckingState",
          "name": "",
          "type": "uint8"
        }
      ],
      "stateMutability": "view",
      "type": "function"
    },
    {
      "inputs": [
        {
          "internalType": "uint256",
          "name": "_tokenId",
          "type": "uint256"
        }
      ],
      "name": "getTokenStateValue",
      "outputs": [
        {
          "internalType": "enum RecallToken.TokenState",
          "name": "",
          "type": "uint8"
        }
      ],
      "stateMutability": "view",
      "type": "function"
    },
    {
      "inputs": [
        {
          "internalType": "uint256",
          "name": "",
          "type": "uint256"
        }
      ],
      "name": "inProduction",
      "outputs": [
        {
          "internalType": "bool",
          "name": "",
          "type": "bool"
        }
      ],
      "stateMutability": "view",
      "type": "function"
    },
    {
      "inputs": [
        {
          "internalType": "address",
          "name": "account",
          "type": "address"
        },
        {
          "internalType": "address",
          "name": "operator",
          "type": "address"
        }
      ],
      "name": "isApprovedForAll",
      "outputs": [
        {
          "internalType": "bool",
          "name": "",
          "type": "bool"
        }
      ],
      "stateMutability": "view",
      "type": "function"
    },
    {
      "inputs": [
        {
          "internalType": "uint256",
          "name": "_tokenIdMergeTo",
          "type": "uint256"
        },
        {
          "internalType": "uint256",
          "name": "_tokenIdMergeSource",
          "type": "uint256"
        }
      ],
      "name": "mergeToken",
      "outputs": [],
      "stateMutability": "nonpayable",
      "type": "function"
    },
    {
      "inputs": [
        {
          "internalType": "address",
          "name": "to",
          "type": "address"
        },
        {
          "internalType": "uint256",
          "name": "id",
          "type": "uint256"
        },
        {
          "internalType": "uint256",
          "name": "amount",
          "type": "uint256"
        },
        {
          "internalType": "bytes",
          "name": "data",
          "type": "bytes"
        }
      ],
      "name": "mint",
      "outputs": [],
      "stateMutability": "nonpayable",
      "type": "function"
    },
    {
      "inputs": [
        {
          "internalType": "address",
          "name": "to",
          "type": "address"
        },
        {
          "internalType": "uint256[]",
          "name": "ids",
          "type": "uint256[]"
        },
        {
          "internalType": "uint256[]",
          "name": "amounts",
          "type": "uint256[]"
        },
        {
          "internalType": "bytes",
          "name": "data",
          "type": "bytes"
        }
      ],
      "name": "mintBatch",
      "outputs": [],
      "stateMutability": "nonpayable",
      "type": "function"
    },
    {
      "inputs": [],
      "name": "owner",
      "outputs": [
        {
          "internalType": "address",
          "name": "",
          "type": "address"
        }
      ],
      "stateMutability": "view",
      "type": "function"
    },
    {
      "inputs": [],
      "name": "renounceOwnership",
      "outputs": [],
      "stateMutability": "nonpayable",
      "type": "function"
    },
    {
      "inputs": [
        {
          "internalType": "address",
          "name": "from",
          "type": "address"
        },
        {
          "internalType": "address",
          "name": "to",
          "type": "address"
        },
        {
          "internalType": "uint256[]",
          "name": "ids",
          "type": "uint256[]"
        },
        {
          "internalType": "uint256[]",
          "name": "amounts",
          "type": "uint256[]"
        },
        {
          "internalType": "bytes",
          "name": "data",
          "type": "bytes"
        }
      ],
      "name": "safeBatchTransferFrom",
      "outputs": [],
      "stateMutability": "nonpayable",
      "type": "function"
    },
    {
      "inputs": [
        {
          "internalType": "address",
          "name": "from",
          "type": "address"
        },
        {
          "internalType": "address",
          "name": "to",
          "type": "address"
        },
        {
          "internalType": "uint256",
          "name": "id",
          "type": "uint256"
        },
        {
          "internalType": "uint256",
          "name": "amount",
          "type": "uint256"
        },
        {
          "internalType": "bytes",
          "name": "data",
          "type": "bytes"
        }
      ],
      "name": "safeTransferFrom",
      "outputs": [],
      "stateMutability": "nonpayable",
      "type": "function"
    },
    {
      "inputs": [
        {
          "internalType": "address",
          "name": "operator",
          "type": "address"
        },
        {
          "internalType": "bool",
          "name": "approved",
          "type": "bool"
        }
      ],
      "name": "setApprovalForAll",
      "outputs": [],
      "stateMutability": "nonpayable",
      "type": "function"
    },
    {
      "inputs": [
        {
          "internalType": "bytes4",
          "name": "interfaceId",
          "type": "bytes4"
        }
      ],
      "name": "supportsInterface",
      "outputs": [
        {
          "internalType": "bool",
          "name": "",
          "type": "bool"
        }
      ],
      "stateMutability": "view",
      "type": "function"
    },
    {
      "inputs": [
        {
          "internalType": "uint256",
          "name": "",
          "type": "uint256"
        }
      ],
      "name": "tokenCheckingStates",
      "outputs": [
        {
          "internalType": "enum RecallToken.TokenCheckingState",
          "name": "",
          "type": "uint8"
        }
      ],
      "stateMutability": "view",
      "type": "function"
    },
    {
      "inputs": [
        {
          "internalType": "uint256",
          "name": "",
          "type": "uint256"
        }
      ],
      "name": "tokenStates",
      "outputs": [
        {
          "internalType": "enum RecallToken.TokenState",
          "name": "",
          "type": "uint8"
        }
      ],
      "stateMutability": "view",
      "type": "function"
    },
    {
      "inputs": [
        {
          "internalType": "address",
          "name": "newOwner",
          "type": "address"
        }
      ],
      "name": "transferOwnership",
      "outputs": [],
      "stateMutability": "nonpayable",
      "type": "function"
    },
    {
      "inputs": [
        {
          "internalType": "address",
          "name": "_receiver",
          "type": "address"
        },
        {
          "internalType": "uint256",
          "name": "_tokenId",
          "type": "uint256"
        },
        {
          "internalType": "uint256",
          "name": "amount",
          "type": "uint256"
        },
        {
          "internalType": "bytes",
          "name": "data",
          "type": "bytes"
        },
        {
          "internalType": "bool",
          "name": "_internal",
          "type": "bool"
        }
      ],
      "name": "transferRecallToken",
      "outputs": [],
      "stateMutability": "nonpayable",
      "type": "function"
    },
    {
      "inputs": [
        {
          "internalType": "uint256",
          "name": "",
          "type": "uint256"
        }
      ],
      "name": "uri",
      "outputs": [
        {
          "internalType": "string",
          "name": "",
          "type": "string"
        }
      ],
      "stateMutability": "view",
      "type": "function"
    }
  ],
  "bytecode": "0x60806040523480156200001157600080fd5b50604051620053cf380380620053cf8339818101604052810190620000379190620002e7565b8062000049816200007160201b60201c565b506200006a6200005e6200008660201b60201c565b6200008e60201b60201c565b506200066a565b806002908162000082919062000583565b5050565b600033905090565b6000600360009054906101000a900473ffffffffffffffffffffffffffffffffffffffff16905081600360006101000a81548173ffffffffffffffffffffffffffffffffffffffff021916908373ffffffffffffffffffffffffffffffffffffffff1602179055508173ffffffffffffffffffffffffffffffffffffffff168173ffffffffffffffffffffffffffffffffffffffff167f8be0079c531659141344cd1fd0a4f28419497f9722a3daafe3b4186f6b6457e060405160405180910390a35050565b6000604051905090565b600080fd5b600080fd5b600080fd5b600080fd5b6000601f19601f8301169050919050565b7f4e487b7100000000000000000000000000000000000000000000000000000000600052604160045260246000fd5b620001bd8262000172565b810181811067ffffffffffffffff82111715620001df57620001de62000183565b5b80604052505050565b6000620001f462000154565b9050620002028282620001b2565b919050565b600067ffffffffffffffff82111562000225576200022462000183565b5b620002308262000172565b9050602081019050919050565b60005b838110156200025d57808201518184015260208101905062000240565b60008484015250505050565b6000620002806200027a8462000207565b620001e8565b9050828152602081018484840111156200029f576200029e6200016d565b5b620002ac8482856200023d565b509392505050565b600082601f830112620002cc57620002cb62000168565b5b8151620002de84826020860162000269565b91505092915050565b6000602082840312156200030057620002ff6200015e565b5b600082015167ffffffffffffffff81111562000321576200032062000163565b5b6200032f84828501620002b4565b91505092915050565b600081519050919050565b7f4e487b7100000000000000000000000000000000000000000000000000000000600052602260045260246000fd5b600060028204905060018216806200038b57607f821691505b602082108103620003a157620003a062000343565b5b50919050565b60008190508160005260206000209050919050565b60006020601f8301049050919050565b600082821b905092915050565b6000600883026200040b7fffffffffffffffffffffffffffffffffffffffffffffffffffffffffffffffff82620003cc565b620004178683620003cc565b95508019841693508086168417925050509392505050565b6000819050919050565b6000819050919050565b6000620004646200045e62000458846200042f565b62000439565b6200042f565b9050919050565b6000819050919050565b620004808362000443565b620004986200048f826200046b565b848454620003d9565b825550505050565b600090565b620004af620004a0565b620004bc81848462000475565b505050565b5b81811015620004e457620004d8600082620004a5565b600181019050620004c2565b5050565b601f8211156200053357620004fd81620003a7565b6200050884620003bc565b8101602085101562000518578190505b620005306200052785620003bc565b830182620004c1565b50505b505050565b600082821c905092915050565b6000620005586000198460080262000538565b1980831691505092915050565b600062000573838362000545565b9150826002028217905092915050565b6200058e8262000338565b67ffffffffffffffff811115620005aa57620005a962000183565b5b620005b6825462000372565b620005c3828285620004e8565b600060209050601f831160018114620005fb5760008415620005e6578287015190505b620005f2858262000565565b86555062000662565b601f1984166200060b86620003a7565b60005b8281101562000635578489015182556001820191506020850194506020810190506200060e565b8683101562000655578489015162000651601f89168262000545565b8355505b6001600288020188555050505b505050505050565b614d55806200067a6000396000f3fe608060405234801561001057600080fd5b50600436106101c35760003560e01c8063857af47b116100f9578063aa9f3eca11610097578063e985e9c511610071578063e985e9c514610548578063f242432a14610578578063f2fde38b14610594578063f3498223146105b0576101c3565b8063aa9f3eca146104cc578063ab588748146104fc578063d9ef919514610518576101c3565b806395dbe2db116100d357806395dbe2db14610448578063a0245f7114610478578063a22cb46514610494578063a76fe719146104b0576101c3565b8063857af47b146103ca578063876ca0d2146103fa5780638da5cb5b1461042a576101c3565b80632eb2c2d6116101665780634e1273f4116101405780634e1273f41461035857806369c7ca5214610388578063715018a6146103a4578063731133e9146103ae576101c3565b80632eb2c2d6146102f0578063432f41131461030c57806344c70be514610328576101c3565b80631ae82590116101a25780631ae82590146102585780631ef65b12146102885780631f7fdffa146102a45780632e477ad9146102c0576101c3565b8062fdd58e146101c857806301ffc9a7146101f85780630e89341c14610228575b600080fd5b6101e260048036038101906101dd919061306d565b6105cc565b6040516101ef91906130bc565b60405180910390f35b610212600480360381019061020d919061312f565b610694565b60405161021f9190613177565b60405180910390f35b610242600480360381019061023d9190613192565b610776565b60405161024f919061324f565b60405180910390f35b610272600480360381019061026d9190613192565b61080a565b60405161027f91906132e8565b60405180910390f35b6102a2600480360381019061029d9190613303565b61082a565b005b6102be60048036038101906102b99190613540565b610a4a565b005b6102da60048036038101906102d59190613192565b610b5f565b6040516102e79190613643565b60405180910390f35b61030a6004803603810190610305919061365e565b610b89565b005b61032660048036038101906103219190613192565b610c2a565b005b610342600480360381019061033d919061306d565b610f3a565b60405161034f91906132e8565b60405180910390f35b610372600480360381019061036d91906137f0565b610fa2565b60405161037f9190613926565b60405180910390f35b6103a2600480360381019061039d91906139cf565b6110bb565b005b6103ac611278565b005b6103c860048036038101906103c39190613aa7565b61128c565b005b6103e460048036038101906103df9190613192565b61134d565b6040516103f19190613177565b60405180910390f35b610414600480360381019061040f9190613192565b611377565b60405161042191906132e8565b60405180910390f35b6104326113a1565b60405161043f9190613b39565b60405180910390f35b610462600480360381019061045d9190613192565b6113cb565b60405161046f9190613177565b60405180910390f35b610492600480360381019061048d919061306d565b6113eb565b005b6104ae60048036038101906104a99190613b54565b6114d0565b005b6104ca60048036038101906104c59190613bb9565b6114e6565b005b6104e660048036038101906104e19190613192565b61180e565b6040516104f39190613643565b60405180910390f35b61051660048036038101906105119190613bf9565b61182e565b005b610532600480360381019061052d9190613192565b611a64565b60405161053f9190613d04565b60405180910390f35b610562600480360381019061055d9190613d26565b611b05565b60405161056f9190613177565b60405180910390f35b610592600480360381019061058d9190613d66565b611b99565b005b6105ae60048036038101906105a99190613dfd565b611c3a565b005b6105ca60048036038101906105c59190613e2a565b611cbd565b005b60008073ffffffffffffffffffffffffffffffffffffffff168373ffffffffffffffffffffffffffffffffffffffff160361063c576040517f08c379a000000000000000000000000000000000000000000000000000000000815260040161063390613f33565b60405180910390fd5b60008083815260200190815260200160002060008473ffffffffffffffffffffffffffffffffffffffff1673ffffffffffffffffffffffffffffffffffffffff16815260200190815260200160002054905092915050565b60007fd9b67a26000000000000000000000000000000000000000000000000000000007bffffffffffffffffffffffffffffffffffffffffffffffffffffffff1916827bffffffffffffffffffffffffffffffffffffffffffffffffffffffff1916148061075f57507f0e89341c000000000000000000000000000000000000000000000000000000007bffffffffffffffffffffffffffffffffffffffffffffffffffffffff1916827bffffffffffffffffffffffffffffffffffffffffffffffffffffffff1916145b8061076f575061076e82611d70565b5b9050919050565b60606002805461078590613f82565b80601f01602080910402602001604051908101604052809291908181526020018280546107b190613f82565b80156107fe5780601f106107d3576101008083540402835291602001916107fe565b820191906000526020600020905b8154815290600101906020018083116107e157829003601f168201915b50505050509050919050565b60066020528060005260406000206000915054906101000a900460ff1681565b816000805b60046000848152602001908152602001600020805490508110156108f25760046000848152602001908152602001600020818154811061087257610871613fb3565b5b9060005260206000200160009054906101000a900473ffffffffffffffffffffffffffffffffffffffff1673ffffffffffffffffffffffffffffffffffffffff166108bb611dda565b73ffffffffffffffffffffffffffffffffffffffff16036108df57600191506108f2565b80806108ea90614011565b91505061082f565b50600115158115151461093a576040517f08c379a0000000000000000000000000000000000000000000000000000000008152600401610931906140a5565b60405180910390fd5b61094b610945611dda565b856113eb565b60005b60046000858152602001908152602001600020805490508110156109d8576109c560046000868152602001908152602001600020828154811061099457610993613fb3565b5b9060005260206000200160009054906101000a900473ffffffffffffffffffffffffffffffffffffffff1686611de2565b80806109d090614011565b91505061094e565b506109e1611dda565b73ffffffffffffffffffffffffffffffffffffffff167f5fad86333e1e2b687abcc2f48beee1ec5baed9d19ca66711cecb8a38ec5c907c858560046000898152602001908152602001600020604051610a3c939291906141b1565b60405180910390a250505050565b610a52611f22565b610a5e84848484611fa0565b60005b8351811015610b5857600160086000868481518110610a8357610a82613fb3565b5b6020026020010151815260200190815260200160002060006101000a81548160ff02191690831515021790555060046000858381518110610ac757610ac6613fb3565b5b60200260200101518152602001908152602001600020610ae5611dda565b9080600181540180825580915050600190039060005260206000200160009091909190916101000a81548173ffffffffffffffffffffffffffffffffffffffff021916908373ffffffffffffffffffffffffffffffffffffffff1602179055508080610b5090614011565b915050610a61565b5050505050565b60006007600083815260200190815260200160002060009054906101000a900460ff169050919050565b610b91611dda565b73ffffffffffffffffffffffffffffffffffffffff168573ffffffffffffffffffffffffffffffffffffffff161480610bd75750610bd685610bd1611dda565b611b05565b5b610c16576040517f08c379a0000000000000000000000000000000000000000000000000000000008152600401610c0d90614261565b60405180910390fd5b610c2385858585856121cc565b5050505050565b610c3b610c35611dda565b826113eb565b60008060005b6004600085815260200190815260200160002080549050811015610d0757600460008581526020019081526020016000208181548110610c8457610c83613fb3565b5b9060005260206000200160009054906101000a900473ffffffffffffffffffffffffffffffffffffffff1673ffffffffffffffffffffffffffffffffffffffff16610ccd611dda565b73ffffffffffffffffffffffffffffffffffffffff1603610cf45760019250809150610d07565b8080610cff90614011565b915050610c41565b508115610da65760026007600085815260200190815260200160002060006101000a81548160ff02191690836002811115610d4557610d44613271565b5b0217905550610d52611dda565b73ffffffffffffffffffffffffffffffffffffffff167f8610b7b5acdeec4d9229259544302ae0e252928822763a75adb58b66ba1f2d8884604051610d9791906130bc565b60405180910390a25050610f37565b60016007600085815260200190815260200160002060006101000a81548160ff02191690836002811115610ddd57610ddc613271565b5b021790555060005b6004600085815260200190815260200160002080549050811015610ede57600160056000600460008881526020019081526020016000208481548110610e2e57610e2d613fb3565b5b9060005260206000200160009054906101000a900473ffffffffffffffffffffffffffffffffffffffff1673ffffffffffffffffffffffffffffffffffffffff1673ffffffffffffffffffffffffffffffffffffffff168152602001908152602001600020600086815260200190815260200160002060006101000a81548160ff02191690836003811115610ec657610ec5613271565b5b02179055508080610ed690614011565b915050610de5565b50610ee7611dda565b73ffffffffffffffffffffffffffffffffffffffff167f8610b7b5acdeec4d9229259544302ae0e252928822763a75adb58b66ba1f2d8884604051610f2c91906130bc565b60405180910390a250505b50565b6000600560008473ffffffffffffffffffffffffffffffffffffffff1673ffffffffffffffffffffffffffffffffffffffff168152602001908152602001600020600083815260200190815260200160002060009054906101000a900460ff16905092915050565b60608151835114610fe8576040517f08c379a0000000000000000000000000000000000000000000000000000000008152600401610fdf906142f3565b60405180910390fd5b6000835167ffffffffffffffff81111561100557611004613348565b5b6040519080825280602002602001820160405280156110335781602001602082028036833780820191505090505b50905060005b84518110156110b05761108085828151811061105857611057613fb3565b5b602002602001015185838151811061107357611072613fb3565b5b60200260200101516105cc565b82828151811061109357611092613fb3565b5b602002602001018181525050806110a990614011565b9050611039565b508091505092915050565b6111516110c6611dda565b88888880806020026020016040519081016040528093929190818152602001838360200280828437600081840152601f19601f82011690508083019250505050505050878780806020026020016040519081016040528093929190818152602001838360200280828437600081840152601f19601f8201169050808301925050505050505086610b89565b60005b8686905081101561126e576008600088888481811061117657611175613fb3565b5b90506020020135815260200190815260200160002060009054906101000a900460ff1680156111a25750815b156111cb576111ca888888848181106111be576111bd613fb3565b5b90506020020135611de2565b5b811580156112105750600860008888848181106111eb576111ea613fb3565b5b90506020020135815260200190815260200160002060009054906101000a900460ff16155b1561125b5760006008600089898581811061122e5761122d613fb3565b5b90506020020135815260200190815260200160002060006101000a81548160ff0219169083151502179055505b808061126690614011565b915050611154565b5050505050505050565b611280611f22565b61128a60006124ed565b565b611294611f22565b6112a0848484846125b3565b60016008600085815260200190815260200160002060006101000a81548160ff021916908315150217905550600460008481526020019081526020016000206112e7611dda565b9080600181540180825580915050600190039060005260206000200160009091909190916101000a81548173ffffffffffffffffffffffffffffffffffffffff021916908373ffffffffffffffffffffffffffffffffffffffff16021790555050505050565b60006008600083815260200190815260200160002060009054906101000a900460ff169050919050565b60006006600083815260200190815260200160002060009054906101000a900460ff169050919050565b6000600360009054906101000a900473ffffffffffffffffffffffffffffffffffffffff16905090565b60086020528060005260406000206000915054906101000a900460ff1681565b60016113fe6113f8611dda565b836105cc565b101561143f576040517f08c379a00000000000000000000000000000000000000000000000000000000081526004016114369061435f565b60405180910390fd5b611447611dda565b73ffffffffffffffffffffffffffffffffffffffff168273ffffffffffffffffffffffffffffffffffffffff16148061148d575061148c82611487611dda565b611b05565b5b6114cc576040517f08c379a00000000000000000000000000000000000000000000000000000000081526004016114c3906143f1565b60405180910390fd5b5050565b6114e26114db611dda565b8383612763565b5050565b816000805b60046000848152602001908152602001600020805490508110156115ae5760046000848152602001908152602001600020818154811061152e5761152d613fb3565b5b9060005260206000200160009054906101000a900473ffffffffffffffffffffffffffffffffffffffff1673ffffffffffffffffffffffffffffffffffffffff16611577611dda565b73ffffffffffffffffffffffffffffffffffffffff160361159b57600191506115ae565b80806115a690614011565b9150506114eb565b5060011515811515146115f6576040517f08c379a00000000000000000000000000000000000000000000000000000000081526004016115ed906140a5565b60405180910390fd5b6000805b60046000878152602001908152602001600020805490508110156116bc5760046000878152602001908152602001600020818154811061163d5761163c613fb3565b5b9060005260206000200160009054906101000a900473ffffffffffffffffffffffffffffffffffffffff1673ffffffffffffffffffffffffffffffffffffffff16611686611dda565b73ffffffffffffffffffffffffffffffffffffffff16036116a9578091506116bc565b80806116b490614011565b9150506115fa565b50600160038111156116d1576116d0613271565b5b600560006116dd611dda565b73ffffffffffffffffffffffffffffffffffffffff1673ffffffffffffffffffffffffffffffffffffffff168152602001908152602001600020600087815260200190815260200160002060009054906101000a900460ff16600381111561174857611747613271565b5b14611788576040517f08c379a000000000000000000000000000000000000000000000000000000000815260040161177f9061445d565b60405180910390fd5b8360056000611795611dda565b73ffffffffffffffffffffffffffffffffffffffff1673ffffffffffffffffffffffffffffffffffffffff168152602001908152602001600020600087815260200190815260200160002060006101000a81548160ff0219169083600381111561180257611801613271565b5b02179055505050505050565b60076020528060005260406000206000915054906101000a900460ff1681565b60005b82829050811015611991576000805b6004600086868681811061185757611856613fb3565b5b90506020020135815260200190815260200160002080549050811015611935576004600086868681811061188e5761188d613fb3565b5b90506020020135815260200190815260200160002081815481106118b5576118b4613fb3565b5b9060005260206000200160009054906101000a900473ffffffffffffffffffffffffffffffffffffffff1673ffffffffffffffffffffffffffffffffffffffff166118fe611dda565b73ffffffffffffffffffffffffffffffffffffffff16036119225760019150611935565b808061192d90614011565b915050611840565b50600115158115151461197d576040517f08c379a0000000000000000000000000000000000000000000000000000000008152600401611974906144c9565b60405180910390fd5b50808061198990614011565b915050611831565b5060005b82829050811015611a08576002600760008585858181106119b9576119b8613fb3565b5b90506020020135815260200190815260200160002060006101000a81548160ff021916908360028111156119f0576119ef613271565b5b02179055508080611a0090614011565b915050611995565b50611a11611dda565b73ffffffffffffffffffffffffffffffffffffffff167f3d3735b6b82dc6dbc33760218a1dc3a6cf77780e1774c8cd7d74dec8da518aa08383604051611a58929190614553565b60405180910390a25050565b606060046000838152602001908152602001600020805480602002602001604051908101604052809291908181526020018280548015611af957602002820191906000526020600020905b8160009054906101000a900473ffffffffffffffffffffffffffffffffffffffff1673ffffffffffffffffffffffffffffffffffffffff1681526020019060010190808311611aaf575b50505050509050919050565b6000600160008473ffffffffffffffffffffffffffffffffffffffff1673ffffffffffffffffffffffffffffffffffffffff16815260200190815260200160002060008373ffffffffffffffffffffffffffffffffffffffff1673ffffffffffffffffffffffffffffffffffffffff16815260200190815260200160002060009054906101000a900460ff16905092915050565b611ba1611dda565b73ffffffffffffffffffffffffffffffffffffffff168573ffffffffffffffffffffffffffffffffffffffff161480611be75750611be685611be1611dda565b611b05565b5b611c26576040517f08c379a0000000000000000000000000000000000000000000000000000000008152600401611c1d90614261565b60405180910390fd5b611c3385858585856128cf565b5050505050565b611c42611f22565b600073ffffffffffffffffffffffffffffffffffffffff168173ffffffffffffffffffffffffffffffffffffffff1603611cb1576040517f08c379a0000000000000000000000000000000000000000000000000000000008152600401611ca8906145e9565b60405180910390fd5b611cba816124ed565b50565b611cd1611cc8611dda565b86868686611b99565b6008600085815260200190815260200160002060009054906101000a900460ff168015611cfb5750805b15611d0b57611d0a8585611de2565b5b80158015611d3757506008600085815260200190815260200160002060009054906101000a900460ff16155b15611d695760006008600086815260200190815260200160002060006101000a81548160ff0219169083151502179055505b5050505050565b60007f01ffc9a7000000000000000000000000000000000000000000000000000000007bffffffffffffffffffffffffffffffffffffffffffffffffffffffff1916827bffffffffffffffffffffffffffffffffffffffffffffffffffffffff1916149050919050565b600033905090565b6000805b6004600084815260200190815260200160002080549050811015611ea2578373ffffffffffffffffffffffffffffffffffffffff16600460008581526020019081526020016000208281548110611e4057611e3f613fb3565b5b9060005260206000200160009054906101000a900473ffffffffffffffffffffffffffffffffffffffff1673ffffffffffffffffffffffffffffffffffffffff1603611e8f5760019150611ea2565b8080611e9a90614011565b915050611de6565b5080611f1d5760046000838152602001908152602001600020839080600181540180825580915050600190039060005260206000200160009091909190916101000a81548173ffffffffffffffffffffffffffffffffffffffff021916908373ffffffffffffffffffffffffffffffffffffffff1602179055505b505050565b611f2a611dda565b73ffffffffffffffffffffffffffffffffffffffff16611f486113a1565b73ffffffffffffffffffffffffffffffffffffffff1614611f9e576040517f08c379a0000000000000000000000000000000000000000000000000000000008152600401611f9590614655565b60405180910390fd5b565b600073ffffffffffffffffffffffffffffffffffffffff168473ffffffffffffffffffffffffffffffffffffffff160361200f576040517f08c379a0000000000000000000000000000000000000000000000000000000008152600401612006906146e7565b60405180910390fd5b8151835114612053576040517f08c379a000000000000000000000000000000000000000000000000000000000815260040161204a90614779565b60405180910390fd5b600061205d611dda565b905061206e81600087878787612b6a565b60005b84518110156121275783818151811061208d5761208c613fb3565b5b60200260200101516000808784815181106120ab576120aa613fb3565b5b6020026020010151815260200190815260200160002060008873ffffffffffffffffffffffffffffffffffffffff1673ffffffffffffffffffffffffffffffffffffffff168152602001908152602001600020600082825461210d9190614799565b92505081905550808061211f90614011565b915050612071565b508473ffffffffffffffffffffffffffffffffffffffff16600073ffffffffffffffffffffffffffffffffffffffff168273ffffffffffffffffffffffffffffffffffffffff167f4a39dc06d4c0dbc64b70af90fd698a233a518aa5d07e595d983b8c0526c8f7fb878760405161219f9291906147cd565b60405180910390a46121b681600087878787612b72565b6121c581600087878787612b7a565b5050505050565b8151835114612210576040517f08c379a000000000000000000000000000000000000000000000000000000000815260040161220790614779565b60405180910390fd5b600073ffffffffffffffffffffffffffffffffffffffff168473ffffffffffffffffffffffffffffffffffffffff160361227f576040517f08c379a000000000000000000000000000000000000000000000000000000000815260040161227690614876565b60405180910390fd5b6000612289611dda565b9050612299818787878787612b6a565b60005b845181101561244a5760008582815181106122ba576122b9613fb3565b5b6020026020010151905060008583815181106122d9576122d8613fb3565b5b60200260200101519050600080600084815260200190815260200160002060008b73ffffffffffffffffffffffffffffffffffffffff1673ffffffffffffffffffffffffffffffffffffffff1681526020019081526020016000205490508181101561237a576040517f08c379a000000000000000000000000000000000000000000000000000000000815260040161237190614908565b60405180910390fd5b81810360008085815260200190815260200160002060008c73ffffffffffffffffffffffffffffffffffffffff1673ffffffffffffffffffffffffffffffffffffffff168152602001908152602001600020819055508160008085815260200190815260200160002060008b73ffffffffffffffffffffffffffffffffffffffff1673ffffffffffffffffffffffffffffffffffffffff168152602001908152602001600020600082825461242f9190614799565b925050819055505050508061244390614011565b905061229c565b508473ffffffffffffffffffffffffffffffffffffffff168673ffffffffffffffffffffffffffffffffffffffff168273ffffffffffffffffffffffffffffffffffffffff167f4a39dc06d4c0dbc64b70af90fd698a233a518aa5d07e595d983b8c0526c8f7fb87876040516124c19291906147cd565b60405180910390a46124d7818787878787612b72565b6124e5818787878787612b7a565b505050505050565b6000600360009054906101000a900473ffffffffffffffffffffffffffffffffffffffff16905081600360006101000a81548173ffffffffffffffffffffffffffffffffffffffff021916908373ffffffffffffffffffffffffffffffffffffffff1602179055508173ffffffffffffffffffffffffffffffffffffffff168173ffffffffffffffffffffffffffffffffffffffff167f8be0079c531659141344cd1fd0a4f28419497f9722a3daafe3b4186f6b6457e060405160405180910390a35050565b600073ffffffffffffffffffffffffffffffffffffffff168473ffffffffffffffffffffffffffffffffffffffff1603612622576040517f08c379a0000000000000000000000000000000000000000000000000000000008152600401612619906146e7565b60405180910390fd5b600061262c611dda565b9050600061263985612d51565b9050600061264685612d51565b905061265783600089858589612b6a565b8460008088815260200190815260200160002060008973ffffffffffffffffffffffffffffffffffffffff1673ffffffffffffffffffffffffffffffffffffffff16815260200190815260200160002060008282546126b69190614799565b925050819055508673ffffffffffffffffffffffffffffffffffffffff16600073ffffffffffffffffffffffffffffffffffffffff168473ffffffffffffffffffffffffffffffffffffffff167fc3d58168c5ae7397731d063d5bbf3d657854427343f4c083240f7aacaa2d0f628989604051612734929190614928565b60405180910390a461274b83600089858589612b72565b61275a83600089898989612dcb565b50505050505050565b8173ffffffffffffffffffffffffffffffffffffffff168373ffffffffffffffffffffffffffffffffffffffff16036127d1576040517f08c379a00000000000000000000000000000000000000000000000000000000081526004016127c8906149c3565b60405180910390fd5b80600160008573ffffffffffffffffffffffffffffffffffffffff1673ffffffffffffffffffffffffffffffffffffffff16815260200190815260200160002060008473ffffffffffffffffffffffffffffffffffffffff1673ffffffffffffffffffffffffffffffffffffffff16815260200190815260200160002060006101000a81548160ff0219169083151502179055508173ffffffffffffffffffffffffffffffffffffffff168373ffffffffffffffffffffffffffffffffffffffff167f17307eab39ab6107e8899845ad3d59bd9653f200f220920489ca2b5937696c31836040516128c29190613177565b60405180910390a3505050565b600073ffffffffffffffffffffffffffffffffffffffff168473ffffffffffffffffffffffffffffffffffffffff160361293e576040517f08c379a000000000000000000000000000000000000000000000000000000000815260040161293590614876565b60405180910390fd5b6000612948611dda565b9050600061295585612d51565b9050600061296285612d51565b9050612972838989858589612b6a565b600080600088815260200190815260200160002060008a73ffffffffffffffffffffffffffffffffffffffff1673ffffffffffffffffffffffffffffffffffffffff16815260200190815260200160002054905085811015612a09576040517f08c379a0000000000000000000000000000000000000000000000000000000008152600401612a0090614908565b60405180910390fd5b85810360008089815260200190815260200160002060008b73ffffffffffffffffffffffffffffffffffffffff1673ffffffffffffffffffffffffffffffffffffffff168152602001908152602001600020819055508560008089815260200190815260200160002060008a73ffffffffffffffffffffffffffffffffffffffff1673ffffffffffffffffffffffffffffffffffffffff1681526020019081526020016000206000828254612abe9190614799565b925050819055508773ffffffffffffffffffffffffffffffffffffffff168973ffffffffffffffffffffffffffffffffffffffff168573ffffffffffffffffffffffffffffffffffffffff167fc3d58168c5ae7397731d063d5bbf3d657854427343f4c083240f7aacaa2d0f628a8a604051612b3b929190614928565b60405180910390a4612b51848a8a86868a612b72565b612b5f848a8a8a8a8a612dcb565b505050505050505050565b505050505050565b505050505050565b612b998473ffffffffffffffffffffffffffffffffffffffff16612fa2565b15612d49578373ffffffffffffffffffffffffffffffffffffffff1663bc197c8187878686866040518663ffffffff1660e01b8152600401612bdf959493929190614a38565b6020604051808303816000875af1925050508015612c1b57506040513d601f19601f82011682018060405250810190612c189190614ab5565b60015b612cc057612c27614aef565b806308c379a003612c835750612c3b614b11565b80612c465750612c85565b806040517f08c379a0000000000000000000000000000000000000000000000000000000008152600401612c7a919061324f565b60405180910390fd5b505b6040517f08c379a0000000000000000000000000000000000000000000000000000000008152600401612cb790614c13565b60405180910390fd5b63bc197c8160e01b7bffffffffffffffffffffffffffffffffffffffffffffffffffffffff1916817bffffffffffffffffffffffffffffffffffffffffffffffffffffffff191614612d47576040517f08c379a0000000000000000000000000000000000000000000000000000000008152600401612d3e90614ca5565b60405180910390fd5b505b505050505050565b60606000600167ffffffffffffffff811115612d7057612d6f613348565b5b604051908082528060200260200182016040528015612d9e5781602001602082028036833780820191505090505b5090508281600081518110612db657612db5613fb3565b5b60200260200101818152505080915050919050565b612dea8473ffffffffffffffffffffffffffffffffffffffff16612fa2565b15612f9a578373ffffffffffffffffffffffffffffffffffffffff1663f23a6e6187878686866040518663ffffffff1660e01b8152600401612e30959493929190614cc5565b6020604051808303816000875af1925050508015612e6c57506040513d601f19601f82011682018060405250810190612e699190614ab5565b60015b612f1157612e78614aef565b806308c379a003612ed45750612e8c614b11565b80612e975750612ed6565b806040517f08c379a0000000000000000000000000000000000000000000000000000000008152600401612ecb919061324f565b60405180910390fd5b505b6040517f08c379a0000000000000000000000000000000000000000000000000000000008152600401612f0890614c13565b60405180910390fd5b63f23a6e6160e01b7bffffffffffffffffffffffffffffffffffffffffffffffffffffffff1916817bffffffffffffffffffffffffffffffffffffffffffffffffffffffff191614612f98576040517f08c379a0000000000000000000000000000000000000000000000000000000008152600401612f8f90614ca5565b60405180910390fd5b505b505050505050565b6000808273ffffffffffffffffffffffffffffffffffffffff163b119050919050565b6000604051905090565b600080fd5b600080fd5b600073ffffffffffffffffffffffffffffffffffffffff82169050919050565b600061300482612fd9565b9050919050565b61301481612ff9565b811461301f57600080fd5b50565b6000813590506130318161300b565b92915050565b6000819050919050565b61304a81613037565b811461305557600080fd5b50565b60008135905061306781613041565b92915050565b6000806040838503121561308457613083612fcf565b5b600061309285828601613022565b92505060206130a385828601613058565b9150509250929050565b6130b681613037565b82525050565b60006020820190506130d160008301846130ad565b92915050565b60007fffffffff0000000000000000000000000000000000000000000000000000000082169050919050565b61310c816130d7565b811461311757600080fd5b50565b60008135905061312981613103565b92915050565b60006020828403121561314557613144612fcf565b5b60006131538482850161311a565b91505092915050565b60008115159050919050565b6131718161315c565b82525050565b600060208201905061318c6000830184613168565b92915050565b6000602082840312156131a8576131a7612fcf565b5b60006131b684828501613058565b91505092915050565b600081519050919050565b600082825260208201905092915050565b60005b838110156131f95780820151818401526020810190506131de565b60008484015250505050565b6000601f19601f8301169050919050565b6000613221826131bf565b61322b81856131ca565b935061323b8185602086016131db565b61324481613205565b840191505092915050565b600060208201905081810360008301526132698184613216565b905092915050565b7f4e487b7100000000000000000000000000000000000000000000000000000000600052602160045260246000fd5b600481106132b1576132b0613271565b5b50565b60008190506132c2826132a0565b919050565b60006132d2826132b4565b9050919050565b6132e2816132c7565b82525050565b60006020820190506132fd60008301846132d9565b92915050565b6000806040838503121561331a57613319612fcf565b5b600061332885828601613058565b925050602061333985828601613058565b9150509250929050565b600080fd5b7f4e487b7100000000000000000000000000000000000000000000000000000000600052604160045260246000fd5b61338082613205565b810181811067ffffffffffffffff8211171561339f5761339e613348565b5b80604052505050565b60006133b2612fc5565b90506133be8282613377565b919050565b600067ffffffffffffffff8211156133de576133dd613348565b5b602082029050602081019050919050565b600080fd5b6000613407613402846133c3565b6133a8565b9050808382526020820190506020840283018581111561342a576134296133ef565b5b835b81811015613453578061343f8882613058565b84526020840193505060208101905061342c565b5050509392505050565b600082601f83011261347257613471613343565b5b81356134828482602086016133f4565b91505092915050565b600080fd5b600067ffffffffffffffff8211156134ab576134aa613348565b5b6134b482613205565b9050602081019050919050565b82818337600083830152505050565b60006134e36134de84613490565b6133a8565b9050828152602081018484840111156134ff576134fe61348b565b5b61350a8482856134c1565b509392505050565b600082601f83011261352757613526613343565b5b81356135378482602086016134d0565b91505092915050565b6000806000806080858703121561355a57613559612fcf565b5b600061356887828801613022565b945050602085013567ffffffffffffffff81111561358957613588612fd4565b5b6135958782880161345d565b935050604085013567ffffffffffffffff8111156135b6576135b5612fd4565b5b6135c28782880161345d565b925050606085013567ffffffffffffffff8111156135e3576135e2612fd4565b5b6135ef87828801613512565b91505092959194509250565b6003811061360c5761360b613271565b5b50565b600081905061361d826135fb565b919050565b600061362d8261360f565b9050919050565b61363d81613622565b82525050565b60006020820190506136586000830184613634565b92915050565b600080600080600060a0868803121561367a57613679612fcf565b5b600061368888828901613022565b955050602061369988828901613022565b945050604086013567ffffffffffffffff8111156136ba576136b9612fd4565b5b6136c68882890161345d565b935050606086013567ffffffffffffffff8111156136e7576136e6612fd4565b5b6136f38882890161345d565b925050608086013567ffffffffffffffff81111561371457613713612fd4565b5b61372088828901613512565b9150509295509295909350565b600067ffffffffffffffff82111561374857613747613348565b5b602082029050602081019050919050565b600061376c6137678461372d565b6133a8565b9050808382526020820190506020840283018581111561378f5761378e6133ef565b5b835b818110156137b857806137a48882613022565b845260208401935050602081019050613791565b5050509392505050565b600082601f8301126137d7576137d6613343565b5b81356137e7848260208601613759565b91505092915050565b6000806040838503121561380757613806612fcf565b5b600083013567ffffffffffffffff81111561382557613824612fd4565b5b613831858286016137c2565b925050602083013567ffffffffffffffff81111561385257613851612fd4565b5b61385e8582860161345d565b9150509250929050565b600081519050919050565b600082825260208201905092915050565b6000819050602082019050919050565b61389d81613037565b82525050565b60006138af8383613894565b60208301905092915050565b6000602082019050919050565b60006138d382613868565b6138dd8185613873565b93506138e883613884565b8060005b8381101561391957815161390088826138a3565b975061390b836138bb565b9250506001810190506138ec565b5085935050505092915050565b6000602082019050818103600083015261394081846138c8565b905092915050565b600080fd5b60008083601f84011261396357613962613343565b5b8235905067ffffffffffffffff8111156139805761397f613948565b5b60208301915083602082028301111561399c5761399b6133ef565b5b9250929050565b6139ac8161315c565b81146139b757600080fd5b50565b6000813590506139c9816139a3565b92915050565b600080600080600080600060a0888a0312156139ee576139ed612fcf565b5b60006139fc8a828b01613022565b975050602088013567ffffffffffffffff811115613a1d57613a1c612fd4565b5b613a298a828b0161394d565b9650965050604088013567ffffffffffffffff811115613a4c57613a4b612fd4565b5b613a588a828b0161394d565b9450945050606088013567ffffffffffffffff811115613a7b57613a7a612fd4565b5b613a878a828b01613512565b9250506080613a988a828b016139ba565b91505092959891949750929550565b60008060008060808587031215613ac157613ac0612fcf565b5b6000613acf87828801613022565b9450506020613ae087828801613058565b9350506040613af187828801613058565b925050606085013567ffffffffffffffff811115613b1257613b11612fd4565b5b613b1e87828801613512565b91505092959194509250565b613b3381612ff9565b82525050565b6000602082019050613b4e6000830184613b2a565b92915050565b60008060408385031215613b6b57613b6a612fcf565b5b6000613b7985828601613022565b9250506020613b8a858286016139ba565b9150509250929050565b60048110613ba157600080fd5b50565b600081359050613bb381613b94565b92915050565b60008060408385031215613bd057613bcf612fcf565b5b6000613bde85828601613058565b9250506020613bef85828601613ba4565b9150509250929050565b60008060208385031215613c1057613c0f612fcf565b5b600083013567ffffffffffffffff811115613c2e57613c2d612fd4565b5b613c3a8582860161394d565b92509250509250929050565b600081519050919050565b600082825260208201905092915050565b6000819050602082019050919050565b613c7b81612ff9565b82525050565b6000613c8d8383613c72565b60208301905092915050565b6000602082019050919050565b6000613cb182613c46565b613cbb8185613c51565b9350613cc683613c62565b8060005b83811015613cf7578151613cde8882613c81565b9750613ce983613c99565b925050600181019050613cca565b5085935050505092915050565b60006020820190508181036000830152613d1e8184613ca6565b905092915050565b60008060408385031215613d3d57613d3c612fcf565b5b6000613d4b85828601613022565b9250506020613d5c85828601613022565b9150509250929050565b600080600080600060a08688031215613d8257613d81612fcf565b5b6000613d9088828901613022565b9550506020613da188828901613022565b9450506040613db288828901613058565b9350506060613dc388828901613058565b925050608086013567ffffffffffffffff811115613de457613de3612fd4565b5b613df088828901613512565b9150509295509295909350565b600060208284031215613e1357613e12612fcf565b5b6000613e2184828501613022565b91505092915050565b600080600080600060a08688031215613e4657613e45612fcf565b5b6000613e5488828901613022565b9550506020613e6588828901613058565b9450506040613e7688828901613058565b935050606086013567ffffffffffffffff811115613e9757613e96612fd4565b5b613ea388828901613512565b9250506080613eb4888289016139ba565b9150509295509295909350565b7f455243313135353a2061646472657373207a65726f206973206e6f742061207660008201527f616c6964206f776e657200000000000000000000000000000000000000000000602082015250565b6000613f1d602a836131ca565b9150613f2882613ec1565b604082019050919050565b60006020820190508181036000830152613f4c81613f10565b9050919050565b7f4e487b7100000000000000000000000000000000000000000000000000000000600052602260045260246000fd5b60006002820490506001821680613f9a57607f821691505b602082108103613fad57613fac613f53565b5b50919050565b7f4e487b7100000000000000000000000000000000000000000000000000000000600052603260045260246000fd5b7f4e487b7100000000000000000000000000000000000000000000000000000000600052601160045260246000fd5b600061401c82613037565b91507fffffffffffffffffffffffffffffffffffffffffffffffffffffffffffffffff820361404e5761404d613fe2565b5b600182019050919050565b7f4d757374206265204d616e756661637475726572000000000000000000000000600082015250565b600061408f6014836131ca565b915061409a82614059565b602082019050919050565b600060208201905081810360008301526140be81614082565b9050919050565b600081549050919050565b60008190508160005260206000209050919050565b60008160001c9050919050565b600073ffffffffffffffffffffffffffffffffffffffff82169050919050565b6000614125614120836140e5565b6140f2565b9050919050565b60006141388254614112565b9050919050565b6000600182019050919050565b6000614157826140c5565b6141618185613c51565b935061416c836140d0565b8060005b838110156141a4576141818261412c565b61418b8882613c81565b97506141968361413f565b925050600181019050614170565b5085935050505092915050565b60006060820190506141c660008301866130ad565b6141d360208301856130ad565b81810360408301526141e5818461414c565b9050949350505050565b7f455243313135353a2063616c6c6572206973206e6f7420746f6b656e206f776e60008201527f6572206f7220617070726f766564000000000000000000000000000000000000602082015250565b600061424b602e836131ca565b9150614256826141ef565b604082019050919050565b6000602082019050818103600083015261427a8161423e565b9050919050565b7f455243313135353a206163636f756e747320616e6420696473206c656e67746860008201527f206d69736d617463680000000000000000000000000000000000000000000000602082015250565b60006142dd6029836131ca565b91506142e882614281565b604082019050919050565b6000602082019050818103600083015261430c816142d0565b9050919050565b7f4e6f20546f6b656e206f776e6564000000000000000000000000000000000000600082015250565b6000614349600e836131ca565b915061435482614313565b602082019050919050565b600060208201905081810360008301526143788161433c565b9050919050565b7f43616c6c6572206973206e6f7420546f6b656e204f776e6572206f722061707060008201527f726f766564000000000000000000000000000000000000000000000000000000602082015250565b60006143db6025836131ca565b91506143e68261437f565b604082019050919050565b6000602082019050818103600083015261440a816143ce565b9050919050565b7f546f6b656e2063616e206e6f7420626520636865636b65640000000000000000600082015250565b60006144476018836131ca565b915061445282614411565b602082019050919050565b600060208201905081810360008301526144768161443a565b9050919050565b7f4e6f742061204d616e756661637475726572206f66207468697320546f6b656e600082015250565b60006144b36020836131ca565b91506144be8261447d565b602082019050919050565b600060208201905081810360008301526144e2816144a6565b9050919050565b600080fd5b82818337505050565b60006145038385613873565b93507f07ffffffffffffffffffffffffffffffffffffffffffffffffffffffffffffff831115614536576145356144e9565b5b6020830292506145478385846144ee565b82840190509392505050565b6000602082019050818103600083015261456e8184866144f7565b90509392505050565b7f4f776e61626c653a206e6577206f776e657220697320746865207a65726f206160008201527f6464726573730000000000000000000000000000000000000000000000000000602082015250565b60006145d36026836131ca565b91506145de82614577565b604082019050919050565b60006020820190508181036000830152614602816145c6565b9050919050565b7f4f776e61626c653a2063616c6c6572206973206e6f7420746865206f776e6572600082015250565b600061463f6020836131ca565b915061464a82614609565b602082019050919050565b6000602082019050818103600083015261466e81614632565b9050919050565b7f455243313135353a206d696e7420746f20746865207a65726f2061646472657360008201527f7300000000000000000000000000000000000000000000000000000000000000602082015250565b60006146d16021836131ca565b91506146dc82614675565b604082019050919050565b60006020820190508181036000830152614700816146c4565b9050919050565b7f455243313135353a2069647320616e6420616d6f756e7473206c656e6774682060008201527f6d69736d61746368000000000000000000000000000000000000000000000000602082015250565b60006147636028836131ca565b915061476e82614707565b604082019050919050565b6000602082019050818103600083015261479281614756565b9050919050565b60006147a482613037565b91506147af83613037565b92508282019050808211156147c7576147c6613fe2565b5b92915050565b600060408201905081810360008301526147e781856138c8565b905081810360208301526147fb81846138c8565b90509392505050565b7f455243313135353a207472616e7366657220746f20746865207a65726f20616460008201527f6472657373000000000000000000000000000000000000000000000000000000602082015250565b60006148606025836131ca565b915061486b82614804565b604082019050919050565b6000602082019050818103600083015261488f81614853565b9050919050565b7f455243313135353a20696e73756666696369656e742062616c616e636520666f60008201527f72207472616e7366657200000000000000000000000000000000000000000000602082015250565b60006148f2602a836131ca565b91506148fd82614896565b604082019050919050565b60006020820190508181036000830152614921816148e5565b9050919050565b600060408201905061493d60008301856130ad565b61494a60208301846130ad565b9392505050565b7f455243313135353a2073657474696e6720617070726f76616c2073746174757360008201527f20666f722073656c660000000000000000000000000000000000000000000000602082015250565b60006149ad6029836131ca565b91506149b882614951565b604082019050919050565b600060208201905081810360008301526149dc816149a0565b9050919050565b600081519050919050565b600082825260208201905092915050565b6000614a0a826149e3565b614a1481856149ee565b9350614a248185602086016131db565b614a2d81613205565b840191505092915050565b600060a082019050614a4d6000830188613b2a565b614a5a6020830187613b2a565b8181036040830152614a6c81866138c8565b90508181036060830152614a8081856138c8565b90508181036080830152614a9481846149ff565b90509695505050505050565b600081519050614aaf81613103565b92915050565b600060208284031215614acb57614aca612fcf565b5b6000614ad984828501614aa0565b91505092915050565b60008160e01c9050919050565b600060033d1115614b0e5760046000803e614b0b600051614ae2565b90505b90565b600060443d10614b9e57614b23612fc5565b60043d036004823e80513d602482011167ffffffffffffffff82111715614b4b575050614b9e565b808201805167ffffffffffffffff811115614b695750505050614b9e565b80602083010160043d038501811115614b86575050505050614b9e565b614b9582602001850186613377565b82955050505050505b90565b7f455243313135353a207472616e7366657220746f206e6f6e2d4552433131353560008201527f526563656976657220696d706c656d656e746572000000000000000000000000602082015250565b6000614bfd6034836131ca565b9150614c0882614ba1565b604082019050919050565b60006020820190508181036000830152614c2c81614bf0565b9050919050565b7f455243313135353a204552433131353552656365697665722072656a6563746560008201527f6420746f6b656e73000000000000000000000000000000000000000000000000602082015250565b6000614c8f6028836131ca565b9150614c9a82614c33565b604082019050919050565b60006020820190508181036000830152614cbe81614c82565b9050919050565b600060a082019050614cda6000830188613b2a565b614ce76020830187613b2a565b614cf460408301866130ad565b614d0160608301856130ad565b8181036080830152614d1381846149ff565b9050969550505050505056fea264697066735822122068abc5afc833a0905f958b6e086055bc84267ccaa30dfa866e20455e4701b72664736f6c63430008120033",
  "linkReferences": {},
  "deployedLinkReferences": {}
}